:020000040800F2
:1000000090250020ED400008C53C0008D13C0008C8
:10001000DD3C0008E93C0008F53C00080000000059
:10002000000000000000000000000000013D00088A
:10003000033D000800000000053D0008073D0008E2
:1000400035410008394100083D41000841410008A0
:1000500045410008494100084D4100085141000850
:1000600055410008594100085D4100086141000800
:1000700065410008694100086D41000871410008B0
:1000800075410008794100087D410008000000002A
:100090000000000000000000000000008141000896
:1000A00085410008894100088D4100089141000800
:1000B00095410008994100089D410008A1410008B0
:1000C000A5410008A9410008AD410008B141000860
:1000D0000F3D0008B5410008B941000800000000CC
:1000E000BD410008C1410008C541000800000000F2
:1000F000000000000000000000000000C9410008EE
:1001000000000000CD410008D1410008D5410008A1
:1001100000000000000000000000000000000000DF
:10012000D9410008DD410008E1410008E54100082F
:10013000E94100080000000000000000000000008D
:10014000000000000000000000000000ED41000879
:10015000F1410008F5410008F9410008FD4100089F
:1001600001420008054200080000000000000000F5
:10017000000000000000000000000000000000007F
:10018000000000000942000800000000000000001C
:100190000D4200081142000840F0200070472DE990
:1001A000F14FB0B0924604910DF142013A9A2B9171
:1001B00099464A7000200AE01AF8011B0498309A08
:1001C00090470028049000F037860D98401C0D9051
:1001D0009AF8000058B12528EED100200021002215
:1001E0000790089109920A910B920C9104E00D98E6
:1001F00000F024BE41F001011AF8010F2028F9D0C7
:1002000023280CD02B2804D02D2805D0302809D045
:100210000BE041F00201EFE741F00401ECE741F0AF
:100220000801E9E741F01001E6E72A280FD1D9F8E3
:10023000002052F8040BC9F8002000280F9003D5C5
:1002400040420F9041F004010AF1010A14E00F92BC
:10025000DFF8F02B0AE00F9B934205DA03EB8304EF
:1002600000EB440030380F900AF1010A9AF80000C0
:10027000A0F130030A2BEED39AF800202E2A03D0E7
:100280004FF0FF300E9029E01AF8010F2A2809D10B
:10029000D9F8002052F8040BC9F800200E900AF19A
:1002A000010A1BE02D280CBF0AF1010A00200022E0
:1002B0000E92DFF8904B0BE040B90E9BA34205DA9B
:1002C00003EB830502EB4502303A0E920AF1010A74
:1002D0009AF80020A2F130030A2BEDD3ADF84010BC
:1002E0000FF664309AF8001000F0C6FE08B11AF854
:1002F000010B8DF842009DF84200682805D19AF85C
:10030000001068290CD1622006E06C2804BF9AF81E
:1003100000106C2904D171208DF842000AF1010A05
:1003200012AA06921AF801BBBBF125002CD01C388A
:1003300000F09781001F022840F29381133800F0EB
:10034000AD84093800F08D81801E00F04285401E8A
:1003500000F0EF84401E022840F28381001F00F06D
:10036000E884401F00F0F280401E00F09784401E99
:1003700000F0DA80C01E0ED0801E00F08F84C01EF8
:1003800000F08C8400F030BD0122252107928DF809
:10039000481000F035BDD9F8000050F8044BC9F8FA
:1003A0000000002C059440F0AB802B994878002881
:1003B00000F0A1804FF0FF340FF6942000F068FEAB
:1003C000241A40F0398500F01BBD01236A4602A9BA
:1003D000304600F001FE002840F02E85641EF4D166
:1003E0003096079C12AF74B1309E17F8011B049829
:1003F000B0470028049000F01F850D98401C641E33
:100400000D90F2D130960A9C3021002C8DF800100E
:100410000CDD309E01236A4602A9304600F0DCFD67
:10042000002840F00985641EF4D13096059F089C91
:1004300074B1309E17F8011B0498B047002804904F
:1004400000F0FA840D98401C641E0D90F2D1309695
:100450000B9C3021002C8DF800100CDD309E012308
:100460006A4602A9304600F0B7FD002840F0E48457
:10047000641EF4D1309605980899099C471874B108
:10048000309E17F8011B0498B0470028049000F034
:10049000D3840D98401C641E0D90F2D130960C9CB4
:1004A0003021002C8DF800100CDD309E01236A46AF
:1004B00002A9304600F090FD002840F0BD84641E83
:1004C000F4D130969DF8400041077FF581AE2020A1
:1004D000002D8DF800007FF77BAE309C01236A462B
:1004E00002A9204600F078FD002840F0A5846D1E8A
:1004F000F4D130946CE60FF64030059000F080BCEB
:100500000E9D002D04D5204600F0E2FD044608E0D3
:100510002A460021204600F0F7FD002814BF041BE6
:100520002C46089400F06CBCD9F8001051F8040B6C
:10053000C9F8001020F00002002121F0FF33CDE9BE
:10054000022312AC0594782100F03FBC2B99487827
:1005500020B14FF0FF340FF6B0202FE79DF8420096
:10056000622860D0682817D06A283FD06C2806D04F
:10057000712847D074282CD07A281DD062E0D9F891
:10058000001051F8040BC9F80010002866D14FF094
:10059000FF340FF68C2011E7D9F8001051F8040B46
:1005A000C9F8001020B94FF0FF340FF6742005E7AA
:1005B0000D99018000F024BCD9F8001051F8040B0B
:1005C000C9F80010002849D14FF0FF340FF6502031
:1005D000F4E6D9F8001051F8040BC9F8001000280F
:1005E0003CD14FF0FF340FF63820E7E6D9F8001081
:1005F00051F8040BC9F8001080B94FF0FF340FF622
:100600002020DBE6D9F8001051F8040BC9F80010DF
:1006100020B94FF0FF340FF60820CFE60D9AD3171C
:10062000C0E90023ECE3D9F8001051F8040BC9F835
:10063000001020B94FF0FF340FF6E410BEE60D991C
:100640000170DDE3D9F8001051F8040BC9F800106F
:1006500020B94FF0FF340FF6C810AFE60D990160D6
:10066000CEE39DF842004C2807BFD9F80010CA1D00
:10067000D9F80000C21D22F00702C9F80020D2E913
:1006800000010832C9F80020CDE90201C80F02D0EC
:1006900007982D210AE0BDF84000810702D5079890
:1006A0002B2103E0C00705D50798202112AA115479
:1006B000401C079012A807994BF0200300EB010C97
:1006C000DDE90201CDE92C01612BCDF814C021AC8C
:1006D0000BD00E98002848BF062105D404BF4BF06C
:1006E0002000672801D101210E91DDE902014F00B0
:1006F00047EAD0777E15FF174FF0FF32974208BFC9
:10070000964210D1090341EA10510003002908BFA5
:10071000002808D0ABF1610503211A2D089118D3E8
:100720000FF61C1110E0DDE902014A00521512F12A
:10073000010F11D108030FD1ABF1610503211A2D6F
:1007400008911FD30FF600110322604600F008FD48
:1007500056E30FF6E801F7E7DDE902016A4600F02B
:1007600053FDCDE902014BF02000612811D105981D
:1007700030220270811C0591BBF1610F0CBF782102
:10078000582102E00FF6BC01DEE741700798801C9B
:100790000790DDE9020120F0000231F0004308BFBC
:1007A000002A02D10026002542E14BF02008B8F1D2
:1007B000610F40F092800E99002947BF21200190DF
:1007C000491C0191019FDDE92C017F1C00220023BF
:1007D000DDE9024500F050FD38BF85F00045009886
:1007E0008DF88420001F002F00900DF1850632DD6A
:1007F000204629460022002300F058FD2BD21C225F
:1008000000F06EFD04460D4600F008FEFF1F002FAD
:10081000804609DD00F01EFE02460B4620462946B2
:1008200000F0E0FE04460D46F01D0721B8F1000F70
:100830000CDD491E5EBF08F00F0200F8012D4FEAE3
:100840002818F3D502E0002200F8012D491EFAD540
:10085000C61D002FCCDC0DF18500361A01980DF174
:1008600085048642D8BF304600282FD4B04206DA2D
:100870000DF185010A5C082AA8BF0F2100DA0021CA
:10088000024621AB134400E0401E13F80159521EEA
:100890008D42F9D00F2904D10DF185018B5C5B1CD1
:1008A0008B54002A04D50099091D21AC401C0091ED
:1008B000411E0BD4621813783033DDB23A2DA4BF39
:1008C0005B443A3B491E02F80139F4D50E9A002ADE
:1008D00040F1AC80411E0E91A8E00099DFF8E826B7
:1008E00047F29750414391FBF2F20092DDE92C452B
:1008F000C2F10702002A25F0004504DD2046294602
:1009000000F03EFB0BE052420020DFF8C01600F082
:1009100037FB02460B462046294600F0D5FE04462A
:100920000D46B8F1660F06BF009F0A3706270E98DE
:100930003F18142FC8BF142730208DF884000DF104
:100940008506002F34DD2046294600F0E1FF0146F0
:100950000A4606F1080304200A26B2FBF6F606EB67
:10096000860EA2EB4E02303203F8012C0A22B6FBAF
:10097000F2F202EB820EA6EB4E063036401E03F872
:10098000026DE9D1083F002F03F10806D9DD0846C2
:1009900000F0D0FF02460B462046294600F022FE1A
:1009A0000022DFF82C3600F0D3FF04460D46CAE7DC
:1009B0000DF18500361A0DF1850404E00098401E03
:1009C000761E0090641C20783028F7D0B8F1660FAE
:1009D00002D10098401C04E0B8F1650F0CBF012063
:1009E00000200E9940188642B8BF701E00281DD402
:1009F000B04204DA215C3429C8BF392100DC30213F
:100A00000246631E9D1800E0401E15F80169521E43
:100A10008E42F9D0392902D1A15C491CA154002A87
:100A200004D50099491C1C46401C00910646009DB7
:100A30000E9F30B2002802DC01260FF210644BF04A
:100A40002000662808BF6D1C15D067280FFA85F8AE
:100A500041D118F1040F44DBB84542DA9DF840005B
:100A60006D1C010703D430B2B842D8BF074628B284
:100A70003F1A48BF00270FFA85F8B8F1000F00F3BE
:100A8000AE800898411C0891302205990A54002F25
:100A900003DC9DF84000010705D50898411C08912A
:100AA0002E2205990A5417EB080FB8BF7D422DB2CC
:100AB0006842ED1932B20B909542B8BF2E46059BA5
:100AC000089836B2099632462146184400F048FB91
:100AD000AD1B0C95CBE0BBF1610F15D14FF0700B46
:100AE00017E030B2B84204DA9DF840100A0758BF48
:100AF00007467F1E48BF0027BBF1670F14BF4FF0AA
:100B0000450B4FF0650B04E0BBF1410F08BF4FF000
:100B1000500B0898411C0891002F059914F8012BDF
:100B20000A5403DC9DF84000010719D50898411CC0
:100B300008912E2205990A54002F11DD761E30B23D
:100B40008742B8BF3E460598089B32B221461844FA
:100B500000F006FB089836B23018BF1B08900B97C0
:100B6000059808990844B8F1000F80F800B003D444
:100B70002B224270811C04E02D2141704546811CCE
:100B80006D4200202CAA0AE02B460A2593FBF5F5BE
:100B900005EB8504A3EB440302F8013B401C2DB296
:100BA000002DF1DC012806DC4BF02002652A04BF91
:100BB000302201F8012B00282CAA08D1302001F89E
:100BC000010B06E0401E135C303301F8013B0028A6
:100BD000F8DC059A08981044091A099147E030B2E8
:100BE00029B288421BDA0598089B32B22146184484
:100BF00000F0B6FA089936B271180891A8EB060011
:100C0000002F0B9003DC9DF84000020705D5059AE4
:100C10002E2050540998401C09900C9727E0059805
:100C2000089B2AB22146184400F09AFA0898761BCD
:100C30004044002F089003DC9DF840100A0704D5BB
:100C4000411C08912E2205990A5430B28742B8BF40
:100C50003E460598089B32B204EB0801184400F0A8
:100C60007FFA089836B23018BE1B08900B969DF894
:100C7000400000F01400102840F0C280079A089845
:100C80000B99821809988A1882180C980F99801865
:100C9000884280F2B580081A0A90B1E09DF84200BF
:100CA000622808D068280ED06A2814D06C281FD07B
:100CB000712810D01CE0D9F8001051F8040BC9F8C5
:100CC0000010C0B21AE0D9F8001051F8040BC9F8AE
:100CD000001080B212E0D9F80000C21D22F0070215
:100CE000C9F80020D2E900010832C9F8002006E066
:100CF000D9F8001051F8040BC9F800100021CDE913
:100D000002019DF8400002075AD5DDE902010029E1
:100D100008BF002854D04BF02002782A50D1079801
:100D200012A930230B54401C421C079201F800B05A
:100D300046E09DF84200622808D068280ED06A2854
:100D400014D06C281FD0712810D01CE0D9F80010E6
:100D500051F8040BC9F8001040B21AE0D9F800109D
:100D600051F8040BC9F8001000B212E0D9F80000E5
:100D7000C21D22F00702C9F80020D2E900010832A2
:100D8000C9F8002006E0D9F8001051F8040BC9F8A2
:100D90000010C117CDE90201002902D507982D21C5
:100DA0000AE0BDF84000810702D507982B2103E037
:100DB000C00705D50798202112AA1154401C07909E
:100DC00012A8079901440591594602A800F04EF86F
:100DD00016E001200790D9F8001051F8040BC9F86B
:100DE00000108DF848000BE001202521BBF1000F19
:100DF00007908DF8481003D0022107918DF849B073
:100E00000F9D07980A992D1A08986D1A0B992D1A9B
:100E100009986D1A0C992D1A9DF840006D1A41071A
:100E20003FF5DFAA2020002D8DF800007FF7D9AA1A
:100E3000309E2C46FFF7C9BA4FF0FF3031B0BDE805
:100E4000F08F0000CBCCCC0C686A6C747A4C00003C
:100E50007072696E74665F733A20626164202573F4
:100E600020617267756D656E740000002DE9FC4DA0
:100E700006468846376940466F2808BF082405D0D3
:100E8000FFF78AF9782814BF0A241024D6E9000154
:100E90003C2582468B46B8F1640F18BFB8F1690F44
:100EA00005D1002903D5DAF1000A6BEB4B0BBBF13E
:100EB000000F08BFBAF1000F0CD1306B50B9082CED
:100EC0003AD196F83800010736D530223B2587F80D
:100ED0003B2031E08DF800805046594622460023E1
:100EE00000F00CFE3032D0B26D1E3A2801950EDAB9
:100EF0007A55504659462246002300F0FFFD8246AF
:100F00005FEA010B08BFBAF1000F05D108E09DF8B8
:100F100000001218513AEBE7F06879198842DBD3E8
:100F2000082C09D196F83800010705D5785D3028DE
:100F300002D06D1E30207855C5F13C02306BB26195
:100F400079198242F16008DA318F821A4FF6EF7018
:100F5000014031873262BDE8F38D00280ED596F846
:100F6000380000F01400102808D1736B7069316AE2
:100F70001B1A5B1A9B1A002BC8BF3362BDE8F38DA6
:100F80002DE9D04306460F4614464FF00008DFF81F
:100F9000449012E0E00707D542464B4630463946BA
:100FA00000F0D6FC06460F464046494642464B46B0
:100FB00000F0CEFC641080468946002CEAD1304611
:100FC0003946BDE8D0830000A08601000000F03F54
:100FD00084D7974100002440F8B505460E461746D1
:100FE0001C4600205CB117F8011BB068A847B06030
:100FF00030B1F06A401CF0620020641EF3D1F2BDF3
:101000004FF0FF30F2BD00007072696E74665F735E
:101010003A20256E20646973616C6C6F776564009B
:101020007072696E74663A2062616420256E206178
:101030007267756D656E7400000000006E616E0071
:101040004E414E00696E6600494E460030000EE08B
:1010500002684368024408305FEAC37C44BF4B44E3
:101060005B1E52F804CB43F804CB091FF9D150F8AA
:10107000041B0029ECD17047C9B202788A421AB128
:101080001CBF10F8012FF9E718BF002070470000BF
:1010900080B500B906A005490B681BB122220021CA
:1010A000984701E000F042FE222002BD88050020A2
:1010B000636F6E73747261696E742068616E646CC4
:1010C00065723A20626164206D65737361676500C3
:1010D00000F10103810704D010F8011B820781B1E0
:1010E000FAD10268A2F10131914311F0803104BFBD
:1010F00050F8042FF6E709BAB1FA81F100EBD100FC
:10110000401CC01A70470000C9B2830706D0521EA7
:1011100022D310F8013B9942F7D11FE0083A13D3CC
:1011200002F1040241EA012141EA014150F8043B85
:10113000121F21BF4B40A3F1013C2CEA030C1CF011
:10114000803FF3D0C9B2001F0832521E24BF10F8EE
:10115000013B91EA030FF8D818BF0120401E7047E9
:1011600062B38B0708D0521E11F8013B00F8013B17
:1011700000F024808B07F6D1830740F0208000BF69
:10118000103A07D330B4B1E83810103AA0E838105C
:10119000F9D230BC530724BFB1E80810A0E808100A
:1011A00044BF51F8043B40F8043BD20724BF31F858
:1011B000022B20F8022B44BF0B7803707047121FDC
:1011C00017D35B0009D151F8043B20F8023B1B0CFC
:1011D000121F20F8023BF6D20BE051F8043B00F856
:1011E000013B1B0A20F8023B1B0C121F00F8013BBD
:1011F000F3D238BF121D521E24BF11F8013B00F874
:10120000013BF8D87047000010B5144600F002F812
:10121000226010BDC1F30A5343B14A0012F5001F0A
:1012200028D2A3F2FE32A1EB0251704750EA410CE2
:1012300020D001F0004C31EA0C01B1FA81F204BF78
:10124000B0FA80F3D2180B3AB2F120032CBF00FAA7
:1012500003F1914041EA0C013EBFC2F1200C20FA9B
:101260000CF319439040524240F2FD33D21A01EB85
:10127000035170470022704741EA030C50EA4C0CBE
:1012800052EA0C0C4FF4001C09D307D01CEB410FA1
:101290009CBF1CEB430F8B4208BF824270471CEB84
:1012A000430FFBD8994208BF9042704741EA030CB4
:1012B00050EA4C0C52EA0C0C4FF4001C09D307D036
:1012C0001CEB410F9CBF1CEB430F994208BF90429F
:1012D00070471CEB410FFBD88B4208BF824270471E
:1012E000124254D440F2FF7C1CEA11530FD06345E4
:1012F00031D09B1863453CBF01EB0251704701F0B0
:10130000004141EA0C510020AFF30080704750EAE1
:10131000410320D001F0004C91EA0C011CD0B1FA3D
:1013200081F30B3B9A420DD9D21A994051EA0C0134
:10133000C3F1200C20FA0CFC61449840531C40F28D
:10134000FF7CD7E7914041EA0C01C2F1200C20FA62
:101350000CF3194390407047B0FA80F31533202BFB
:10136000E0D3202AEED3203A203B9A4209D9D21A60
:1013700000FA03F141EA0C010020531C40F2FF7C0B
:10138000B8E700FA02F141EA0C010020704752422E
:1013900040F2FF7C1CEA11530DD06345DBD0B2EB69
:1013A000030C3CBFA1EB025170470CF1010221EA92
:1013B000035141F4801150EA410CCCD001F0004CB3
:1013C000352A27DC30B481EA0C01B2F1200309DAB6
:1013D000C2F12003044601FA03F5D0402843D1406E
:1013E0009C400CE0C3F12002450020FA03F418BF32
:1013F00044F0010421FA03F091400C43002174F100
:10140000004550F1000051EB0C01244230BC7FF448
:101410007BAF70476146002076E70000C1F30A53B6
:1014200040F21E42D31A0CDDCA0283F3070342EADC
:10143000505242F00042DA4002EBE17282EAE1707F
:1014400070476FEAE17203F2E13008B182F00040C8
:101450007047000010F0004160B148BF4042B0FA50
:1014600080F29040D21CC2F5846241EA025202EB43
:10147000D021400570470000841A71EB030604D2A6
:101480006E40001BB141121973414FF4001C1CEB5C
:10149000410F34BF7CEB430683E00C0DA4EB1356E5
:1014A000362E00F37C80012E45EAC32341DC43EA5B
:1014B000525312BFD20292025B08240545EAC121B1
:1014C00041EA5051D2EBC020994125D407D1B0FA5E
:1014D00080F610FA06F162D00020203608E0B1FA5A
:1014E00081F6B140C6F1200220FA02F21143B04069
:1014F0004FEAF474B4EB465434F001064FEA740436
:101500000AD8D6F50016760D04F00044F04061FAD2
:1015100006F25040F1404840C00A40EA415021F0F4
:10152000004128BF5FEA500550F1000044EBD12193
:1015300035E0DB0A45EAC121C90AB6F120050EDD16
:1015400042EA0242120CC5F1200603FA06F6EB400D
:1015500042EA06056D42984161F100010DE062FA30
:1015600006F5F240554063FA06FC82EA0C02F340AD
:101570005A406D42904161EB030111F4801F05D187
:10158000641E620502D06D004041494121F4801182
:10159000430875F1004350F1000041EB045170BC69
:1015A00070471CEB410F15D223F0004352EA43066B
:1015B0000BD04FEA4C0CBCEB410F04D80C0D661E4F
:1015C000342EB7DDEBE7801A994150EA410608BF97
:1015D0000021E4E708BF1CEB430F28BF6FF00001B8
:1015E000DDE7000070B491EA030F4FF000457FF58E
:1015F00043AF6B40841A71EB030603D2001BB14169
:10160000121973414FF4001C1CEB410F34BF7CEBEB
:10161000430442E00C0DA4EB1356352E4FDC45EA93
:10162000C323DB0A45EAC121C912B6F120050DDD4D
:1016300063FA05F6EB4086EA0305124218BF45F04F
:101640000105C01851F100010CD213E062FA06F551
:10165000F2405540F3415A40B340F3405A4080189D
:10166000594107D349085FEA30005FEA350528BFD2
:1016700045F0010501F58011420875F1004250F175
:10168000000041EB04514E0016F5001F70BC38BF3E
:1016900070470020090D090570471CEB410F10D25F
:1016A00052EA43060BD0BCEB410F05D80C0DAB43FF
:1016B000661E342EB6DD02E0AB438018594170BC83
:1016C000704770BC70470000F0B540F2FF7581EACA
:1016D000030C0CF0004C15EA11541DBF15EA13570A
:1016E000AC42AF42E5E0BC41C1F31301C3F31303C5
:1016F000801A994143F4801304D2641E00184941B2
:1017000080185941C90241EA5051B1FBF3F603FB7D
:101710001611A2FB0675D7EBC020A94102D2761E96
:1017200080185941C90241EA5051B1FBF3FE03FB55
:101730001E11A2FB0E75D7EBC020A94103D2AEF15A
:10174000010E80185941890241EA9051760546EA16
:101750008E2EB1FBF3F603FB1611A2FB0675D7EB39
:101760008020A94102D2761E80185941C90241EA5F
:1017700050514EEA060EB1FBF3F603FB1611A2FB25
:101780000675D7EBC020A94102D2761E80185941B8
:10179000C90241EA5051B1FBF3F703FB1711A2FB59
:1017A0000735D3EBC020A94167F100070CBF004209
:1017B00047F0010766F3D5274FEA1E31B80814F544
:1017C000806412DDBD0775F1004250EB0E5051EB05
:1017D000045111F5801F5CBF41EA0C01F0BD4CF0D3
:1017E0007F6141F0E0410020F0BDBD076D0840EA97
:1017F0000E5041F48011D4F10104B4F120060ADA4C
:10180000C4F120060200E04001FA06F3E14018436B
:10181000B24015430EE0342C13DCC6F1200445EA37
:1018200040056D0820FA06F2154321FA06F0A140A2
:101830000D43002175F1004250F1000051EB0C0105
:10184000F0BD00205FEA0C01F0BDCFB992185B41FA
:10185000B3FA83F704BFB2FA82F6BF190B3FB7F1B0
:1018600020062FBF02FA06F3BB40C7F1200622FA7A
:1018700006F638BF3343BA401CB1E419641E33E79F
:101880007F4231F00041B1FA81F404BFB0FA80F632
:10189000A4190B3CB4F120062FBF00FA06F1A140B9
:1018A000C4F1200620FA06F638BF3143A0403C1BA5
:1018B0001AE7AC421ABF05EA1357AF4212E050EAEA
:1018C00041061CBF52EA4306BFE750EA41073046D3
:1018D00061461CBF41EA0551F0BD52EA430C08BF06
:1018E000C143F0BD00204FF4001616EB410F98BF26
:1018F00016EB430F08BF16EB410F24BFC14305E0B1
:1019000016EB430F0CBF61464CEA0551F0BD0000D9
:10191000400D40F21E4C40EAC120BCEB115C40F08F
:10192000004003D48CF30701C84070476FEAE170B0
:101930007047000050B1B0FA80F18840C91CC1F571
:101940008461090501EBD0214005704701467047CD
:1019500030B540F2FF7C1CEA11541DBF1CEA135540
:10196000644565453FE0641981EA030C6FF35F53FA
:101970000CF0004C43F48013C90241F0004141EAED
:10198000505EC5021100A5FB020200284FF00000C6
:10199000EEFB01204FF00001E3FB052118BF42F0F0
:1019A0000102401800214941E3FB0E01A4F58064C7
:1019B0000D0302D292184041494154F1010470DDF7
:1019C000450872F1004250F1000051EB0451A1F5BD
:1019D000801102D441EA0C0130BD40F2FF7E4CEA96
:1019E0000E51002030BD0CEA1355644518BF654503
:1019F00081EA030C0CF0004C41D050EA410E1CBFB0
:101A000052EA430E02E06146002030BD24422C44DD
:101A10001BD15FEA050EF6D0090302BF0146002084
:101A2000AEF1140EB1FA81F5AEEB050401FA05FE34
:101A30000C35C5F1200100FA05F5C8404EEA000E4C
:101A40006FF35F5343F480139CE733F00043B3FA22
:101A500083F504BFB2FA82FE75440B3D641BB5F1F9
:101A6000200E2FBF02FA0EF3AB40C5F1200E22FA72
:101A70000EFE38BF43EA0E03AA40641C7CE750EA1E
:101A8000410E14BF52EA430E6FF000014FF40015EF
:101A900015EB430F8EBF194615EB410F9DE7B4D8E8
:101AA00030BDD4F10104B4F120050FDAC4F12005F2
:101AB000520828BF42F0010210FA05FE01FA05F5AE
:101AC0007244E2BFE0402843E1400FE0352C9ADC4D
:101AD000C5F1200452EA400220FA05F218BF42F094
:101AE000010231FA05F0A1400A43002172F10042DF
:101AF00050F1000051EB0C0130BD0000BBBBE1B167
:101B0000B2F5803F80F07E80022A1ED98C46B1FB60
:101B1000F2F102FB11C31B0443EA1043B3FBF2FCD6
:101B200002FB1C3380B240EA0343B3FBF2F002FB3A
:101B3000103240EA0C4000237047022A05D984463F
:101B4000B0FBF2F002FB10C270474AB105D100F0C1
:101B5000010249085FEA3000704700220023704705
:101B600000F0E8B80B00020000210020704790420E
:101B700071EB030CF6D3B3F5803F2FD2F0B5B3FA77
:101B800083F7B1FA81F4A7F10F0E3D1B5340CEF15C
:101B9000200602FA0EF2F3415340B5F10F0746D882
:101BA0000F3C2C444140C4F12006A040F14141408B
:101BB000B1FBF3F603FB1611A2FB0645001BA9417E
:101BC00002D2761E8018594180EA010221FA0EF3F2
:101BD00062FA0EF200215A403046F0BD30B4B1FB3B
:101BE000F3FC03FB1C11A2FB0C45001BA94103D213
:101BF000ACF1010C8018594130BC02460B466046DE
:101C000000217047B2F1807F65D3F0B5B2FA82F758
:101C1000B1FA81F4C7F10F063D1B22FA06F307F172
:101C2000110EF24120355A40B5F10F07B8D94140A5
:101C3000C4F12006A040F1414140B1FBF3FC03FB9D
:101C40001C11A2FB0C45001BA94103D2BCF1010CE5
:101C5000801859410F2F12D30F3FC90341EA504159
:101C6000B1FBF3F603FB1611A2FB0645D4EBC03023
:101C7000A94102D2761E8018594146EACC3C07B3EE
:101C80004140C7F12006B840F1414140B1FBF3F6B5
:101C900003FB1611A2FB0645001BA94102D2761ECA
:101CA0008018594180EA010221FA0EF3C7F120049D
:101CB00062FA0EF20CFA07F05A402CFA04F13043A3
:101CC000F0BD80EA010221FA0EF3002162FA0EF261
:101CD00060465A40F0BD8C46B1FBF2F102FB11C3E5
:101CE0001B0243EA1063B3FBF2FC02FB1C331B0232
:101CF0004CEA002043EA1063B3FBF2FC02FB1C3306
:101D00001B024CEA002043EA1063B3FBF2FC02FB27
:101D10001C331B024CEA002043EA1063B3FBF2FCC5
:101D200002FB1C324CEA002000237047012000F027
:101D300003B8000070470000202109032631182055
:101D4000ABBEF9E710B50400002C01D1012035E04D
:101D5000A0690028FFD194F84100002805D1002097
:101D600084F84000200000F022FB242084F8410089
:101D70002068C06830F400502168C860200000F07E
:101D8000FAF82068006930F4904021680861206802
:101D9000406930F02A00216848612068C06850F42A
:101DA00000502168C86000206064202084F8410051
:101DB000202084F8420000206063002010BD2DE93F
:101DC000FC4706000D0017009846002496F84100D5
:101DD000202857D1002D03D0380080B2002801D12F
:101DE000012050E000207064212086F8410000F0BE
:101DF00027FB8146B784F784B068B0F5805F05D1D2
:101E00003069002802D10024AA4602E02C005FF0CD
:101E1000000AF08C002821D0CDF800804B4600222B
:101E20008021300000F031F8002804D0202086F80E
:101E30004100032027E0002C08D1BAF80000C005BB
:101E4000C00D316848601AF1020A03E02078316859
:101E50004860641CF08C401EF084DAE7CDF8008006
:101E60004B4600224021300000F00FF8002804D03B
:101E7000202086F84100032005E0202086F841005C
:101E8000002000E00220BDE8F6872DE9FC410500B6
:101E90000E0017009846089C286800683040B04241
:101EA00001D1012000E000203900C9B288422BD1C5
:101EB00014F1010FF0D000F0C3FAB0EB0800844237
:101EC00001D3002C01D103201FE02868C06840071F
:101ED000E2D5802EE0D0402EDED0286800680007D2
:101EE000DAD50020009028680068009028684068D3
:101EF00000900098280000F00AF80820686400208C
:101F000085F84000012000E00020BDE8F68101686E
:101F10000C3151E8001F31F490710A00016811F191
:101F20000C0343E800210029F1D10168143151E884
:101F3000001F490849000A00016811F1140343E831
:101F400000210029F1D1016B01290DD101680C316B
:101F500051E8001F31F010010A00016811F10C0373
:101F600043E800210029F1D1202180F8421000210E
:101F70000163704700002DE9F84F84B00500286820
:101F8000016931F44051E868014328680161A9689A
:101F90002869014368690143E8690143039128689E
:101FA000C168B1480140039801432868C1602868AE
:101FB000416931F44071A86901432868416128688A
:101FC000AA49884203D02868A949884203D100F071
:101FD000EBFA040002E000F0DCFA0400E869B0F576
:101FE000004F40F09F807FF0630A5FF002085FF0CF
:101FF00000091926002722000023A6FB020106FB88
:10200000031107FB0211CDE9000168680021A8FB5C
:10201000002308FB013309FB0033DDE90001FFF772
:102020006DFD6421B0FBF1F0009022000023A6FBBF
:10203000020106FB031107FB0211CDE901016868EB
:102040000021A8FB002308FB013309FB0033DDE975
:102050000101FFF753FD834622000023A6FB020186
:1020600006FB031107FB0211CDE90101686800219D
:10207000A8FB002308FB013309FB0033DDE9010164
:10208000FFF73CFD6421B0FBF1F00AFB00B0C0009B
:1020900032306421B0FBF1F0400010F4F870009988
:1020A00010EB0110009022000023A6FB020106FBAA
:1020B000031107FB0211CDE9010168680021A8FBAB
:1020C000002308FB013309FB0033DDE90101FFF7C1
:1020D00015FD834622000023A6FB020106FB031127
:1020E00007FB021106000F0068680021A8FB00230F
:1020F00008FB013309FB003330003900FFF7FEFC19
:102100006421B0FBF1F00AFB00BA5FEACA0032308A
:102110006421B0FBF1F111F007010098091828685B
:1021200081609CE05FF004085FF000097FF0630AC3
:102130001926002722000023A6FB020106FB03113B
:1021400007FB0211CDE9000168680021A8FB00230C
:1021500008FB013309FB0033DDE90001FFF7CEFC8A
:102160006421B0FBF1F0009022000023A6FB0201E5
:1021700006FB031107FB0211CDE90101686800218C
:10218000A8FB002308FB013309FB0033DDE9010153
:10219000FFF7B4FC834622000023A6FB020106FBE6
:1021A000031107FB0211CDE9010168680021A8FBBA
:1021B000002308FB013309FB0033DDE90101FFF7D0
:1021C0009DFC6421B0FBF1F00AFB00B0000132304D
:1021D0006421B0FBF1F010F0F000009910EB011059
:1021E000009022000023A6FB020106FB031107FB5F
:1021F0000211CDE9010168680021A8FB002308FB5A
:10220000013309FB0033DDE90101FFF777FC834669
:1022100022000023A6FB020106FB031107FB0211AB
:1022200006000F0068680021A8FB002308FB0133AB
:1022300009FB003330003900FFF760FC6421B0FB7C
:10224000F1F00AFB00BA5FEA0A1032306421B0FBF9
:10225000F1F111F00F01009809182868816005B0AC
:10226000BDE8F08F00000000F369FFFF001001409F
:102270000014014081B0002000906748016851F4CB
:1022800080410160006810F48040009000980020B8
:1022900000906248016851F080510160006810F0C0
:1022A00080500090009801B0704710B586B00400CF
:1022B00018210022684600F091F9206858498842A8
:1022C0000ED1022000904FF480700490684600F018
:1022D000B9F9002801D000F03FFC01205149086005
:1022E00006B010BD38B586B004001421002268463F
:1022F00000F074F920684C49884256D100200590BE
:102300004648016851F480410160006810F4804043
:1023100005900598002005904448016851F004019B
:102320000160016811F004010591059900210591F2
:10233000016851F002010160006810F00200059090
:1023400005980420009002200190012002900320B3
:10235000039005200490364D6946280000F0FEFBEE
:10236000082000900220019000200290032003909A
:10237000052004906946280000F0F0FB4FF48060CF
:10238000009002200190002002900320039005207D
:1023900004906946274800F0E1FB00220021242038
:1023A00000F080FD242000F092FD07B030BD10B594
:1023B00086B004001421002201A800F00FF9206863
:1023C0001D49884226D1002000901348016851F031
:1023D00010010160006810F01000009000980020CB
:1023E00000901248016851F001010160006810F08E
:1023F0000100009000984FF4C0600190022002900C
:1024000000200390032004900720059001A90B48A9
:1024100000F0A4FB06B010BD443802404038024032
:10242000002800403C0E474200380040303802404F
:102430000008024000040240001001400000024079
:1024400001480068704700BF840500202DE9F04175
:1024500004000D00002C01D1012095E0584F386890
:1024600010F00700A84207D23D70386810F007004E
:10247000A84201D0012087E02078800716D5207877
:10248000400704D54F48016851F4E05101602078BD
:10249000000704D54B48016851F460410160494987
:1024A0000A6832F0F002A06802430A602078C00790
:1024B00038D56068012805D143480068800313D4EB
:1024C000012061E06068022802D06068032805D11D
:1024D0003D480068800107D4012055E03A48006873
:1024E000800701D401204FE0DFF8D880D8F8001031
:1024F0008908890060680143C8F80010FFF7A0FF51
:102500000600D8F8000010F00C006168B0EB810FF5
:1025100008D0FFF795FF801B41F289318842F0D344
:10252000032031E0386810F00700854207D23D7083
:10253000386810F00700A84201D0012024E020787C
:10254000400706D51F490A6832F4E052E0680243AA
:102550000A602078000707D51A48016831F4604105
:10256000226951EAC201016000F0CEFC1749154A08
:102570001268C2F30312895CC84015490860154807
:10258000006800F00FFD0020BDE8F08110480068F1
:10259000704780B5FFF7FAFF0F490A4A1268C2F385
:1025A0008222895CC84002BD80B5FFF7EFFF0A496F
:1025B000044A1268C2F34232895CC84002BD00007E
:1025C000003C02400838024000380240DC4000086D
:1025D00004000020000000202C41000862F30F22BC
:1025E00062F31F42401810F0030308D0C91A1FD32A
:1025F000DB0748BF00F8012D28BF20F8022D13008B
:1026000030B414461546103928BF20E93C00FAD8EA
:10261000490728BF20E90C0048BF40F8042D890075
:1026200028BF20F8022D48BF00F8012D30BC7047AC
:10263000C91818BF00F8012DCB0728BF00F8012DDD
:10264000704700002DE9F843050000260024287893
:1026500010F0050F2FD0DFF840810020C8F80000EF
:10266000FFF7EEFE0700DFF83491D9F80000000113
:1026700006D5FFF7E5FEC01B0328F4D3032088E04E
:102680006868A96850EA8110E96850EA0170DFF8CB
:10269000101108600120C8F80000FFF7D1FE060005
:1026A000D9F80000000106D4FFF7CAFE801B0328FA
:1026B000F6D303206DE02878800763D500200090D2
:1026C000DFF8E000016851F080510160006810F00F
:1026D000805000900098DFF8D070386850F4807017
:1026E0003860FFF7ADFE06003868C00506D4FFF776
:1026F000A7FE801B0328F7D303204AE0DFF8AC7065
:10270000386810F440700400002C20D0286910F4C0
:10271000407084421BD0386830F440700400244874
:1027200001210160002101603C603868C0070ED5BE
:10273000FFF786FE06003868800708D4FFF780FEA2
:10274000801B41F289318842F5D3032021E02869BA
:1027500010F44070B0F5407F09D11648026832F499
:10276000F8122B69144919401143016004E0114823
:10277000016831F4F8110160386829690905090D0B
:10278000084338602878000702D5287D0B49086087
:102790000020BDE8F2830000680047420038024094
:1027A00084380240403802400070004070380240D7
:1027B000400E474208380240FFFCFF0FE01147423D
:1027C00001B500980100C9B2002000F045FD4FF6A8
:1027D000FF7301226946CF48FFF7F1FA009802BD66
:1027E00080B500F07BFD00F012F800F0F4F800F086
:1027F00062F800F0D6F800F0B1F8C749002000F008
:102800001DFDC64AC649C74800F082FDFEE780B5F7
:1028100092B03021002206A8FFF7E0FE142100222A
:1028200001A8FFF7DBFE00200090BF48016851F0CF
:1028300080510160006810F08050009000980020E6
:102840000090BA48016851F440410160006810F4FA
:10285000404000900098052006905FF4803007907B
:102860000120089002200C905FF480000D9004205D
:102870000E9064200F90022010900520119006A861
:1028800000F05AFD002801D000F066F90F200190F9
:1028900002200290002003904FF48050049000200A
:1028A0000590032101A8FFF7D1FD002801D000F019
:1028B00053F913B000BD10B586B01421002201A851
:1028C000FFF78CFE042100226846FFF787FE984838
:1028D0000068012840D0974C974820600020606035
:1028E0007F20A060FF20E060002020610020606168
:1028F0000020A061200000F017FF002801D000F0A8
:102900002BF900208DF8040000208DF80500002030
:102910008DF806000020049000200590012201A9F6
:10292000200000F060FF002801D000F015F9012020
:102930008DF8000001208DF8010001208DF80200C3
:1029400000208DF8030001226946200000F0C2FF3C
:10295000002801D000F000F906B010BD80B577481E
:10296000774901604FF4827141600021816000214C
:10297000C16000210161002141614FF4007181615A
:102980000821C161002101620021416200218162B0
:102990000A21C16201F078F8002801D000F0DCF8CB
:1029A00001BD80B55B48674901605FF4E13141607A
:1029B000002181600021C160002101610C21416181
:1029C000002181610021C161FFF7BCF9002801D01D
:1029D00000F0C2F801BD38B586B014210022684667
:1029E000FFF7FCFD002005905748016851F00401F5
:1029F0000160016811F0040105910599002105911C
:102A0000016851F080010160016811F080010591B9
:102A1000059900210591016851F0010101600168EB
:102A200011F001010591059900210591016851F00E
:102A300002010160006810F0020005900598434D06
:102A400000227021280000F08EF9414C0022212143
:102A5000200000F088F901224FF44051200000F0DE
:102A600082F9702000900120019000200290002047
:102A700003906946280000F071F8212000900120A1
:102A8000019000200290002003906946200000F091
:102A900065F8C22000900020019000200290694655
:102AA000200000F05BF844F2040000900020019048
:102AB000012002906946200000F050F84FF4405089
:102AC00000900120019000200290032003906946AD
:102AD000200000F043F84FF4004000905FF48810AD
:102AE0000190012002906946200000F037F84FF471
:102AF000805000900220019000200290032003905B
:102B00000C2004906946134800F028F807B030BD47
:102B1000000000000C050020CC400008084100081F
:102B2000FC40000888400008403802400070004027
:102B30003C0E47425405002000280040B404002009
:102B400000380040001001403038024000000240D0
:102B5000000402400008024072B6FEE7F8B5002407
:102B6000002500260023102B80F0FC805FF0010C74
:102B70001CFA03F214000A6822401500A54240F036
:102B8000EF800A7912F00302012A04D00A7912F0C8
:102B90000302022A22D187685FF0030E1A00D2B224
:102BA00052001EFA02FE37EA0E07D1F80CE01A00B6
:102BB000D2B252001EFA02FE5EEA07078760426840
:102BC0001CFA03FC32EA0C02D1F804C0CCF3001C5E
:102BD0001CFA03FC5CEA0202160046600A7912F055
:102BE0000302032A14D0C7685FF0030C1A00D2B2A4
:102BF00052001CFA02FC37EA0C07D1F808C01A0090
:102C0000D2B252001CFA02FC5CEA07073E00C66022
:102C10000A7912F00302022A1ED11A00D20800EB30
:102C20008202176A5FF00F0C13F00702D2B2920013
:102C30001CFA02FC37EA0C07D1F810C013F00702A7
:102C4000D2B292001CFA02FC5CEA07073E001A00AE
:102C5000D20800EB8202166207685FF0030C1A00CC
:102C6000D2B252001CFA02FC37EA0C0791F804C0F9
:102C70001CF0030C1A00D2B252001CFA02FC5CEAEF
:102C800007073E0006604A6812F4403F68D0002201
:102C900000923B4A176857F480471760126812F495
:102CA00080420092009ADFF8DCC01A0092085CF8BB
:102CB00022705FF00F0E13F00302D2B292001EFAE0
:102CC00002FE37EA0E07304A904201D1002614E096
:102CD0002E4A904201D101260FE02D4A904201D1A7
:102CE00002260AE02B4A904201D1032605E02A4A37
:102CF000904201D1042600E00726F6B213F0030249
:102D0000D2B29200964037431A0092084CF82270D3
:102D1000224E3268AA43D1F804C05FEACC2C00D519
:102D20002A4332601E4F3E68AE43D1F804C05FEACA
:102D30008C2C00D52E433E601A4F3A68AA43D1F836
:102D400004C05FEA8C3C00D52A433A60164F3E68C7
:102D5000AE43D1F804C05FEACC3C00D52E433E60C0
:102D60005B1C00E7F1BD1300DBB2002B03D00B00AE
:102D70009BB2836103E00B009BB21B04836170472D
:102D8000443802400838014000000240000402407C
:102D900000080240000C024000100240083C0140C4
:102DA0000C3C0140043C0140003C014010B410F0D8
:102DB0000703DFF8344122684FF6FF010A4052EA68
:102DC0000322DFF828110A43226010BC7047DFF8A5
:102DD00018010068C0F3022070470000010049B2EA
:102DE00000290AD4012210F01F018A40DFF80011E7
:102DF00003005BB25B0941F82320704710B4020066
:102E000052B2002A05D40A013A4B040064B21A55A2
:102E100008E00A01384B040064B214F00F042344A4
:102E200003F8042C10BC704770B4030013F00704BF
:102E3000D4F10700052801D3042001E0D4F10700F4
:102E4000251D072D01D2002500E0E51E012616FAFA
:102E500000F0401E0140A94016FA05F56D1E2A40FB
:102E60001143080070BC704710B50400601EB0F13B
:102E7000807F01D301200EE0601E204908600F21F1
:102E80005FF0FF30FFF7BAFF00201D490860072000
:102E90001C490860002010BD10B504002000FFF799
:102EA00085FF10BD2DE9F04104000D00160000273C
:102EB000FFF78DFF8046320029004046FFF7B4FF40
:102EC0000100200040B2FFF799FFBDE8F08110B586
:102ED0000400200040B2FFF781FF10BD10B50400D0
:102EE0002000FFF7C1FF10BD0CED00E00000FA0567
:102EF00000E100E000E400E018ED00E014E000E094
:102F000018E000E010E000E02DE9F0410024002589
:102F1000002600271F48006810F00C00002804D08D
:102F2000042804D0082804D031E01B4830E01B48B6
:102F30002EE0DFF86C80D8F8000010F03F000400AD
:102F4000D8F8000040020CD5D8F80000C0F3881073
:102F50001249A1FB000122000023FEF7CFFD05006E
:102F60000BE0D8F80000C0F388100B49A1FB00016A
:102F700022000023FEF7C2FD0500D8F80000C0F3D0
:102F80000140401C40000600B5FBF6F000E002489E
:102F9000BDE8F081083802400024F40000127A00F5
:102FA0000438024010B504004FF47A700D490978D6
:102FB000B0FBF1F00C490968B1FBF0F0FFF78EFFB0
:102FC000002801D001200CE0102C09D200222100A1
:102FD0005FF0FF30FFF766FF04480460002000E068
:102FE000012010BD08000020040000200000002087
:102FF000F8B5DFF8D442A8250026270032002900C2
:103000003800FFF7EBFA0320206103206061DFF84E
:10301000BC02A061DFF8B812E1614FF48061216267
:103020000021A162002161620021E1622066DFF8D7
:10303000A40260661020A066002020670020E066E1
:1030400000206067BFF35F8F0020102807D2DFF8F1
:10305000881242421144C97B2154401CF5E7BFF35A
:103060005F8FF1BD2DE9FE4F05000E0014005FF0EB
:103070000008D5F80CA028698146CA4503D2B9EBEF
:103080000A00401E05E0A868B0EB0A0019EB00003A
:10309000401EA968B1EB0A01884201D2070002E094
:1030A000AF68B7EB0A07A74200D32700686850440F
:1030B000009002970196DDF800B0029A01995846F7
:1030C000FEF74EF817EB08083E44E41B17EB0A0A1C
:1030D000A868824501D100208246BFF35F8FC5F802
:1030E0000CA0002CC7D14046BDE8FE8F2DE9F84F5B
:1030F00084B004000D001600E768D4F80880B8EB2F
:10310000070846450FD2606800EB07090196AA46FA
:10311000CB46019A51465846FEF722F8BFF35F8F1F
:10312000F019E06021E0CDF800806068384401903B
:10313000009803900295DDF80490039A029948469E
:10314000FEF70EF8B6EB08000090D4F80490009853
:10315000019005EB080ACB46019A51465846FDF707
:10316000FFFFBFF35F8F0098E06005B0BDE8F08F10
:1031700001000A69CB68934204D38868401EC01AD4
:10318000101801E0D01A401E70472DE9F0470400E6
:103190000D001600A946DFF83001182101FB04F1EB
:1031A000084410F1180ADAF81400002803D00228A5
:1031B0001FD00FD324E05046FFF7DAFF8046B0451A
:1031C00001D2002705E03700320049465046FFF79C
:1031D0008DFF16E05046FFF7CBFF8046B04501D289
:1031E000474600E037003A0049465046FFF77EFF69
:1031F00007E0320049465046FFF734FF070000E081
:1032000000273800BDE8F0872DE9F04104000D00EB
:103210001600DFF8B4703878002801D1FFF7E8FE17
:10322000EFF31188202080F311883200290020005C
:10323000FFF7ABFF88F31188BDE8F08170B504009B
:103240000D002800FDF744FF060032002900200091
:10325000FFF7DAFF70BD00002DE9F04104000D001A
:10326000DFF86470B84698F80000002801D1FFF735
:10327000BFFEEFF31181202080F31188182000FB9E
:1032800004F0384410F11802D3685B1C9068834244
:1032900001D1002003005069022802D11069834245
:1032A000FCD01069834209D05068D76838440600C2
:1032B0003570BFF35F8FD360012000E0002081F301
:1032C0001188BDE8F08100000C04002014410008C2
:1032D0000C00002074050020B840000880B50B48A1
:1032E000016851F400710160016851F4806101606E
:1032F000016851F4807101600320FFF7CDFD0F20BC
:10330000FFF750FEFEF7B6FF002002BD003C024072
:103310000EB41EB5024605A801900024009401AB2E
:103320000121044878440C30FCF739FF03B010BC8D
:103330005DF810FB6D0D00002DE9F8430400002C32
:1033400001D10120DAE12078C0075FD5DFF8B003B2
:10335000016811F00C01042909D0006810F00C007C
:1033600008280ED1DFF89C030068400209D5DFF879
:1033700098030068800349D56068002846D1012081
:10338000BCE16068B0F5803F06D1DFF87C030168DE
:1033900051F48031016018E06068B0F5A02F0AD1C7
:1033A000DFF86403016851F480210160016851F481
:1033B0008031016009E0DFF85003016831F48031A9
:1033C0000160016831F480210160606800280ED03E
:1033D000FFF736F80500DFF830030068800315D4E6
:1033E000FFF72EF8401B6528F5D3032086E1FFF791
:1033F00027F80500DFF810030068800306D5FFF703
:103400001FF8401B6528F5D3032077E1207880075B
:103410004CD5DFF8EC02016811F00C0F08D0006801
:1034200010F00C00082814D1B6480068400210D4EF
:10343000B5480168890704D5E168012901D0012058
:103440005CE1016831F0F801226951EAC2010160D2
:103450002CE0E068002818D00120AC490860FEF795
:10346000EFFF0500A8480168890706D4FEF7E8FFCA
:10347000401B0328F6D3032040E1016831F0F80136
:10348000226951EAC201016010E000209F490860F2
:10349000FEF7D6FF05009C480068800706D5FEF7BA
:1034A000CFFF401B0328F6D3032027E12078000735
:1034B00024D56069002810D0012095490860FEF7E6
:1034C000BFFF050093480068800717D4FEF7B8FFD8
:1034D000401B0328F6D3032010E100208C4908602C
:1034E000FEF7AEFF05008B480068800706D5FEF7A3
:1034F000A7FF401B0328F6D30320FFE020784007F6
:103500007CD50027DFF81082D8F80000C0000FD467
:1035100000200090D8F8000050F08050C8F800005B
:10352000D8F8000010F080500090009801200700AB
:10353000DFF8E891D9F80000C00513D4D9F80000ED
:1035400050F48070C9F80000FEF77AFF0500D9F842
:103550000000C00506D4FEF773FF401B0328F6D316
:103560000320CBE0A068012805D16D48016851F027
:103570000101016015E0A068052809D168480168CB
:1035800051F004010160016851F00101016008E09F
:1035900063480168490849000160016831F004018D
:1035A0000160A06800280FD0FEF74AFF05005C48C4
:1035B0000068800718D4FEF743FF401B41F28931B1
:1035C0008842F4D3032099E0FEF73AFF05005448FF
:1035D0000068800708D5FEF733FF401B41F28931B0
:1035E0008842F4D3032089E03800C0B2012805D115
:1035F000D8F8000030F08050C8F80000A06900281A
:103600007BD03F48006810F00C00082849D0A06922
:10361000022835D1DFF80C910020C9F80000FEF730
:103620000FFF0700DFF8E080D8F80000800106D522
:10363000FEF706FFC01B0328F4D303205EE0E16918
:10364000206A0143606A51EA8011A06A4008401E66
:1036500051EA0041E06A51EA00612A480160012014
:10366000C9F80000FEF7ECFE0500D8F80000800164
:1036700043D4FEF7E5FE401B0328F6D303203DE0CC
:10368000002028490860FEF7DBFE05001E480068A0
:10369000800132D5FEF7D4FE401B0328F6D3032069
:1036A0002CE0A069012801D1012027E0154800681D
:1036B0000600A06901281ED016F48000E169884246
:1036C00019D116F03F00216A884214D147F6C07024
:1036D0003040616AB0EB811F0DD116F44030A16A11
:1036E0004908491EB0EB014F05D116F07060E16A40
:1036F000B0EB016F01D0012000E00020BDE8F283B3
:1037000008380240043802400038024000004742B6
:10371000800E47427438024040380240007000403A
:10372000703802406000474238B50400002C01D1D7
:10373000012057E0607F002804D10020207720007E
:10374000FEF7B3FD022060772068C068C00640D451
:10375000CA2021684862532021684862200000F096
:1037600045F905002800C0B200281ED120688168F4
:10377000DFF8680201402068816020688168606825
:103780000143206901436069014320688160E0686A
:103790002168086120680069A16850EA0140216839
:1037A0000861200000F04AF905002800C0B2002896
:1037B0000BD12068006C30F48020216808642068F8
:1037C000016CA069014320680164FF202168486200
:1037D00000E000252800C0B2002801D10120607758
:1037E0002800C0B232BD2DE9F04705000E001400DC
:1037F0005FF00008287F012801D1022068E0012045
:10380000287702206877002C20D12868806840063D
:1038100001D40020F070307800F029F981467078EA
:1038200000F025F98246B07800F021F907005FFA30
:1038300089F95FFA8AFA5FEA0A2A5AEA094AFFB264
:1038400057EA0A07F07857EA80570FE0286880683F
:10385000400601D40020F07031787078000250EA00
:103860000140B7780743F07857EA8057CA202968A3
:103870004862532029684862280000F0B7F8804663
:103880004046C0B2002816D1DFF8540138402968FC
:1038900008602868806830F480202968886028687B
:1038A0008168F0680143306901432868816028001D
:1038B00000F0C4F880464046C0B2002801D1012083
:1038C0006877FF2029684862002028774046C0B208
:1038D000BDE8F0872DE9F04705000E001400002731
:1038E000287F012801D102205CE0012028770220F6
:1038F0006877002C07D17078C00604D5707810F076
:10390000EF000A307070002C1BD1F07800F0AFF897
:103910008146707800F0ABF88246B07800F0A7F8E6
:1039200080465FFA89F95FFA8AFA5FEA0A2A5AEA58
:10393000094A5FFA88F858EA0A08307858EA4038A5
:103940000BE0F1787078000250EA014096F80280AE
:1039500058EA0008307858EA4038CA202968486296
:10396000532029684862280000F040F8070038001A
:10397000C0B2002809D1DFF86C0010EA08002968FD
:103980004860280000F05AF807003800C0B200284C
:1039900001D101206877FF2029684862002028773C
:1039A0003800C0B2BDE8F08770B5040000250E48AD
:1039B0002168C860FEF744FD06002068C0688006E4
:1039C00008D4FEF73DFD801B40F2E9318842F4D374
:1039D000032000E0002070BD00000000BFFF8FFF4B
:1039E0007F7F7F003FFFFF005F3F010070B5040055
:1039F000002500262068C06840061CD42068C068E6
:103A000050F080002168C860FEF71AFD05002068AC
:103A1000C06840060FD43000C0B201280BD0FEF7BA
:103A20000FFD401B40F2E9318842F0D3042060775B
:103A300001200600EBE73000C0B270BD38B50400CD
:103A400000252068C06830F080002168C8602068C8
:103A50008068800608D42000FFF7A6FF002803D066
:103A600004206077012005002800C0B232BD00218B
:103A70000200D2B20A2A02D3491C0A38F8E750EAF7
:103A80000110C0B27047000010B50400002C01D135
:103A900001205FE0606A002806D16068B0F5827F8F
:103AA00006D00020E06103E000202061002060617A
:103AB0000020A06294F85100002805D1002084F86D
:103AC00050002000FEF70EFC022084F85100206810
:103AD000006830F0400021680860606810F482706F
:103AE000A16811F404410843E16811F4006108433E
:103AF000217C11F002010843217D11F001010843EE
:103B0000A16911F400710843217F11F038010843C5
:103B100094F8201011F080010843A16A11F40051BB
:103B2000084321680860A069000C10F0040094F8B4
:103B3000241011F010010843216848602068C06912
:103B400030F400602168C86100206065012084F8BD
:103B50005100002010BD7CB5040020684568206835
:103B6000866816F04100012805D1680603D52000BB
:103B7000216C884782E0B00705D5280603D52000D0
:103B8000616C88477AE016F4B07F77D0A80675D5C7
:103B900070061BD594F8510003280DD0606D50F0CD
:103BA00004006065002000902068C06800902068D4
:103BB00080680090009809E0002000902068C068AC
:103BC0000090206880680090009857E0B0060FD5FC
:103BD000606D50F0010060650020009020688068F2
:103BE00000902068006830F040002168086000986C
:103BF000F00509D5606D50F0080060650020009068
:103C00002068806800900098606D002835D020689A
:103C1000406830F0E00021684860012084F85100DD
:103C200015F0030F26D020684068800880002168C6
:103C30004860E06C00280CD00FF24500E16C08658C
:103C4000E06C00F029F8002803D0606D50F04000CF
:103C50006065A06C002810D00FF22500A16C0865EB
:103C6000A06C00F019F8002807D0606D50F04000FB
:103C7000606502E0200000F023F8FFE773BD00005C
:103C800038B50400A56B0020E8870020E8862800EE
:103C900000F016F831BD0000010091F8350002284F
:103CA00003D080204865012009E0052081F8350017
:103CB00008680068400840000A68106000207047EB
:103CC0007047000080B514490020FFF7B7FAFEE7FF
:103CD00080B512490020FFF7B1FAFEE780B5104920
:103CE0000020FFF7ABFAFEE780B50E490020FFF792
:103CF000A5FAFEE780B50C490020FFF79FFAFEE722
:103D000070477047704780B500F012F801BD80B56C
:103D10000648FFF720FF01BD483D0008A43D00080C
:103D2000003E00085C3E0008B83E0008B4040020D5
:103D300003480168034A127889180160704700BF80
:103D400084050020080000201B5B313B33316D0DE2
:103D50000A0D0A09202B2D2D2D2D2D2D2D2D2D2D2C
:103D60002D2D2D2D2D2D2D2D2B0D0A09207C2020C4
:103D700020202020204E4D492020202020202020BF
:103D80007C0D0A09202B2D2D2D2D2D2D2D2D2D2D8A
:103D90002D2D2D2D2D2D2D2D2B0D0A1B5B313B3364
:103DA000326D00001B5B313B33316D0D0A0D0A098A
:103DB000202B2D2D2D2D2D2D2D2D2D2D2D2D2D2D42
:103DC0002D2D2D2D2B0D0A09207C2020202048414F
:103DD0005244204641554C54202020207C0D0A0995
:103DE000202B2D2D2D2D2D2D2D2D2D2D2D2D2D2D12
:103DF0002D2D2D2D2B0D0A1B5B313B33326D000019
:103E00001B5B313B33316D0D0A0D0A09202B2D2D23
:103E10002D2D2D2D2D2D2D2D2D2D2D2D2D2D2D2DD2
:103E20002B0D0A09207C202020204D454D204D419E
:103E30004E414745202020207C0D0A09202B2D2DA6
:103E40002D2D2D2D2D2D2D2D2D2D2D2D2D2D2D2DA2
:103E50002B0D0A1B5B313B33326D00001B5B313B8A
:103E600033316D0D0A0D0A09202B2D2D2D2D2D2DF1
:103E70002D2D2D2D2D2D2D2D2D2D2D2D2B0D0A09DB
:103E8000207C2020202042555320204641554C5470
:103E9000202020207C0D0A09202B2D2D2D2D2D2DAD
:103EA0002D2D2D2D2D2D2D2D2D2D2D2D2B0D0A1B99
:103EB0005B313B33326D00001B5B313B33316D0DA9
:103EC0000A0D0A09202B2D2D2D2D2D2D2D2D2D2DBB
:103ED0002D2D2D2D2D2D2D2D2B0D0A09207C202053
:103EE00020205553414745204641554C5420202021
:103EF0007C0D0A09202B2D2D2D2D2D2D2D2D2D2D19
:103F00002D2D2D2D2D2D2D2D2B0D0A1B5B313B33F2
:103F1000326D0000F8B506000D0014000027002DDA
:103F200001D1002015E0012E04D0022E02D05FF056
:103F3000FF300EE0002C0BD02878FEF741FC6D1C02
:103F4000002802D55FF0FF3003E07F1C641EF1E71C
:103F50003800F2BD30B4002512E050F8042BD3072E
:103F600044BF4A44521E091F042942F8045BFAD296
:103F700013468C0744BF15809B1CC90748BF1D70A2
:103F800050F8041B0029E8D130BC704710B5074930
:103F900079441831064C7C44163404E00A68081D44
:103FA000114488470146A142F8D110BD2C00000001
:103FB0004C0000004EF68851CEF20001086840F433
:103FC00070000860BFF34F8FBFF36F8F4FF0017029
:103FD000E1EE100A704700007DFFFFFF8005000042
:103FE0000C0000200000000067D0FFFF0C00000064
:103FF00030010000000000200000000080B58DF8B6
:104000000000012269460120FFF784FF012802D148
:104010009DF8000002BD4FF0FF3002BD00F00DF82A
:10402000002801D0FFF7B2FFAFF300800020AFF30C
:104030000080FEF7D5FB00F002F80120704700F089
:1040400001B8000007463846FDF776FEFBE70000A2
:104050000448016851F4700101605FF0006002499A
:104060000860704788ED00E008ED00E00548014673
:1040700003B4684680F30988AFF30080FFF79AFF26
:10408000FFF7CCFFA5EDF5FE0D0A2028632920528D
:104090007573696B4F6B202573202573200D0A0003
:1040A00038B504460D462846FFF7A8FFA84218BFBA
:1040B0000024204632BD00000000000000005454DF
:1040C0005220524547474553000000001B5B324ACF
:1040D0001B5B306D1B5B313B33326D000000000019
:1040E0000000000001020304060708090148804798
:1040F00001480047514000086D40000841756720A5
:10410000203220323032360031353A32363A3530CC
:10411000000000005465726D696E616C0000000063
:10412000100000000024F400010000000000000066
:1041300001020304FFF7FEBFFFF7FEBFFFF7FEBF5C
:10414000FFF7FEBFFFF7FEBFFFF7FEBFFFF7FEBFA3
:10415000FFF7FEBFFFF7FEBFFFF7FEBFFFF7FEBF93
:10416000FFF7FEBFFFF7FEBFFFF7FEBFFFF7FEBF83
:10417000FFF7FEBFFFF7FEBFFFF7FEBFFFF7FEBF73
:10418000FFF7FEBFFFF7FEBFFFF7FEBFFFF7FEBF63
:10419000FFF7FEBFFFF7FEBFFFF7FEBFFFF7FEBF53
:1041A000FFF7FEBFFFF7FEBFFFF7FEBFFFF7FEBF43
:1041B000FFF7FEBFFFF7FEBFFFF7FEBFFFF7FEBF33
:1041C000FFF7FEBFFFF7FEBFFFF7FEBFFFF7FEBF23
:1041D000FFF7FEBFFFF7FEBFFFF7FEBFFFF7FEBF13
:1041E000FFF7FEBFFFF7FEBFFFF7FEBFFFF7FEBF03
:1041F000FFF7FEBFFFF7FEBFFFF7FEBFFFF7FEBFF3
:10420000FFF7FEBFFFF7FEBFFFF7FEBFFFF7FEBFE2
:04421000FFF7FEBFF7
:040000050800406D42
:00000001FF
