:020000040800F2
:1000000000050020F9740008896B00089D6B00084A
:10001000B16B0008C56B0008D96B00080000000038
:10002000000000000000000000000000ED6B000870
:10003000EF6B000800000000F16B0008F36B000894
:100040007D7500088175000885750008FB6B000848
:10005000897500088D750008917500089575000870
:10006000997500089D750008A1750008A575000820
:10007000A9750008AD750008B1750008B5750008D0
:10008000B9750008BD750008C175000800000000C2
:10009000000000000000000000000000C57500081E
:1000A000C9750008CD750008D1750008D575000820
:1000B000D9750008DD750008E1750008E5750008D0
:1000C000E9750008ED750008F1750008F575000880
:1000D000F9750008056C0008FD75000800000000B7
:1000E000017600080F6C000805760008000000008B
:1000F0000000000000000000000000000976000879
:10010000000000000D760008117600081576000842
:1001100000000000000000000000000000000000DF
:10012000197600081D76000821760008257600085B
:100130002976000800000000000000000000000018
:100140000000000000000000000000002D76000804
:100150003176000835760008397600083D760008CB
:10016000417600084576000800000000000000000D
:10017000000000000000000000000000000000007F
:1001800000000000497600080000000000000000A8
:100190004D760008517600082DE9F0439FB000BF6E
:1001A00065A6269CDFF8E88A8DF83B400291002482
:1001B0000B944FF0FF37044691461D460AE019F8AC
:1001C000011B0298A0470028029000F0A1800B9824
:1001D000401C0B9099F8000050B12528EFD1002168
:1001E0000022059106920791089209910A9203E074
:1001F0000B98A5E041F0010119F8010F2028F9D072
:1002000023280CD02B2804D02D2805D0302809D045
:1002100080E041F00201EFE741F00401ECE741F03A
:100220000801E9E741F01001E6E70D920AE00D98B8
:10023000404505DA00EB800002EB4002303A0D92B7
:1002400009F1010999F80020A2F130000A28EED343
:1002500099F800002E2818BF0C9726D119F8010F25
:100260002A2808D12868286009F1010950F8042BD0
:1002700028600C9219E02D280CBF09F1010900201B
:1002800000220C920BE040B90C9A424505DA02EBD1
:10029000820203EB4203303B0C9309F1010999F808
:1002A0000030A3F130020A2AEDD3ADF83810304601
:1002B00099F8001000F0A0FE08B119F8010B8DF8B4
:1002C0003A009DF83A00682805D199F8000068289E
:1002D0000CD1622106E06C2804BF99F800006C285C
:1002E00004D171218DF83A1009F1010910A8049088
:1002F0002A4619F8013B6946204600F061F838B9F2
:1003000010AA6946204600F091F900287FF562AFF7
:10031000384615E02A2888D12A682A6052F8040B4A
:100320002A6000280D9003D540420D9041F0040151
:1003300009F101098CE70000686A6C747A4C0000CE
:100340001FB0BDE8F083622820D0682811D06A2849
:1003500003D06C2827D0712825D10868C01D20F053
:1003600007000860D0E900230830086019461046ED
:100370007047002A0A680A60106803D0121D0A60DC
:1003800000B217E0121D0A6080B217E0002A0A6866
:100390000A60106803D0121D0A6040B20AE0121D04
:1003A0000A60C0B20AE0002A0A680A60106803D036
:1003B000121D0A60C1177047121D0A6000217047A4
:1003C00070B51C460D46B4F125002E69114600F0AB
:1003D0001B811C386AD0001F022867D9133843D00C
:1003E000093863D0801E16D0401E1ED0401E022841
:1003F0005CD9001F19D0401F00F08380401E33D00D
:10040000401E00F0CD80C01E00F0DC80801E2BD08E
:10041000C01E29D0FEE06869421C6A610A680A6051
:1004200052F8043B0A603354FEE095F83A0001228A
:10043000FFF789FFC5E900010023994204DA6869E2
:10044000411C69612D220DE0288F810704D5686960
:10045000411C69612B2205E0C00722D56869411C57
:100460006961202232541CE095F83A000022FFF71F
:100470006AFFC5E9000195F83800010711D5D5E9F3
:1004800000230020834208BF82420AD044F02000AB
:10049000782806D1686930213154401C421C6A61B9
:1004A0003454214668693044E86087E00868C01D1C
:1004B00020F007000860D0E9002308300860C5E993
:1004C0000023D5E90001C80F04D06869411C6961A7
:1004D0002D220DE0288F810704D56869411C6961D0
:1004E0002B2205E0C00704D56869411C6961202200
:1004F000325468693044E8602146284600F0C8F963
:1005000092E005F13A02507820B14FF0FF340FF637
:10051000502062E01078622808D0682824D06A2829
:1005200012D06C282ED071280ED02BE00A680A60F9
:1005300052F8040B0A6020B94FF0FF340FF6382050
:100540004BE0E96A01706FE00A680A6052F8040B38
:100550000A6020B94FF0FF340FF61C203DE0EA6A34
:10056000D317C0E900235FE00A680A6052F8040B61
:100570000A6020B94FF0FF340FF6FC102DE0E96A55
:10058000018051E00A680A6052F8040B0A6020B941
:100590004FF0FF340FF6E0101FE0E96A016043E01E
:1005A0000A680A6052F8040B0A60002120F0000279
:1005B00021F0FF33C5E90023EE607821284600F0E2
:1005C000BBF831E00868086050F8044B0860EC6044
:1005D0003CB94FF0FF340FF6B81000F019FD201AA7
:1005E00070BD2E6B002E04D5204600F031FD044670
:1005F00008E032460021204600F046FD002814BFE6
:10060000041B3446AC610FE06869411C6961252216
:10061000325409E06969481C68612522725421003E
:1006200002D0431C6B613454002070BD2DE9FC41A5
:100630000F46064690467A6B7869396ABC6A121A88
:10064000B869521A796A121AF869521A121A97F886
:100650003800141B41070FD42020002C8DF8000017
:100660000ADD254601236A463946304600F060FC23
:1006700000285DD16D1EF5D17B6942463946304672
:1006800000F056FC002853D130208DF800003D6A60
:10069000002D09DD01236A463946304600F048FC4A
:1006A000002845D16D1EF5D1BB69FA683946304640
:1006B00000F03EFC00283BD130208DF800007D6A20
:1006C000002D08DD01236A463946304600F030FC33
:1006D00070BB6D1EF6D1F868B969FB6942183946DE
:1006E000304600F025FC18BB30208DF80000BD6AB4
:1006F000002D08DD01236A463946304600F018FC1B
:10070000B0B96D1EF6D197F8380041070DD52020FD
:10071000002C8DF8000008DD01236A46394630467A
:1007200000F006FC20B9641EF6D10020BDE8F68179
:100730004FF0FF30BDE8F6812DE9FC4707468C46B7
:100740003E69BCF16F0F08BF082405D04CF02000B3
:10075000782814BF0A2410243C25D7E90023BCF1D3
:10076000640F18BFBCF1690F9046994606D100216D
:100770008B4203DAD8F1000869EB49094FF0000A0F
:10078000D14508BFD0451FD1386BE8B9082C4BD1F3
:1007900097F83800010747D530203B2586F83B0005
:1007A00042E000280ED597F8380000F01400102819
:1007B00008D17B6B7969386A5B1A1B1A9A1A002A6E
:1007C000C8BF3A62BDE8F3878DF800C0404649468D
:1007D0002246E31700F084FC3032D0B26D1E3A2876
:1007E000019504DB9DF80000A0F151018A187255B3
:1007F000404649462246E31700F072FC894680468F
:10080000D14508BFD04503D0F86871198842DDD3BF
:10081000082C09D197F83800010705D5705D3028FC
:1008200002D06D1E30207055C5F13C02BA617119BD
:10083000F960386B8242B4DA821A3A624FF6EF708E
:10084000398F01403987BDE8F3872DE9D04306464B
:100850000F4614464FF00008DFF8389412E0E00726
:1008600007D542464B463046394600F051FD064614
:100870000F464046494642464B4600F049FD64104B
:1008800080468946002CEAD130463946BDE8D083FF
:100890002DE9F34F054641F020048DB0D5E90089DC
:1008A000612C02AE09D0286B002848BF062003D473
:1008B00008BF672C01D101202863D5E90023580027
:1008C0004015401C0ED119030CD00320A8619DF8DF
:1008D000381061391A2902D20FF2D06111E00FF2FB
:1008E000D0610EE059004915491C0FD118030DD1F4
:1008F0000320A8619DF8381061391A2914D30FF22A
:10090000B861E868032200F0D5FDD3E1194621F073
:100910000043B3F5801F10460DD20027BB4208BF2D
:10092000BA42019703D111E00FF28861E9E701AA09
:1009300000F014FE0AE0DFF8607307EB1352DFF8F3
:100940005C3301921940DFF858331943C5E90001BF
:10095000612C0ED1E86830210170821CEA609DF89C
:10096000381061290CBF7821582141706869801CBA
:100970006861D5E900AB2BF0004300202AF00002AB
:10098000834204BF8242002300F05B81612C40F06F
:10099000AA80286B002847BF21210091401C0090AD
:1009A000009F7F1C404649460022002300F00EFEB7
:1009B000D94601998DF8082038BF89F00049091FF0
:1009C000002FD04601910DF1090040F34981B34950
:1009D000DFF8D0B20C91064640464946002200237B
:1009E00000F00CFE80F03B814800400D00F11C023D
:1009F00011D0002A0FDD40F2FF70824205DB09F0C2
:100A0000004040EA0B01002013E00C98014041EA4D
:100A1000025140460DE029F00043002028F000027A
:100A2000834208BF82420FBF40461C22404600F06E
:100A3000FDFD8046894600F097FEFF1F002F04460B
:100A400009DD00F0AFFE02460B464046494600F085
:100A5000BBFE80468946F01D072104E004F00F022A
:100A600000F8012D2411002C01DD491EF6D5491E88
:100A70005CBF002200F8012DF9D5ECE000201946FA
:100A800002AA0A4400E05B1E12F80149491E844292
:100A9000F9D00F2804D10DF10900425C521C4254D8
:100AA000002904D50198001D02AE5B1C0190591E5F
:100AB00012D49DF838007218A0F13A07147804F1A6
:100AC00030085FFA88F43A2CA8BFB844491E02F8EF
:100AD0000189F3D58DF83800286B002840F1B080EB
:100AE000591E2963ACE0404649460022002300F02D
:100AF0006DFD019938BF89F0004947F29750414395
:100B0000694A91FBF2F20192D2F1070204DD4046FC
:100B10004946FFF79AFE0AE0524200206349FFF778
:100B200094FE02460B464046494600F0BFFE804612
:100B3000662C286BDFF878B106BF019F0A370627BD
:100B40003F18142FC8BF142730208DF8080089469D
:100B50000DF1090000E03046002F34DD0646404626
:100B6000494600F0C7FF01460A4606F10803042083
:100B70000A26B2FBF6F606EB860EA2EB4E023032E8
:100B800003F8012C0A22B6FBF2F202EB820EA6EB6E
:100B90004E063036401E03F8026DE9D1083F002FA3
:100BA00003F10806D7DD084600F0B8FF02460B4601
:100BB0004046494600F008FE00225B4600F0A8FBD4
:100BC00080468946CBE70DF10901401A0DF109066F
:100BD00004E00199491E401E0191761C31783029AC
:100BE000F7D0662C02D10199491C03E0652C0CBF9B
:100BF000012100212B6BCB189842B8BF431E002B5C
:100C00001ED4834204DAF05C3528A8BF392000DA0C
:100C100030201946721E02EB010800E05B1E18F836
:100C20000199491E8145F9D0392802D1705C401CD8
:100C30007054002904D50198401C16465B1C019095
:100C4000019800B200901BB29DF838103246284639
:100C500000F034F82EE0C61D002F3FF7BDAE304641
:100C60000DF10901401A009903468842C8BF0B469E
:100C7000002B0DF109063FF52FAF8342BFF6FEAE04
:100C80000DF10900C15C07297FF7F8AE0F20F6E6E9
:100C9000CBCCCC0C0000244002FCFFFFFFFF0F80F8
:100CA0000000E03F0000F07FA08601000000F03F60
:100CB00084D797410FB0BDE8F08F00002DE9FC43C9
:100CC000054683B01F46D5F83080002F164602DC5B
:100CD0005FF00107B9A6894649F02000BDF9304010
:100CE000662808BF641C17D0672840F0888014F17C
:100CF000040FC0F28A80444580F2878095F838005E
:100D0000641C010702D44745B8BFB84620B2B8EB0F
:100D1000000848BF4FF000080FFA84F9E868A96995
:100D2000B9F1000F27DC4A1C30234354B8F1000FFF
:100D300003DC95F83800010703D5E9682E208854B4
:100D4000521C18EB090FB8BFC8F1000424B260426E
:100D50006862A044B845AA61B8BF4746EB68A86975
:100D60003FB2EF613A463146184400F0A3FBA8EBCE
:100D70000700A862C5E022B29742084419DA3A4651
:100D8000314600F097FBA8693818A9EB0707B8F1BE
:100D9000000FA8616F6203DC95F838100A0705D5CB
:100DA000EA682E211154E869401CE861C5F82880E2
:100DB000A7E0314600F07EFBA8693F1BB8F1000FA9
:100DC000484403DC95F838100A0703D5EA682E2159
:100DD0001154401CA86138B28045EB68A869B8BFBF
:100DE00047463AB206EB0901184400F063FBA969D3
:100DF0003FB27918A8EB0707A9616F6281E0B9F1EA
:100E0000610F16D14FF0700918E0474504DA95F8E4
:100E100038100A0758BFB846B8F1010848BF4FF06C
:100E20000008B9F1670F14BF4FF045094FF065098D
:100E300004E0B9F1410F08BF4FF05009A969EB6810
:100E4000481CA861B8F1000F16F8012B5A5403DCB6
:100E500095F838100A0719D5EA68431CAB612E21B2
:100E60001154B8F1000F11DD7F1E38B231468045B4
:100E7000EE68B8BF47463AB2F01800F01BFBA8690D
:100E80003FB23818A861A8EB07006862E868A96952
:100E90000844002C80F8009003D42B224270811C5F
:100EA00003E02D2141706442811C00206A460AE063
:100EB00023460A2493FBF4F404EB8406A3EB4603D5
:100EC00002F8013B401C24B2002CF1DC012806DCB6
:100ED00049F02002652A04BF302201F8012B48B9ED
:100EE000302001F8010B07E0401E1DF800303033C0
:100EF00001F8013B0028F7DCEA68A8691044091AE8
:100F0000E96195F8380000F0140010280DD16A69E5
:100F1000A969686A8A18E9698218A86A8A18821811
:100F2000686B8242BCBF821A2A6205B0BDE8F083BA
:100F3000F8B505460E4617461C46002074B117F852
:100F4000011BB068A847B06030B1F06A401CF06285
:100F50000020641EF3D1F2BD4FF0FF30F2BD00005F
:100F60007072696E74665F733A20256E20646973CF
:100F7000616C6C6F776564007072696E74663A209C
:100F800062616420256E20617267756D656E740004
:100F90007072696E74665F733A20626164202573B3
:100FA00020617267756D656E740000006E616E0081
:100FB0004E414E00696E6600494E4600300030B426
:100FC000002513E050F8042BD30744BFA9F1010317
:100FD0009A18091F042942F8045BFAD213468C07B9
:100FE00044BF15809B1CC90748BF1D7050F8041BE7
:100FF0000029E7D130BC70470278C9B28A421AB1E1
:101000001CBF10F8012FF9E718BF0020704700003F
:1010100080B500B906A005490B681BB1222200214A
:10102000984701E000F087FD222002BDF400002077
:10103000636F6E73747261696E742068616E646C44
:1010400065723A20626164206D6573736167650043
:1010500000F10103810704D010F8011B820781B160
:10106000FAD10268A2F10131914311F0803104BF3D
:1010700050F8042FF6E709BAB1FA81F100EBD1007C
:10108000401CC01A70470000C9B2830706D0521E28
:1010900022D310F8013B9942F7D11FE0083A13D34D
:1010A00002F1040241EA012141EA014150F8043B06
:1010B000121F21BF4B40A3F1013C2CEA030C1CF092
:1010C000803FF3D0C9B2001F083210F8013B521E16
:1010D00028BF91EA030FF8D818BF0120401E7047BF
:1010E000BBBBE1B1B2F5803F80F07E80022A1ED901
:1010F0008C46B1FBF2F102FB11C31B0443EA10431F
:10110000B3FBF2FC02FB1C3380B240EA0343B3FBA7
:10111000F2F002FB103240EA0C4000237047022A32
:1011200005D98446B0FBF2F002FB10C270474AB109
:1011300005D100F0010249085FEA30007047002243
:101140000023704700F0FABC0B00020000210020D1
:101150007047904271EB030CF6D3B3F5803F2FD26A
:10116000F0B5B3FA83F7B1FA81F4A7F10F0E3D1B86
:101170005340CEF1200602FA0EF2F3415340B5F18E
:101180000F0746D80F3C2C444140C4F12006A04034
:10119000F1414140B1FBF3F603FB1611A2FB0645FA
:1011A000001BA94102D2761E8018594180EA010233
:1011B00021FA0EF362FA0EF200215A403046F0BDD9
:1011C00030B4B1FBF3FC03FB1C11A2FB0C45001B6C
:1011D000A94103D2ACF1010C8018594130BC024640
:1011E0000B46604600217047B2F1807F65D3F0B5B1
:1011F000B2FA82F7B1FA81F4C7F10F063D1B22FA69
:1012000006F307F1110EF24120355A40B5F10F07F0
:10121000B8D94140C4F12006A040F1414140B1FBA2
:10122000F3FC03FB1C11A2FB0C45001BA94103D2DC
:10123000BCF1010C801859410F2F12D30F3FC90385
:1012400041EA5041B1FBF3F603FB1611A2FB064540
:10125000D4EBC030A94102D2761E8018594146EA2B
:10126000CC3C07B34140C7F12006B840F1414140B2
:10127000B1FBF3F603FB1611A2FB0645001BA941C7
:1012800002D2761E8018594180EA010221FA0EF33B
:10129000C7F1200462FA0EF20CFA07F05A402CFA59
:1012A00004F13043F0BD80EA010221FA0EF300217F
:1012B00062FA0EF260465A40F0BD8C46B1FBF2F184
:1012C00002FB11C31B0243EA1063B3FBF2FC02FBF7
:1012D0001C331B024CEA002043EA1063B3FBF2FC10
:1012E00002FB1C331B024CEA002043EA1063B3FBF1
:1012F000F2FC02FB1C331B024CEA002043EA1063A1
:10130000B3FBF2FC02FB1C324CEA002000237047C6
:10131000B0B581EA030C0CF0004C40F2FF7515EA01
:1013200011541DBF15EA1357AC42AF4239E0E4191E
:1013300023EA455343F48013C90241F0004141EAD6
:10134000505EC7021100A7FB020200284FF0000008
:10135000EEFB01204FF00001E3FB072118BF42F034
:101360000102401800214941E3FB0E01A4F580640D
:101370000F0302D252004041494154F101046CDD97
:10138000470872F1004250F1000051EB0451A1F501
:1013900080115CBF41EA0C01B0BD4CEA0551002050
:1013A000B0BD05EA1357AC4214BFAF4241E050EA6A
:1013B000410E1CBF52EA430E02E061460020B0BD60
:1013C00024423C441BD15FEA070EF6D0090302BF5A
:1013D00001460020AEF1140EB1FA81F7AEEB07041E
:1013E00001FA07FE0C37C7F1200100FA07F7C840E1
:1013F0004EEA000E23EA455343F48013A2E733F08C
:101400000043B3FA83F704BFB2FA82FE77440B3F7E
:10141000E41BB7F1200E2FBF02FA0EF3BB40C7F159
:10142000200E22FA0EFE38BF43EA0E03BA40641CB7
:1014300082E750EA410E14BF52EA430E6FF00001FA
:101440004FF4001717EB430F8ABF194617EB410FF4
:10145000B5E74CEA05510020B0BDD4F10104B4F168
:1014600020070FDAC4F12007520828BF42F001021A
:1014700010FA07F501FA07F7E1BF2A43E0403843C5
:10148000E1400FE0352C98DCC7F1200452EA40021D
:1014900020FA07F218BF42F0010231FA07F0A1402A
:1014A0000A43002172F1004250F1000051EB0C019F
:1014B000B0BD000062B38B0708D0521E11F8013B8B
:1014C00000F8013B00F024808B07F6D1830740F041
:1014D000208000BF103A07D330B4B1E83810103A7A
:1014E000A0E83810F9D230BC530724BFB1E8081087
:1014F000A0E8081044BF51F8043B40F8043BD20771
:1015000024BF31F8022B20F8022B44BF0B78037064
:101510007047121F17D35B0009D151F8043B20F824
:10152000023B1B0C121F20F8023BF6D20BE051F8D5
:10153000043B00F8013B1B0A20F8023B1B0C121F66
:1015400000F8013BF3D238BF121D521E24BF11F820
:10155000013B00F8013BF8D87047000010B5144675
:1015600000F002F8226010BDC1F30A5343B14A00F3
:1015700012F5001F28D2A3F2FE32A1EB02517047F0
:1015800050EA410C20D001F0004C31EA0C01B1FAD4
:1015900081F204BFB0FA80F3D2180B3AB2F1200303
:1015A0002CBF00FA03F1914041EA0C013EBFC2F1A9
:1015B000200C20FA0CF319439040524240F2FD33C4
:1015C000D21A01EB03517047002270474FF4001C00
:1015D0001CEB410F94BF1CEB430F09E041EA030CE5
:1015E00050EA4C0C52EA0C0C03D2994208BF9042CC
:1015F000704714BF8B428242704700004FF4001CBA
:101600001CEB410F94BF1CEB430F09E041EA030CB4
:1016100050EA4C0C52EA0C0C03D28B4208BF8242B7
:10162000704714BF9942904270470000124254D450
:1016300040F2FF7C1CEA11530FD0634531D09B1858
:1016400063453CBF01EB0251704701F0004141EAA4
:101650000C510020AFF30080704750EA410320D0C6
:1016600001F0004C91EA0C011CD0B1FA81F30B3B64
:101670009A420DD9D21A994051EA0C01C3F1200CBB
:1016800020FA0CFC61449840531C40F2FF7CD7E7E1
:10169000914041EA0C01C2F1200C20FA0CF31943ED
:1016A00090407047B0FA80F31533202BE0D3202A06
:1016B000EED3203A203B9A4209D9D21A00FA03F11C
:1016C00041EA0C010020531C40F2FF7CB8E700FA0D
:1016D00002F141EA0C0100207047524240F2FF7CC7
:1016E0001CEA11530DD06345DBD0B2EB030C3CBFB9
:1016F000A1EB025170470CF1010221EA035141F4C0
:10170000801150EA410CCCD001F0004C352A27DC86
:1017100030B481EA0C01B2F1200309DAC2F12003EE
:10172000044601FA03F5D0402843D1409C400CE028
:10173000C3F12002450020FA03F418BF44F001046D
:1017400021FA03F091400C43002174F1004550F15F
:10175000000051EB0C01244230BC7FF47BAF70479A
:101760006146002076E70000C1F30A5340F2FE32E2
:101770009B1A14DDD3F120034FEAE17208DDC902A0
:1017800041EA505141F00040D84080185040704725
:1017900003F2E13010B1D24382F0004070470020E4
:1017A00070470000C11768B14840401AB0FA80F293
:1017B0009040D21CC907C2F5846241EA025202EB92
:1017C000D02140057047000070B44FF0004591EA09
:1017D000030F40F1BD816B40841A71EB030603D205
:1017E000001BB141121973414FF4001C1CEB410F57
:1017F00034BF7CEB430442E00C0DA4EB1356352EB2
:101800004FDC45EAC323DB0A45EAC121C912B6F120
:1018100020050DDD63FA05F6EB4086EA030512426A
:1018200018BF45F00105C01851F100010CD213E0BA
:1018300062FA06F5F2405540F3415A40B340F34096
:101840005A408018594107D349085FEA30005FEADF
:10185000350528BF45F0010501F58011420875F1F5
:10186000004250F1000041EB04514E0016F5001FFC
:1018700070BC38BF70470020090D090570471CEB8C
:10188000410F10D252EA43060BD0BCEB410F05D8F2
:101890000C0DAB43661E342EB6DD02E0AB43801860
:1018A000594170BC704770BC70470000F0B540F201
:1018B000FF7581EA030C0CF0004C15EA11541DBFB2
:1018C00015EA1357AC42AF42E5E0BC41C1F3130146
:1018D000C3F31303801A994143F4801304D2641EA6
:1018E0004000494180185941C90241EA5051B1FBB9
:1018F000F3F603FB1611A2FB0675D7EBC020A94136
:1019000002D2761E80185941C90241EA5051B1FBFA
:10191000F3FE03FB1E11A2FB0E75D7EBC020A941FD
:1019200003D2AEF1010E80185941890241EA90516B
:10193000760546EA8E2EB1FBF3F603FB1611A2FBE9
:101940000675D7EB8020A94102D2761E8018594136
:10195000C90241EA50514EEA060EB1FBF3F603FB11
:101960001611A2FB0675D7EBC020A94102D2761E44
:1019700080185941C90241EA5051B1FBF3F703FB0A
:101980001711A2FB0735D3EBC020A94167F100076F
:101990000CBF004247F0010766F3D5274FEA1E311E
:1019A000B80814F5806412DDBD0775F1004250EBF4
:1019B0000E5051EB045111F5801F5CBF41EA0C0140
:1019C000F0BD4CF07F6141F0E0410020F0BDBD076B
:1019D0006D0840EA0E5041F48011D4F10104B4F1D5
:1019E00020060ADAC4F120060200E04001FA06F3FC
:1019F000E1401843B24015430EE0342C13DCC6F12D
:101A0000200445EA40056D0820FA06F2154321FA44
:101A100006F0A1400D43002175F1004250F1000095
:101A200051EB0C01F0BD00205FEA0C01F0BDCFB915
:101A300092185B41B3FA83F704BFB2FA82F6BF197A
:101A40000B3FB7F120062FBF02FA06F3BB40C7F1E8
:101A5000200622FA06F638BF3343BA401CB1E41917
:101A6000641E33E77F4231F00041B1FA81F404BFD4
:101A7000B0FA80F6A4190B3CB4F120062FBF00FA8F
:101A800006F1A140C4F1200620FA06F638BF314322
:101A9000A0403C1B1AE7AC421ABF05EA1357AF42FD
:101AA00012E050EA41061CBF52EA4306BFE750EA83
:101AB0004107304661461CBF41EA0551F0BD52EA7C
:101AC000430C08BFC143F0BD00204FF4001616EBD5
:101AD000410F98BF16EB430F08BF16EB410F24BF11
:101AE000C14305E016EB430F0CBF61464CEA0551BC
:101AF000F0BD0000400D491840EA81200CD2490D8C
:101B0000A1F58061491C40F0004005DBD1F11F01C7
:101B100054BFC840C017704700207047014648B105
:101B2000B0FA80F18840C91CC1F58461090501EB58
:101B3000D02140057047012000F0C0B87047000078
:101B400070B44FF0004591EA030F7FF545AE6B404E
:101B5000841A71EB030604D26E40001BB1411219C6
:101B600073414FF4001C1CEB410F34BF7CEB430668
:101B700083E00C0DA4EB1356362E00F37C80012E6F
:101B800045EAC32341DC43EA525312BFD202920218
:101B90005B08240545EAC12141EA5051D2EBC0203F
:101BA000994125D407D1B0FA80F610FA06F162D037
:101BB0000020203608E0B1FA81F6B140C6F12002DB
:101BC00020FA02F21143B0404FEAF474B4EB4654E9
:101BD00034F001064FEA74040AD8D6F50016760DE3
:101BE00004F00044F04061FA06F25040F1404840F1
:101BF000C00A40EA415021F0004128BF5FEA500589
:101C000050F1000044EBD12135E0DB0A45EAC12167
:101C1000C90AB6F120050EDD42EA0242120CC5F1F6
:101C2000200603FA06F6EB4042EA06056D429841AB
:101C300061F100010DE062FA06F5F240554063FAE9
:101C400006FC82EA0C02F3405A406D42904161EB7F
:101C5000030111F4801F05D1641E620502D06D00DE
:101C60004041494121F48011430875F1004350F18E
:101C7000000041EB045170BC70471CEB410F15D2C2
:101C800023F0004352EA43060BD04FEA4C0CBCEB66
:101C9000410F04D80C0D661E342EB7DDEBE7801A19
:101CA000994150EA410608BF0021E4E708BF1CEB58
:101CB000430F28BF6FF00001DDE7000080B5AFF3F0
:101CC0000080024A11001820ABBEFBE7260002008C
:101CD00003460846C1680269491C521E002A026177
:101CE000C16003D400680122002118474FF0FF3083
:101CF0007047034608461146C268521E11F1010F93
:101D0000C26002D000680022184770472DE9F84FE2
:101D100088B04FF0FF370091B8461B68129DDFF87E
:101D2000606C01938DF81F500023039302920FF211
:101D300094190FF2981A044602E00298411C02918D
:101D4000DDF808B09BF80000A0F10902052AC0F0F8
:101D50009F80202800F09C8028B9404500DA40464A
:101D600009B0BDE8F08F25280BD10BF101000290DE
:101D700001782A2903BF401C029010F8011D0021A0
:101D800011E00398401C0390012200980021A04715
:101D90009BF800108842D0D0024669462046FFF7E3
:101DA000A8FF0020D9E78DF81C10002105910AE05A
:101DB0000598B04205DA00EB800301EB43013039AE
:101DC0000591501C0290029A1178A1F130000A2866
:101DD000EED3069750461178FFF70EF920B102981E
:101DE000401C0290401E00788DF81D009DF81D00DB
:101DF000682805D10299087868280CD1622206E08B
:101E00006C2802BF029908786C2804D17122491C01
:101E10008DF81D200291029801784846FFF7ECF8F2
:101E2000B0B90398401C0390012200980021A047FC
:101E3000A0F109010529F4D32028F2D00399491E05
:101E400010F1010F039103D0014600980022A04732
:101E50006946204600F03EF800280CDDB8F1000F7E
:101E60009DF81E0048BF4FF0000800283FF465AF02
:101E700008F1010861E72DB110F1230F08BF3846C2
:101E80003FF46EAFB8F1000F7FF569AF804666E7AB
:101E90000398401C0390012200980021A047A0F164
:101EA00009010529F4D32028F2D00399491E10F125
:101EB000010F03913FF441AF014600980022A04773
:101EC0003BE7000063436E5B00000000686A6C74CF
:101ED0007A4C000070B505460C460020A368A07738
:101EE0001E78253E6AD01C3E23D0361F022E20D9F4
:101EF000133E1AD0F61E7AD0B61F1AD0B61E12D0D4
:101F0000761E12D0761E022E13D9361F0DD0761FE4
:101F100013D0761E012E08D9361F4DD0B61E04D020
:101F2000F61E02D070BD002263E02846BDE8704076
:101F300057E12846BDE8704066E2207F002847D17F
:101F4000607F622808D068281CD06A280ED06C28D0
:101F500021D071280AD01EE06168616051F8040B3D
:101F6000616000281DD0E168017031E06168616046
:101F700051F8040B6160002813D0E268D317C0E960
:101F8000002325E06168616051F8040B616040B195
:101F9000E16801801CE06168616051F8040B6160D8
:101FA00038B90FF6EC10FFF733F84FF0FF34201A72
:101FB00070BDE16801600BE001221AE0E068401C9E
:101FC000E060012220680021A8470646252E01D1A5
:101FD000012070BD324621462846FFF78AFE16F1E1
:101FE000010F02D14FF0FF3070BD002070BD4FF0E7
:101FF000FF322846BDE8704021E0C9B208E003780E
:102000009942A4BF90F802C08C4514DAC01CD21EBD
:10201000032A09D343782D2BF1D010F801CB8C453E
:1020200018BF521EF4D106E03AB110F8013B8B42C2
:1020300018BF521EF8D101207047002070472DE9CB
:10204000F04F14460026002C83B080460D464FF01A
:10205000000B25D5A868411CA960084601785E29B7
:1020600003BF401CA86010F801ADB246AF683878D5
:102070005D280CBF781C38465D21FEF7BDFF0028A7
:1020800000F0A280C11B0091A8600098032807DB24
:10209000821E2D21781CFEF7F7FF08B14FF0010BCF
:1020A0006869002804DC002C14BF6FF00040012098
:1020B0002861287F60B96868686050F8049B686090
:1020C000B9F1000F04D14FF0FF340FF6E0000FE03C
:1020D000287FB0B9E87FA0B16968696051F8040B46
:1020E0006960B0F1004F07D34FF0FF340FF6E00006
:1020F000FEF78EFF201A71E0A969884288BF084662
:10210000A861CDF808B0CDF804A0DDF800B02969C9
:10211000491E2961E868401C0029E8605BD42868F2
:1021200001220021C04782461AF1010F36D0002C4F
:1021300013DDAAF10900052830D3BAF1200F2DD004
:10214000287F40B9A86940B309F801AB0121A977FC
:10215000A869401EA8610226D9E7F1D50298002897
:1021600001980DD100285A465146384604D1FEF751
:102170008BFF0028E4D111E0FEF786FF70B9DFE79E
:1021800000285A465146384604D1FFF736FF00284A
:10219000D6D103E0FFF731FFF0E70126524629468A
:1021A0004046FFF7A6FD0CB1022E09D0022E10D03A
:1021B000F00702D41AF1010F06D14FF0FF300DE005
:1021C000287F30B9A86908B9002007E0002089F805
:1021D0000000012002E04FF0FF3ADFE703B0BDE866
:1021E000F08F2DE9F8450D4688B0804668690028D3
:1021F000D8BF6FF000402861EA464046FFF768FD0F
:102200002B2818BF2D2807D18DF8000029464046FD
:10221000FFF75EFD0DF1010AA96809780022642923
:1022200014BF75290A240DD0692908BF002409D0DC
:102230006F2908BF082405D070291ABF41F020017A
:1022400078291024302817D129464046FFF740FD51
:1022500040F020010126C9B278290AD1002C18BF0C
:10226000102C13D129464046FFF732FD10240026DA
:102270000CE05CB9082409E004B90A24564601467A
:102280001AE0286801220021C0470126302840F0CA
:10229000AB80E8682969401C491E00292961E86073
:1022A000EFD54FF0FF300122A2E0E960012228685B
:1022B0000021C0470146012211F1010F00F09C806E
:1022C000C8B26128A8BFA1F157030ADA4128A8BF04
:1022D000A1F1370305DA30380A2834BFA1F1300301
:1022E000FF23DBB2E0B2834280F086800DF11F0055
:1022F000864238BF06F8011BE9682869491C401E60
:1023000000282861D1D54046E9604FF0FF38012709
:1023100042462946FFF7EDFC3FB96E450ABF18F16A
:10232000010F00204FF0FF306AE000213170287F5C
:10233000002857D1A8680078642818BF692811D1EF
:102340002246684600F0C2FB6B7F0122622BAA770F
:102350001ED0682B2FD06A2B23D06C2B33D0712B3F
:102360001FD030E02246684600F064FC0122AB68D2
:10237000AA771A78702A26D06A7F622A08D0682A3B
:1023800019D06A2A0DD06C2A1DD0712A09D01AE002
:102390006B686B6053F8042B6B60002A19D01070C7
:1023A00020E06B686B6053F8042B6B60002A10D040
:1023B000C2E9000116E06B686B6053F8042B6B6098
:1023C0003AB110800EE06B686B6053F8042B6B60C1
:1023D0003AB90FF21C60FEF71BFE4FF0FF35281ACA
:1023E0000EE0106001200BE0324611003FF446AFD2
:1023F00030210AF8011B41E740468846174687E727
:1024000009B0BDE8F08500002DE9F04F0D4693B00E
:1024100069690029D8BF6FF0004129610646294645
:10242000FFF756FC2B2818BF2D280DF110084FF090
:10243000000907D18DF8100029463046FFF748FC07
:102440000DF111080A2230288DF800208DF8019036
:102450001DD129463046FFF73BFC40F02001C9B2B0
:10246000782905D001228DF801209DF80110CDE0DA
:10247000302088F8000088F8011030462946FFF720
:1024800027FC102108F102088DF80010EDE740F05C
:102490002001CAB26E2A53D18DF800906E2108F83F
:1024A000011B30462946FFF713FC044644F0200088
:1024B000C0B2612840F03C82612108F8011B30461F
:1024C0002946FFF705FC044644F02000C0B26E2800
:1024D00040F02E8229463046FFF7FAFB0246282AB2
:1024E00000F0CE8129463046FFF703FC6E2008F845
:1024F000010B002188F80010287F002840F0BE81E1
:102500009DF800000B280B4680F26C814A4604A817
:1025100000F09AFD92E14FF0FF30A0F16101044616
:102520001A2921BFA0F141021A2A30380A28C0F026
:10253000A7815F2C00F0A481292C40F0F981D5E718
:10254000C9B2692940F0B2818DF8009008F8011BEA
:1025500030462946FFF7BCFB044644F02000C0B2D9
:102560006E2840F0E5816E2108F8011B30462946AF
:10257000FFF7AEFB044644F02000C0B2662840F0EE
:10258000D78129463046FFF7A3FB40F02001C9B2AE
:10259000692906D0024629463046FFF7AAFB662085
:1025A000A5E729463046FFF793FB044644F0200098
:1025B000C0B26E2840F0BC8129463046FFF788FB48
:1025C000044644F02000C0B2692840F0B181294699
:1025D0003046FFF77DFB044644F02000C0B274286B
:1025E00040F0A68129463046FFF772FB044644F0CE
:1025F0002000C0B2792840F09B81662108F8011BB9
:1026000077E7286801220021B0470121302840F0F7
:102610004581E8682969401C491E00292961E86054
:10262000EFD501214FF0FF308DF801103BE1EB6059
:10263000012228680021B047012110F1010F00F0AC
:102640003D81C3B2612BA8BFA0F157020ADA412B2A
:10265000A8BFA0F1370205DA303B0A2B34BFA0F146
:102660003002FF22D2B25A4580F03081242CBABF0A
:1026700007F8010B641C0AF1010AEB6828695B1C6E
:10268000401E00282861D2D50296019503978DF847
:1026900000B0D1460198C3604FF0FF30012627E11A
:1026A000F960012238680021A8470126302840F04F
:1026B00026813869401E3861AAF1010AF968491C6F
:1026C0000028EDD502950197D146F9604FF0FF3013
:1026D0000126B9F1000F07D5039A521C039230214D
:1026E00002F8011D09F10109DDF808B0019D039F01
:1026F0009DF800A0314605E0E8600122286800212D
:10270000D847012110F1010F00F0FD80C3B2612B09
:10271000A8BFA0F157020ADA412BA8BFA0F13702E7
:1027200005DA303B0A2B34BFA0F13002FF22D2B2CF
:10273000524580F0E880242CBCBF07F8010B641CD4
:10274000E8682969401C491E00292961D4D58DF803
:1027500000A0E8605E460120B8464FF0FF348DF8D7
:102760000100DAE0702840F0E38008F8014B2946C8
:102770003046FFF7ADFA2B2818BF2D2805D108F8F1
:10278000010B29463046FFF7A3FA002104E0286830
:1027900001220021B0470121302840F0DC80E868A8
:1027A0002969401C491E00292961E860EFD54FF0D6
:1027B000FF300121D1E0384612E0BAF1080FBCBF6A
:1027C00004F8010B0AF1010AE8682969401C491E56
:1027D00000292961E860EED4286801220021B04771
:1027E0000121C2E0002204A800F02EFC0F4606469C
:1027F0003B4658004FEA8902400D02EB000111D020
:1028000000290FDD40F2FF70814205DB5D4903F0D6
:1028100000430020194311E06FF31E5343EA0151B6
:1028200030460BE027F00041002326F000009942DB
:1028300007BF984239463946FEF7F8FE0122AA77CB
:102840006A7F6C2A18BF4C2A08D16B686B6053F8FA
:10285000042B6B6042B1C2E900010FE06A686A6054
:1028600052F8044B6A6034B969A0FEF7D1FB4FF00F
:10287000FF34201A88E000F0FFFC2060012083E094
:10288000E8682969401C491E00292961E8603FF574
:1028900042AE286801220021B0473EE68DF80110C3
:1028A0009DF8011011B1302208F8012B9DF800B0FD
:1028B0009DF8011000244746CA46BEE602960195DF
:1028C0000397D1468DF800B00E4611E002960195AF
:1028D00003972E28D1468DF800B00E4608D10399F3
:1028E000491C039101F8010D01990298FFF7F0F9D5
:1028F000002C7FF4F9AE029D019FCA46D6E60295F0
:102900000197D146E5E68DF801105E469DF801106D
:102910008DF800A0B846044651B19DF8001044F06F
:1029200020000A29C0B27FF41DAF65283FF41DAF17
:10293000224629463046FFF7DCF99DF801000028C1
:102940007FF4D7AD04A9884508BF14F1010F96D1D3
:102950004FF0FF3018E00A0002D0302208F8012BB7
:102960004FF0000A4FF0FF374446A0F130020A2A28
:10297000FFF423AFA04604468DF80110D8E700000D
:10298000CBCCCC0C0000F07F13B0BDE8F08F000082
:102990007363616E665F733A2062616420256E2006
:1029A000617267756D656E74000000007363616E1F
:1029B000665F733A206261642025632C2025732CA6
:1029C000206F7220255B20617267756D656E7400E3
:1029D0007363616E665F733A206261642025632CC5
:1029E0002025732C206F7220255B2073697A650087
:1029F0007363616E665F733A2062616420696E740E
:102A00006567657220617267756D656E74000000A0
:102A10007363616E665F733A2062616420666C6FF7
:102A20006174696E672D706F696E7420617267756D
:102A30006D656E74000000002DE9FC410C008046BD
:102A400008BF6C46474600E07F1C3878A0F10901BA
:102A50000529F9D32028F7D02D2816BF2B2817F8E1
:102A6000016B2B261D462146384600F033F82268BC
:102A7000974205D1C4F8008000200021BDE8FC8108
:102A80002B2E05D14FF00043994209D2BDE8FC81BD
:102A90002D2EFBD1B1F1004F12D301D801280FD355
:102AA000AFF300800DB1012028602D2E19BF4FF02B
:102AB000FF306FF0004100204FF00041BDE8FC8185
:102AC000404261EB4101BDE8FC81000000BF0023F2
:102AD000B2E700002DE9FC4F85B00BB100241C606B
:102AE0000290054600E06D1C2878A0F10903052B33
:102AF000F9D32028F7D02D2818BF2B2807BF15F8A9
:102B0000010B8DF800002B238DF80030002A019175
:102B100003D4012A01D0252A03DB002955D00298CD
:102B200052E0002A0ADD102A04BF2878302802BFAC
:102B3000687840F0200078280ED10AE02878302804
:102B400018BF0A2208D1687840F02000782802D106
:102B50001022AD1C00E00822049500E06D1C2878CE
:102B60003028FBD00024039534A19246A0460026CD
:102B7000A14600278DF801104FEAEA7B10E09DF88E
:102B80000170C71BAAFB06010AFB09113446FFB2FC
:102B90000BFB06110023C846C61941EB03096D1C47
:102BA0002978A1F141001A2838BF203123A05246CC
:102BB000FEF76AFA0028E2D10499A942524607D1E9
:102BC000019810B1029801990860002000212DE0C1
:102BD00024A1039B895CEB1A591A00291AD40FDC33
:102BE0000021F01B69EB0101894509D301D8864218
:102BF00006D3D317FEF774FA414508BFA04209D0A7
:102C0000AFF30080069808B1012101604FF0FF3654
:102C1000B14606E09DF800002D2802D1764269EB0E
:102C20004909019800B105603046494607B0BDE842
:102C3000F08F000000BF00234CE70000303132333A
:102C40003435363738396162636465666768696A46
:102C50006B6C6D6E6F707172737475767778797A4C
:102C60000000000000004129211C1917161514133B
:102C700012121111111010100F0F0F0F0E0E0E0E59
:102C80000E0E0E0D0D0D0D0D0D0000000D0A0909A3
:102C900020E29591E29594E29597E2959AE29597D4
:102CA000E29591E29594E29590E29590E2959DE20D
:102CB0009591E29594E29590E2959D20202020E266
:102CC0009591E29591E29591E29591E2959AE2953E
:102CD00090E29597E29594E29590E2959DE2959425
:102CE000E2959DE29591E29591E29594E29597E2C5
:102CF0009591E29591E29594E29597E29591000085
:102D00002DE9B04C41EC100B2DED028B43EC182B50
:102D100053EC102B23F00041B1F5801F82B00DD28F
:102D20000022914208BF9042009216D06A4651ECB0
:102D3000100BFEF713FC41EC100B0EE0DFF8A8447B
:102D4000DFF8A87404EB115000903B40DFF8A004BA
:102D5000924643EA000B4BEC10AB53EC102B51ECBA
:102D6000180BFEF7D5FA41EC100B4800009A400D05
:102D70001218C8B1002A17DD40F2FF70824209DB49
:102D80009FEDAD1B53EC112B01F000410B4343ECC5
:102D9000102B19E06FF31E5141EA025155EC104B14
:102DA0000D4645EC104B0FE051EC100B21F00041AB
:102DB0000022914208BF904206D0009A51EC100BBD
:102DC000FEF734FC41EC100B64E000002DE9B04C40
:102DD00041EC100B2DED028B43EC182B53EC102B18
:102DE00023F00041B1F5801F82B00DD20022914244
:102DF00008BF9042009216D06A4651EC100BFEF7C5
:102E0000ADFB41EC100B0EE0DFF8DC43DFF8DC73C8
:102E100004EB115000903B40DFF8D403924643EAA4
:102E2000000B4BEC10AB51EC100B53EC182BFEF7D6
:102E30003DFD41EC100B4800009A400D1218C8B13E
:102E4000002A17DD40F2FF70824209DB9FED7A1BFA
:102E500053EC112B01F000410B4343EC102B19E014
:102E60006FF31E5141EA025155EC104B0D4645ECF3
:102E7000104B0FE051EC100B21F000410022914269
:102E800008BF904206D0009A51EC100BFEF7CEFB23
:102E900041EC100B02B051EC100BBDEC028BBDE805
:102EA000B08C00002DE9F0442DED028B002A41EC9E
:102EB000180B1D4600F0B98021F000474FF0000AC2
:102EC00020F00006574508BF564500F0AE80480088
:102ED0004015401C02D1090300F0A780002A9FED95
:102EE000580B16D552420FF2483708261446002CCC
:102EF00018BF002E54D0E00707D5D7E9002351ECC6
:102F0000100BFEF705FA41EC100B64080837761E2B
:102F1000EDE773DD0FF2183708261446E00707D5F2
:102F2000D7E9002351EC100BFEF7F2F941EC100B3E
:102F300064100837761E002C01DD002EEED153EC14
:102F4000102B51EC180BFFF7DBFE21F0004320F0B3
:102F50000002534508BF524541EC180B4ED04800C3
:102F60004015401C01D1090348D0002C46DDA14A80
:102F7000A14B51EC180BFFF7C3FE20F0000231F01B
:102F8000004308BF524541EC180B37D048004015AC
:102F9000401C01D1090331D0641E002CE7DC2DE078
:102FA00053EC102B51EC180BFFF710FF21F00043EE
:102FB00020F00002534508BF524541EC180B1DD0CC
:102FC00048004015401C01D1090317D0B4B18B4A09
:102FD000934B51EC180BFFF793FE20F0000231F0F9
:102FE000004308BF524541EC180B07D0480040157C
:102FF000401C01D1090301D0641EE8D151EC180B2B
:1030000021F0004320F00002534508BF524505D08F
:1030100048004015401C08D1090306D1AFF30080D9
:103020001DB1286840F00100286051EC180BBDEC80
:10303000028BBDE8F0840000000000000000F07F7B
:10304000000000000000F03F2DE9F14D81B05FEA83
:1030500003082DED028B84B01CBF0020C8F80000CF
:10306000079D0C46934607A800F03AF9C11020F0DE
:103070000800012801F0010A30D10220009001ABC4
:1030800007992246284600F0BBF9040008BF9FEDCF
:10309000650B1ED00298FEF785FB022C41EC100B4D
:1030A00017DB03AF661E9FED568B51EC100B53ECF4
:1030B000182BFEF72DF9044657F8040B0D46FEF7C2
:1030C00071FB22462B46FEF73BFD761E41EC100BB2
:1030D000EBD10198434600EB0B0262E0022867D176
:1030E000009001AB07992246284600F06BFA0400D5
:1030F00008BF9FED4C0B1ED00298FEF753FB022C2D
:1031000041EC100B17DB03AF661E9FED3F8B51ECBC
:10311000100B53EC182BFEF7FBF8044657F8040B82
:103120000D46FEF73FFB22462B46FEF709FD761EB5
:1031300041EC100BEBD151EC100B019C4800400D01
:1031400004EB000219D0002A17DD40F2FF70824222
:1031500009DB9FED2F1B53EC112B01F000410B43BA
:1031600043EC102B1BE06FF31E5141EA025155EC6A
:10317000104B0D4645EC104B11E051EC100B20F0BC
:10318000000221F000430020834208BF824206D0A3
:10319000224651EC100BFEF749FA41EC100B434666
:1031A0005A4651EC100BFFF77DFE41EC100B0AE084
:1031B000032808BF9FED160B05D004280CBF9FED18
:1031C000160B9FED180BBAF1000F05D051EC100B48
:1031D00081F0004141EC100B04B051EC100BBDEC40
:1031E000028BBDE8FC8D000002FCFFFFFFFF0F809B
:1031F0000000E03F3CBF737FDD4F1575436FAC644B
:103200000000000065CDCD41000000000000B0418D
:10321000000000000000F07FFFFFFFFFFFFFFF7FC7
:103220002806C80A0000000000000000000000009E
:103230000000000000002440000000000000594091
:10324000000000000088C3400000000084D79741C0
:103250000080E03779C34143176E05B5B5B8934692
:10326000F5F93FE9034F384D321D30F94877825A5E
:103270003CBF737FDD4F157501F000428B1AA3F13F
:103280006051B1F5801F0ADBB1F17F6F1FD242EAB6
:10329000C102C10071F1004142EB507070470B1543
:1032A000C3F10903212B10D2890241EA9051800217
:1032B0000128494141F0004121FA03F0C3F1200304
:1032C000994071F1004150417047100070476FF014
:1032D000000013EB103F5CBF000E42EAC050704785
:1032E000F0B404682346002200E05B1C1D78A5F1C1
:1032F0000906052EF9D3202DF7D02D2D0CBF08225D
:103300002B2D00D15B1C1D7845F020066E2E26D19A
:103310005A7842F02002612A02BF9A7842F02002D5
:103320006E2A02D02346002245E0DB1C1C46042204
:103330002578282D3FD114F8015FA5F161061A2EDA
:10334000F9D3A5F141071A2F24BF303D0A2DF2D33E
:1033500025785F2DEFD0292D2DD1631C2BE0692E10
:103360002CD15D7845F020056E2D02BF9D7845F08B
:103370002005662D02D0234600221CE013F8034FDF
:1033800044F02004692C02BF5C7844F020046E2CC9
:1033900042F003020FD19C7844F02004692C02BF54
:1033A000DC7844F02004742C05D11C7944F020040E
:1033B000792C08BF5B1DF9B10B601DE0302D02BFF9
:1033C000597841F02001782914D1991C0C782E2CC1
:1033D00008BF491C0978A1F16104052C84BFA1F143
:1033E0004105052D02D930390A2903D29B1C42F030
:1033F000020201E042F0010203601046F0BC704797
:103400002DE9F14F8CB00026169C04EBC4042D2C42
:10341000C8BF2D24002018609146B046586001E0D6
:10342000491C01200A78302AFAD000221D460B7868
:10343000A3F130070A2F80F09D80A24207DB2868A5
:10344000401C28600B78302B06D0012604E0A3F145
:1034500030000DF80200521C491C0120E7E72868E3
:10346000401E2860491C01200E78302EF7D00E78BF
:10347000A6F130040A2C80F08780BA4208DAA6F15F
:1034800030000DF80200521C2C68641E2C6002E013
:10349000302E18BF0123491C0120E8E70DF1FF344D
:1034A000A15C49B92C68641C2C60521E002AF5DC12
:1034B00004BF8DF800800122002850D0092492FB1F
:1034C000F4F4C2F1090704EBC404E719092197FBDE
:1034D000F1F101EBC101C246791A18BF4FF00108A2
:1034E0004446924559DA092197FBF1F101EBC101FC
:1034F0001DF80A30791A08D055F8241001EB810123
:1035000003EB410145F8241002E0641C45F8243027
:103510007F1C0AF1010AE4E74FF0000EF346284C45
:1035200031460AE0A34505DA0BEB8B0602EB4602B7
:10353000A2F1300B491C4FF0010E0A78A2F13006BF
:103540000A2EEFD30E46BAF12D0F396808BFCBF122
:10355000000B5944BEF1000F396008BF2E46B9F187
:10356000000F03D000B90C9EC9F8006040460DB0B2
:10357000BDE8F08F33460E782E2E08BF491C002A76
:1035800027467FF474AF6FE70E4619008ED00DF119
:10359000FF31CB5D5B1CCB5588E7327842F02002CF
:1035A000652A2F46A046DAD1354616F8011F2B2989
:1035B00016BF2D2916F801AB4FF02B0AACE700BF60
:1035C00000E1F5052DE9FD4E8BB00024DDF85890A3
:1035D0001C60C9EBC909B9F1230FC8BF4FF023091B
:1035E0005C60A24602E0491C4FF0010A08783028CE
:1035F000F9D000BF0FF2B01571A2A3460A95099247
:103600000F461E46397816222846FDF73DFD002854
:1036100000F09A80D94503DA3068401C306007E03A
:103620000A9A0999801A085C0DF80B000BF1010B3E
:103630007F1C4FF0010AE5E73068401E30607F1CB8
:103640004FF0010A38783028F6D03978162228460B
:10365000FDF71AFD002800F08080D9450ADB00BF85
:1036600057A1401B085C0DF80B000BF1010B3168F2
:10367000491E31607F1C4FF0010AE6E70DF1FF3370
:103680005A5C4AB933685B1C3360491E0029F5DC7B
:1036900004BF8DF80040012132689200BAF1000F9A
:1036A000326046D04FF0070C91FBFCFCC1F10705DE
:1036B000CCEBCC0C6544072295FBF2F20023C2EB65
:1036C000C202AA1A18BF0124A4468B4258DA072264
:1036D00095FBF2F21DF80340C2EBC202AA1A1ABF10
:1036E00056F82C2004EB02140CF1010C46F82C4087
:1036F0006D1C5B1CE9E7002300252A48394608E0D9
:10370000854204DA05EB850307EB4305303D491C90
:1037100001230F78A7F13009B9F10A0FF0D30F4652
:10372000BCF12D0F316808BF6D426D18356003B9CB
:1037300017460C9921B1BAF1000F08BF0B9F0F601B
:1037400020460EB0BDE8F08E38782E2808BF7F1CCA
:10375000BBF1000F7FF479AF74E75946894595DADC
:103760001DF80920072A06DD0DF1FF3111F80920A7
:10377000521C01F8092049463268521C326085E724
:10378000397841F0200170296446D2D13A4617F8C1
:10379000011F2B2916BF2D2917F801CB4FF02B0C39
:1037A000A9E7000000E1F505303132333435363712
:1037B00038396162636465664142434445460000AE
:1037C000000102030405060708090A0B0C0D0E0F81
:1037D0000A0B0C0D0E0F000010B50400002C01D1D7
:1037E000012033E0A0690028FFD194F839000028B7
:1037F00005D1002084F83800200000F072FE24205B
:1038000084F839002068C06830F400502168C8602E
:10381000200000F007FB2068006930F49040216828
:1038200008612068406930F02A00216848612068FA
:10383000C06850F400502168C8600020E063202078
:1038400084F83900202084F83A00002010BD2DE9CA
:10385000FC4705000C0016001F005FF0000A95F8F9
:103860003900202860D1002C03D0300080B200281D
:1038700001D1012059E095F83800012801D102203A
:1038800053E0012085F838000020E863212085F806
:10389000390000F073FE8146AE84EE84002085F886
:1038A0003800E88C00282FD0E88C401EE884A868F7
:1038B000B0F5805F18D100974B4600228021280088
:1038C00000F0BEF9002801D003202EE0A046B8F891
:1038D0000000C005C00D296848602869002801D192
:1038E000A41CDEE7641CDCE700974B460022802125
:1038F000280000F0A5F9002801D0032015E0207869
:1039000029684860641CCCE700974B4600224021A0
:10391000280000F095F9002801D0032005E02020C0
:1039200085F83900002000E00220BDE8F6872DE987
:10393000FC4705000C0016001F005FF0000A95F818
:103940003A00202865D1002C03D0300080B2002836
:1039500001D101205EE095F83800012801D1022054
:1039600058E0012085F838000020E863222085F81F
:103970003A0000F003FE8146AE85EE85002085F812
:103980003800E88D00283FD0E88D401EE885A86803
:10399000B0F5805F1ED100974B4600222021280001
:1039A00000F04EF9002801D0032033E0A04628693A
:1039B000002807D128684068C005C00DA8F800009D
:1039C000A41CDEE72868406800F0FF00A8F80000AB
:1039D000641CD6E700974B4600222021280000F007
:1039E0002FF9002801D0032014E02869002804D111
:1039F000286840682070641CC3E72868406810F09D
:103A00007F002070641CBCE7202085F83A0000206D
:103A100000E00220BDE8F68710B4030093F83A00F6
:103A200020282FD1002903D0100080B2002801D116
:103A3000012028E093F83800012801D1022022E07B
:103A4000012083F8380099629A85DA850020D863CE
:103A5000222083F83A00002083F838001868C068F4
:103A600050F480701C68E0601868406950F00100F4
:103A70001C6860611868C06850F020001C68E06035
:103A8000002000E0022010BC704710B50400206840
:103A9000C06830F490702168C860206840694008B0
:103AA00040002168486120684069400619D52068B7
:103AB000406930F0400021684861606B002810D0F8
:103AC0000020616B0865606B00F05EFD002808D087
:103AD000606B00F0BBFD202803D11020E0630320C1
:103AE00005E00020E085202084F83A00002010BD89
:103AF0002DE9F8430600306807683068D0F80C807C
:103B00003068D0F814900020002517F00F04002C26
:103B100008D1B80606D55FEA886003D5300000F00A
:103B20002AF98BE0002C77D05FEAC97002D418F430
:103B3000907F71D017F00100C0B2002806D05FEA74
:103B4000C85003D5F06B50F00100F063780708D53A
:103B500019F00100C0B2002803D0F06B50F0020051
:103B6000F063B80708D519F00100C0B2002803D0EF
:103B7000F06B50F00400F06338070BD55FEA886003
:103B800004D419F00100C0B2002803D0F06B50F04B
:103B90000800F063F06B00283DD0B80605D55FEA59
:103BA000886002D5300000F0E6F83068406980098E
:103BB00010F001000500F06B000701D4002D25D0A6
:103BC000300000F074F83068406940061AD530685B
:103BD000406930F0400031684861706B00280DD0BA
:103BE0000FF2ED00716B0865706B00F01BFD002893
:103BF00011D0706B716B096D88470CE0300000F0DC
:103C000027FD08E0300000F023FD04E0300000F064
:103C10001FFD0020F06311E0380606D55FEA08605A
:103C200003D5300000F060F808E0780606D55FEABA
:103C3000486003D5300000F08EF8FFE7BDE8F1835F
:103C40002DE9F04105000E0090461F00069C2868F3
:103C500000683040B04201D1012000E00020414620
:103C6000C9B2884220D114F1010FF0D0002C04D049
:103C700000F084FCC01B8442E9D22868C06830F49C
:103C8000D0702968C86028684069400840002968E9
:103C90004861202085F83900202085F83A0000206E
:103CA00085F83800032000E00020BDE8F0810168BD
:103CB000C96831F490710268D160016849694908A6
:103CC000490002685161202180F83A1070470000D5
:103CD00038B50400A56B0020E8850020E8842800A2
:103CE00000F0B6FC31BD0000010091F83900212838
:103CF0002FD18868B0F5805F11D1086A0200108862
:103D0000C005C00D0B6858600869002803D1086A17
:103D1000801C086209E0086A401C086205E0086A25
:103D2000431C0B6200780B685860C88C401EC88426
:103D300080B200280BD10868C06830F080000B68A2
:103D4000D8600868C06850F040000B68D860002058
:103D500000E00220704710B504002068C06830F011
:103D600040002168C860202084F83900200000F05D
:103D700070FC002010BD38B5040094F83A002228E9
:103D80004ED1A068B0F5805F16D1A06A0500206909
:103D9000002808D120684068C005C00D2880A06AAE
:103DA000801CA0621AE02068406800F0FF002880B4
:103DB000A06A401CA06211E02069002806D1A06A18
:103DC000411CA16221684968017007E0A06A411C9A
:103DD000A1622168496811F07F010170E08D401EE9
:103DE000E08580B2002819D12068C06830F020003A
:103DF0002168C8602068C06830F480702168C8609D
:103E0000206840694008400021684861202084F80B
:103E10003A00200000F039FC002002E0002000E021
:103E2000022032BD2DE9F14F84B004980068016989
:103E300031F440510498C06801430498006801615E
:103E4000049881680498006901430498406901431B
:103E50000498C0690143029104980068C168DFF8C2
:103E6000980501400298014304980068C1600498D5
:103E70000068416931F440710498806901430498F5
:103E8000006841610498C069B0F5004F40F05B8163
:103E900004980068DFF86415884206D0049800682A
:103EA000DFF85C15884240F0A78001F0A9F8804651
:103EB0005FF06409022400251926002742460023EA
:103EC000A6FB020106FB031107FB021182468B468B
:103ED000049840680021A4FB002304FB013305FB88
:103EE000003350465946FDF7FBF86421B0FBF1F072
:103EF000019042460023A6FB020106FB031107FBCB
:103F0000021182468B46049840680021A4FB0023DE
:103F100004FB013305FB003350465946FDF7E0F83A
:103F2000009042460023A6FB020106FB031107FB9B
:103F3000021182468B46049840680021A4FB0023AE
:103F400004FB013305FB003350465946FDF7C8F822
:103F50006421B0FBF1F1009809FB1101C800323077
:103F60006421B0FBF1F0400010F4F870019910EBFF
:103F70000110009042460023A6FB020106FB03113C
:103F800007FB021182468B46049840680021A4FB7F
:103F9000002304FB013305FB003350465946FDF76F
:103FA0009FF882464046002102000B00A6FB02015A
:103FB00006FB031107FB0211049A52680023160046
:103FC0001F00A4FB062304FB073305FB0633FDF7A4
:103FD00087F86421B0FBF1F009FB10A95FEAC90082
:103FE00032306421B0FBF1F111F00701009809189B
:103FF000049800688160FCE100F0F7FF80465FF004
:104000006409022400251926002742460023A6FB46
:10401000020106FB031107FB021182468B4604983E
:1040200040680021A4FB002304FB013305FB00339F
:1040300050465946FDF754F86421B0FBF1F0019069
:1040400042460023A6FB020106FB031107FB0211F7
:1040500082468B46049840680021A4FB002304FBA1
:10406000013305FB003350465946FDF739F80090FF
:1040700042460023A6FB020106FB031107FB0211C7
:1040800082468B46049840680021A4FB002304FB71
:10409000013305FB003350465946FDF721F86421F2
:1040A000B0FBF1F1009809FB1101C8003230642126
:1040B000B0FBF1F0400010F4F870019910EB011022
:1040C000009042460023A6FB020106FB031107FBFA
:1040D000021182468B46049840680021A4FB00230D
:1040E00004FB013305FB003350465946FCF7F8FF4B
:1040F00082464046002102000B00A6FB020106FB9F
:10410000031107FB0211049A5268002316001F00D6
:10411000A4FB062304FB073305FB0633FCF7E0FF93
:104120006421B0FBF1F009FB10A95FEAC90032304D
:104130006421B0FBF1F111F007010098091804980F
:104140000068816055E104980068AC49884205D058
:1041500004980068AA49884240F0A68000F050FF09
:104160008046042400255FF0640919260027424692
:104170000023A6FB020106FB031107FB0211824686
:104180008B46049840680021A4FB002304FB013304
:1041900005FB003350465946FCF7A2FF6421B0FBF3
:1041A000F1F0019042460023A6FB020106FB031139
:1041B00007FB021182468B46049840680021A4FB4D
:1041C000002304FB013305FB003350465946FCF73E
:1041D00087FF009042460023A6FB020106FB031165
:1041E00007FB021182468B46049840680021A4FB1D
:1041F000002304FB013305FB003350465946FCF70E
:104200006FFF6421B0FBF1F1009809FB1101080177
:1042100032306421B0FBF1F010F0F000019910EBA6
:104220000110009042460023A6FB020106FB031189
:1042300007FB021182468B46049840680021A4FBCC
:10424000002304FB013305FB003350465946FCF7BD
:1042500047FF82464046002102000B00A6FB0201F8
:1042600006FB031107FB0211049A52680023160093
:104270001F00A4FB062304FB073305FB0633FCF7F2
:104280002FFF6421B0FBF1F009FB10A95FEA0910D0
:1042900032306421B0FBF1F111F00F0100980918E0
:1042A000049800688160A4E000F09FFE804604242A
:1042B00000255FF064091926002742460023A6FB6B
:1042C000020106FB031107FB021182468B4604988C
:1042D00040680021A4FB002304FB013305FB0033ED
:1042E00050465946FCF7FCFE6421B0FBF1F001900A
:1042F00042460023A6FB020106FB031107FB021145
:1043000082468B46049840680021A4FB002304FBEE
:10431000013305FB003350465946FCF7E1FE00909F
:1043200042460023A6FB020106FB031107FB021114
:1043300082468B46049840680021A4FB002304FBBE
:10434000013305FB003350465946FCF7C9FE642192
:10435000B0FBF1F1009809FB110108013230642132
:10436000B0FBF1F010F0F000019910EB011000909B
:1043700042460023A6FB020106FB031107FB0211C4
:1043800082468B46049840680021A4FB002304FB6E
:10439000013305FB003350465946FCF7A1FE824627
:1043A0004046002102000B00A6FB020106FB0311A0
:1043B00007FB0211049A5268002316001F00A4FB99
:1043C000062304FB073305FB0633FCF789FE642153
:1043D000B0FBF1F009FB10A95FEA0910323064214B
:1043E000B0FBF1F111F00F01009809180498006872
:1043F000816005B0BDE8F08FF369FFFF0010014058
:104400000014014081B0002000905448016851F42C
:1044100080410160006810F4804000900098002006
:1044200000904F48016851F080510160006810F021
:1044300080500090009801B0704710B504002068CB
:104440004849884212D101204749086000220021D2
:10445000032000F0B7FE032000F0C9FE0022002177
:10446000292000F0AFFE292000F0C1FE10BD81B070
:1044700001683E4A91420BD10021009138490A68F7
:1044800052F002020A60096811F0020100910099DD
:1044900001B0704710B586B0040001A8142100F0E7
:1044A000C3FE20683149884219D10020009030486D
:1044B000016851F001010160006810F001000090F6
:1044C00000984020019002200290002003900020DC
:1044D00004900220059001A9264800F0A9FE06B02C
:1044E00010BD10B586B0040001A8142100F09CFE98
:1044F0002068214988422ED1002000901748016889
:1045000051F010010160006810F010000090009858
:10451000002000901648016851F001010160006818
:1045200010F00100009000984FF4C060019002204C
:10453000029000200390032004900720059001A919
:104540000C4800F075FE00220021252000F03AFE04
:10455000252000F04CFE06B010BD0000443802409B
:1045600040380240002800403C0E47420004004012
:10457000303802400000024000100140014800684D
:10458000704700BFF000002070B50400A56DFFF774
:10459000F5FF060094F83500022806D080206065FB
:1045A000002084F8340001203BE02068006830F0EF
:1045B0001600216808602068406930F0800021689A
:1045C0004861206C002802D1A06C002805D020682A
:1045D000006830F008002168086020680068400822
:1045E00040002168086020680068C0070ED5FFF70A
:1045F000C5FF801B0628F6D320206065002084F8C4
:104600003400032084F8350003200AE03F21E06DE8
:104610008140A960002084F83400012084F835002E
:10462000002070BD010091F83500022803D08020E1
:104630004865012009E0052081F835000868006818
:10464000400840000A68106000207047406D7047C5
:104650007047704701B54FF6FF7301226946DFF8D6
:104660004807FFF7F4F8009802BD80B54FF6FF73D6
:1046700001226946DFF83007FFF759F99DF800007D
:104680000028F3D09DF8000002BD2DE9F0410400A0
:10469000DFF81457AC423DD1DFF8106730780D28B1
:1046A00016D0412802D0422809D018E0DFF80007D0
:1046B0000178182902DB0178491E01700FE0DFF84C
:1046C000F00601781C2902DA0178491C017006E025
:1046D000DFF8DC0600781638DFF8D8160870307876
:1046E0001B2812D0DFF8D086DFF8C4763978491E4F
:1046F000404600F0D5FE3978491C404600F0D0FE17
:104700003978DFF8B80600F0CBFE0122310028002E
:10471000FFF782F9BDE8F08170B50400DFF8A0561C
:1047200000222900200000F0BDFFDFF8986600227B
:104730003100200001F068F860A000F0B1FEDFF861
:10474000880600F0ADFEB3787278F178DFF87C0669
:1047500000F0A6FEDFF8780600F0A2FEAB786A78DB
:104760002978DFF8700600F09BFEBDA000F098FEEF
:1047700070BD10B50400DFF8600600F091FE102156
:10478000DFF8580600F065FE10BD38B5DFF85006BA
:1047900000F086FEDFF84C0600F082FEDFF84806E7
:1047A00000F07EFEDFF8440600F07AFEDFF84006F7
:1047B00000F076FEDFF83C0600F072FEDFF8380607
:1047C00000F06EFEDFF8340600F06AFEDFF8300617
:1047D00000F066FEDFF82C0600F062FEDFF82846E7
:1047E000200000F05DFEDFF8240600F059FE2000F6
:1047F00000F056FEDFF81856280000F051FE2000A9
:1048000000F04EFEDFF80C0600F04AFE200000F03B
:1048100047FE280000F044FE200000F041FEDFF8D3
:10482000F80500F03DFEDFF8F40500F039FEDFF892
:10483000F00500F035FEDFF8EC0500F031FEDFF8A2
:10484000E80500F02DFEDFF8E40500F029FE200069
:1048500000F026FEDFF8D80500F022FEDFF8D405D0
:1048600000F01EFEDFF8D00500F01AFEDFF8CC05E0
:1048700000F016FEDFF8C80500F012FEDFF8C405F0
:1048800000F00EFE1021DFF8540500F0CAFD0128EB
:1048900002D1DFF8B41500E0A4A1DFF8B00500F004
:1048A000FFFDDFF8AC050068406B40F28F21B0FBE4
:1048B000F1F1DFF8A00500F0F3FD31BD1B5B7300E3
:1048C00038B5DFF8940500F0EBFDDFF8900500F057
:1048D000E7FD97A5DFF8EC44E11C280001F042F960
:1048E000E078642801DB6320E070DFF8740500F0F5
:1048F000D7FD6946280001F035F99DF800000D2824
:1049000002DB0C208DF800009DF800006070DFF8DD
:10491000540500F0C5FD6946280001F023F99DF813
:104920000000202802DB1F208DF800009DF8000009
:10493000A07000222100DFF8300500F0E7FE00281B
:1049400001D000F028FA31BD80B5DFF8200500F075
:10495000A7FD01BD80B5DFF8180500F0A1FD01BD80
:1049600080B5DFF8100500F09BFD01BD80B5DFF8D4
:10497000080500F095FD01BD80B5DFF8DC0400F00E
:104980008FFDDFF8F80400F08BFD694668A001F0A8
:10499000E9F89DF80000652802DB64208DF800002E
:1049A0009DF8001040F28F204143DFF8A404006816
:1049B000416301BD70B501F0E7F800F053F800F075
:1049C000AEF900F0B7F800F038F900F08EF9DFF832
:1049D00080044FF47A7102685163002101F026F9D6
:1049E000DFF8C443DFF8C453012229002000FFF799
:1049F00013F8FFF7CAFE1721DFF8C00300F050FDDF
:104A0000DFF8B06330780028FAD02000FFF73DF8D7
:104A10003078012809D019D303280CD008D30528F1
:104A20000FD00BD306280FD010E0FFF749FF0DE0A1
:104A3000FFF78AFF0AE0FFF78DFF07E0FFF790FF1F
:104A400004E0FFF793FF01E0FFF796FF00203070CE
:104A5000FFF79BFE012229002000FEF7DDFFCFE7D4
:104A60001B5B750080B598B006A8302100F0DCFB18
:104A700001A8142100F0D8FB12A8182100F0D4FBE3
:104A800000200090DFF8F803016851F080510160C8
:104A9000006810F080500090009800200090DFF82F
:104AA000E403016851F440410160006810F44040A3
:104AB000009000980620069001200890012009909F
:104AC00010200A9002200C9000200D9008200E90DB
:104AD00064200F90022010900420119006A801F08D
:104AE0000BFB002801D000F056F90F2001900220A6
:104AF0000290002003904FF4805004900020059015
:104B0000032101A800F0CEF9002801D000F043F9FC
:104B1000022012904FF48070169012A801F0DAFC77
:104B2000002801D000F037F919B000BD4F4646000B
:104B30002575000038B5CC4CD3482060002060605B
:104B40007F20A060FF20E0600020206100206061E5
:104B50000020A061200000F0B7FC002801D000F088
:104B60001AF904220021200001F070FD002801D074
:104B700000F011F9C548006801285DD09049002077
:104B8000087000204870002088700020C860002055
:104B900008610022200000F0FDFC002801D000F098
:104BA000FAF88849012008700120487001208870B7
:104BB0000020C8700022200000F0A8FD002801D0CD
:104BC00000F0E9F8B24D0020287000206870002045
:104BD000A870002068600020E860002028610020A4
:104BE00068610020A8610020E861012085F82000AC
:104BF0004FF48070686200222900200000F02EFE31
:104C0000002801D000F0C7F8012085F820004FF4FB
:104C10000070686200222900200000F01FFE0028BA
:104C200001D000F0B8F804220021200001F00EFDB0
:104C3000002801D000F0AFF831BD18B58DB009A83B
:104C4000102100F0F1FA9348D0E90023CDE90023C8
:104C500002A81C2100F0E8FA7D4C8F48206000205B
:104C600060600020A0604FF6FF70E06000202061CF
:104C70000020A061200000F0A1FF002801D000F07A
:104C80008AF84FF48050099009A9200001F072F8C9
:104C9000002801D000F07FF8200000F0ABFF0028D2
:104CA00001D000F078F800200090002001906946C3
:104CB000200001F075FD002801D000F06CF86020A4
:104CC0000290002003900020049000200690002213
:104CD00002A9200000F0CEFF002801D000F05BF810
:104CE0002000FFF7D7FB0EB010BD80B52E486B49F2
:104CF00001605FF4E1314160002181600021C16009
:104D0000002101610C214161002181610021C1610B
:104D1000FEF762FD002801D000F03DF801BD10B59E
:104D200086B001A8142100F07FFA002000905C48B2
:104D3000016851F004010160016811F00401009163
:104D4000009900210091016851F080010160016823
:104D500011F080010091009900210091016851F04B
:104D600001010160006810F00100009000981B4CE8
:104D700000223021200000F05FFB30200190012054
:104D80000290002003900020049001A9200000F070
:104D90004FFA06B010BD80B572B6012220210F482F
:104DA00000F04AFBFEE7000050000020F800002061
:104DB0000C000020F9000020B8740008C874000836
:104DC000D8000020EC00002028750008D8730008E7
:104DD00034750008F07300080874000800000240F1
:104DE00068740008D8740008D86C00088C2C00087F
:104DF000B46D0008EC6E0008486D00081C6E0008D9
:104E000040750008B868000820740008506F00085A
:104E10006C69000858710008B0720008D072000870
:104E200080710008A871000820720008F072000864
:104E3000206A0008846E0008FC6F000840700008BB
:104E400044720008D46A00084C7500087C7400089D
:104E5000100000209074000864750008B46F00080A
:104E600010730008D0710008B8000020A474000876
:104E700084730008A073000838740008646C00088C
:104E80004038024000700040002800403C0E47427D
:104E9000900000206C7500080004004000100140E4
:104EA000303802402DE9F04104000D00002C01D102
:104EB000012095E0584F386810F00F00A84207D243
:104EC0003D70386810F00F00A84201D0012087E043
:104ED0002078800716D52078400704D54F48016810
:104EE00051F4E05101602078000704D54B48016877
:104EF00051F46041016049490A6832F0F002A0684B
:104F000002430A602078C00738D56068012805D1BF
:104F100043480068800313D4012061E060680228E0
:104F200002D06068032805D13D480068800107D49D
:104F3000012055E03A480068800701D401204FE085
:104F4000DFF8D880D8F8001089088900606801432C
:104F5000C8F80010FFF712FB0600D8F8000010F0A8
:104F60000C006168B0EB810F08D0FFF707FB801BD6
:104F700041F289318842F0D3032031E0386810F0E3
:104F80000F00854207D23D70386810F00F00A8422C
:104F900001D0012024E02078400706D51F490A6887
:104FA00032F4E052E06802430A602078000707D537
:104FB0001A48016831F46041226951EAC201016076
:104FC00000F038F81749154A1268C2F30312895CD9
:104FD000C840154908601548006801F02BFC002006
:104FE000BDE8F08110480068704780B5FFF7FAFF10
:104FF0000F490A4A1268C2F38222895CC84002BD86
:1050000080B5FFF7EFFF0A49044A1268C2F3423243
:10501000895CC84002BD0000003C024008380240E4
:1050200000380240E874000804000020000000205E
:10503000747500082DE9F0410024002500260027A2
:105040001F48006810F00C00002804D0042804D089
:10505000082804D031E01B4830E01B482EE0DFF880
:105060006C80D8F8000010F03F000400D8F8000071
:1050700040020CD5D8F80000C0F388101249A1FBFB
:10508000000122000023FCF72BF805000BE0D8F804
:105090000000C0F388100B49A1FB0001220000238F
:1050A000FCF71EF80500D8F80000C0F30140401CD2
:1050B00040000600B5FBF6F000E00248BDE8F081D4
:1050C000083802400024F40000127A00043802403C
:1050D00010B410F00703DFF8304122684FF6FF01EB
:1050E0000A40DFF8281151EA03210A43226010BC6C
:1050F0007047DFF814010068C0F302207047010018
:1051000049B2002909D4012210F01F018A40404908
:1051100003005BB25B0941F82320704710B4020022
:1051200052B2002A05D40A013A4B040064B21A555F
:1051300008E00A01384B040064B214F00F04234461
:1051400003F8042C10BC704770B4030013F007047C
:10515000D4F10700052801D3042001E0D4F10700B1
:10516000251D072D01D2002500E0E51E012616FAB7
:1051700000F0401E0140A94016FA05F56D1E2A40B8
:105180001143080070BC704710B50400601EB0F1F8
:10519000807F01D301200EE0601E204908600F21AE
:1051A0005FF0FF30FFF7BAFF00201D4908600720BD
:1051B0001C490860002010BD10B504002000FFF756
:1051C00087FF10BD2DE9F04104000D0016000027F7
:1051D000FFF78FFF8046320029004046FFF7B4FFFB
:1051E0000100200040B2FFF799FFBDE8F08110B543
:1051F0000400200040B2FFF782FF10BD10B504008C
:105200002000FFF7C1FF10BD0CED00E00000FA0523
:1052100000E100E000E400E018ED00E014E000E050
:1052200018E000E010E000E0002201F029BB0000DF
:10523000F8B50023002400260025102D80F0F08012
:10524000012717FA05F213000A681A4014009C425D
:1052500040F0E4804A68012A08D04A68022A05D052
:105260004A68112A02D04A68122A1FD1D0F808C011
:105270005FF0030E2A00D2B252001EFA02FE3CEA90
:105280000E0CD1F80CE02A00D2B252001EFA02FE37
:105290005EEA0C0CC0F808C04268AF40BA434F68E1
:1052A000C7F30017AF403A4316004660C7685FF087
:1052B000030C2A00D2B252001CFA02F29743D1F832
:1052C00008E02A00D2B252001EFA02FE5EEA070788
:1052D000C7604A68022A02D04A68122A1ED12A00F0
:1052E000D20800EB8202166A5FF00F0E15F007027B
:1052F000D2B292001EFA02FE36EA0E06D1F810E093
:1053000015F00702D2B292001EFA02FE5EEA06060D
:1053100037002A00D20800EB8202176206682A00D2
:10532000D2B252001CFA02FC36EA0C0691F804C014
:105330001CF0030C2A00D2B252001CFA02FC5CEAF8
:10534000060606604A68D20068D500220092494AE3
:10535000176857F480471760126812F48042009271
:10536000009ADFF814C12A0092085CF822705FF0FE
:105370000F0E15F00302D2B292001EFA02FE37EAB7
:105380000E073E4A904201D1002614E03C4A90426A
:1053900001D101260FE03B4A904201D102260AE0EA
:1053A000394A904201D1032605E0384A904201D1A2
:1053B000042600E00726F6B215F00302D2B29200EE
:1053C000964037432A0092084CF82270304E3268DB
:1053D000A243D1F804C05FEACC3C00D5224332603E
:1053E0002C4F3E68A643D1F804C05FEA8C3C00D540
:1053F00026433E60284F3A68A243D1F804C05FEAD2
:10540000CC2C00D522433A60244F3E68A643D1F805
:1054100004C05FEA8C2C00D526433E606D1C0CE76F
:10542000F1BD020010690B009BB2184201D00120AF
:1054300000E00020C0B270471300DBB2002B03D0A5
:105440000B009BB2836103E00B009BB21B048361E2
:10545000704743690A0092B213400A0092B2934225
:1054600004D10A0092B21204826102E00A0092B2F0
:105470008261704744380240083801400000024011
:105480000004024000080240000C024000100240EC
:10549000003C0140043C0140083C01400C3C014000
:1054A0000EB4C0B5024603A800210190009101ABE3
:1054B0000121044878440C30FAF76EFE06BC5DF812
:1054C00010FB00BF8D1F000010B50400002C01D19F
:1054D00001205EE0607F002804D1002020772000BA
:1054E000FEF7ABFF02206077CA2021684862532094
:1054F00021684862200000F0FEFA002806D0FF2054
:105500002168486204206077012042E020688168B9
:10551000DFF890050140206881602068816862683A
:105520002069024360690243114320688160E0689A
:105530002168086120680069A16850EA014021687B
:1055400008612068C06830F080002168C860206869
:10555000806880060BD4200000F0B2FA002806D044
:10556000FF202168486204206077012011E0206854
:10557000006C30F48020216808642068016CA06908
:10558000014320680164FF202168486201206077A0
:10559000002010BD2DE9F84305000E0014005FF057
:1055A0000008287F012801D1022079E00120287716
:1055B00002206877002C1CD128688068400601D43E
:1055C0000020F070307800F0B3FA8146707800F077
:1055D000AFFA0700B07800F0ABFA5FFA89F9FFB2D2
:1055E0003F0257EA0947C0B20743F07857EA00473D
:1055F0000FE028688068400601D40020F070307801
:1056000077783F0257EA0047B0780743F07857EAC7
:105610000047CA2029684862532029684862280048
:1056200000F069FA002808D0FF20296848620420A9
:10563000687700202877012032E0DFF86C043840DA
:10564000296808602868806830F4802029688860AC
:1056500028688168F26830690243114328688160D4
:105660002868C06830F080002968C86028688068B1
:1056700080060DD4280000F023FA002808D0FF206F
:10568000296848620420687700202877012007E015
:10569000FF202968486201206877002028770020D1
:1056A000BDE8F283F8B505000E001400002128685B
:1056B000806A7060286800694004400CB060286807
:1056C0000768DFF8E40307403800000C10F03F00E3
:1056D00030703800000A10F07F00707017F07F0003
:1056E000B0703800000C10F04000F070002C0BD1AE
:1056F000307800F029FA3070707800F025FA707078
:10570000B07800F021FAB0700020F2BD2DE9F84326
:1057100005000E0014000027287F012801D1022077
:1057200070E00120287702206877002C07D170787C
:10573000C00604D5707810F0EF000A307070002CAD
:1057400019D1F07800F0F4F98146707800F0F0F9A2
:105750008046B07800F0ECF95FFA89F95FFA88F8D2
:105760005FEA082858EA0948C0B250EA08083078C9
:1057700058EA40380CE0F07896F801805FEA082893
:1057800058EA0048B07850EA0808307858EA4038BB
:10579000CA2029684862532029684862280000F01E
:1057A000AAF9002808D0FF202968486204206877F9
:1057B00000202877012025E0DFF8F00210EA080039
:1057C000296848602868C06830F080002968C8608F
:1057D0002868806880060DD4280000F071F9002840
:1057E00008D0FF20296848620420687700202877C5
:1057F000012007E0FF202968486201206877002027
:1058000028770020BDE8F283F8B505000E001400EB
:10581000002128684768DFF8940207403800000C30
:10582000F0703800000A10F01F00707017F03F0091
:10583000B0703800400B10F007003070002C0BD116
:10584000F07800F081F9F070707800F07DF97070F8
:10585000B07800F079F9B0700020F2BD2DE9F84F72
:1058600005000E00140000275FF00008DFF840027A
:10587000006840094FF47A71B0FBF1F14FF47A708F
:1058800041430091287F012801D10220D9E0012065
:10589000287702206877002C31D12868806840067C
:1058A00001D40020F070F0690028FFD0307800F0BB
:1058B0003FF98146707800F03BF98246B07800F0FD
:1058C00037F9834696F8200000F032F95FFA89F93B
:1058D0005FFA8AFA5FEA0A2A5AEA094A5FFA8BFBF8
:1058E0005BEA0A0AF1785AEA014AC0B25AEA006A47
:1058F000F06950EA0A0A706950EA0A0A1FE028684B
:105900008068400601D40020F070F0690028FFD0C4
:10591000307896F801A05FEA0A2A5AEA004AB0787D
:1059200050EA0A0AF0785AEA004A96F820005AEA41
:10593000006AF06950EA0A0A706950EA0A0A716856
:10594000B0690143CA202A68506253202A68506215
:10595000706AB0F5807F31D12868806830F480703B
:105960002A6890602868C06810F0800070F4C070E9
:105970002A68D0600098421E0092002808D1FF20BB
:105980002A6850620320687700202877032058E0B7
:105990002868C068C007EDD52868C0F81CA0286832
:1059A00041642868806850F480702A689060286894
:1059B000806850F480502A68906030E028688068E1
:1059C00030F400702A6890602868C06810F0800089
:1059D00070F420702A68D0600098421E009200285F
:1059E00008D1FF202A6850620320687700202877BA
:1059F000032026E02868C0688007EDD52868C0F835
:105A000020A0286881642868806850F400702A68A3
:105A100090602868806850F400502A68906025489B
:105A2000026852F4003202602348026852F40032E5
:105A30000260FF202A6850620120687700202877E2
:105A40000020BDE8F28F10B5040020688068C00413
:105A50000ED52068C068C0050AD52000FEF789FE73
:105A60002068C06810F0800070F4C0702168C860C1
:105A70002068806880040ED52068C06880050AD53B
:105A8000200000F016FF2068C06810F0800070F45D
:105A900020702168C8605FF4003008490860012068
:105AA000607710BDBFFF8FFF7F7F7F003FFFFF004C
:105AB00004000020003C0140083C0140143C01402F
:105AC00070B5040000252068C06830F0A00021688F
:105AD000C860FEF753FD06002068C068800608D441
