:020000040800F2
:10000000D0040020E95300081D4C0008314C0008C2
:10001000454C0008594C00086D4C000800000000D9
:10002000000000000000000000000000814C0008FB
:10003000834C000800000000854C0008874C000835
:1000400065540008695400086D5400088F4C00087E
:100050007154000875540008795400087D54000854
:100060008154000885540008895400088D54000804
:100070009154000895540008995400089D540008B4
:10008000A1540008A5540008A9540008000000006D
:10009000000000000000000000000000AD54000857
:1000A000B1540008B5540008B9540008BD54000804
:1000B000C1540008C5540008C9540008CD540008B4
:1000C000D1540008D5540008D9540008DD54000864
:1000D000E1540008994C0008E554000800000000B5
:1000E000E9540008A34C0008ED540008000000008B
:1000F000000000000000000000000000F1540008B3
:1001000000000000F5540008F9540008FD540008F0
:1001100000000000000000000000000000000000DF
:100120000155000805550008095500080D5500083F
:100130001155000800000000000000000000000051
:10014000000000000000000000000000155500083D
:10015000195500081D5500082155000825550008AF
:10016000295500082D55000800000000000000007F
:10017000000000000000000000000000000000007F
:1001800000000000315500080000000000000000E1
:1001900035550008395500082DE9F0439FB000BFE0
:1001A00065A6269CDFF8E88A8DF83B400291002482
:1001B0000B944FF0FF37044691461D460AE019F8AC
:1001C000011B0298A0470028029000F0A1800B9824
:1001D000401C0B9099F8000050B12528EFD1002168
:1001E0000022059106920791089209910A9203E074
:1001F0000B98A5E041F0010119F8010F2028F9D072
:1002000023280CD02B2804D02D2805D0302809D045
:1002100080E041F00201EFE741F00401ECE741F03A
:100220000801E9E741F01001E6E70D920AE00D98B8
:10023000404505DA00EB800002EB4002303A0D92B7
:1002400009F1010999F80020A2F130000A28EED343
:1002500099F800002E2818BF0C9726D119F8010F25
:100260002A2808D12868286009F1010950F8042BD0
:1002700028600C9219E02D280CBF09F1010900201B
:1002800000220C920BE040B90C9A424505DA02EBD1
:10029000820203EB4203303B0C9309F1010999F808
:1002A0000030A3F130020A2AEDD3ADF83810304601
:1002B00099F8001000F0A0FE08B119F8010B8DF8B4
:1002C0003A009DF83A00682805D199F8000068289E
:1002D0000CD1622106E06C2804BF99F800006C285C
:1002E00004D171218DF83A1009F1010910A8049088
:1002F0002A4619F8013B6946204600F061F838B9F2
:1003000010AA6946204600F091F900287FF562AFF7
:10031000384615E02A2888D12A682A6052F8040B4A
:100320002A6000280D9003D540420D9041F0040151
:1003300009F101098CE70000686A6C747A4C0000CE
:100340001FB0BDE8F083622820D0682811D06A2849
:1003500003D06C2827D0712825D10868C01D20F053
:1003600007000860D0E900230830086019461046ED
:100370007047002A0A680A60106803D0121D0A60DC
:1003800000B217E0121D0A6080B217E0002A0A6866
:100390000A60106803D0121D0A6040B20AE0121D04
:1003A0000A60C0B20AE0002A0A680A60106803D036
:1003B000121D0A60C1177047121D0A6000217047A4
:1003C00070B51C460D46B4F125002E69114600F0AB
:1003D0001B811C386AD0001F022867D9133843D00C
:1003E000093863D0801E16D0401E1ED0401E022841
:1003F0005CD9001F19D0401F00F08380401E33D00D
:10040000401E00F0CD80C01E00F0DC80801E2BD08E
:10041000C01E29D0FEE06869421C6A610A680A6051
:1004200052F8043B0A603354FEE095F83A0001228A
:10043000FFF789FFC5E900010023994204DA6869E2
:10044000411C69612D220DE0288F810704D5686960
:10045000411C69612B2205E0C00722D56869411C57
:100460006961202232541CE095F83A000022FFF71F
:100470006AFFC5E9000195F83800010711D5D5E9F3
:1004800000230020834208BF82420AD044F02000AB
:10049000782806D1686930213154401C421C6A61B9
:1004A0003454214668693044E86087E00868C01D1C
:1004B00020F007000860D0E9002308300860C5E993
:1004C0000023D5E90001C80F04D06869411C6961A7
:1004D0002D220DE0288F810704D56869411C6961D0
:1004E0002B2205E0C00704D56869411C6961202200
:1004F000325468693044E8602146284600F0C8F963
:1005000092E005F13A02507820B14FF0FF340FF637
:10051000502062E01078622808D0682824D06A2829
:1005200012D06C282ED071280ED02BE00A680A60F9
:1005300052F8040B0A6020B94FF0FF340FF6382050
:100540004BE0E96A01706FE00A680A6052F8040B38
:100550000A6020B94FF0FF340FF61C203DE0EA6A34
:10056000D317C0E900235FE00A680A6052F8040B61
:100570000A6020B94FF0FF340FF6FC102DE0E96A55
:10058000018051E00A680A6052F8040B0A6020B941
:100590004FF0FF340FF6E0101FE0E96A016043E01E
:1005A0000A680A6052F8040B0A60002120F0000279
:1005B00021F0FF33C5E90023EE607821284600F0E2
:1005C000BBF831E00868086050F8044B0860EC6044
:1005D0003CB94FF0FF340FF6B81000F019FD201AA7
:1005E00070BD2E6B002E04D5204600F031FD044670
:1005F00008E032460021204600F046FD002814BFE6
:10060000041B3446AC610FE06869411C6961252216
:10061000325409E06969481C68612522725421003E
:1006200002D0431C6B613454002070BD2DE9FC41A5
:100630000F46064690467A6B7869396ABC6A121A88
:10064000B869521A796A121AF869521A121A97F886
:100650003800141B41070FD42020002C8DF8000017
:100660000ADD254601236A463946304600F060FC23
:1006700000285DD16D1EF5D17B6942463946304672
:1006800000F056FC002853D130208DF800003D6A60
:10069000002D09DD01236A463946304600F048FC4A
:1006A000002845D16D1EF5D1BB69FA683946304640
:1006B00000F03EFC00283BD130208DF800007D6A20
:1006C000002D08DD01236A463946304600F030FC33
:1006D00070BB6D1EF6D1F868B969FB6942183946DE
:1006E000304600F025FC18BB30208DF80000BD6AB4
:1006F000002D08DD01236A463946304600F018FC1B
:10070000B0B96D1EF6D197F8380041070DD52020FD
:10071000002C8DF8000008DD01236A46394630467A
:1007200000F006FC20B9641EF6D10020BDE8F68179
:100730004FF0FF30BDE8F6812DE9FC4707468C46B7
:100740003E69BCF16F0F08BF082405D04CF02000B3
:10075000782814BF0A2410243C25D7E90023BCF1D3
:10076000640F18BFBCF1690F9046994606D100216D
:100770008B4203DAD8F1000869EB49094FF0000A0F
:10078000D14508BFD0451FD1386BE8B9082C4BD1F3
:1007900097F83800010747D530203B2586F83B0005
:1007A00042E000280ED597F8380000F01400102819
:1007B00008D17B6B7969386A5B1A1B1A9A1A002A6E
:1007C000C8BF3A62BDE8F3878DF800C0404649468D
:1007D0002246E31700F084FC3032D0B26D1E3A2876
:1007E000019504DB9DF80000A0F151018A187255B3
:1007F000404649462246E31700F072FC894680468F
:10080000D14508BFD04503D0F86871198842DDD3BF
:10081000082C09D197F83800010705D5705D3028FC
:1008200002D06D1E30207055C5F13C02BA617119BD
:10083000F960386B8242B4DA821A3A624FF6EF708E
:10084000398F01403987BDE8F3872DE9D04306464B
:100850000F4614464FF00008DFF8389412E0E00726
:1008600007D542464B463046394600F051FD064614
:100870000F464046494642464B4600F049FD64104B
:1008800080468946002CEAD130463946BDE8D083FF
:100890002DE9F34F054641F020048DB0D5E90089DC
:1008A000612C02AE09D0286B002848BF062003D473
:1008B00008BF672C01D101202863D5E90023580027
:1008C0004015401C0ED119030CD00320A8619DF8DF
:1008D000381061391A2902D20FF2D06111E00FF2FB
:1008E000D0610EE059004915491C0FD118030DD1F4
:1008F0000320A8619DF8381061391A2914D30FF22A
:10090000B861E868032200F0D5FDD3E1194621F073
:100910000043B3F5801F10460DD20027BB4208BF2D
:10092000BA42019703D111E00FF28861E9E701AA09
:1009300000F014FE0AE0DFF8607307EB1352DFF8F3
:100940005C3301921940DFF858331943C5E90001BF
:10095000612C0ED1E86830210170821CEA609DF89C
:10096000381061290CBF7821582141706869801CBA
:100970006861D5E900AB2BF0004300202AF00002AB
:10098000834204BF8242002300F05B81612C40F06F
:10099000AA80286B002847BF21210091401C0090AD
:1009A000009F7F1C404649460022002300F00EFEB7
:1009B000D94601998DF8082038BF89F00049091FF0
:1009C000002FD04601910DF1090040F34981B34950
:1009D000DFF8D0B20C91064640464946002200237B
:1009E00000F00CFE80F03B814800400D00F11C023D
:1009F00011D0002A0FDD40F2FF70824205DB09F0C2
:100A0000004040EA0B01002013E00C98014041EA4D
:100A1000025140460DE029F00043002028F000027A
:100A2000834208BF82420FBF40461C22404600F06E
:100A3000FDFD8046894600F097FEFF1F002F04460B
:100A400009DD00F0AFFE02460B464046494600F085
:100A5000BBFE80468946F01D072104E004F00F022A
:100A600000F8012D2411002C01DD491EF6D5491E88
:100A70005CBF002200F8012DF9D5ECE000201946FA
:100A800002AA0A4400E05B1E12F80149491E844292
:100A9000F9D00F2804D10DF10900425C521C4254D8
:100AA000002904D50198001D02AE5B1C0190591E5F
:100AB00012D49DF838007218A0F13A07147804F1A6
:100AC00030085FFA88F43A2CA8BFB844491E02F8EF
:100AD0000189F3D58DF83800286B002840F1B080EB
:100AE000591E2963ACE0404649460022002300F02D
:100AF0006DFD019938BF89F0004947F29750414395
:100B0000694A91FBF2F20192D2F1070204DD4046FC
:100B10004946FFF79AFE0AE0524200206349FFF778
:100B200094FE02460B464046494600F0BFFE804612
:100B3000662C286BDFF878B106BF019F0A370627BD
:100B40003F18142FC8BF142730208DF8080089469D
:100B50000DF1090000E03046002F34DD0646404626
:100B6000494600F0C7FF01460A4606F10803042083
:100B70000A26B2FBF6F606EB860EA2EB4E023032E8
:100B800003F8012C0A22B6FBF2F202EB820EA6EB6E
:100B90004E063036401E03F8026DE9D1083F002FA3
:100BA00003F10806D7DD084600F0B8FF02460B4601
:100BB0004046494600F008FE00225B4600F0A8FBD4
:100BC00080468946CBE70DF10901401A0DF109066F
:100BD00004E00199491E401E0191761C31783029AC
:100BE000F7D0662C02D10199491C03E0652C0CBF9B
:100BF000012100212B6BCB189842B8BF431E002B5C
:100C00001ED4834204DAF05C3528A8BF392000DA0C
:100C100030201946721E02EB010800E05B1E18F836
:100C20000199491E8145F9D0392802D1705C401CD8
:100C30007054002904D50198401C16465B1C019095
:100C4000019800B200901BB29DF838103246284639
:100C500000F034F82EE0C61D002F3FF7BDAE304641
:100C60000DF10901401A009903468842C8BF0B469E
:100C7000002B0DF109063FF52FAF8342BFF6FEAE04
:100C80000DF10900C15C07297FF7F8AE0F20F6E6E9
:100C9000CBCCCC0C0000244002FCFFFFFFFF0F80F8
:100CA0000000E03F0000F07FA08601000000F03F60
:100CB00084D797410FB0BDE8F08F00002DE9FC43C9
:100CC000054683B01F46D5F83080002F164602DC5B
:100CD0005FF00107B9A6894649F02000BDF9304010
:100CE000662808BF641C17D0672840F0888014F17C
:100CF000040FC0F28A80444580F2878095F838005E
:100D0000641C010702D44745B8BFB84620B2B8EB0F
:100D1000000848BF4FF000080FFA84F9E868A96995
:100D2000B9F1000F27DC4A1C30234354B8F1000FFF
:100D300003DC95F83800010703D5E9682E208854B4
:100D4000521C18EB090FB8BFC8F1000424B260426E
:100D50006862A044B845AA61B8BF4746EB68A86975
:100D60003FB2EF613A463146184400F0A3FBA8EBCE
:100D70000700A862C5E022B29742084419DA3A4651
:100D8000314600F097FBA8693818A9EB0707B8F1BE
:100D9000000FA8616F6203DC95F838100A0705D5CB
:100DA000EA682E211154E869401CE861C5F82880E2
:100DB000A7E0314600F07EFBA8693F1BB8F1000FA9
:100DC000484403DC95F838100A0703D5EA682E2159
:100DD0001154401CA86138B28045EB68A869B8BFBF
:100DE00047463AB206EB0901184400F063FBA969D3
:100DF0003FB27918A8EB0707A9616F6281E0B9F1EA
:100E0000610F16D14FF0700918E0474504DA95F8E4
:100E100038100A0758BFB846B8F1010848BF4FF06C
:100E20000008B9F1670F14BF4FF045094FF065098D
:100E300004E0B9F1410F08BF4FF05009A969EB6810
:100E4000481CA861B8F1000F16F8012B5A5403DCB6
:100E500095F838100A0719D5EA68431CAB612E21B2
:100E60001154B8F1000F11DD7F1E38B231468045B4
:100E7000EE68B8BF47463AB2F01800F01BFBA8690D
:100E80003FB23818A861A8EB07006862E868A96952
:100E90000844002C80F8009003D42B224270811C5F
:100EA00003E02D2141706442811C00206A460AE063
:100EB00023460A2493FBF4F404EB8406A3EB4603D5
:100EC00002F8013B401C24B2002CF1DC012806DCB6
:100ED00049F02002652A04BF302201F8012B48B9ED
:100EE000302001F8010B07E0401E1DF800303033C0
:100EF00001F8013B0028F7DCEA68A8691044091AE8
:100F0000E96195F8380000F0140010280DD16A69E5
:100F1000A969686A8A18E9698218A86A8A18821811
:100F2000686B8242BCBF821A2A6205B0BDE8F083BA
:100F3000F8B505460E4617461C46002074B117F852
:100F4000011BB068A847B06030B1F06A401CF06285
:100F50000020641EF3D1F2BD4FF0FF30F2BD00005F
:100F60007072696E74665F733A20256E20646973CF
:100F7000616C6C6F776564007072696E74663A209C
:100F800062616420256E20617267756D656E740004
:100F90007072696E74665F733A20626164202573B3
:100FA00020617267756D656E740000006E616E0081
:100FB0004E414E00696E6600494E4600300030B426
:100FC000002513E050F8042BD30744BFA9F1010317
:100FD0009A18091F042942F8045BFAD213468C07B9
:100FE00044BF15809B1CC90748BF1D7050F8041BE7
:100FF0000029E7D130BC70470278C9B28A421AB1E1
:101000001CBF10F8012FF9E718BF0020704700003F
:1010100080B500B906A005490B681BB1222200214A
:10102000984701E000F087FD222002BDC8000020A3
:10103000636F6E73747261696E742068616E646C44
:1010400065723A20626164206D6573736167650043
:1010500000F10103810704D010F8011B820781B160
:10106000FAD10268A2F10131914311F0803104BF3D
:1010700050F8042FF6E709BAB1FA81F100EBD1007C
:10108000401CC01A70470000C9B2830706D0521E28
:1010900022D310F8013B9942F7D11FE0083A13D34D
:1010A00002F1040241EA012141EA014150F8043B06
:1010B000121F21BF4B40A3F1013C2CEA030C1CF092
:1010C000803FF3D0C9B2001F083210F8013B521E16
:1010D00028BF91EA030FF8D818BF0120401E7047BF
:1010E000BBBBE1B1B2F5803F80F07E80022A1ED901
:1010F0008C46B1FBF2F102FB11C31B0443EA10431F
:10110000B3FBF2FC02FB1C3380B240EA0343B3FBA7
:10111000F2F002FB103240EA0C4000237047022A32
:1011200005D98446B0FBF2F002FB10C270474AB109
:1011300005D100F0010249085FEA30007047002243
:101140000023704700F0FABC0B00020000210020D1
:101150007047904271EB030CF6D3B3F5803F2FD26A
:10116000F0B5B3FA83F7B1FA81F4A7F10F0E3D1B86
:101170005340CEF1200602FA0EF2F3415340B5F18E
:101180000F0746D80F3C2C444140C4F12006A04034
:10119000F1414140B1FBF3F603FB1611A2FB0645FA
:1011A000001BA94102D2761E8018594180EA010233
:1011B00021FA0EF362FA0EF200215A403046F0BDD9
:1011C00030B4B1FBF3FC03FB1C11A2FB0C45001B6C
:1011D000A94103D2ACF1010C8018594130BC024640
:1011E0000B46604600217047B2F1807F65D3F0B5B1
:1011F000B2FA82F7B1FA81F4C7F10F063D1B22FA69
:1012000006F307F1110EF24120355A40B5F10F07F0
:10121000B8D94140C4F12006A040F1414140B1FBA2
:10122000F3FC03FB1C11A2FB0C45001BA94103D2DC
:10123000BCF1010C801859410F2F12D30F3FC90385
:1012400041EA5041B1FBF3F603FB1611A2FB064540
:10125000D4EBC030A94102D2761E8018594146EA2B
:10126000CC3C07B34140C7F12006B840F1414140B2
:10127000B1FBF3F603FB1611A2FB0645001BA941C7
:1012800002D2761E8018594180EA010221FA0EF33B
:10129000C7F1200462FA0EF20CFA07F05A402CFA59
:1012A00004F13043F0BD80EA010221FA0EF300217F
:1012B00062FA0EF260465A40F0BD8C46B1FBF2F184
:1012C00002FB11C31B0243EA1063B3FBF2FC02FBF7
:1012D0001C331B024CEA002043EA1063B3FBF2FC10
:1012E00002FB1C331B024CEA002043EA1063B3FBF1
:1012F000F2FC02FB1C331B024CEA002043EA1063A1
:10130000B3FBF2FC02FB1C324CEA002000237047C6
:10131000B0B581EA030C0CF0004C40F2FF7515EA01
:1013200011541DBF15EA1357AC42AF4239E0E4191E
:1013300023EA455343F48013C90241F0004141EAD6
:10134000505EC7021100A7FB020200284FF0000008
:10135000EEFB01204FF00001E3FB072118BF42F034
:101360000102401800214941E3FB0E01A4F580640D
:101370000F0302D252004041494154F101046CDD97
:10138000470872F1004250F1000051EB0451A1F501
:1013900080115CBF41EA0C01B0BD4CEA0551002050
:1013A000B0BD05EA1357AC4214BFAF4241E050EA6A
:1013B000410E1CBF52EA430E02E061460020B0BD60
:1013C00024423C441BD15FEA070EF6D0090302BF5A
:1013D00001460020AEF1140EB1FA81F7AEEB07041E
:1013E00001FA07FE0C37C7F1200100FA07F7C840E1
:1013F0004EEA000E23EA455343F48013A2E733F08C
:101400000043B3FA83F704BFB2FA82FE77440B3F7E
:10141000E41BB7F1200E2FBF02FA0EF3BB40C7F159
:10142000200E22FA0EFE38BF43EA0E03BA40641CB7
:1014300082E750EA410E14BF52EA430E6FF00001FA
:101440004FF4001717EB430F8ABF194617EB410FF4
:10145000B5E74CEA05510020B0BDD4F10104B4F168
:1014600020070FDAC4F12007520828BF42F001021A
:1014700010FA07F501FA07F7E1BF2A43E0403843C5
:10148000E1400FE0352C98DCC7F1200452EA40021D
:1014900020FA07F218BF42F0010231FA07F0A1402A
:1014A0000A43002172F1004250F1000051EB0C019F
:1014B000B0BD000062B38B0708D0521E11F8013B8B
:1014C00000F8013B00F024808B07F6D1830740F041
:1014D000208000BF103A07D330B4B1E83810103A7A
:1014E000A0E83810F9D230BC530724BFB1E8081087
:1014F000A0E8081044BF51F8043B40F8043BD20771
:1015000024BF31F8022B20F8022B44BF0B78037064
:101510007047121F17D35B0009D151F8043B20F824
:10152000023B1B0C121F20F8023BF6D20BE051F8D5
:10153000043B00F8013B1B0A20F8023B1B0C121F66
:1015400000F8013BF3D238BF121D521E24BF11F820
:10155000013B00F8013BF8D87047000010B5144675
:1015600000F002F8226010BDC1F30A5343B14A00F3
:1015700012F5001F28D2A3F2FE32A1EB02517047F0
:1015800050EA410C20D001F0004C31EA0C01B1FAD4
:1015900081F204BFB0FA80F3D2180B3AB2F1200303
:1015A0002CBF00FA03F1914041EA0C013EBFC2F1A9
:1015B000200C20FA0CF319439040524240F2FD33C4
:1015C000D21A01EB03517047002270474FF4001C00
:1015D0001CEB410F94BF1CEB430F09E041EA030CE5
:1015E00050EA4C0C52EA0C0C03D2994208BF9042CC
:1015F000704714BF8B428242704700004FF4001CBA
:101600001CEB410F94BF1CEB430F09E041EA030CB4
:1016100050EA4C0C52EA0C0C03D28B4208BF8242B7
:10162000704714BF9942904270470000124254D450
:1016300040F2FF7C1CEA11530FD0634531D09B1858
:1016400063453CBF01EB0251704701F0004141EAA4
:101650000C510020AFF30080704750EA410320D0C6
:1016600001F0004C91EA0C011CD0B1FA81F30B3B64
:101670009A420DD9D21A994051EA0C01C3F1200CBB
:1016800020FA0CFC61449840531C40F2FF7CD7E7E1
:10169000914041EA0C01C2F1200C20FA0CF31943ED
:1016A00090407047B0FA80F31533202BE0D3202A06
:1016B000EED3203A203B9A4209D9D21A00FA03F11C
:1016C00041EA0C010020531C40F2FF7CB8E700FA0D
:1016D00002F141EA0C0100207047524240F2FF7CC7
:1016E0001CEA11530DD06345DBD0B2EB030C3CBFB9
:1016F000A1EB025170470CF1010221EA035141F4C0
:10170000801150EA410CCCD001F0004C352A27DC86
:1017100030B481EA0C01B2F1200309DAC2F12003EE
:10172000044601FA03F5D0402843D1409C400CE028
:10173000C3F12002450020FA03F418BF44F001046D
:1017400021FA03F091400C43002174F1004550F15F
:10175000000051EB0C01244230BC7FF47BAF70479A
:101760006146002076E70000C1F30A5340F2FE32E2
:101770009B1A14DDD3F120034FEAE17208DDC902A0
:1017800041EA505141F00040D84080185040704725
:1017900003F2E13010B1D24382F0004070470020E4
:1017A00070470000C11768B14840401AB0FA80F293
:1017B0009040D21CC907C2F5846241EA025202EB92
:1017C000D02140057047000070B44FF0004591EA09
:1017D000030F40F1B5816B40841A71EB030603D20D
:1017E000001BB141121973414FF4001C1CEB410F57
:1017F00034BF7CEB430442E00C0DA4EB1356352EB2
:101800004FDC45EAC323DB0A45EAC121C912B6F120
:1018100020050DDD63FA05F6EB4086EA030512426A
:1018200018BF45F00105C01851F100010CD213E0BA
:1018300062FA06F5F2405540F3415A40B340F34096
:101840005A408018594107D349085FEA30005FEADF
:10185000350528BF45F0010501F58011420875F1F5
:10186000004250F1000041EB04514E0016F5001FFC
:1018700070BC38BF70470020090D090570471CEB8C
:10188000410F10D252EA43060BD0BCEB410F05D8F2
:101890000C0DAB43661E342EB6DD02E0AB43801860
:1018A000594170BC704770BC70470000F0B540F201
:1018B000FF7581EA030C0CF0004C15EA11541DBFB2
:1018C00015EA1357AC42AF42E5E0BC41C1F3130146
:1018D000C3F31303801A994143F4801304D2641EA6
:1018E0004000494180185941C90241EA5051B1FBB9
:1018F000F3F603FB1611A2FB0675D7EBC020A94136
:1019000002D2761E80185941C90241EA5051B1FBFA
:10191000F3FE03FB1E11A2FB0E75D7EBC020A941FD
:1019200003D2AEF1010E80185941890241EA90516B
:10193000760546EA8E2EB1FBF3F603FB1611A2FBE9
:101940000675D7EB8020A94102D2761E8018594136
:10195000C90241EA50514EEA060EB1FBF3F603FB11
:101960001611A2FB0675D7EBC020A94102D2761E44
:1019700080185941C90241EA5051B1FBF3F703FB0A
:101980001711A2FB0735D3EBC020A94167F100076F
:101990000CBF004247F0010766F3D5274FEA1E311E
:1019A000B80814F5806412DDBD0775F1004250EBF4
:1019B0000E5051EB045111F5801F5CBF41EA0C0140
:1019C000F0BD4CF07F6141F0E0410020F0BDBD076B
:1019D0006D0840EA0E5041F48011D4F10104B4F1D5
:1019E00020060ADAC4F120060200E04001FA06F3FC
:1019F000E1401843B24015430EE0342C13DCC6F12D
:101A0000200445EA40056D0820FA06F2154321FA44
:101A100006F0A1400D43002175F1004250F1000095
:101A200051EB0C01F0BD00205FEA0C01F0BDCFB915
:101A300092185B41B3FA83F704BFB2FA82F6BF197A
:101A40000B3FB7F120062FBF02FA06F3BB40C7F1E8
:101A5000200622FA06F638BF3343BA401CB1E41917
:101A6000641E33E77F4231F00041B1FA81F404BFD4
:101A7000B0FA80F6A4190B3CB4F120062FBF00FA8F
:101A800006F1A140C4F1200620FA06F638BF314322
:101A9000A0403C1B1AE7AC421ABF05EA1357AF42FD
:101AA00012E050EA41061CBF52EA4306BFE750EA83
:101AB0004107304661461CBF41EA0551F0BD52EA7C
:101AC000430C08BFC143F0BD00204FF4001616EBD5
:101AD000410F98BF16EB430F08BF16EB410F24BF11
:101AE000C14305E016EB430F0CBF61464CEA0551BC
:101AF000F0BD0000400D491840EA81200CD2490D8C
:101B0000A1F58061491C40F0004005DBD1F11F01C7
:101B100054BFC840C017704700207047014648B105
:101B2000B0FA80F18840C91CC1F58461090501EB58
:101B3000D02140057047012000F0B8B87047000080
:101B4000841A71EB030604D26E40001BB1411219D6
:101B500073414FF4001C1CEB410F34BF7CEB430678
:101B600083E00C0DA4EB1356362E00F37C80012E7F
:101B700045EAC32341DC43EA525312BFD202920228
:101B80005B08240545EAC12141EA5051D2EBC0204F
:101B9000994125D407D1B0FA80F610FA06F162D047
:101BA0000020203608E0B1FA81F6B140C6F12002EB
:101BB00020FA02F21143B0404FEAF474B4EB4654F9
:101BC00034F001064FEA74040AD8D6F50016760DF3
:101BD00004F00044F04061FA06F25040F140484001
:101BE000C00A40EA415021F0004128BF5FEA500599
:101BF00050F1000044EBD12135E0DB0A45EAC12178
:101C0000C90AB6F120050EDD42EA0242120CC5F106
:101C1000200603FA06F6EB4042EA06056D429841BB
:101C200061F100010DE062FA06F5F240554063FAF9
:101C300006FC82EA0C02F3405A406D42904161EB8F
:101C4000030111F4801F05D1641E620502D06D00EE
:101C50004041494121F48011430875F1004350F19E
:101C6000000041EB045170BC70471CEB410F15D2D2
:101C700023F0004352EA43060BD04FEA4C0CBCEB76
:101C8000410F04D80C0D661E342EB7DDEBE7801A29
:101C9000994150EA410608BF0021E4E708BF1CEB68
:101CA000430F28BF6FF00001DDE7000080B5AFF300
:101CB0000080024A11001820ABBEFBE7260002009C
:101CC00010B50400002C01D1012033E0A0690028E8
:101CD000FFD194F83900002805D1002084F838009D
:101CE000200000F0CAFD242084F839002068C06874
:101CF00030F400502168C860200000F05FFA2068CE
:101D0000006930F49040216808612068406930F033
:101D10002A00216848612068C06850F4005021689A
:101D2000C8600020E063202084F83900202084F877
:101D30003A00002010BD2DE9FC4705000C001600FC
:101D40001F005FF0000A95F83900202860D1002CB0
:101D500003D0300080B2002801D1012059E095F86D
:101D60003800012801D1022053E0012085F8380015
:101D70000020E863212085F8390000F0CBFD814682
:101D8000AE84EE84002085F83800E88C00282FD03F
:101D9000E88C401EE884A868B0F5805F18D10097F1
:101DA0004B4600228021280000F016F9002801D0BF
:101DB00003202EE0A046B8F80000C005C00D296839
:101DC00048602869002801D1A41CDEE7641CDCE718
:101DD00000974B4600228021280000F0FDF80028E3
:101DE00001D0032015E0207829684860641CCCE706
:101DF00000974B4600224021280000F0EDF8002813
:101E000001D0032005E0202085F83900002000E003
:101E10000220BDE8F68710B4030093F83A002028AA
:101E20002FD1002903D0100080B2002801D1012059
:101E300028E093F83800012801D1022022E0012097
:101E400083F8380099629A85DA850020D8632220C9
:101E500083F83A00002083F838001868C06850F40E
:101E600080701C68E0601868406950F001001C68D0
:101E700060611868C06850F020001C68E0600020B5
:101E800000E0022010BC70472DE9F84306003068DE
:101E900007683068D0F80C803068D0F814900020C3
:101EA000002517F00F04002C08D1B80606D55FEA0C
:101EB000886003D5300000F02AF98BE0002C77D041
:101EC0005FEAC97002D418F4907F71D017F0010056
:101ED000C0B2002806D05FEAC85003D5F06B50F0BE
:101EE0000100F063780708D519F00100C0B200289E
:101EF00003D0F06B50F00200F063B80708D519F07A
:101F00000100C0B2002803D0F06B50F00400F06371
:101F100038070BD55FEA886004D419F00100C0B21D
:101F2000002803D0F06B50F00800F063F06B00283D
:101F30003DD0B80605D55FEA886002D5300000F0D4
:101F4000E6F830684069800910F001000500F06B88
:101F5000000701D4002D25D0300000F074F830685F
:101F6000406940061AD53068406930F04000316859
:101F70004861706B00280DD00FF2ED00716B0865A1
:101F8000706B00F0CDFC002811D0706B716B096D87
:101F900088470CE0300000F0D7FC08E0300000F08B
:101FA000D3FC04E0300000F0CFFC0020F06311E02F
:101FB000380606D55FEA086003D5300000F060F807
:101FC00008E0780606D55FEA486003D5300000F0E7
:101FD0008EF8FFE7BDE8F1832DE9F04105000E0022
:101FE00090461F00069C286800683040B04201D12E
:101FF000012000E000204146C9B2884220D114F1FE
:10200000010FF0D0002C04D000F084FCC01B8442EF
:10201000E9D22868C06830F4D0702968C8602868A0
:1020200040694008400029684861202085F839004F
:10203000202085F83A00002085F83800032000E0D1
:102040000020BDE8F0810168C96831F49071026830
:10205000D16001684969490849000268516120213D
:1020600080F83A107047000038B50400A56B0020D6
:10207000E8850020E884280000F066FC31BD0000FF
:10208000010091F8390021282FD18868B0F5805FD0
:1020900011D1086A02001088C005C00D0B68586095
:1020A0000869002803D1086A801C086209E0086AF0
:1020B000401C086205E0086A431C0B6200780B684C
:1020C0005860C88C401EC88480B200280BD10868B4
:1020D000C06830F080000B68D8600868C06850F0B5
:1020E00040000B68D860002000E00220704710B567
:1020F00004002068C06830F040002168C8602020DB
:1021000084F83900200000F020FC002010BD38B514
:10211000040094F83A0022284ED1A068B0F5805F00
:1021200016D1A06A05002069002808D120684068FF
:10213000C005C00D2880A06A801CA0621AE020683B
:10214000406800F0FF002880A06A401CA06211E0F7
:102150002069002806D1A06A411CA1622168496853
:10216000017007E0A06A411CA1622168496811F072
:102170007F010170E08D401EE08580B2002819D1FA
:102180002068C06830F020002168C8602068C068FE
:1021900030F480702168C8602068406940084000C1
:1021A00021684861202084F83A00200000F0D9FB23
:1021B000002002E0002000E0022032BD2DE9F14FB6
:1021C00084B004980068016931F440510498C068F3
:1021D00001430498006801610498816804980069CB
:1021E00001430498406901430498C0690143029186
:1021F00004980068C168DFF898050140029801431F
:1022000004980068C16004980068416931F4407125
:102210000498806901430498006841610498C0698A
:10222000B0F5004F40F05B8104980068DFF864155A
:10223000884206D004980068DFF85C15884240F0B8
:10224000A78000F043FF80465FF064090224002568
:102250001926002742460023A6FB020106FB0311B4
:1022600007FB021182468B46049840680021A4FBBC
:10227000002304FB013305FB003350465946FEF7AB
:102280002FFF6421B0FBF1F0019042460023A6FB32
:10229000020106FB031107FB021182468B460498DC
:1022A00040680021A4FB002304FB013305FB00333D
:1022B00050465946FEF714FF009042460023A6FB05
:1022C000020106FB031107FB021182468B460498AC
:1022D00040680021A4FB002304FB013305FB00330D
:1022E00050465946FEF7FCFE6421B0FBF1F1009820
:1022F00009FB1101C80032306421B0FBF1F040004D
:1023000010F4F870019910EB011000904246002380
:10231000A6FB020106FB031107FB021182468B4656
:10232000049840680021A4FB002304FB013305FB53
:10233000003350465946FEF7D3FE82464046002100
:1023400002000B00A6FB020106FB031107FB0211B2
:10235000049A5268002316001F00A4FB062304FB06
:10236000073305FB0633FEF7BBFE6421B0FBF1F03B
:1023700009FB10A95FEAC90032306421B0FBF1F11A
:1023800011F0070100980918049800688160FCE1C9
:1023900000F091FE80465FF06409022400251926B2
:1023A000002742460023A6FB020106FB031107FBA0
:1023B000021182468B46049840680021A4FB00234A
:1023C00004FB013305FB003350465946FEF788FEF7
:1023D0006421B0FBF1F0019042460023A6FB02010C
:1023E00006FB031107FB021182468B4604984068E6
:1023F0000021A4FB002304FB013305FB00335046FE
:102400005946FEF76DFE009042460023A6FB0201EE
:1024100006FB031107FB021182468B4604984068B5
:102420000021A4FB002304FB013305FB00335046CD
:102430005946FEF755FE6421B0FBF1F1009809FB07
:102440001101C80032306421B0FBF1F0400010F4FB
:10245000F870019910EB0110009042460023A6FB92
:10246000020106FB031107FB021182468B4604980A
:1024700040680021A4FB002304FB013305FB00336B
:1024800050465946FEF72CFE824640460021020087
:102490000B00A6FB020106FB031107FB0211049AC5
:1024A0005268002316001F00A4FB062304FB073319
:1024B00005FB0633FEF714FE6421B0FBF1F009FBC7
:1024C00010A95FEAC90032306421B0FBF1F111F0CC
:1024D00007010098091804980068816055E1049884
:1024E0000068AC49884205D004980068AA4988422F
:1024F00040F0A68000F0EAFD8046042400255FF04D
:1025000064091926002742460023A6FB020106FBA8
:10251000031107FB021182468B4604984068002194
:10252000A4FB002304FB013305FB0033504659464E
:10253000FEF7D6FD6421B0FBF1F001904246002386
:10254000A6FB020106FB031107FB021182468B4624
:10255000049840680021A4FB002304FB013305FB21
:10256000003350465946FEF7BBFD0090424600231B
:10257000A6FB020106FB031107FB021182468B46F4
:10258000049840680021A4FB002304FB013305FBF1
:10259000003350465946FEF7A3FD6421B0FBF1F12C
:1025A000009809FB1101080132306421B0FBF1F001
:1025B00010F0F000019910EB01100090424600234A
:1025C000A6FB020106FB031107FB021182468B46A4
:1025D000049840680021A4FB002304FB013305FBA1
:1025E000003350465946FEF77BFD824640460021A7
:1025F00002000B00A6FB020106FB031107FB021100
:10260000049A5268002316001F00A4FB062304FB53
:10261000073305FB0633FEF763FD6421B0FBF1F0E1
:1026200009FB10A95FEA091032306421B0FBF1F117
:1026300011F00F0100980918049800688160A4E067
:1026400000F039FD8046042400255FF06409192656
:10265000002742460023A6FB020106FB031107FBED
:10266000021182468B46049840680021A4FB002397
:1026700004FB013305FB003350465946FEF730FD9D
:102680006421B0FBF1F0019042460023A6FB020159
:1026900006FB031107FB021182468B460498406833
:1026A0000021A4FB002304FB013305FB003350464B
:1026B0005946FEF715FD009042460023A6FB020195
:1026C00006FB031107FB021182468B460498406803
:1026D0000021A4FB002304FB013305FB003350461B
:1026E0005946FEF7FDFC6421B0FBF1F1009809FBAF
:1026F0001101080132306421B0FBF1F010F0F0005C
:10270000019910EB0110009042460023A6FB020144
:1027100006FB031107FB021182468B4604984068B2
:102720000021A4FB002304FB013305FB00335046CA
:102730005946FEF7D5FC82464046002102000B00B8
:10274000A6FB020106FB031107FB0211049A526863
:10275000002316001F00A4FB062304FB073305FB20
:102760000633FEF7BDFC6421B0FBF1F009FB10A9B4
:102770005FEA091032306421B0FBF1F111F00F0172
:102780000098091804980068816005B0BDE8F08FD2
:10279000F369FFFF001001400014014081B00020E8
:1027A00000905448016851F480410160006810F4C1
:1027B000804000900098002000904F48016851F040
:1027C00080510160006810F080500090009801B0C6
:1027D000704710B5040020684849884212D1012092
:1027E0004749086000220021032000F051FD03202A
:1027F00000F063FD00220021292000F049FD29207E
:1028000000F05BFD10BD81B001683E4A91420BD1E2
:102810000021009138490A6852F002020A600968F2
:1028200011F002010091009901B0704710B586B017
:10283000040001A8142100F05DFD206831498842A0
:1028400019D1002000903048016851F00101016069
:10285000006810F0010000900098402001900220D4
:10286000029000200390002004900220059001A90E
:10287000264800F043FD06B010BD10B586B0040038
:1028800001A8142100F036FD2068214988422ED18C
:10289000002000901748016851F0100101600068A5
:1028A00010F0100000900098002000901648016879
:1028B00051F001010160006810F0010000900098E3
:1028C0004FF4C0600190022002900020039003208A
:1028D00004900720059001A90C4800F00FFD00228C
:1028E0000021252000F0D4FC252000F0E6FC06B0F5
:1028F00010BD00004438024040380240002800402B
:102900003C0E4742000400403038024000000240C4
:102910000010014001480068704700BFC40000205B
:10292000010091F83500022803D08020486501207D
:1029300009E0052081F8350008680068400840007B
:102940000A681060002070477047704701B54FF665
:10295000FF7301226946DFF85005FFF7ECF9009894
:1029600002BD70B50400DFF84055AC420FD1DFF86E
:102970003C65307851380128FFD83178DFF83005D0
:1029800000F0EAFD012231002800FFF744FA70BD93
:1029900070B50400DFF81C5500222900200000F06B
:1029A000DDFEDFF8146500223100200000F088FF12
:1029B000DFF8080500F0D0FDDFF8040500F0CCFDDD
:1029C000B3787278F178DFF8FC0400F0C5FDDFF829
:1029D000F80400F0C1FDAB786A782978DFF8EC04E0
:1029E00000F0BAFDDFF8E80400F0B6FD70BD10B5E8
:1029F0000400DFF8E00400F0AFFD1021DFF8D80498
:102A000000F082FD10BD38B5DFF8D00400F0A4FD61
:102A1000DFF8CC0400F0A0FDDFF8C80400F09CFD56
:102A2000DFF8C40400F098FDDFF8C00400F094FD66
:102A3000DFF8BC0400F090FDDFF8B80400F08CFD76
:102A4000DFF8B40400F088FDDFF8B00400F084FD86
:102A5000DFF8AC0400F080FDDFF8A844200000F0AF
:102A60007BFDDFF8A40400F077FD200000F074FD8A
:102A7000DFF89854280000F06FFD200000F06CFD96
:102A8000DFF88C0400F068FD200000F065FD2800F0
:102A900000F062FD200000F05FFDDFF8780400F038
:102AA0005BFDDFF8740400F057FDDFF8700400F000
:102AB00053FDDFF86C0400F04FFDDFF8680400F010
:102AC0004BFDDFF8640400F047FD200000F044FDFA
:102AD000DFF8580400F040FDDFF8540400F03CFD3E
:102AE000DFF8500400F038FDDFF84C0400F034FD4E
:102AF000DFF8480400F030FDDFF8440400F02CFD5E
:102B000031BD80B501F08AF800F019F800F086F9BF
:102B100000F079F800F010F900F066F9FFF773FFA4
:102B2000DFF820044FF47A7102685163002101F04C
:102B3000C7F80122DD49DC48FFF76DF9FEE780B5F3
:102B400098B006A8302100F0D5FB01A8142100F0B0
:102B5000D1FB12A8182100F0CDFB00200090DFF877
:102B6000E803016851F080510160006810F0805066
:102B70000090009800200090DFF8D003016851F425
:102B800040410160006810F4404000900098062029
:102B90000690012008900120099010200A90022040
:102BA0000C9000200D9008200E9064200F900220C1
:102BB00010900420119006A801F0E8FA002801D036
:102BC00000F068F90F20019002200290002003908D
:102BD0004FF48050049000200590032101A800F0DC
:102BE000C7F9002801D000F055F9022012904FF4E7
:102BF0008070169012A801F0B7FC002801D000F0F8
:102C000049F919B000BD10B590B00BA8142100F01F
:102C100071FBCF480068009001A8282100F06AFBF2
:102C2000CC4CCD482060002060607F20A060FF2059
:102C3000E06000202061002060610020A061200091
:102C400000F09EFC002801D000F024F904220021AD
:102C5000200001F045FD002801D000F01BF9BF481D
:102C60000068012866D000208DF82C0000208DF827
:102C70002D0000208DF82E0000200E9000200F90D7
:102C800000220BA9200000F0E1FC002801D000F098
:102C900001F901208DF8000001208DF801000120CC
:102CA0008DF8020000208DF8030000226946200004
:102CB00000F088FD002801D000F0ECF800208DF82D
:102CC000040000208DF8050000208DF8060000208B
:102CD0000290002004900020059000200690002023
:102CE00007900020089001208DF824004FF4807098
:102CF0000A90002201A9200000F00CFE002801D05B
:102D000000F0C8F801208DF824004FF400700A90FC
:102D1000002201A9200000F0FDFD002801D000F0F4
:102D2000B9F804220021200001F0DAFC002801D0CB
:102D300000F0B0F810B010BD18B58DB009A8102182
:102D400000F0D8FA8648D0E90023CDE9002302A894
:102D50001C2100F0CFFA7B4C82482060002060608C
:102D60000020A0604FF6FF70E0600020206100208E
:102D7000A061200000F06CFF002801D000F08AF86C
:102D80004FF48050099009A9200001F03DF8002877
:102D900001D000F07FF8200000F076FF002801D07D
:102DA00000F078F800200090002001906946200093
:102DB00001F040FD002801D000F06CF86020029086
:102DC000002003900020049000200690002202A919
:102DD000200000F099FF002801D000F05BF82000EF
:102DE000FFF724FD0EB010BD80B52F485E4901608D
:102DF0005FF4E1314160002181600021C160002168
:102E000001610C214161002181610021C161FEF756
:102E100057FF002801D000F03DF801BD10B586B085
:102E200001A8142100F066FA002000904F480168C4
:102E300051F004010160016811F004010091009952
:102E400000210091016851F080010160016811F0DA
:102E500080010091009900210091016851F0010169
:102E60000160006810F00100009000981A4C0022E8
:102E70003021200000F03BFB302001900120029027
:102E8000002003900020049001A9200000F036FAF1
:102E900006B010BD80B572B6012220210E4800F0A8
:102EA00026FBFEE7000000004C000020CC000020C4
:102EB000F8530008AC000020C00000204054000877
:102EC000045400083C5300081054000854530008F0
:102ED000485400086C53000800000240B453000836
:102EE000C85300086C4D0008F84C0008484E000814
:102EF000804F0008DC4D0008B04E00081C5400084C
:102F00004C49000884530008E44F0008004A0008B8
:102F10003C5100086C5200088C52000864510008B3
:102F20008C510008DC510008AC520008B44A00087B
:102F3000184F0008485000088C5000080052000844
:102F4000684B00080C000020403802400070004030
:102F5000605400088C000020002800403C0E4742CE
:102F60005054000800040040001001403038024076
:102F70002DE9F04104000D00002C01D1012095E065
:102F8000584F386810F00F00A84207D23D703868DB
:102F900010F00F00A84201D0012087E020788007C0
:102FA00016D52078400704D54F48016851F4E05108
:102FB00001602078000704D54B48016851F4604156
:102FC000016049490A6832F0F002A06802430A60D1
:102FD0002078C00738D56068012805D143480068CB
:102FE000800313D4012061E06068022802D0606889
:102FF000032805D13D480068800107D4012055E031
:103000003A480068800701D401204FE0DFF8D880FB
:10301000D8F800108908890060680143C8F80010DA
:10302000FFF778FC0600D8F8000010F00C0061688B
:10303000B0EB810F08D0FFF76DFC801B41F28931A6
:103040008842F0D3032031E0386810F00F00854249
:1030500007D23D70386810F00F00A84201D001205F
:1030600024E02078400706D51F490A6832F4E05270
:10307000E06802430A602078000707D51A48016813
:1030800031F46041226951EAC201016000F038F870
:103090001749154A1268C2F30312895CC8401549E2
:1030A00008601548006801F00FFC0020BDE8F081C1
:1030B00010480068704780B5FFF7FAFF0F490A4AC9
:1030C0001268C2F38222895CC84002BD80B5FFF756
:1030D000EFFF0A49044A1268C2F34232895CC840D1
:1030E00002BD0000003C02400838024000380240A7
:1030F000D8530008040000200000002058540008A5
:103100002DE9F04100240025002600271F48006813
:1031100010F00C00002804D0042804D0082804D0A3
:1031200031E01B4830E01B482EE0DFF86C80D8F817
:10313000000010F03F000400D8F8000040020CD559
:10314000D8F80000C0F388101249A1FB000122004A
:103150000023FDF7C5FF05000BE0D8F80000C0F321
:1031600088100B49A1FB000122000023FDF7B8FFE6
:103170000500D8F80000C0F30140401C40000600E4
:10318000B5FBF6F000E00248BDE8F08108380240E7
:103190000024F40000127A000438024010B410F049
:1031A0000703DFF8304122684FF6FF010A40DFF8DD
:1031B000281151EA03210A43226010BC7047DFF84E
:1031C00014010068C0F302207047010049B20029D1
:1031D00009D4012210F01F018A40404903005BB26C
:1031E0005B0941F82320704710B4020052B2002A54
:1031F00005D40A013A4B040064B21A5508E00A01EA
:10320000384B040064B214F00F04234403F8042C78
:1032100010BC704770B4030013F00704D4F107002A
:10322000052801D3042001E0D4F10700251D072D56
:1032300001D2002500E0E51E012616FA00F0401E2E
:103240000140A94016FA05F56D1E2A4011430800F9
:1032500070BC704710B50400601EB0F1807F01D3D0
:1032600001200EE0601E204908600F215FF0FF3052
:10327000FFF7BAFF00201D49086007201C490860BD
:10328000002010BD10B504002000FFF787FF10BD1F
:103290002DE9F04104000D0016000027FFF78FFF15
:1032A0008046320029004046FFF7B4FF01002000AD
:1032B00040B2FFF799FFBDE8F08110B5040020008F
:1032C00040B2FFF782FF10BD10B504002000FFF7E9
:1032D000C1FF10BD0CED00E00000FA0500E100E0C8
:1032E00000E400E018ED00E014E000E018E000E089
:1032F00010E000E0002201F00DBB0000F8B5002353
:10330000002400260025102D80F0F080012717FAF8
:1033100005F213000A681A4014009C4240F0E48051
:103320004A68012A08D04A68022A05D04A68112A48
:1033300002D04A68122A1FD1D0F808C05FF0030EED
:103340002A00D2B252001EFA02FE3CEA0E0CD1F85C
:103350000CE02A00D2B252001EFA02FE5EEA0C0C09
:10336000C0F808C04268AF40BA434F68C7F30017BF
:10337000AF403A4316004660C7685FF0030C2A006E
:10338000D2B252001CFA02F29743D1F808E02A00A8
:10339000D2B252001EFA02FE5EEA0707C7604A6810
:1033A000022A02D04A68122A1ED12A00D20800EB53
:1033B0008202166A5FF00F0E15F00702D2B2920079
:1033C0001EFA02FE36EA0E06D1F810E015F00702EA
:1033D000D2B292001EFA02FE5EEA060637002A000A
:1033E000D20800EB8202176206682A00D2B25200AD
:1033F0001CFA02FC36EA0C0691F804C01CF0030C1F
:103400002A00D2B252001CFA02FC5CEA06060660F0
:103410004A68D20068D500220092444A176857F4DF
:1034200080471760126812F480420092009ADFF819
:1034300000C12A0092085CF822705FF00F0E15F0B0
:103440000302D2B292001EFA02FE37EA0E07394A90
:10345000904201D1002614E0374A904201D1012662
:103460000FE0364A904201D102260AE0344A9042E7
:1034700001D1032605E0334A904201D1042600E041
:103480000726F6B215F00302D2B2920096403743F7
:103490002A0092084CF822702B4E3268A243D1F8D1
:1034A00004C05FEACC3C00D522433260274F3E681F
:1034B000A643D1F804C05FEA8C3C00D526433E60A9
:1034C000234F3A68A243D1F804C05FEACC2C00D560
:1034D00022433A601F4F3E68A643D1F804C05FEA1A
:1034E0008C2C00D526433E606D1C0CE7F1BD13000B
:1034F000DBB2002B03D00B009BB2836103E00B0017
:103500009BB21B048361704743690A0092B2134067
:103510000A0092B2934204D10A0092B2120482616C
:1035200002E00A0092B28261704700004438024013
:103530000838014000000240000402400008024038
:10354000000C024000100240003C0140043C0140DD
:10355000083C01400C3C01400EB4C0B5024603A833
:1035600000210190009101AB0121044878440C3006
:10357000FCF712FE06BC5DF810FB00BF211E000028
:1035800010B50400002C01D101205EE0607F00280E
:1035900004D1002020772000FFF71BF9022060777C
:1035A000CA2021684862532021684862200000F048
:1035B000FEFA002806D0FF202168486204206077C8
:1035C000012042E020688168DFF890050140206812
:1035D00081602068816862682069024360690243F3
:1035E000114320688160E0682168086120680069F3
:1035F000A16850EA0140216808612068C06830F085
:1036000080002168C8602068806880060BD4200094
:1036100000F0B2FA002806D0FF202168486204209A
:103620006077012011E02068006C30F48020216870
:1036300008642068016CA069014320680164FF20D0
:103640002168486201206077002010BD2DE9F84311
:1036500005000E0014005FF00008287F012801D14A
:10366000022079E00120287702206877002C1CD105
:1036700028688068400601D40020F070307800F09F
:10368000B3FA8146707800F0AFFA0700B07800F026
:10369000ABFA5FFA89F9FFB23F0257EA0947C0B2B5
:1036A0000743F07857EA00470FE028688068400633
:1036B00001D40020F070307877783F0257EA004755
:1036C000B0780743F07857EA0047CA202968486273
:1036D000532029684862280000F069FA002808D0C1
:1036E000FF2029684862042068770020287701209D
:1036F00032E0DFF86C043840296808602868806888
:1037000030F480202968886028688168F268306910
:1037100002431143286881602868C06830F0800047
:103720002968C8602868806880060DD4280000F0E9
:1037300023FA002808D0FF2029684862042068770F
:1037400000202877012007E0FF2029684862012037
:103750006877002028770020BDE8F283F8B50500DF
:103760000E00140000212868806A706028680069D3
:103770004004400CB06028680768DFF8E4030740A5
:103780003800000C10F03F0030703800000A10F0D4
:103790007F00707017F07F00B0703800000C10F0E0
:1037A0004000F070002C0BD1307800F029FA307016
:1037B000707800F025FA7070B07800F021FAB070DF
:1037C0000020F2BD2DE9F84305000E00140000278B
:1037D000287F012801D1022070E0012028770220F3
:1037E0006877002C07D17078C00604D5707810F087
:1037F000EF000A307070002C19D1F07800F0F4F965
:103800008146707800F0F0F98046B07800F0ECF96D
:103810005FFA89F95FFA88F85FEA082858EA0948E8
:10382000C0B250EA0808307858EA40380CE0F07826
:1038300096F801805FEA082858EA0048B07850EA14
:103840000808307858EA4038CA202968486253206E
:1038500029684862280000F0AAF9002808D0FF2053
:10386000296848620420687700202877012025E035
:10387000DFF8F00210EA0800296848602868C0688C
:1038800030F080002968C8602868806880060DD400
:10389000280000F071F9002808D0FF20296848624C
:1038A0000420687700202877012007E0FF2029689E
:1038B000486201206877002028770020BDE8F28365
:1038C000F8B505000E001400002128684768DFF8ED
:1038D000940207403800000CF0703800000A10F025
:1038E0001F00707017F03F00B0703800400B10F0F0
:1038F00007003070002C0BD1F07800F081F9F070E7
:10390000707800F07DF97070B07800F079F9B070DF
:103910000020F2BD2DE9F84F05000E00140000272D
:103920005FF00008DFF84002006840094FF47A7148
:10393000B0FBF1F14FF47A7041430091287F0128E8
:1039400001D10220D9E00120287702206877002CDD
:1039500031D128688068400601D40020F070F069F9
:103960000028FFD0307800F03FF98146707800F0F1
:103970003BF98246B07800F037F9834696F820008C
:1039800000F032F95FFA89F95FFA8AFA5FEA0A2AE7
:103990005AEA094A5FFA8BFB5BEA0A0AF1785AEAAB
:1039A000014AC0B25AEA006AF06950EA0A0A70692C
:1039B00050EA0A0A1FE028688068400601D4002007
:1039C000F070F0690028FFD0307896F801A05FEA27
:1039D0000A2A5AEA004AB07850EA0A0AF0785AEA03
:1039E000004A96F820005AEA006AF06950EA0A0A8A
:1039F000706950EA0A0A7168B0690143CA202A68EE
:103A0000506253202A685062706AB0F5807F31D1CD
:103A10002868806830F480702A6890602868C068E0
:103A200010F0800070F4C0702A68D0600098421EC8
:103A30000092002808D1FF202A685062032068778E
:103A400000202877032058E02868C068C007EDD51B
:103A50002868C0F81CA0286841642868806850F471
:103A600080702A6890602868806850F480502A68C6
:103A7000906030E02868806830F400702A689060B8
:103A80002868C06810F0800070F420702A68D06048
:103A90000098421E0092002808D1FF202A68506238
:103AA0000320687700202877032026E02868C06874
:103AB0008007EDD52868C0F820A0286881642868B0
:103AC000806850F400702A6890602868806850F41C
:103AD00000502A6890602548026852F40032026063
:103AE0002348026852F400320260FF202A685062C4
:103AF00001206877002028770020BDE8F28F10B5FC
:103B0000040020688068C0040ED52068C068C00525
:103B10000AD52000FEF76BFF2068C06810F0800017
:103B200070F4C0702168C8602068806880040ED579
:103B30002068C06880050AD5200000F004FF2068D6
:103B4000C06810F0800070F420702168C8605FF4D5
:103B50000030084908600120607710BDBFFF8FFF6B
:103B60007F7F7F003FFFFF0004000020003C0140FA
:103B7000083C0140143C014070B504000025206859
:103B8000C06830F0A0002168C860FEF7C3FE0600E0
:103B90002068C068800608D4FEF7BCFE801B40F297
:103BA000E9318842F4D3032000E0002070BD38B52D
:103BB000040000252068C068400613D45FF0FF3081
:103BC0002168C860FEF7A6FE05002068C0684006B0
:103BD00008D4FEF79FFE401B40F2E9318842F4D33F
:103BE000032000E0002032BD00210200D2B20A2AE8
:103BF00002D3491C0A38F8E750EA0110C0B27047F6
:103C000000220300DBB21B09DBB20A214B43C0B226
:103C100010F00F00C018C0B27047000080B50B480C
:103C2000016851F400710160016851F48061016024
:103C3000016851F4807101600320FFF723FB00202D
:103C400000F042FEFEF7AAFD002002BD003C02404B
:103C500010B50400002C01D1012014E094F83D00BF
:103C6000002805D1002084F83C002000FEF7CBFDA1
:103C7000022084F83D00211D206800F03BF901205E
:103C800084F83D00002010BD10B50400002C01D1C7
:103C9000012014E094F83D00002805D1002084F8AC
:103CA0003C00200000F050FE022084F83D00211D61
:103CB000206800F01FF9012084F83D00002010BDAD
:103CC00038B504000D0001222900206800F04BFAED
:103CD0002068DFF83010884205D12068406C50F42D
:103CE0000040216848642068816811F007010629B6
:103CF00005D02068006850F00100226810600020A4
:103D000032BD00000000014070B504000D00160037
:103D100094F83C00012801D1022074E0012084F8CD
:103D20003C00022084F83D003000002806D0042822
:103D30001BD0082831D00C2846D05DE0290020682F
:103D400000F019F92068806950F008002168886146
:103D50002068806930F004002168886120688169EA
:103D6000286901432068816146E02900206800F04D
:103D70002EF92068806950F400602168886120680D
:103D8000806930F4806021688861206880692969D1
:103D900050EA0120216888612EE02900206800F0A7
:103DA00047F92068C06950F008002168C8612068A0
:103DB000C06930F004002168C8612068C1692869C1
:103DC00001432068C16117E02900206800F060F914
:103DD0002068C06950F400602168C8612068C0692B
:103DE00030F480602168C8612068C069296950EAA0
:103DF00001202168C861FFE7012084F83D00002010
:103E000084F83C00002070BD70B504000D0094F8EB
:103E10003C00012801D102206BE0012084F83C0025
:103E2000022084F83D002068866836F0770636F474
:103E30007F4620688660286800284ED010284CD025
:103E400020284AD0302848D040283CD0502826D0BE
:103E500060282ED0702807D0B0F5805F03D0B0F571
:103E6000005F0FD03EE03DE0EB686A68A96820681B
:103E700000F06DF92068806850F077000600206837
:103E800086602FE0EB686A68A968206800F05FF937
:103E90002068806850F480402168886022E0EA68E9
:103EA0006968206800F026F95021206800F047F981
:103EB00018E0EA686968206800F02EF9602120683F
:103EC00000F03DF90EE0EA686968206800F012F938
:103ED0004021206800F033F904E02968206800F0F0
:103EE0002EF9FFE7012084F83D00002084F83C0013
:103EF000002070BD10B40468774B98420BD0B0F12D
:103F0000804F08D0754A904205D0754A904202D041
:103F1000744A904203D134F070044A6814439842C2
:103F200014D0B0F1804F11D06C4A90420ED06C4A40
:103F300090420BD06B4A904208D06B4A904205D019
:103F40006A4A904202D06A4A904203D134F44074E3
:103F5000CA68144334F080044A69144304608A68D0
:103F6000C2620A688262984201D10A690263012230
:103F7000426110BC704770B4026A5208520002627B
:103F8000046A4568836933F070039B089B000A68E4
:103F9000134334F002048A6814434F4EB04205D1F3
:103FA00034F00804CA68144334F00404B04207D162
:103FB00035F4807535F400754A6915438A691543EF
:103FC000456083614A684263046270BC704770B4A4
:103FD000026A32F010020262036A4468826932F4B3
:103FE000E04232F440720D6852EA052233F02003B9
:103FF0008D6853EA0513384DA84206D133F080038B
:10400000CE6853EA061333F04003A84209D134F4D2
:10401000806434F400644D6954EA85048D6954EA7F
:104020008504446082614D688563036270BC70479B
:1040300070B4026A32F480720262046A4568C3692D
:1040400033F070039B089B000A68134334F4007438
:104050008A6854EA0224204A904206D134F400646B
:10406000CE6854EA062434F48064904209D135F4D1
:10407000805535F400554A6955EA02158A6955EAB2
:1040800002154560C3614A68C263046270BC704730
:1040900030B4026A32F480520262036A4468C26930
:1040A00032F4E04232F440720D6852EA052233F4F1
:1040B00000538D6853EA0533074DA84204D134F408
:1040C00080444D6954EA85144460C2614D680564BA
:1040D000036230BC70470000000001400004004053
:1040E00000080040000C0040004001400044014036
:1040F0000048014010B4046A036A5B085B00036275
:10410000836933F0F00353EA021334F00A040C43DA
:104110008361046210BC704710B4036A33F010036B
:1041200003628369046A33F4704353EA023334F060
:10413000A00454EA01148361046210BC70478368D0
:1041400033F0700351F0070213438360704730B4BB
:10415000846834F47F4452EA010555EA03252C4370
:10416000846030BC704730B4012411F01F0314FA8E
:1041700003F3046A9C430462046A11F01F0512FAF7
:1041800005F52C43046230BC704700002DE9F8436C
:104190000400002C01D10120CFE12078C0075FD5B9
:1041A000DFF89C03016811F00C01042909D00068B4
:1041B00010F00C0008280ED1DFF8880300684002D8
:1041C00009D5DFF884030068800349D560680028BA
:1041D00046D10120B1E16068B0F5803F06D1DFF83B
:1041E0006803016851F48031016018E06068B0F53F
:1041F000A02F0AD1DFF85003016851F4802101603B
:10420000016851F48031016009E0DFF83C03016886
:1042100031F480310160016831F48021016060680F
:1042200000280ED0FEF776FB0500DFF81C030068BF
:10423000800315D4FEF76EFB401B6528F5D30320E1
:104240007BE1FEF767FB0500DFF8FC0200688003F6
:1042500006D5FEF75FFB401B6528F5D303206CE114
:10426000207880074BD5B648016811F00C0F08D0B4
:10427000006810F00C00082814D1B2480068400211
:1042800010D4B1480168890704D5E168012901D03B
:10429000012052E1016831F0F801226951EAC201BE
:1042A00001602CE0E068002818D00120A7490860D0
:1042B000FEF730FB0500A4480168890706D4FEF725
:1042C00029FB401B0328F6D3032036E1016831F0B7
:1042D000F801226951EAC201016010E000209B4907
:1042E0000860FEF717FB050097480068800706D5B1
:1042F000FEF710FB401B0328F6D303201DE12078B6
:10430000000724D56069002810D00120904908607A
:10431000FEF700FB05008F480068800717D4FEF702
:10432000F9FA401B0328F6D3032006E10020884950
:104330000860FEF7EFFA050086480068800706D59A
:10434000FEF7E8FA401B0328F6D30320F5E02078B7
:1043500040077CD50027DFF80082D8F80000C000B5
:104360000FD400200090D8F8000050F08050C8F81A
:104370000000D8F8000010F0805000900098012054
:104380000700DFF8D891D9F80000C00513D4D9F898
:10439000000050F48070C9F80000FEF7BBFA050079
:1043A000D9F80000C00506D4FEF7B4FA401B032874
:1043B000F6D30320C1E0A068012805D16848016850
:1043C00051F00101016015E0A068052809D1644899
:1043D000016851F004010160016851F001010160C0
:1043E00008E05F480168490849000160016831F050
:1043F00004010160A06800280FD0FEF78BFA0500C9
:1044000057480068800718D4FEF784FA401B41F231
:1044100089318842F4D303208FE0FEF77BFA050050
:104420004F480068800708D5FEF774FA401B41F238
:1044300089318842F4D303207FE03800C0B20128DC
:1044400005D1D8F8000030F08050C8F80000A0690D
:10445000002871D03A48006810F00C00082847D0B6
:10446000A069022833D13F4F00203860FEF752FA8E
:104470008046DFF8D490D9F80000800107D5FEF718
:1044800049FAB0EB08000328F3D3032055E0E169B3
:10449000206A0143606A51EA8011A06A4008401E08
:1044A00051EA0041E06A51EA0061264801600120BA
:1044B0003860FEF72FFA0500D9F8000080013BD4E0
:1044C000FEF728FA401B0328F6D3032035E000202E
:1044D00024490860FEF71EFA05001B4800688001A9
:1044E0002AD5FEF717FA401B0328F6D3032024E051
:1044F000A069012801D101201FE0124800680600D0
:1045000016F48000E169884214D116F03F00216A58
:1045100088420FD147F6C0703040616A884209D1A5
:1045200016F44030A16A884204D116F07060E16A46
:10453000884201D0012000E00020BDE8F28300BFE6
:104540000838024004380240003802400000474268
:10455000800E4742743802404038024000700040EC
:1045600070380240600047422DE9F84305000026FC
:104570000024287810F0050F2ED0DFF83C710020C1
:104580003860FEF7C7F98046DFF83091D9F80000AF
:10459000000107D5FEF7BEF9B0EB08000328F3D3FE
:1045A000032087E06868A96850EA8110E96850EA4A
:1045B0000170DFF80C11086001203860FEF7AAF9DD
:1045C0000600D9F80000000106D4FEF7A3F9801B0D
:1045D0000328F6D303206DE02878800763D50020F8
:1045E0000090DFF8E000016851F080510160006840
:1045F00010F0805000900098DFF8CC70386850F4CC
:1046000080703860FEF786F906003868C00506D469
:10461000FEF780F9801B0328F7D303204AE0DFF878
:10462000AC70386810F440700400002C20D0286969
:1046300010F4407084421BD0386830F4407004009D
:10464000234801210160002101603C603868C007F7
:104650000ED5FEF75FF906003868800708D4FEF72C
:1046600059F9801B41F289318842F5D3032021E0BA
:10467000286910F44070B0F5407F09D115490A68E7
:1046800032F4F8122B69144803401A430A6004E01C
:104690001048016831F4F81101603868296909058A
:1046A000090D084338602878000702D5287D0B499A
:1046B00008600020BDE8F2836800474200380240ED
:1046C0008438024040380240007000407038024098
:1046D000400E474208380240FFFCFF0FE0114742FE
:1046E00018B40300187F012801D1022080E00120C6
:1046F000187702205877CA201C68606253201C6813
:1047000060621868806840051CD549480068400907
:104710004FF47A74B0FBF4F44FF47A70444300948D
:104720000098441E0094002808D1FF201C68606295
:104730000320587700201877032059E01868C068D4
:104740004007EDD41868806830F480601C68A06071
:104750003748006840094FF47A74B0FBF4F44FF422
:104760007A70444300940098441E0094002808D1B5
:10477000FF201C6860620320587700201877032010
:1047800036E01868C0684007EDD5186841611868C0
:104790008068C008C0001C68A0601868806810436A
:1047A0001C68A0601F48046854F4800404601E481C
:1047B000046854F4800404601868C06810F0800035
:1047C00070F490601C68E0601868806850F4804065
:1047D0001C68A0601868806850F480601C68A06045
:1047E000FF201C68606201205877002018770020A5
:1047F00012BC704710B504002068C06840050AD597
:104800002000FEF7C5F82068C06810F0800070F442
:1048100090602168C8605FF480000449086001204E
:10482000607710BD003C0140083C0140143C014051
:104830000400002030B4020092F83C00012801D1AD
:10484000022034E0012082F83C00022082F83D0082
:10485000106843681068846833F070030868034385
:10486000106843601068134DA84213D01068B0F16F
:10487000804F0FD01068104DA8420BD010680F4D1C
:10488000A84207D010680E4DA84203D010680D4D05
:10489000A84205D134F0800448680443106884605D
:1048A000012082F83D00002082F83C00002030BC4E
:1048B0007047000000000140000400400008004074
:1048C000000C00400040014010B504004FF47A7025
:1048D0000D490978B0FBF1F00C490968B1FBF0F023
:1048E000FEF7F2FC002801D001200CE0102C09D2C8
:1048F000002221005FF0FF30FEF7CAFC044804608C
:10490000002000E0012010BD08000020040000206D
:104910000000002000B500BF1300964694461039F1
:1049200028BFA0E80C50FAD85FEA417C28BF0CC031
:1049300048BF40F8042BC90728BF20F8022B48BF06
:1049400000F8012B00BD7047704700000D0A09E216
:104950009594E29590E29590E29590E29590E2959B
:1049600090E29590E29590E29590E29590E2959094
:10497000E29590E29590E29590E29590E29590E232
:104980009590E29590E29590E29590E29590E2956F
:1049900090E29590E29590E29590E29590E2959064
:1049A000E29590E29590E29590E29590E29590E202
:1049B0009590E29590E29590E29590E29590E2953F
:1049C00090E29590E29590E295A6E29590E295901E
:1049D000E29590E29590E29590E29590E29590E2D2
:1049E0009590E29590E29590E29590E29590E2950F
:1049F00090E29590E29590E29590E2959700000004
:104A00000D0A09E295A0E29590E29590E29590E278
:104A10009590E29590E29590E29590E29590E295DE
:104A200090E29590E29590E29590E29590E29590D3
:104A3000E29590E29590E29590E29590E29590E271
:104A40009590E29590E29590E29590E29590E295AE
:104A500090E29590E29590E29590E29590E29590A3
:104A6000E29590E29590E29590E29590E29590E241
:104A70009590E29590E29590E29590E295ACE29562
:104A800090E29590E29590E29590E29590E2959073
:104A9000E29590E29590E29590E29590E29590E211
:104AA0009590E29590E29590E29590E29590E2954E
:104AB000A30000000D0A09E295A0E29590E295900E
:104AC000E29590E29590E29590E29590E29590E2E1
:104AD0009590E29590E29590E29590E29590E2951E
:104AE00090E29590E29590E29590E29590E2959013
:104AF000E29590E29590E29590E29590E29590E2B1
:104B00009590E29590E29590E29590E29590E295ED
:104B100090E29590E29590E29590E29590E29590E2
:104B2000E29590E29590E29590E29590E29590E280
:104B300095A9E29590E29590E29590E29590E295A4
:104B400090E29590E29590E29590E29590E29590B2
:104B5000E29590E29590E29590E29590E29590E250
:104B60009590E295A30000000D0A09E2959AE2955E
:104B700090E29590E29590E29590E29590E2959082
:104B8000E29590E29590E29590E29590E29590E220
:104B90009590E29590E29590E29590E29590E2955D
:104BA00090E29590E29590E29590E29590E2959052
:104BB000E29590E29590E29590E29590E29590E2F0
:104BC0009590E29590E29590E29590E29590E2952D
:104BD00090E29590E29590E29590E29590E2959022
:104BE000E29590E29590E29590E29590E29590E2C0
:104BF0009590E29590E29590E29590E29590E295FD
:104C000090E29590E29590E29590E29590E29590F1
:104C1000E29590E29590E2959D00000080B52021FC
:104C20002248FEF771FC4FF4967000F045F8F6E765
:104C300080B520211D48FEF767FC4FF4967000F008
:104C40003BF8F6E780B520211848FEF75DFC4FF4ED
:104C5000967000F031F8F6E780B520211348FEF792
:104C600053FC4FF4967000F027F8F6E780B520214A
:104C70000E48FEF749FC4FF4967000F01DF8F6E779
:104C800070477047704780B500F02AF801BD80B5C5
:104C90000748FFF7AFFD01BD80B50648FDF7F4F802
:104CA00001BD80B50248FEF72AFF01BD00000240A9
:104CB0008C0000204C00002070B50400FDF72AFE97
:104CC0000500260016F1010F02D0044800783618BE
:104CD000FDF720FE401BB042FAD370BD0800002053
:104CE00003480168034A127889180160704700BFC1
:104CF000C4000020080000200D0A090920E2959157
:104D0000E29594E29597E2959AE29597E29591E281
:104D10009594E29590E29590E2959DE29591E295C9
:104D200094E29590E2959D20202020E29591E295D5
:104D300091E29591E29591E2959AE29590E29597AC
:104D4000E29594E29590E2959DE29594E2959DE23C
:104D50009591E29591E29594E29597E29591E2958D
:104D600091E29594E29597E2959100000D0A090968
:104D700020E29594E29590E29590E2959720E29555
:104D800094E29590E29590E29590E29597E2959461
:104D9000E29590E29590E2959720202020E295946C
:104DA000E29597E29594E29597E29594E29590E2E8
:104DB0009590E29590E29590E2959720E29594E2A5
:104DC0009597E29594E29590E29590E29597E29519
:104DD00094E29590E29590E2959700000D0A0909FA
:104DE00020E29591E2959AE29590E2959DE2959167
:104DF000E29591E2959AE29590E29590E29597E29C
:104E00009591E2959AE29590E2959720202020E2F4
:104E1000959AE29597E29594E2959D2020E29591EE
:104E2000E29591202020E29591E29591E29591E220
:104E3000959AE2959DE29591E29591E2959AE29597
:104E40009DE29591000000000D0A090920E295916C
:104E5000E29591E2959AE29597E29591E29591E239
:104E6000959AE29590E29590E29597E29591E29578
:104E700091202020202020E29591E29591E29591C9
:104E8000E295912020E29591E295912020E2959A79
:104E9000E29597E29591E29591E29591E29591E202
:104EA0009591E29591E29591E29591E295910000BC
:104EB0000D0A090920E2959AE29590E29590E29513
:104EC00090E2959DE2959AE29590E29590E2959018
:104ED000E2959DE2959AE29590E29590E2959D206B
:104EE00020202020E2959AE2959D202020E2959AAC
:104EF000E2959D202020E2959AE2959DE2959AE226
:104F00009590E29590E2959DE2959AE29590E295D2
:104F100090E2959D000000000D0A09E2959120D0D5
:104F200094D0BBD18F20D0BFD0B5D180D0B5D185A2
:104F3000D0BED0B4D0B020D0BFD0BE20D0BFD1839F
:104F4000D0BDD0BAD182D0B0D0BC20D0BCD0B5D0EA
:104F5000BDD18E20D0B8D181D0BFD0BED0BBD18C36
:104F6000D0B7D183D0B9D182D0B520D0BAD0BBD000
:104F7000B0D0B2D0B8D188D0B8200920E295910045
:104F80000D0A090920E29591E2959120E29591E2BE
:104F90009591E29591E29594E29590E29590E29553
:104FA0009DE29591E29591202020202020E295918C
:104FB000E2959AE2959DE295912020E29591E29505
:104FC00091202020E29591E29591E29591E29591D0
:104FD000E29591E29591E29591E29591E29591E2C7
:104FE000959100000D0A09E29591091B5B313B3355
:104FF000336D2028632920323032312D30322D306C
:105000003920527573696B4F6B201B5B306D200923
:10501000E2959FE29480E29480E29480E29480E2C0
:105020009480E29480E29480E29480E29480E2941E
:1050300080E29480E29480E29480E29480E2948022
:10504000E29480E295A200000D0A09E2959120D138
:1050500083D0BFD180D0B0D0B2D0BBD0B5D0BDD07E
:10506000B8D18F20D0BAD183D180D181D0BED180A8
:10507000D0BED0BC20555020D0B820444F574E2E23
:105080002009090920E29591000000000D0A09E2BB
:105090009591205573652074686520555020616E88
:1050A0006420444F574E20637572736F72206B6596
:1050B000797320746F206E617669676174652074FE
:1050C00068726F756768200920E295910000000002
:1050D000F8B506000D0014000027002D01D10020B6
:1050E00015E0012E04D0022E02D05FF0FF300EE05A
:1050F000002C0BD02878FDF729FC6D1C002802D568
:105100005FF0FF3003E07F1C641EF1E73800F2BD62
:1051100030B450F8041B79B1026843680244083087
:10512000DC0744BFA9F10104E31852F8045B43F81B
:10513000045B091FF9D1ECE730BC70470D0A09E2A6
:1051400095910909204D454E55090909E29591208F
:10515000202020205354415445202020202020E2AC
:10516000959100000D0A09E2959109092053657493
:1051700020416C61726D2054696D65204F4E20098D
:10518000E29591090920E295910000000D0A09E2DB
:10519000959109092053657420416C61726D20540A
:1051A000696D65204F46462009E29591090920E284
:1051B0009591000010B5074979441831064C7C449C
:1051C000163404E00A68081D114488470146A142CC
:1051D000F8D110BD74000000940000000D0A09E22F
:1051E0009591090920506172736520737472696E1C
:1051F00067200909E29591090920E29591000000D4
:105200000D0A09E2959120746865206D656E752020
:105210006974656D732E20090909090920E29591C9
:10522000000000004EF68851CEF20001086840F4FC
:1052300070000860BFF34F8FBFF36F8F4FF00070A7
:10524000E1EE100A7047000077BDFFFFC4000000C8
:105250000C00002000000000B9FEFFFF0C00000061
:10526000D401000000000020000000000D0A09E247
:1052700095910909205365742044617465200909DA
:10528000E29591090920E295910000000D0A09E2DA
:1052900095910909205365742054696D65200909A9
:1052A000E29591090920E295910000000D0A09E2BA
:1052B00095910909205365742050574D200909E242
:1052C0009591090920E295910000000080B58DF8C4
:1052D0000000012269460120FFF7FAFE012802D1F1
:1052E0009DF8000002BD4FF0FF3002BD00F00DF848
:1052F000002801D0FFF75EFFAFF300800020AFF37E
:105300000080FDF7FEFB00F002F80120704700F07E
:1053100001B8000007463846FCF7C8FCFBE7000070
:105320000448016851F4700101605FF000600249B7
:105330000860704788ED00E008ED00E044617465A6
:105340003A203230253032753A253032753A2530E0
:105350003275000054696D653A2020202530327581
:105360003A253032753A253032750000616C617231
:105370006D212121212121212121212121212120D2
:105380000D0A00000D0A09E295910909090909E2CF
:105390009591090920E295910000000038B5044676
:1053A0000D462846FFF792FFA84218BF002420466A
:1053B00032BD00001BD1811B5B324A1B5B303B308E
:1053C000481B5B306D0000000D0A0D0A0D0A1B5BC7
:1053D000313B33326D00000000000000000000008F
:1053E00001020304060708090148804701480047F5
:1053F00021530008295400081B5B32303B353548E7
:10540000202575001B5B31343B353048000000001F
:105410001B5B31363B353048000000000D0A0D0A99
:105420001B5B306D00000000AFF30080FFF7FAFE59
:10543000FFF75CFF100000000024F40001000000F2
:105440001B007837000000001B00783800000000C7
:105450000000000000000000000000000102030442
:1054600000000000FFF7FEBFFFF7FEBFFFF7FEBF23
:10547000FFF7FEBFFFF7FEBFFFF7FEBFFFF7FEBF60
:10548000FFF7FEBFFFF7FEBFFFF7FEBFFFF7FEBF50
:10549000FFF7FEBFFFF7FEBFFFF7FEBFFFF7FEBF40
:1054A000FFF7FEBFFFF7FEBFFFF7FEBFFFF7FEBF30
:1054B000FFF7FEBFFFF7FEBFFFF7FEBFFFF7FEBF20
:1054C000FFF7FEBFFFF7FEBFFFF7FEBFFFF7FEBF10
:1054D000FFF7FEBFFFF7FEBFFFF7FEBFFFF7FEBF00
:1054E000FFF7FEBFFFF7FEBFFFF7FEBFFFF7FEBFF0
:1054F000FFF7FEBFFFF7FEBFFFF7FEBFFFF7FEBFE0
:10550000FFF7FEBFFFF7FEBFFFF7FEBFFFF7FEBFCF
:10551000FFF7FEBFFFF7FEBFFFF7FEBFFFF7FEBFBF
:10552000FFF7FEBFFFF7FEBFFFF7FEBFFFF7FEBFAF
:0C553000FFF7FEBFFFF7FEBFFFF7FEBF56
:040000050800542972
:00000001FF
