:020000040800F2
:10000000C85B002041A40008919C0008A19C000846
:10001000AD9C0008B99C0008C59C000800000000C9
:10002000000000000000000000000000497500080A
:10003000D19C000800000000F17400080D3C00088D
:10004000DDA40008E1A40008E5A40008E9A4000874
:10005000EDA40008F1A40008F5A40008F9A4000824
:10006000FDA4000801A5000805A5000809A50008D1
:100070000DA5000811A5000815A5000819A5000880
:100080001DA5000821A5000825A500080000000006
:1000900000000000000000000000000029A500088A
:1000A0002DA5000831A50008D39C000835A500083F
:1000B00039A500083DA5000841A5000845A5000890
:1000C00049A50008DD9C0008E79C00084DA5000834
:1000D00051A5000855A5000859A50008000000001A
:1000E0005DA5000861A5000865A5000800000000E6
:1000F000000000000000000000000000F19C00086B
:100100000000000069A500086DA5000871A50008A1
:1001100000000000000000000000000000000000DF
:1001200075A5000879A500087DA5000881A500082F
:1001300085A500080000000000000000000000008D
:1001400000000000000000000000000089A5000879
:100150008DA5000891A5000895A5000899A500089F
:100160009DA50008A1A500080000000000000000F7
:10017000000000000000000000000000000000007F
:1001800000000000A5A5000800000000000000001D
:10019000A9A50008ADA5000870B50400002C01D188
:1001A0000120E1E094F83D00002805D1002084F80A
:1001B0003C00200001F09EFD242084F83D002068D2
:1001C000006840084000216808602068006850F41A
:1001D0000040216808602068006830F40040216811
:1001E000086001F0D0FE0100DFF880016268824201
:1001F00008D2DFF87C21914201D2012200E00022E6
:10020000D2B207E0DFF86C21914201D2012200E076
:100210000022D2B2012A01D10120A5E0DFF8582145
:10022000B1FBF2F223685B689B099B0113432568CD
:100230006B6023681B6A6568854201D2551C08E023
:100240004FF4967505FB02F54FF47A76B5FBF6F59B
:100250006D1C9B099B012B4325682B622368DB697E
:100260006568854214D2481E65686D00B0FBF5F0E4
:10027000401C0005000D042801D204253EE0481E64
:1002800065686D00B0FBF5F56D1C2D052D0D35E095
:10029000A068002809D14D1E666803204643B5FBBF
:1002A000F6F0401C0005000D0AE04D1E666819209E
:1002B0004643B5FBF6F0401C0005000D50F48040AD
:1002C000000501D1012519E0A068002809D14D1EC3
:1002D000666803204643B5FBF6F56D1C2D052D0D14
:1002E0000AE04D1E666819204643B5FBF6F56D1C05
:1002F0002D052D0D55F4804555F40045DFF87C00A3
:1003000003402B432068C3612068036833F0C003B7
:10031000E0690343206A0343206803602068836820
:10032000DFF85C00034020690343E0680343206872
:1003300083602068C3681B0A1B02A56960690543C6
:100340002B432068C3602068006850F001002368D8
:10035000186000202064202084F83D0000202063E5
:10036000002084F83E00002070BD0000A18601003E
:1003700080841E0000093D0040420F000030FFFF56
:10038000007CFFFF2DE9FE4F05000E001700984688
:10039000DDF830900D9CDDF838A001F045FE834675
:1003A00095F83D00202840F0A180CDF800B0192339
:1003B0000122DFF85C13280001F02DFB002801D09A
:1003C000022094E095F83C00012801D102208EE043
:1003D000012085F83C0028680068C00705D428681B
:1003E000006850F00100296808602868006830F44F
:1003F000006029680860212085F83D00402085F8CC
:100400003E0000202864C5F824906C85688D2885FE
:10041000DFF8F802E862CDF804B0CDF800A043465A
:100420009BB23A0092B2310089B2280001F02EF955
:10043000002801D001205AE0288D002833D05A46E8
:100440005146280001F089FB00280AD0286C0428B6
:1004500005D12868006850F4007029680860012000
:1004600045E0686A007829680861686A401C68622B
:10047000288D401E2885688D401E68852868406943
:100480004007D9D5288D0028D6D0686A0078296819
:100490000861686A401C6862288D401E2885688D46
:1004A000401E6885C8E75A465146280001F081FB86
:1004B00000280AD0286C042805D12868006850F468
:1004C000007029680860012011E02868006850F475
:1004D000007029680860202085F83D00002085F81C
:1004E0003E00002085F83C00002000E00220BDE82E
:1004F000FE8F00002DE9FE4F05000E001700984604
:10050000DDF830900D9C0020029001F08DFD8246B8
:1005100095F83D00202840F0F380DFF8F8010068EE
:100520001921B0FBF1F04FF47A71B0FBF1F1192011
:10053000414302910298401E02900298002810D177
:1005400000202863202085F83D00002085F83E002B
:10055000286C50F020002864002085F83C00012021
:10056000CFE0286880698007E4D495F83C00012832
:1005700001D10220C5E0012085F83C002868006810
:10058000C00705D42868006850F001002968086099
:100590002868006830F4006029680860212085F828
:1005A0003D00402085F83E0000202864C5F82490D6
:1005B0006C85688D2885DFF85401E862300080B2D0
:1005C0006864380080B2A864404680B2E8640020C5
:1005D0002865288D002800F08480686B002820D0D2
:1005E000DFF83401696BC8634748696BC864002051
:1005F000696B08640020696B48640020696B88643B
:100600000020696B08652B8D286810F11002696A5B
:10061000686B01F080FD83465846C0B2002851D176
:100620000EE0202085F83D00002085F83E00286C73
:1006300050F080002864002085F83C00012060E034
:10064000CDF804A02320009043469BB23A0092B21A
:10065000310089B2280001F019F8002818D0686B21
:1006600001F09FFD010000206A6BD06328680068DC
:1006700030F480602A68106000202885002068859A
:1006800028680068400840002A681060012038E0AF
:1006900000200090286840690090286880690090D8
:1006A0000098002085F83C002868406850F480706D
:1006B000296848602868406850F4006029684860EC
:1006C00000201EE0202085F83D00002085F83E0037
:1006D000286C50F010002864002085F83C000120B0
:1006E0000FE0202085F83D00002085F83E00286CB2
:1006F00050F040002864002085F83C00012000E014
:100700000220BDE8FE8F0000CB1800080000FFFFAC
:100710000200100008000020791700082DE9F047BA
:100720000400002520684668E76A94F83E8094F843
:100730003D904046C0B2102803D04046C0B2402889
:1007400078D12068806905002068D0F814A05FEA9D
:10075000CA700CD4B7F52A0F02D0B7F12A4F01D1D5
:10076000012000E00020C0B2002840F0BA801AF05A
:100770000100C0B2002808D0B00506D5200001F065
:100780008BFA200000F061FBABE05FEA0A7005D550
:10079000B00503D5200000F0B1FBA2E05FEA8A704B
:1007A00005D5B00503D5200000F0C1FB99E068072E
:1007B00027D520684068000500F193805FEA0A6051
:1007C00008D5700506D55FEA4A7003D4200000F012
:1007D00000F986E05FEA4A7040F18380B00540F19D
:1007E00080804846C0B2212803D1200000F065F97E
:1007F00077E04046C0B2402873D1200000F0AFF946
:100800006FE02068406800056BD45FEA4A6008D555
:10081000700506D55FEA4A7003D4200000F008FA9C
:100820005FE05FEA4A705CD5B0055AD5200000F061
:1008300078FA56E0206C002803D02068D0F814A085
:1008400005E02068806905002068D0F814A05FEA00
:100850008A700CD5B0050AD5206C002802D020681B
:10086000806905002900200000F0EFFC39E05FEA14
:10087000CA6005D5B00503D5200000F019FD30E0B1
:100880004846C0B2212803D04846C0B2292814D116
:100890005FEA0A6008D5700506D55FEA4A7003D49E
:1008A000200000F068FC1CE05FEA4A7019D5B00532
:1008B00017D5200000F086FC13E05FEA4A6008D5F7
:1008C000700506D55FEA4A7003D4200000F088FC6A
:1008D00007E05FEA4A7004D5B00502D5200000F0B9
:1008E000A6FCBDE8F0872DE9F84F06003068D0F887
:1008F00014903068D0F804A0002596F83EB05FEA66
:10090000C95008D55FEACA5005D555F001057FF4F6
:100910008070316848615FEA895008D55FEACA5043
:1009200005D555F002057FF40070316848615FEA33
:10093000495038D55FEACA5035D58DF800B0708D72
:10094000040096F83D000700306B80469DF80000DB
:10095000202814D1002C12D13800C0B221280AD08E
:100960003800C0B2292806D03800C0B2282806D1E5
:10097000B8F1210F03D1300000F067FD13E07FF4E0
:1009800080603168486155F004055846C0B21028AF
:1009900003D05846C0B2402805D13068006850F4F2
:1009A0000070316808605FEA095008D55FEACA50F4
:1009B00005D555F008057FF4006031684861002DC9
:1009C00005D0306C28433064300000F090FDBDE865
:1009D000F18FF8B5040094F83D5094F83E60E76A52
:1009E000208D002840D12800C0B221283CD1082FFA
:1009F00017D0202F15D0DFF8900C874211D0206837
:100A0000406830F4E06021684860112020630020D5
:100A100084F83E00202084F83D00200001F062FDB3
:100A20004AE02068406830F4E0602168486020684F
:100A3000006850F4007021680860002020632020C6
:100A400084F83D0094F83E00402806D1002084F848
:100A50003E00200001F047FD2EE0002084F83E001B
:100A6000200001F03FFD27E02800C0B2212807D078
:100A70003000C0B240281FD12800C0B222281BD1AC
:100A8000608D002806D12068406830F480602168BD
:100A9000486011E094F83E00402803D1200000F0A7
:100AA0005EF809E0606A007821680861606A401CAD
:100AB0006062608D401E6085F1BD38B50400E56A56
:100AC00094F83D00212849D1608D00280AD0606A41
:100AD000007821680861606A401C6062608D401E79
:100AE00060853BE0082D17D0202D15D0DFF8980B3E
:100AF000854211D02068406830F4E0602168486089
:100B000011202063002084F83E00202084F83D005E
:100B1000200001F0E7FC21E02068406830F4E0604C
:100B2000216848602068006850F4007021680860FF
:100B300000202063202084F83D0094F83E004028E7
:100B400006D1002084F83E00200001F0CCFC05E036
:100B5000002084F83E00200001F0C4FC31BD38B50F
:100B6000040094F83D50206D002814D1E06C012859
:100B700007D1A06CC0B221680861206D801C20657F
:100B800055E0A06C80B2000AC0B221680861206DF7
:100B9000401C20654BE0206D012807D1A06CC0B23D
:100BA00021680861206D401C206540E0206D02280E
:100BB0003DD12800C0B2222809D12068006850F435
:100BC000807021680860206D401C20652FE0608DDA
:100BD00000280ED02800C0B221280AD1606A00780F
:100BE00021680861606A401C6062608D401E6085FB
:100BF0001DE0608D00281AD12800C0B2212816D12E
:100C00002068406830F4E06021684860206800682F
:100C100050F400702168086000202063202084F8D0
:100C20003D00002084F83E00200001F05CFC31BD56
:100C300038B5050095F83D00222871D16C8D042C43
:100C400013D328680069696A0870686A401C686282
:100C5000688D401E6885688D032861D128684068CA
:100C600030F48060296848605AE0E86A022851D070
:100C7000012C01D0002C4DD1280000F0C6FF002827
:100C80002ED12868006830F48060296808602868E0
:100C9000406830F4E0602968486028680069696A43
:100CA0000870686A401C6862688D401E6885202054
:100CB00085F83D0095F83E00402808D1002085F8D1
:100CC0003E0000202863280001F00EFC28E00020F0
:100CD00085F83E0012202863280001F006FC1FE082
:100CE0002868406830F4E060296848602868006936
:100CF000696A0870686A401C6862688D401E688571
:100D0000202085F83D00002085F83E00280001F0F5
:100D1000EDFB05E02868406830F480602968486091
:100D200031BD38B50400E56A608D042810D1206813
:100D3000406830F480602168486020680069616A1A
:100D40000870606A401C6062608D401E60857BE0B8
:100D5000608D03281AD12068406830F480602168D3
:100D60004860042D07D0022D05D02068006830F4BB
:100D700080602168086020680069616A0870606AA4
:100D8000401C6062608D401E60855DE0608D0228C1
:100D900050D1012D01D0102D06D12068006830F40B
:100DA00080602168086012E0042D01D0022D06D178
:100DB0002068006850F480602168086007E0102D0A
:100DC00005D02068006850F4007021680860206831
:100DD0000069616A0870606A401C6062608D401E34
:100DE000608520680069616A0870606A401C606202
:100DF000608D401E60852068406830F44070216836
:100E00004860202084F83D0094F83E00402808D136
:100E1000002084F83E0000202063200001F064FBE5
:100E200012E0002084F83E0012202063200001F030
:100E30005CFB09E020680069616A0870606A401C18
:100E40006062608D401E608531BD90F83E10402983
:100E50000FD1016D002905D1416C11F0FE0102682E
:100E600011614AE0416C51F00101C9B2026811619F
:100E700043E00169B1F5804F24D190F83D1021295C
:100E800005D1416C11F0FE010268116105E0416C71
:100E900051F00101C9B202681161416B002903D010
:100EA000416BC96B002906D1816B002925D0816B6C
:100EB000C96B002921D00168496851F400610268BA
:100EC00051601AE0016D00290AD1416C11F44071A2
:100ED00089B2C90951F0F001C9B2026811610CE090
:100EE000016D012909D1416C11F4407189B2C90920
:100EF00051F0F101C9B2026811617047416CC9B289
:100F000002681161416B002903D0416BC96B002954
:100F100006D1816B002909D0816BC96B002905D0EE
:100F20000168496851F4006102685160704738B443
:100F300090F83E20C36A046B90F83D10222940F0DF
:100F40000E81016D00290DD11100C9B2402909D1CE
:100F50000021009101684969009101688969009147
:100F6000009905E1016D002916D10169B1F5404FE5
:100F700012D10021009101684969009101688969D5
:100F8000009100990168096851F480710568296031
:100F9000016D491C0165EBE0418D00290FD1002155
:100FA000009101684969009101688969009100997F
:100FB0000168096851F4007105682960CCE0418D31
:100FC000012968D1DFF8C0168B4229D10168096870
:100FD00031F48061056829600168496809050FD509
:100FE0000168096831F48061056829600021009179
:100FF0000168496900910168896900910099ABE035
:101000000021009101684969009101688969009196
:1010100000990168096851F40071056829609BE036
:10102000082B22D0202B20D0122C01D1012B1CD137
:10103000042B0AD0022B08D0102B06D001680968B7
:1010400031F480610568296005E00168096851F4A0
:10105000806105682960002100910168496900915B
:10106000016889690091009976E00168096831F4A6
:10107000806105682960002100910168496900913B
:1010800001688969009100990168096851F400714B
:101090000568296060E0418D022938D1042B10D009
:1010A000022B0ED0102B0CD00168096831F480613E
:1010B000056829600168096851F4006105682960C4
:1010C00005E00168096851F48061056829600168DC
:1010D0004968090511D5DFF8B0158B4207D0012BFF
:1010E00005D0082B03D0102B01D0202B05D101688F
:1010F000496851F4805105686960002100910168D8
:1011000049690091016889690091009924E00168AA
:10111000096851F48061056829600168496809051A
:1011200011D5DFF864158B4207D0012B05D0082BB1
:1011300003D0102B01D0202B05D10168496851F450
:10114000805105686960002100910168496900913A
:1011500001688969009100990021016508E000217A
:1011600000910168496900910168896900910099BD
:1011700031BC7047000038B5040094F83D50608DD4
:1011800000281ED0606A007821680861606A401CEF
:101190006062608D401E6085608D002811D128003E
:1011A000C0B229280DD12068406830F480602168E1
:1011B000486021202063282084F83D00200001F0B1
:1011C00096F931BD418D002909D0416A097802683C
:1011D0001161416A491C4162418D491E4185704738
:1011E00038B5040094F83D50608D00281ED020686A
:1011F0000069616A0870606A401C6062608D401E10
:101200006085608D002811D12800C0B22A280DD138
:101210002068406830F480602168486022202063A4
:10122000282084F83D00200001F062F931BD418D95
:10123000002909D001680969426A1170416A491C94
:101240004162418D491E41857047F8B505000E0089
:10125000002795F83D0010F0280028281BD12868A9
:10126000406830F4806029684860700701D401202C
:101270000700300602D4E868040001E0A869040011
:10128000002085F83C00220092B23900C9B2280043
:1012900001F02FF90BE000200090286840690090D1
:1012A0002868806900900098002085F83C00F1BD16
:1012B00038B5040094F83D502068406830F4E06090
:1012C00021684860002000902068406900902068F4
:1012D000006850F0010021680860009820680068EC
:1012E00030F48060216808602068406800054ED5B1
:1012F0002800C0B2222803D02800C0B22A2823D157
:10130000A06B006840686085608D002803D0206C69
:1013100050F0040020642068406830F400602168C8
:101320004860A06B01F055F8012830D00FF2F15061
:10133000A16B0865A06B00F034FF002827D0A06BDC
:10134000A16B096D884722E0606B0068406860858A
:10135000608D002803D0206C50F0040020642068C9
:10136000406830F4006021684860606B01F031F83B
:1013700001280CD00FF2A950616B0865606B00F07A
:1013800010FF002803D0606B616B096D8847608D8A
:10139000002822D020684069400709D520680069EC
:1013A000616A0870606A401C6062608D401E6085E2
:1013B00020684069400609D520680069616A0870A4
:1013C000606A401C6062608D401E6085608D0028F0
:1013D00003D0206C50F004002064206C002803D05F
:1013E000200000F084F82FE02800C0B22A2807D19E
:1013F00000202063282084F83D00200001F078F8C8
:1014000094F83D0028280DD19F48E0620020206319
:10141000202084F83D00002084F83E00200001F0E8
:1014200069F811E0206B222803D02800C0B22228DE
:101430000AD100202063202084F83D00002084F899
:101440003E00200001F054F831BD70B5040094F85E
:101450003D50E66A082E01D0202E21D12800C0B2CE
:1014600028281DD18848E0622068406830F4E06098
:10147000216848607FF480602168486120680068C6
:1014800030F480602168086000202063202084F808
:101490003D00002084F83E00200001F02BF825E0FC
:1014A0002800C0B221281DD17748E06221202063A6
:1014B000202084F83D00002084F83E002068406829
:1014C00030F4E060216848607FF480602168486102
:1014D0002068006830F4806021680860200001F016
:1014E00006F803E07FF480602168486170BD2DE953
:1014F000F041040094F83D5094F83E603000C0B2D2
:10150000102803D03000C0B2402809D12800C0B252
:10151000222805D12068006830F400602168086046
:101520002800C0B210F02800282805D10020206330
:10153000282084F83D000FE020684068000509D4A9
:101540002800C0B2602805D0202084F83D0000208B
:1015500084F83E000020206320684068000543D5E1
:101560002068406830F4006021684860606B90F843
:101570003500012816D00FF2A930616B0865606B49
:1015800000F00FFE00285BD0206800684008400093
:1015900021680860202084F83D00606B616B096D54
:1015A00088474DE00FF27930A16B0865A06B00F021
:1015B000F8FD002844D020684069400606D5206820
:1015C0000069616A0870606A401C60622068006897
:1015D0004008400021680860202084F83D00A06B8E
:1015E000A16B096D88472BE094F83D00602819D164
:1015F000202084F83D0000202064206840694006D7
:1016000006D520680069616A0870606A401C6062E3
:10161000206800684008400021680860200000F051
:101620006AFF0DE020684069400606D52068006921
:10163000616A0870606A401C6062200000F056FF1A
:10164000276C17F00F0F05D02068406830F4E06079
:101650002168486094F83D80206C400710D54046D2
:10166000C0B228280CD10848E06200202063202066
:1016700084F83D00002084F83E00200000F03AFF8E
:10168000BDE8F081000000000000FFFF2DE9F843F5
:1016900004000D0016001F00DDF82080DDF8249006
:1016A0002068006850F4807021680860CDF80090D0
:1016B000434600225FF00111200000F0ACF9002841
:1016C00008D020680068C00502D54FF4007020647F
:1016D00003204FE015F0FE00216808614B464246AA
:1016E000DFF87415200000F0DBF9002801D001209C
:1016F00040E00020009020684069009020688069E8
:10170000009000984A464146200000F026FA002842
:101710000AD0206C042805D12068006850F40070BD
:1017200021680860012025E0380080B2012804D13A
:101730003000C0B2216808611BE0300080B2000AAE
:10174000C0B2216808614A464146200000F005FA0F
:1017500000280AD0206C042805D12068006850F4C5
:10176000007021680860012004E03000C0B22168E8
:1017700008610020BDE8F2832DE9F0410400A56B6B
:1017800095F83D6095F83E70D5F82C802868406843
:1017900030F4407029684860686B002802D000204F
:1017A000696BC863A86B002802D00020A96BC863CE
:1017B0003000C0B210F02100212809D03000C0B2A2
:1017C00010F0220022282BD13800C0B2202827D1C7
:1017D0002868406830F40060296848600020688507
:1017E0003000C0B2292808D121202863282085F89C
:1017F0003D00280000F07BFE0BE03000C0B22A283C
:1018000007D122202863282085F83D00280000F019
:101810006FFE2868406850F440702968486052E0C4
:1018200095F83E0000284ED0688D012805D1286823
:10183000006830F48060296808602868406830F4E7
:10184000407029684860DFF80C04804508D0B8F182
:10185000080F05D0B8F12A4F02D0B8F1200F05D1FA
:101860002868006850F4007029680860286840689B
:1018700030F48050296848602868406830F400607F
:101880002968486000206885286C002803D028005B
:1018900000F02CFE17E0202085F83D0095F83E0072
:1018A000402808D1002085F83E0000202863280049
:1018B00000F01AFE07E0002085F83E0012202863A1
:1018C000280000F012FEBDE8F08138B50400A56BD9
:1018D000686B002802D00020696BC863A86B0028E1
:1018E00002D00020A96BC863200000F075FD02281B
:1018F00014D02868006830F48060296808600020EF
:101900006885202085F83D00002085F83E00286C81
:1019100050F010002864280000F0E8FD31BD000000
:101920007CB5040000200090A56B95F83D60DFF8C1
:101930002C0300681921B0FBF1F04FF47A71B0FB71
:10194000F1F12320414300910098002804D1286C34
:1019500050F02000286406E00098401E009028689F
:1019600000688005F0D4686B002802D00020696B05
:10197000C863A86B002802D00020A96BC863286840
:10198000006830F480602968086000206885686B12
:10199000002802D00020696B0865A86B002802D0DF
:1019A0000020A96B08652868006840084000296885
:1019B000086095F83D0060280BD1202085F83D0097
:1019C000002085F83E0000202864280000F093FDE8
:1019D00020E03000C0B210F02800282811D128687B
:1019E000006850F00100296808602868006850F419
:1019F00080602968086000202863282085F83D0061
:101A000005E0202085F83D00002085F83E002800F4
:101A100000F06CFD73BD2DE9F04105000E001700CC
:101A20001C00DDF818803000000CC0B201280AD17B
:101A300028684069304080B2B1B2884201D10120AB
:101A40000BE0002009E028688069304080B2B1B224
:101A5000884201D1012000E000203900C9B288424B
:101A60001BD114F1010FDED000F0DEFAB0EB08005C
:101A7000844201D3002CD6D100202863202085F891
:101A80003D00002085F83E00286C50F020002864BE
:101A9000002085F83C00012000E00020BDE8F08136
:101AA000F8B505000E0014001F003000000CC0B295
:101AB00001280AD128684069304080B2B1B288421A
:101AC00001D101200BE0002009E028688069304046
:101AD00080B2B1B2884201D1012000E0002000288C
:101AE00039D12868406940051AD52868006850F443
:101AF0000070296808607FF48060296848610020D0
:101B00002863202085F83D00002085F83E00286CE1
:101B100050F004002864002085F83C0001201BE000
:101B200014F1010FC1D000F07FFAC01B844201D331
:101B3000002CBAD100202863202085F83D00002029
:101B400085F83E00286C50F020002864002085F8BD
:101B50003C00012000E00020F2BD70B505000C0043
:101B6000160028684069000621D4280000F078F8A3
:101B7000002801D001201BE014F1010FF1D000F08A
:101B800053FA801B844201D3002CEAD10020286341
:101B9000202085F83D00002085F83E00286C50F09C
:101BA00020002864002085F83C00012000E000208F
:101BB00070BD70B505000C0016002868406940072C
:101BC00021D4280000F04CF8002801D001201BE0AF
:101BD00014F1010FF1D000F027FA801B844201D3E9
:101BE000002CEAD100202863202085F83D00002049
:101BF00085F83E00286C50F020002864002085F80D
:101C00003C00012000E0002070BD81B001000020F8
:101C10000090124800681922B0FBF2F04FF47A727B
:101C2000B0FBF2F20520424300920098401E009063
:101C30000098002805D1086C50F0200008640120AD
:101C400004E0086800688005EFD4002001B0704708
:101C5000000000000000FFFF02000100080000205B
:101C6000010008684069400514D57FF480600A6867
:101C7000506100200863202081F83D00002081F899
:101C80003E00086C50F004000864002081F83C001D
:101C9000012000E000207047C16AB1F52A0F02D18F
:101CA0000121C16205E0C16AB1F12A4F01D10821C9
:101CB000C162704780B5002000905648016851F419
:101CC00080410160006810F480400090009800207E
:101CD00000905148016851F080510160006810F097
:101CE00080500090009800220F217FF0010000F04A
:101CF00065FC01BD70B586B004001422002101A866
:101D000000F082FC20684549884263D100200090A1
:101D10004348016851F002010160006810F00200C0
:101D2000009000984FF480650195122002900020E9
:101D3000039003200490042005903A4E01A930003E
:101D400000F06CFC0820019012200290002003900B
:101D5000032004900920059001A9300000F05EFCEA
:101D6000002000902C48016851F480010160006857
:101D700010F48000009000982B4E2C4830605FF0EB
:101D8000606070604020B0600020F060356100202D
:101D900070610020B0610020F061002030620020FE
:101DA0007062300000F046F9002801D001F0A5F87B
:101DB0006663B46300220521212000F0FFFB21208F
:101DC00000F011FC00220521222000F0F7FB222068
:101DD00000F009FC06B070BD10B586B004001822F2
:101DE0000021684600F010FC2068114988420ED19D
:101DF000022000904FF480700490684601F0F4F8DF
:101E0000002801D001F079F801200A49086006B0E5
:101E100010BD0000443802404038024000580040E5
:101E20003038024000040240B0540020B860024044
:101E3000002800403C0E47422DE9F04104000D000F
:101E4000002C01D1012095E06D4F386810F007009B
:101E5000A84207D23D70386810F00700A84201D0B0
:101E6000012087E02078800716D52078400704D528
:101E70006448016851F4E05101602078000704D5FE
:101E80006048016851F4604101605E490A6832F0BF
:101E9000F002A06802430A602078C00738D5606865
:101EA000012805D158480068800313D4012061E05F
:101EB0006068022802D06068032805D15248006893
:101EC000800107D4012055E04F480068800701D405
:101ED00001204FE0DFF82C81D8F800108908890034
:101EE00060680143C8F8001000F09EF80600D8F8BA
:101EF000000010F00C006168B0EB810F08D000F01A
:101F000093F8801B41F289318842F0D3032031E0FD
:101F1000386810F00700854207D23D70386810F02D
:101F20000700A84201D0012024E02078400706D510
:101F300034490A6832F4E052E06802430A602078CB
:101F4000000707D52F48016831F46041226951EA42
:101F5000C201016001F004F92C492A4A1268C2F357
:101F60000312895CC8402A4908602A48006801F0C9
:101F700045F90020BDE8F08101202749086070473D
:101F800023480068704780B5FFF7FAFF23491D4AD0
:101F90001268C2F38222895CC84002BD80B5FFF797
:101FA000EFFF1E49174A1268C2F34232895CC840EB
:101FB00002BD0F220260134A136813F0030343604B
:101FC000136813F0F0038360136813F4E053C360E5
:101FD0001268D20812F4E0520261094A126812F043
:101FE00007020A60704780B50D480068000604D5F6
:101FF00001F064F980200B49087001BD0000000069
:10200000003C0240083802400038024020A400088A
:1020100008000020040000204C004742B4A400083F
:102020000C3802400E38024001480068704700BF7B
:102030006457002070B504000026FFF7F5FF050087
:10204000002C01D1012065E0606A0028022084F89C
:102050003500002084F83400206800684008400003
:102060002168086020680068C0070BD5FFF7DCFF17
:10207000401B0628F6D320206065032084F8350035
:10208000032047E020680168DFF8B0030140606882
:102090000143A0680143E06801432069014360698E
:1020A0000143A0690143E0690143206A0143606A7A
:1020B000042803D1E06A0143206B014320680160DA
:1020C00020684669F608F600606A0643606A0428DC
:1020D00010D1A06A0643E06A00280BD0200000F06F
:1020E000B3F9002806D040206065012084F835004F
:1020F00001200FE020684661200000F086F9010011
:102100003F22E06D82408A6000206065012084F8F3
:102110003500002070BD2DE9F84304000D001600C5
:102120001F005FF00008D4F8589094F8340001289C
:1021300001D1022033E0012084F8340094F8350006
:10214000012825D1022084F83500002060653B007D
:1021500032002900200000F041F93F21E06D81406C
:10216000C9F808102068006850F01600216808605F
:10217000206C002805D02068006850F00800216815
:1021800008602068006850F001002168086004E0E1
:10219000002084F83400022080464046C0B2BDE8EA
:1021A000F283010091F83500022803D080204865B1
:1021B000012009E0052081F8350008680068400822
:1021C00040000A68106000207047F8B50400002045
:1021D0000090DFF86C0200684FF41651B0FBF1F587
:1021E000A66D37680821E06D11FA00F0074210D0A3
:1021F0002068006840070CD52068006830F00400B3
:1022000022681060E06D8140B160606D50F00100A7
:102210006065E06D3900C140C8070BD52068406992
:10222000000607D50121E06D8140B160606D50F07E
:10223000020060650421E06D11FA00F007420AD047
:1022400020680068800706D5E06D8140B160606D50
:1022500050F0040060651021E06D11FA00F00742B3
:102260002CD020680068000728D5E06D8140B1605F
:1022700020680068400311D520680068000306D478
:10228000206C00281AD02000216C884716E0A06C32
:10229000002813D02000A16C88470FE02068006858
:1022A000C00505D42068006830F008002168086087
:1022B000206C002802D02000216C88472021E06D8E
:1022C00011FA00F007425FD020680068C0065BD5B5
:1022D000E06D8140B16094F83500052828D1206870
:1022E000006830F01600216808602068406930F00E
:1022F000800021684861206C002802D1A06C002871
:1023000005D02068006830F00800216808603F218F
:10231000E06D8140B160012084F83500002084F830
:102320003400206D002802D02000216D88474FE046
:1023300020680068400311D520680068000306D4B7
:10234000606C002820D02000616C88471CE0E06BA6
:10235000002819D02000E16B884715E0206800684C
:10236000C0050BD42068006830F0100021680860B8
:10237000012084F83500002084F83400E06B002848
:1023800002D02000E16B8847606D002820D0606D8E
:10239000C00717D5052084F835002068006840087C
:1023A0004000216808600098401C0090854203D3DB
:1023B00020680068C007F6D4012084F835000020AA
:1023C00084F83400E06C002802D02000E16C8847DB
:1023D000F1BD90F835007047406D704730B4046827
:1023E000246834F4802405682C6004686360846881
:1023F000402C04D10468A2600468E16003E0046832
:10240000A1600468E26030BC7047017801F0FF0110
:1024100010391822B1FBF2F10A4A525CC265042954
:1024200005D30268920A9202121D826503E00268D7
:10243000920A92028265806D704700003F8010F022
:1024400008000020ACA4000810B402000020936A29
:102450009169002916D1002B05D0022B03D008D397
:10246000032B0DD00DE0D16AC90101D5012108006F
:1024700035E0D16AB1F1C07F01D1012108002EE021
:102480002DE02CE09169B1F5005F18D1002B05D04B
:10249000022B03D005D3032B09D00FE00121080044
:1024A0001DE0D16AC90101D50121080017E0D16AF8
:1024B000B1F1C07F01D10121080010E00FE0190047
:1024C0000029022902D9C91E03D008E00121080011
:1024D00005E0D16AC90101D501210800FFE7C0B2BA
:1024E00010BC70477047704770477047704770471F
:1024F000704770477047704710B410F00703DFF85B
:10250000F44022684FF6FF010A4052EA0322DFF846
:10251000E8100A43226010BC7047DFF8D80000685A
:10252000C0F302207047010049B2002909D40122FA
:1025300010F01F018A40314903005BB25B0941F88A
:102540002320704710B4020052B2002A05D40A01B9
:102550002B4B040064B21A5508E00A01294B040011
:1025600064B214F00F04234403F8042C10BC704729
:1025700070B4030013F00704D4F10700052801D359
:10258000042001E0D4F10700251D072D01D200250C
:1025900000E0E51E012616FA00F0401E0140A940A9
:1025A00016FA05F56D1E2A401143080070BC7047ED
:1025B00010B504002000FFF79FFF10BD2DE9F0418A
:1025C00004000D0016000027FFF7A7FF8046320029
:1025D00029004046FFF7CCFF0100200040B2FFF782
:1025E000B1FFBDE8F08110B50400200040B2FFF754
:1025F0009AFF10BD0CED00E00000FA0500E100E0DC
:1026000000E400E018ED00E010B5044610460A466C
:102610000146204600F068FE204610BDF8B50023B4
:10262000002400250026102E80F0F880012717FADC
:1026300006F213000A681A4014009C4240F0EC8035
:102640000A7912F00302012A04D00A7912F0030277
:10265000022A1FD1D0F808C05FF0030E3200D2B2B8
:1026600052001EFA02FE3CEA0E0CD1F80CE03200D9
:10267000D2B252001EFA02FE5EEA0C0CC0F808C08C
:102680004268B740BA434F68C7F30017B7403A43B0
:10269000150045600A7912F00302032A14D0C768B6
:1026A0005FF0030C3200D2B252001CFA02FC37EA8F
:1026B0000C07D1F808C03200D2B252001CFA02FC5A
:1026C0005CEA07073D00C5600A7912F00302022A9E
:1026D0001ED13200D20800EB8202176A5FF00F0CA5
:1026E00016F00702D2B292001CFA02FC37EA0C077D
:1026F000D1F810C016F00702D2B292001CFA02FC08
:102700005CEA07073D003200D20800EB8202156246
:1027100007685FF0030C3200D2B252001CFA02FCD0
:1027200037EA0C0791F804C01CF0030C3200D2B257
:1027300052001CFA02FC5CEA07073D0005604A688B
:1027400012F4403F68D000220092474A176857F4BD
:1027500080471760126812F480420092009ADFF8F6
:102760000CC1320092085CF822705FF00F0E16F078
:102770000302D2B292001EFA02FE37EA0E073C4A6A
:10278000904201D1002514E03A4A904201D101253E
:102790000FE0394A904201D102250AE0374A9042BF
:1027A00001D1032505E0364A904201D1042500E01D
:1027B0000725EDB216F00302D2B2920095402F43E6
:1027C000320092084CF822702E4D2A68A243D1F8AC
:1027D00004C05FEACC2C00D522432A602A4F3D6812
:1027E000A543D1F804C05FEA8C2C00D525433D6099
:1027F000264F3A68A243D1F804C05FEA8C3C00D56A
:1028000022433A60224F3D68A543D1F804C05FEAF5
:10281000CC3C00D525433D60761C04E7F1BD0200A9
:1028200010690B009BB2184201D0012000E000208B
:10283000C0B270471300DBB2002B03D00B009BB279
:10284000836103E00B009BB21B048361704710B4EB
:1028500042690B009BB213400C00A4B2944354EAAB
:102860000344846110BC704744380240083801407A
:10287000000002400004024000080240000C024038
:1028800000100240083C01400C3C0140043C014067
:10289000003C014080B5DFF8700600F0FCFDDFF879
:1028A0006C0600F0C5FE012000F0C5FE002000F01F
:1028B00064FEDFF85C0600F099FE01BD70B501F022
:1028C00031F800F0B0F800F091F900F078F900F07C
:1028D00023F900F002F9DFF83C16002001F066F958
:1028E000DFF83416002001F061F9DFF8301600201F
:1028F00001F05CF9DFF82816002001F057F9DFF845
:102900002416002001F052F9DFF81C16002001F017
:102910004DF9DFF81816002001F048F9DFF810161D
:10292000002001F043F9DFF80C16002001F03EF919
:10293000DFF80416002001F039F9DFF80016002056
:1029400001F034F9FFF7A6FF01F072F9DFF8F04566
:10295000DFF8F035002201210FF2E54001F022FA04
:102960002060DFF8E455DFF8E435002201210FF2A2
:10297000FD4001F017FA2860DFF8D465DFF8D435A0
:10298000002201210FF2215001F00CFA30604EF6C6
:102990006021206801F06CFADFF8BC15286801F0AE
:1029A00067FA0A21306801F063FADFF8B0250121E7
:1029B000082001F085FADFF8A8150860DFF8A425E3
:1029C00000210FF2F52001F05EF9DFF89C15086098
:1029D000DFF8982500210FF2ED2001F054F9DFF81F
:1029E00090150860DFF88C2500210FF2F12001F02E
:1029F0004AF9DFF884150860DFF8802500210FF21E
:102A0000F12001F040F9DFF878150860DFF874254F
:102A100000210FF2F12001F036F9DFF86C150860A3
:102A200001F019F9FEE710B592B03021002206AC92
:102A3000200000F059FC1421002201AC200000F01D
:102A400053FC00200090DFF84405016851F08051EC
:102A50000160006810F08050009000980020009005
:102A6000DFF82C05016851F440410160006810F462
:102A7000404000900098052006905FF48030079059
:102A80000120089002200C905FF480000D9004203B
:102A90000E9064200F90022010900420119006A840
:102AA00001F0BCFA002801D000F027FA0F200190B5
:102AB00002200290002003904FF4805004900020E8
:102AC0000590032101A8FFF7B7F9002801D000F015
:102AD00014FAFFF751FA12B010BD80B5DFF82804E0
:102AE000DFF8B0140160DFF8B014416000218160AC
:102AF0000021C1604FF4804101610021416100214A
:102B000081610021C16100210162FDF745FB0028C0
:102B100001D000F0F2F901BD10B586B014210022F9
:102B200001AC200000F0E0FB042100226C462000F4
:102B300000F0DAFBDFF86444DFF864042060002072
:102B400060607F20A060FF20E06000202061002006
:102B500060610020A061200001F056FC002801D037
:102B600000F0CBF900208DF8040000208DF805005E
:102B700000208DF80600002004900020059000221F
:102B800001A9200001F096FC002801D000F0B5F961
:102B900001208DF8000001208DF8010001208DF842
:102BA000020000208DF8030000226946200001F099
:102BB00028FD002801D000F0A0F906B010BD80B5B6
:102BC00000200090DFF8DC03016851F4001101607F
:102BD000006810F4001000900098002205212F20BA
:102BE000FFF7ECFC2F20FFF7FEFC01BD38B586B0E7
:102BF0001421002201AC200000F076FB00200090A0
:102C0000DFF8A003016851F004010160016811F0D0
:102C100004010091009900210091016851F08001A8
:102C20000160016811F0800100910099002100917C
:102C3000016851F001010160016811F0010100918A
:102C4000009900210091016851F0020101600068C3
:102C500010F0020000900098D34D0022702128004F
:102C6000FFF7E8FDD14C002201212000FFF7E2FD33
:102C70007020019001200290002003900020049019
:102C800001A92800FFF7CAFC012001900120029051
:102C9000002003900020049001A92000FFF7BEFC53
:102CA000C0200190002002900020039001A9200084
:102CB000FFF7B4FC07B030BD10B50400012001F0EF
:102CC00054F8FBE710B504004FF4FA7001F04DF82A
:102CD0001021B548FFF7BBFDF6E7000010B5040072
:102CE000FA2001F042F82021AF48FFF7B0FDF7E7E6
:102CF00010B50400642001F038F84021AA48FFF71D
:102D0000A6FDF7E77CB5040000255FF0FF3201A9BE
:102D10009348006801F0B0FF9DF80400642800DAD1
:102D20006D1C9DF80400652800DB6D1C2800C0B2F6
:102D300000280BD002280DD008D3042812D00DD3C0
:102D4000062821D012D307286AD0DEE7984800F081
:102D50004DFCDAE7974800F049FCD6E7964800F0CA
:102D600045FCD2E7954800F041FCCEE7002000F09A
:102D700004FC002000900123914A0021002000F073
:102D8000F2FC00F016FCC0E78E4E330040F27322D6
:102D90008D49002002F059FB002000F0EEFB0020DE
:102DA0000090012332000021002000F0DCFC002014
:102DB0000090012316F11A020821002000F0D3FC34
:102DC00000200090012316F135021021002000F0B0
:102DD000CAFC00200090012316F1500218210020A7
:102DE00000F0C1FC00200090012316F16A022021AE
:102DF000002000F0B8FC00200090012316F18502AD
:102E00002821002000F0AFFC00200090012316F1E3
:102E1000A0023021002000F0A6FC00F0CAFB74E7FD
:102E2000002000F0AAFB002000900123674A08213F
:102E3000002000F098FC00F0BCFB0020050064E7D7
:102E400038B50400554D00226149280001F0A5FB6A
:102E5000002801D000F051F800225E49280001F05E
:102E600033FC002801D000F048F831BD38B504002B
:102E70004FF47A713448006800F0FAFF002000F047
:102E80007CFB554D2878411C29700122C0B20100FD
:102E900009B27F2000F006FB00F08BFB28783F286A
:102EA00001DB0020287031BD38B5040040213F48C7
:102EB000FFF7B5FC002804D148480178491C01708F
:102EC00011E0464D287800280DD023491E4800689F
:102ED00000F0CEFF0023002229002148006801F005
:102EE0004AF80020287031BD10B5040020683C4924
:102EF000884201D102F0B8FA10BD80B539490020EE
:102F000000F054FE72B6FEE710550020B09A00089B
:102F1000B08E0008D0A300089CA40008C89F000839
:102F200000A0000838A0000870A00008A8A00008B1
:102F3000E0A0000818A100088C9F000888A10008E4
:102F40004C570020E0A3000850570020F0A30008D1
:102F50005457002000A40008C027090030A300082F
:102F600048570020E4A100083457002008A20008B8
:102F7000385700202CA200083C57002050A200081F
:102F80004057002074A200084457002040380240F7
:102F90000070004000580040A08601003C56002010
:102FA0000028004030380240000002400004024087
:102FB000B0920008B0940008B0960008B0980008DD
:102FC00078A40008A8440020A4A4000884A4000851
:102FD0005C56002058570020C4570020C5570020D9
:102FE000004801401C9D00082DE9F843050000261B
:102FF0000024287810F0050F2ED0DFF83C71002057
:103000003860FFF711F88046DFF83091D9F80000FA
:10301000000107D5FFF708F8B0EB08000328F3D349
:10302000032087E06868A96850EA8110E96850EADF
:103030000170DFF80C11086001203860FEF7F4FF22
:103040000600D9F80000000106D4FEF7EDFF801B52
:103050000328F6D303206DE02878800763D500208D
:103060000090DFF8E000016851F0805101600068D5
:1030700010F0805000900098DFF8CC70386850F461
:1030800080703860FEF7D0FF06003868C00506D4AF
:10309000FEF7CAFF801B0328F7D303204AE0DFF8BE
:1030A000AC70386810F440700400002C20D02869FF
:1030B00010F4407084421BD0386830F44070040033
:1030C000234801210160002101603C603868C0078D
:1030D0000ED5FEF7A9FF06003868800708D4FEF772
:1030E000A3FF801B41F289318842F5D3032021E000
:1030F000286910F44070B0F5407F09D115490A687D
:1031000032F4F8122B69144803401A430A6004E0B1
:103110001048016831F4F81101603868296909051F
:10312000090D084338602878000702D5287D0B492F
:1031300008600020BDE8F283680047420038024082
:10314000843802404038024000700040703802402D
:10315000400E474208380240FFFCFF0FE011474293
:103160002DE9F04100240025002600271F480068B3
:1031700010F00C00002804D0042804D0082804D043
:1031800031E01B4830E01B482EE0DFF86C80D8F8B7
:10319000000010F03F000400D8F8000040020CD5F9
:1031A000D8F80000C0F388101249A1FB00012200EA
:1031B000002302F065F905000BE0D8F80000C0F329
:1031C00088100B49A1FB00012200002302F058F9EE
:1031D0000500D8F80000C0F30140401C4000060084
:1031E000B5FBF6F000E00248BDE8F0810838024087
:1031F0000024F40000127A00043802402DE9F84758
:1032000087B00400002500260020009026480168B1
:1032100051F480210160006810F480200090009833
:1032200001A902A8FEF7C5FEFEF7B8FE07001F4879
:10323000B7FBF0F8B8F10108DFF874901D48C9F841
:10324000000040F2E730C9F80C00C9F80480002003
:10325000C9F810000020C9F808000020C9F81800BB
:10326000484602F025FA82465046C0B2002816D1E0
:10327000484602F054FA82465046C0B200280ED1A9
:103280001A20FFF7B0F9102C07D2002221001A20D3
:10329000FFF794F90848046001E001208246504697
:1032A000C0B208B0BDE8F0874438024040420F0089
:1032B000B4550020004801400400002070470EE093
:1032C00002684368024408305FEAC37C44BF4B4451
:1032D0005B1E52F804CB43F804CB091FF9D150F818
:1032E000041B0029ECD1704762F30F2262F31F42E6
:1032F000401810F0030308D0C91A1FD3DB0748BFDA
:1033000000F8012D28BF20F8022D130030B4144618
:103310001546103928BF20E93C00FAD8490728BFD4
:1033200020E90C0048BF40F8042D890028BF20F890
:10333000022D48BF00F8012D30BC7047C91818BFD6
:1033400000F8012DCB0728BF00F8012D7047026857
:10335000531C03601170704701B584B06420029063
:103360000120019004A80090012300227821DFF8B9
:10337000B8020068FDF706F805B000BD10B50400FE
:103380002000C0B2022801DB0120040014F001007B
:1033900050F0A000C0B2FFF7DFFFE00010F008001F
:1033A00050F0C000C0B2FFF7D7FF10BD10B5040049
:1033B0002000C0B2002801D0AF2000E0AE20C0B293
:1033C000FFF7CAFF10BD10B504008120FFF7C4FF4E
:1033D0002000C0B2FFF7C0FF10BD80B52E20FFF760
:1033E000BBFF01BD80B52320FFF7B6FF0020FFF72C
:1033F000B3FF01BD80B5AE20FFF7AEFF0020FFF7A1
:10340000ABFF1020FFF7A8FF4020FFF7A5FF20200B
:10341000FFF7A2FF0020FFF79FFFFF20FFF7D3FF7A
:103420000120FFF7ABFFA620FFF796FFA820FFF7CC
:1034300093FF3F20FFF790FFD320FFF78DFF002081
:10344000FFF78AFFD520FFF787FF8020FFF784FF73
:10345000D920FFF781FF2220FFF77EFFDA20FFF758
:103460007BFF1220FFF778FFDB20FFF775FF40207E
:10347000FFF772FF8D20FFF76FFF1420FFF76CFF3F
:10348000A420FFF769FFFFF7A8FFFFF7ABFF0120BC
:10349000FFF78CFF01BD10B5040063480460FFF71F
:1034A000A9FF10BDF0B403001BB2002B0BD4030026
:1034B0001BB2802B07DA0B001BB2002B03D40B00CE
:1034C0001BB2402B00DB56E01300DBB2002B1DD0FB
:1034D000022B36D04FD2554C0B001BB2082593FB64
:1034E000F5F580235D4305FA80F50B001BB2082635
:1034F00093FBF6F680235E4306FA80F3E65C012731
:1035000011F007039F403E43665534E0474C0B00E3
:103510001BB2082593FBF5F580235D4305FA80F582
:103520000B001BB2082693FBF6F680235E4306FAD7
:1035300080F3E65C012711F007039F40BE43665508
:1035400019E03A4C0B001BB2082593FBF5F58023DC
:103550005D4305FA80F50B001BB2082693FBF6F6D7
:1035600080235E4306FA80F3E65C012711F007032F
:103570009F407E406655F0BC7047F8B504002000BF
:10358000C0B200280BD0012812D14FF48065FF266D
:10359000264F320029003800FFF7A6FE08E04FF45E
:1035A00080650026214F320029003800FFF79CFE7D
:1035B000F1BDE0B52220FFF7CFFE0020FFF7CCFEE3
:1035C0000720FFF7C9FE18480168496B91F83510CC
:1035D00001290AD14FF4806101911449009101231E
:1035E000402278210068FCF785FF07BD1CB5040068
:1035F0002220FFF7B1FE0020FFF7AEFE0720FFF705
:10360000ABFE09480168496B91F83510012909D1D1
:103610004FF48061019100940123402278210068D9
:10362000FCF768FF13BD00005C570020A84800208D
:103630007149086070470100C9B2002901D06F4983
:10364000087070472DE9F74F05000E001F000C9C15
:103650009DF808007F2880F284805FF00008DFF882
:1036600098914046D9F800104978C0B2884278D283
:10367000D9F800109DF80820203AD9F800004078C9
:10368000424352FA88F0084490F802A05FF0000B21
:10369000584640B2D9F80010097800B209B2884201
:1036A0005CDA5FEACA7027D55448017801290CD149
:1036B0003A00D2B2300040FA8BF109B2280050FA39
:1036C00088F000B2FFF7EEFE41E03900C9B2009188
:1036D00003789BB2027892B2594649B290F800C082
:1036E0000CFB0161C4465FFA8CFC007800FB0C5CAB
:1036F000604600F0FDF82AE02000C0B2002826D184
:103700003E48017801290CD12200D2B2300040FAA3
:103710008BF109B2280050FA88F000B2FFF7C2FE20
:1037200015E02100C9B2009103789BB2027892B2F1
:10373000594649B290F800C00CFB0161C4465FFADB
:103740008CFC007800FB0C5C604600F0D1F81BF1AB
:10375000010B5FFA8AFA5FEA5A0A99E718F1010841
:103760007DE7BDE8F78F2DE9F94F81B00D00170017
:103770000C9CDDF804803E783800471C0078002857
:1037800037D02000C0B200909DF808303200D2B28D
:1037900029004046FFF756FFDFF86090DFF858A099
:1037A000DAF80000417899F8000000FB018818F170
:1037B00001082000C0B2002818D15FF0000B594664
:1037C000C9B2DAF80000027899F800004243914249
:1037D0000CDA0022280050FA8BF109B2B8F101008E
:1037E00000B2FFF75FFE1BF1010BE8E73878060037
:1037F000C2E7BDE8F78F0000185700204400002002
:103800002DE9F84F05000E00170098460A9C781B1A
:1038100002F0DCF88146B8EB060002F0D7F88145EB
:1038200002DA5FF0010B01E05FF0000B5FFA8BFB47
:10383000584600B2002805D02800350006003800A0
:1038400047468046AF4205DA28003D0007003000B9
:1038500046468046781BADF80000B8EB060002F043
:10386000B5F8ADF80200BDF90000022190FBF1F9B6
:10387000464502DA5FF0010A01E05FF0FF3AAF422D
:1038800024DB584600B2002808D02200D2B229001A
:1038900009B2300000B2FFF705FE07E02200D2B205
:1038A000310009B2280000B2FFF7FCFDBDF80200AC
:1038B000B9EB0009484600B2002805D506FA8AF699
:1038C000BDF8000010EB09096D1CD8E7BDE8F18FC9
:1038D000F8B504000D0016001F003800C0B20090BB
:1038E00073195B1E220029002000FFF789FFF1BD3C
:1038F0002DE9F84305000E0017009846089CA946DC
:1039000015FA87F081450ADA2300DBB2424692B20B
:1039100031004846FFF7DCFF19F10109F0E7BDE887
:10392000F1832E0080B50B48016851F400710160ED
:10393000016851F480610160016851F48071016097
:103940000320FEF735FE0F20FFF758FCFEF7B2F913
:10395000002002BD003C0240F8B5DFF86C42A8250B
:1039600000262700320029003800FFF7BDFC0320A5
:10397000206103206061DFF85402A061DFF850127B
:10398000E1614FF4806121620021A1620021616246
:103990000021E1622066DFF83C0260661020A0662C
:1039A000002020670020E06600206067BFF35F8F83
:1039B0000020102807D2DFF8201242421144C97BB0
:1039C0002154401CF5E7BFF35F8FF1BD2DE9FE4F99
:1039D00005000E0014005FF00008D5F80C9028696F
:1039E0000700B94503D2B7EB0900401E04E0A86800
:1039F000B0EB09003818401EA968B1EB09018842F4
:103A000001D2824603E0D5F808A0BAEB090AA24524
:103A100000D3A246686848440090CDF808A00196FB
:103A2000DDF800B0029A0199584601F0D3FF1AEB75
:103A300008085644B4EB0A041AEB0909A868814542
:103A400001D100208146BFF35F8FC5F80C90002C98
:103A5000C5D14046BDE8FE8F2DE9F84F84B0040083
:103A60000D001600E768D4F80880B8EB0708464553
:103A70000FD2606800EB07090196AA46CB46019A6F
:103A80005146584601F0A6FFBFF35F8FF019E06082
:103A900021E0CDF8008060683844019000980390E0
:103AA0000295DDF80490039A0299484601F092FFCE
:103AB000B6EB08000090D4F804900098019005EB54
:103AC000080ACB46019A5146584601F083FFBFF3DE
:103AD0005F8F0098E06005B0BDE8F08F01000A69D3
:103AE000CB68934204D38868401EC01A101801E0C6
:103AF000D01A401E70472DE9F04704000D00160053
:103B0000A846DFF8C400182101FB04F1084410F1B5
:103B1000180ADAF81400002803D0022820D010D3A5
:103B200025E05046FFF7DAFF0700B74202D25FF008
:103B3000000905E0B146320041465046FFF78CFFD0
:103B400017E05046FFF7CAFF0700B74201D2B94657
:103B500000E0B1464A4641465046FFF77DFF08E087
:103B6000320041465046FFF731FF814601E05FF0E9
:103B700000094846BDE8F0872DE9F04104000D003A
:103B80001600DFF844703878002801D1FFF7E4FE12
:103B9000EFF31188202080F31188320029002000E3
:103BA000FFF7A9FF88F31188BDE8F08170B5040024
:103BB0000D00280001F062FF0600320029002000FD
:103BC000FFF7DAFF70BD0000A852002090A40008A3
:103BD000A84C0020FC5600205CA3000810B4020092
:103BE00052B2002A06D40A01DFF8C432040064B2DB
:103BF0001A5509E00A01DFF8BC32040064B214F07F
:103C00000F04234403F8042C10BC704780B5DFF880
:103C1000A802006802F01CFD012801D002F01AFF82
:103C200001BD80B500217FF00400FFF7D7FF01BD83
:103C3000EFF30580002802D07FF005000AE0DFF8EE
:103C40007C120868002803D101200860002001E0F0
:103C50005FF0FF30704710B5EFF30580002802D009
:103C60007FF005000EE0DFF854422068012807D1FC
:103C7000FFF7D7FF0220206002F0D4F8002001E017
:103C80005FF0FF3010BD2DE9FF47070088461400A4
:103C900000200390EFF30580002862D1380000284F
:103CA0005FD08020824618200500002081465FF00A
:103CB000FF300600002C33D02068002801D0206897
:103CC0008146A069002801D0A0690500002D04D01C
:103CD000392D02D22079C00701D5002042E0606969
:103CE000002802D0606980088246A06800280BD0B6
:103CF000E068602808D32069002805D060690028A2
:103D000002D0012006000DE0A06800280AD1E0687A
:103D1000002807D12069002804D10020060001E016
:103D200000200600012E0CD1A068029020690190AD
:103D30000095434652464946380001F0BBFE0390C9
:103D40000FE0002E0DD103A8019000954346524686
:103D500092B24946380001F0FAFE012801D0002055
:103D60000390039804B0BDE8F08738B50400EFF382
:103D70000580002802D07FF0050505E00025002C15
:103D800002D0200001F0E1FF280032BD38B5050067
:103D9000280003F07BF90400002C02D06068216841
:103DA000884731BD2DE9FE4F8046894692461D0069
:103DB0000027EFF30580002857D14046002854D053
:103DC000082003F08FF90400002C4ED0C4F80080C6
:103DD000C4F804A04846C0B2002802D1002083469F
:103DE00001E0012083465FF0FF30060000200290D2
:103DF000002D16D02868002801D028680290A868F5
:103E0000002805D0E8682C2802D3012006000AE02B
:103E1000A868002807D1E868002804D1002006001F
:103E200001E000200600012E0CD1A8680190DFF807
:103E3000E401009023005A460121029802F0AFFEEF
:103E400007000BE0002E09D1DFF8C8010090230025
:103E50005A460121029802F087FE0700002F04D184
:103E6000002C02D0200003F0D1F93800BDE8FE8F0D
:103E70007CB505000E002C00EFF30580002802D071
:103E80007FF0050012E0002C02D17FF003000DE06E
:103E900000200090002332000421200002F0DAFE0E
:103EA000012801D1002001E07FF0020076BD000072
:103EB00000E400E018ED00E010E000E014570020FE
:103EC0002DE9F84305000E0014005FF00008EFF341
:103ED000058000284CD1002D4AD0002E48D05FF03C
:103EE000FF300700002C1FD0A06800280DD0E0682C
:103EF00050280AD32069002807D0606906FB05F125
:103F0000884202D30120070010E0A06800280DD1EC
:103F1000E06800280AD12069002807D160690028DC
:103F200004D10020070001E000200700012F09D183
:103F300000200090A36822693100280000F0B2FC44
:103F4000804607E0002F05D100223100280000F054
:103F50000AFD8046B8F1000F0AD0002C02D020687C
:103F6000814601E0002081464946404600F0F9FFC5
:103F70004046BDE8F2832DE9F84307000C00904667
:103F80001D003E005FF00009EFF30580002824D0FB
:103F9000002E03D0002C01D0002D03D07FF00300B1
:103FA000814633E00020009000236A462100300063
:103FB00000F0F0FD012803D07FF00200814625E0EB
:103FC0000098002822D05FF08050DFF84C10086085
:103FD000BFF34F8FBFF36F8F18E0002E01D0002C7E
:103FE00003D17FF00300814610E000232A00210066
:103FF000300000F0FCFC012808D0002D03D07FF039
:104000000100814602E07FF0020081464846BDE89B
:10401000F28300008D3D000804ED00E02DE9F84337
:104020000400002C01D10120D8E12078C0075FD521
:10403000DFF8AC03016811F00C01042909D0006815
:1040400010F00C0008280ED1DFF898030068400239
:1040500009D5DFF894030068800349D5606800281B
:1040600046D10120BAE16068B0F5803F06D1DFF8A3
:104070007803016851F48031016018E06068B0F5A0
:10408000A02F0AD1DFF86003016851F4802101609C
:10409000016851F48031016009E0DFF84C030168E8
:1040A00031F480310160016831F480210160606881
:1040B00000280ED0FDF7B8FF0500DFF82C030068DC
:1040C000800315D4FDF7B0FF401B6528F5D303200E
:1040D00084E1FDF7A9FF0500DFF80C030068800309
:1040E00006D5FDF7A1FF401B6528F5D3032075E138
:1040F000207880074CD5DFF8E802016811F00C0F3A
:1041000008D0006810F00C00082814D1B5480068E9
:10411000400210D4B4480168890704D5E168012938
:1041200001D001205AE1016831F0F801226951EA19
:10413000C20101602CE0E068002818D00120AB49E2
:104140000860FDF771FF0500A7480168890706D4DC
:10415000FDF76AFF401B0328F6D303203EE1016808
:1041600031F0F801226951EAC201016010E000203B
:104170009E490860FDF758FF05009B4800688007CE
:1041800006D5FDF751FF401B0328F6D3032025E198
:104190002078000724D56069002810D001209449B8
:1041A0000860FDF741FF050092480068800717D4BA
:1041B000FDF73AFF401B0328F6D303200EE1002051
:1041C0008B490860FDF730FF05008A4800688007CA
:1041D00006D5FDF729FF401B0328F6D30320FDE099
:1041E000207840077CD50027DFF80C82D8F8000043
:1041F000C0000FD400200090D8F8000050F080508C
:10420000C8F80000D8F8000010F080500090009826
:1042100001200700DFF8E491D9F80000C00513D4AD
:10422000D9F8000050F48070C9F80000FDF7FCFEDA
:104230000500D9F80000C00506D4FDF7F5FE401BC7
:104240000328F6D30320C9E0A068012805D16C48F3
:10425000016851F00101016015E0A068052809D14D
:104260006748016851F004010160016851F00101E3
:10427000016008E06248016849084900016001687E
:1042800031F004010160A06800280FD0FDF7CCFEDA
:1042900005005B480068800718D4FDF7C5FE401B89
:1042A00041F289318842F4D3032097E0FDF7BCFE48
:1042B000050053480068800708D5FDF7B5FE401B90
:1042C00041F289318842F4D3032087E03800C0B23C
:1042D000012805D1D8F8000030F08050C8F800005F
:1042E000A069002879D03E48006810F00C0008282A
:1042F00047D0A069022833D1424F00203860FDF733
:1043000093FE8046DFF8E090D9F80000800107D5E1
:10431000FDF78AFEB0EB08000328F3D303205DE02D
:10432000E169206A0143606A51EA8011A06A40088D
:10433000401E51EA0041E06A51EA006129480160EB
:1043400001203860FDF770FE0500D9F800008001FB
:1043500043D4FDF769FE401B0328F6D303203DE05C
:10436000002028490860FDF75FFE05001E48006830
:10437000800132D5FDF758FE401B0328F6D30320F9
:104380002CE0A069012801D1012027E01548006830
:104390000600A06901281ED016F48000E169884259
:1043A00019D116F03F00216A884214D147F6C07037
:1043B0003040616AB0EB811F0DD116F44030A16A24
:1043C0004908491EB0EB014F05D116F07060E16A53
:1043D000B0EB016F01D0012000E00020BDE8F283C6
:1043E00008380240043802400038024000004742CA
:1043F000800E47427438024040380240007000404E
:10440000703802406000474270B504000125002C5E
:1044100001D101204DE0607F002804D100202077E9
:104420002000FDF7D9FC02206077CA20216848628D
:10443000532021684862200000F091F90600300006
:10444000C0B200281ED120688168DFF8D002014088
:1044500020688160206881686068014320690143A9
:104460006069014320688160E06821680861206814
:104470000069A16850EA014021680861200000F04D
:1044800096F906003000C0B200280DD12068006CFB
:1044900030F48020216808642068016CA069014321
:1044A0002068016401206077FF20216848623000A5
:1044B000C0B270BD2DE9F84305000E0014005FF096
:1044C0000008287F012801D1022064E0012028771C
:1044D00002206877002C1CD128688068400601D42F
:1044E0000020F070307800F07BF98146707800F0A1
:1044F00077F90700B07800F073F95FFA89F9FFB235
:104500003F0257EA0947C0B20743F07857EA80579D
:104510000FE028688068400601D40020F0703078F1
:1045200077783F0257EA0047B0780743F07857EAB8
:104530008057CA20296848625320296848622800A9
:1045400000F00DF980464046C0B2002816D1DFF8D1
:10455000D0013840296808602868806830F48020DD
:104560002968886028688168F068014330690143E0
:1045700028688160280000F01AF980464046C0B2E1
:10458000002801D101206877FF20296848620020B7
:1045900028774046C0B2BDE8F283F8B505000E00AA
:1045A000140000212868806A70602868006940044F
:1045B000400CB06028680768DFF8640107403800E5
:1045C000000C10F03F0030703800000A10F07F003F
:1045D000707017F07F00B0703800800D10F001008F
:1045E000F070002C0BD1307800F006F93070707844
:1045F00000F002F97070B07800F0FEF8B0700020A2
:10460000F2BD2DE9F84305000E0014005FF000082C
:10461000287F012801D1022054E0012028770220C0
:104620006877002C07D17078C00604D5707810F038
:10463000EF000A307070002C16D1F07800F0D0F83E
:104640008146707800F0CCF80700B07800F0C8F828
:104650005FFA89F9FFB23F0257EA0947C0B2074340
:10466000307857EA403709E0F07877783F0257EA28
:104670000047B0780743307857EA4037CA202968A6
:104680004862532029684862280000F068F8804694
:104690004046C0B2002808D1DFF8880038402968B9
:1046A0004860280000F083F880464046C0B20028E9
:1046B00001D101206877FF2029684862002028770F
:1046C0004046C0B2BDE8F283F8B505000E00140004
:1046D000002128684768DFF84C0007403800000CCC
:1046E000F0703800000A10F01F00707017F03F00E3
:1046F000B0703800400B10F007003070002C0BD168
:10470000F07800F079F8F070707800F075F870705B
:10471000B07800F071F8B0700020F2BDBFFF8FFFDD
:104720007F7F7F003FFFFF0070B5040000252068F9
:10473000C06830F0A0002168C860FDF775FC060075
:104740002068C068800608D4FDF76EFC801B40F22C
:10475000E9318842F4D3032000E0002070BD70B539
:104760000400002500262068C06840061CD420688C
:10477000C06850F080002168C860FDF755FC050056
:104780002068C06840060FD43000C0B201280BD0AA
:10479000FDF74AFC401B40F2E9318842F0D3042087
:1047A000607701200600EBE73000C0B270BD38B57D
:1047B000040000252068C06830F080002168C860CF
:1047C00020688068800608D42000FFF7ADFF00282D
:1047D00003D004206077012005002800C0B232BD5C
:1047E00000210200D2B20A2A02D3491C0A38F8E793
:1047F00050EA0110C0B2704700210200D2B2120983
:104800000A2312FB03F210F00F008018C0B27047A9
:1048100070B506000C003500002D07D1502080F344
:104820001188BFF34F8FBFF36F8FFEE702F0E2F8FE
:104830002968EA6B286C424301EB0200A860002063
:10484000A863286868602968EA6B521E286C424396
:1048500001EB0200E8605FF0FF3085F8440085F866
:104860004500002C12D12869002817D015F110003E
:1048700001F024FD002811D05FF08050DFF86415AE
:104880000860BFF34F8FBFF36F8F07E015F1100083
:1048900002F06CFD15F1240002F068FD02F0C4F88E
:1048A000012070BD2DE9F84306000C0015001F0023
:1048B000DDF82090002E07D1502080F31188BFF33F
:1048C0004F8FBFF36F8FFEE7002F07D1502080F38B
:1048D0001188BFF34F8FBFF36F8FFEE7002D01D01C
:1048E000002C01D0012000E00020C0B2002807D138
:1048F000502080F31188BFF34F8FBFF36F8FFEE717
:10490000002D01D1002C01D1012000E00020C0B217
:10491000002807D1502080F31188BFF34F8FBFF3D9
:104920006F8FFEE7502000900098502807D050204D
:1049300080F31188BFF34F8FBFF36F8FFEE70098AE
:10494000B846B8F1000F0BD0012088F84600CDF82A
:1049500000804B46DBB22A002100300000F02CF82A
:104960004046BDE8F2832DE9F84304000E0017002D
:10497000002C07D1502080F31188BFF34F8FBFF375
:104980006F8FFEE706FB04F919F1500002F0AAFB55
:104990000500002D0DD0280050308046002085F8FD
:1049A000460000953B00DBB242463100200000F09B
:1049B00003F82800BDE8F2832DE9F04105000C0062
:1049C00016001F00DDF81880002C02D1C8F8008006
:1049D00001E0C8F80060C8F83C50C8F84040012128
:1049E0004046FFF715FF88F84C70BDE8F0812DE9CF
:1049F000F74380460D00994600244646002E07D115
:104A0000502080F31188BFF34F8FBFF36F8FFEE705
:104A1000002D02D1306C002801D1012000E00020DF
:104A2000C0B2002807D1502080F31188BFF34F8F08
:104A3000BFF36F8FFEE7B9F1020F02D1F06B0128CF
:104A400001D1012000E00020C0B2002807D1502091
:104A500080F31188BFF34F8FBFF36F8FFEE701F034
:104A6000F7FD002802D10298002801D1012000E0C2
:104A70000020C0B2002807D1502080F31188BFF376
:104A80004F8FBFF36F8FFEE701F0B4FFB06BF16B98
:104A9000884202D3B9F1020F27D14A4629003000DB
:104AA00000F0A2F90700706A00280FD016F1240068
:104AB00001F004FC002814D05FF08050DFF82413CC
:104AC0000860BFF34F8FBFF36F8F0AE0002F08D04D
:104AD0005FF08050DFF80C130860BFF34F8FBFF317
:104AE0006F8F01F0A1FF012052E00298002803D14E
:104AF00001F09AFF00204BE0002C04D1684601F041
:104B000023FC0120040001F08FFF01F0DAF901F02D
:104B100071FF96F9440010F1010F02D1002086F8D0
:104B2000440096F9450010F1010F02D1002086F8EB
:104B3000450001F079FF02A9684601F015FC002844
:104B400020D1300000F0FEF9002815D0029916F1AE
:104B5000100001F06BFB300000F0AFF901F0B7F985
:104B6000002891D15FF08050DFF878120860BFF321
:104B70004F8FBFF36F8F87E7300000F09EF901F091
:104B8000A6F981E7300000F098F901F0A0F90020C3
:104B9000BDE8FE832DE9F84F07000C00150098468C
:104BA0003E00002E07D1502080F31188BFF34F8FB5
:104BB000BFF36F8FFEE7002C02D1306C002801D1CB
:104BC000012000E00020C0B2002807D1502080F36F
:104BD0001188BFF34F8FBFF36F8FFEE7B8F1020F5D
:104BE00002D1F06B012801D1012000E00020C0B209
:104BF000002807D1502080F31188BFF34F8FBFF3F7
:104C00006F8FFEE701F03AFFEFF31189502080F338
:104C10001188BFF34F8FBFF36F8FB06BF16B88427A
:104C200002D3B8F1020F22D196F945A0D6F838B0D8
:104C300042462100300000F0D7F850465FF0FF31C7
:104C400040B288420DD1706A002809D016F12400C4
:104C500001F034FB002803D0002D01D00120286092
:104C600003E01AF1010086F84500012000E0002071
:104C700089F31188BDE8F28F2DE9F64182B08046B4
:104C80000E0000244746002F07D1502080F31188E2
:104C9000BFF34F8FBFF36F8FFEE7002E02D1386C4A
:104CA000002801D1012000E00020C0B2002807D177
:104CB000502080F31188BFF34F8FBFF36F8FFEE753
:104CC00001F0C6FC002802D10398002801D1012080
:104CD00000E00020C0B2002807D1502080F31188E6
:104CE000BFF34F8FBFF36F8FFEE701F083FEBD6B05
:104CF000002D1BD03100380000F0C4F8681EB863E6
:104D0000386900280ED017F1100001F0D7FA0028FA
:104D100008D05FF08050DFF8CC100860BFF34F8FF1
:104D2000BFF36F8F01F080FE012057E00398002849
:104D300003D101F079FE002050E0002C04D1684638
:104D400001F002FB0120040001F06EFE01F0B9F851
:104D500001F050FE97F9440010F1010F02D100203C
:104D600087F8440097F9450010F1010F02D10020A7
:104D700087F8450001F058FE03A9684601F0F4FAEF
:104D8000002820D1380000F0CFF8002815D0039972
:104D900017F1240001F04AFA380000F08EF801F013
:104DA00096F80028A1D15FF08050DFF83810086035
:104DB000BFF34F8FBFF36F8F97E7380000F07DF898
:104DC00001F085F891E7380000F077F801F07FF8FE
:104DD000380000F0A9F8002887D0002004B0BDE812
:104DE000F081000004ED00E02DE9F84F06000F000F
:104DF00014005FF00008B56B306C002809D13068F2
:104E000000283AD1B06801F039FC80460020B0603B
:104E100033E0002C14D1D6F84090BA46D6F804B04E
:104E20004A465146584600F0D5FD7068316C08443A
:104E300070607068B16888421FD3306870601CE091
:104E4000D6F84090BA46D6F80CB04A465146584675
:104E500000F0C0FDF068316C49420844F060F06831
:104E60003168884204D2B068316C49420844F0602D
:104E7000022C02D1002D00D06D1E681CB06340468C
:104E8000BDE8F28F2DE9F04104000D00206C0028F0
:104E900011D0E068216C0844E060E068A1688842B5
:104EA00001D32068E060266CE768A846320039002C
:104EB000404600F08FFDBDE8F081F8B5040001F038
:104EC00099FD94F94550280040B201280CDB606A36
:104ED000002809D014F1240001F0F0F9002801D0D5
:104EE00001F089FA6D1EEEE75FF0FF3684F8456049
:104EF00001F09AFD01F07EFD94F94470380040B253
:104F000001280CDB2069002809D014F1100001F001
:104F1000D5F9002801D001F06EFA7F1EEEE784F883
:104F2000446001F081FDF1BD38B5040001F062FD7F
:104F3000A06B002801D1012500E0002501F074FDDF
:104F4000280032BD38B5040001F054FDA06BE16BC0
:104F5000884201D1012500E0002501F065FD28000F
:104F600032BD10B40023082B0CD2074C54F8332068
:104F7000002A05D144F8331004EBC302506001E06D
:104F80005B1CF0E710BC7047FC550020F8B504002E
:104F90000D001600270001F02DFD97F9440010F1D7
:104FA000010F02D1002087F8440097F9450010F165
:104FB000010F02D1002087F8450001F035FDB86BE4
:104FC000002805D13200290017F1240001F050F922
:104FD0003800FFF772FFF1BD70B504000D00A66840
:104FE0006068711C884206D320688555701CA060DB
:104FF000E068401CE060A068616888420DD1A2684A
:1050000021682069FEF7B8FDA168884203D05FF0EF
:10501000FF30E06001E00020A06070BD2DE9FE4F90
:105020000700884691461E000C9CC24601255FF091
:10503000010BCA4504D3BAFBF9FA1BF1010BF8E7DF
:10504000B34500D2B3460D98C0071AD4002C18D02F
:105050000D98800705D5002E03D130208DF8000073
:1050600002E020208DF80000002C0AD0A34508D2D1
:10507000641E9DF800103800FFF7AEFFF8680028A6
:10508000F2D5F868002830D4022E01D3761E05E050
:10509000B8FBF5F001900198484502D309FB05F5EE
:1050A000F2E7B8FBF5F00190019805FB1088104875
:1050B0000199415C3800FFF78FFFF868002803D49E
:1050C000B5FBF9F5002DECD10D98C0070DD5002CDE
:1050D0000BD0002C09D0A34507D2641E2021380034
:1050E000FFF77AFFF8680028F3D5BDE8F78F0000D6
:1050F00010A400082DE9FE4F06000F0090461D0089
:105100000C9CDDF83490002F02D5D7F1000A00E0A6
:10511000BA465FF0010BC24504DB9AFBF8FA1BF1BB
:10512000010BF8E7AB4500D2AB46002C05D0002FB1
:1051300002D45FEA497000D5641E5FEA897001D528
:10514000002D10D05FEAC9700DD4002C0BD0002CBC
:1051500009D0A34507D2641E20213000FFF73CFF91
:10516000F0680028F3D5F068002831D4002F05D569
:105170007F422D213000FFF72FFF06E05FEA4970E4
:1051800003D52B213000FFF727FFF06800281FD43C
:1051900019F0030002280FD1002D0DD1002C0BD0E7
:1051A000002C09D0A34507D2641E30213000FFF740
:1051B00013FFF0680028F3D5F068002808D4CDF874
:1051C000049000942B00424639003000FFF726FF80
:1051D000BDE8F78F2DE9F14F98B08946150007A873
:1051E0000290402003900020049018980690002020
:1051F000059099F80000060019F101093000C0B2CD
:10520000002800F00F813000C0B2252840F0018155
:10521000002080460120040099F8000006003000BC
:10522000C0B2232815D02B280ED02D2802D030282C
:1052300005D013E058F0010819F1010910E058F009
:10524000020819F101090BE058F0040819F10109ED
:1052500006E058F0080819F1010901E000200400F7
:10526000002CD9D10020824699F8000006003000B9
:10527000C0B2302803DB3000C0B23A2808DB00207F
:10528000070099F800100800C0B22E2820D109E0CC
:1052900019F101090A2000FB0AFA5AFA86FABAF152
:1052A000300AE1E719F1010999F80000010008004E
:1052B000C0B2302803DB0800C0B23A2800DB07E0A8
:1052C00019F101090A20474357FA81F7303FEBE70C
:1052D00099F800603000C0B26C2803D03000C0B232
:1052E000682805D119F1010999F800000600F1E7D5
:1052F0003000C0B2252800F08480582841D06328AF
:105300000AD0642817D0702868D073284CD075282C
:1053100024D0782835D079E028682860286800688B
:105320002968091D29600400A3465946C9B202A88C
:10533000FFF752FE6AE0286828602868006829683C
:10534000091D29600400CDF80480CDF800A03B00C1
:105350000A22210002A8FFF7CDFE57E02868286046
:10536000286800682968091D29600400CDF80480B8
:10537000CDF800A03B000A22210002A8FFF74EFE54
:1053800044E028682860286800682968091D2960A9
:105390000400CDF80480CDF800A03B0010222100CD
:1053A00002A8FFF73BFE31E0286828602868D0F8A3
:1053B00000B02868001D28609BF8000006001BF163
:1053C000010B3000C0B2002807D03100C9B202A8DA
:1053D000FFF702FE05980028EED517E02868286040
:1053E000286800682968091D2960040000200190D0
:1053F0000820009008231022210002A8FFF70EFECB
:1054000004E0252102A8FFF7E7FDFFE719F10109F4
:1054100004E03100C9B202A8FFF7DEFD05980028BC
:105420007FF5E7AE059801280BDB0498002804D02F
:10543000049A07A91898FEF79FFB0599049841184C
:105440000591059819B0BDE8F08F0CB438B504008B
:105450000D0004A800906A4629002000FFF7BAFE5C
:1054600032BC5DF80CFB000003480168034A127867
:1054700089180160704700BF645700204500002074
:10548000BBBBE1B1B2F5803F80F07E80022A1ED91D
:105490008C46B1FBF2F102FB11C31B0443EA10433B
:1054A000B3FBF2FC02FB1C3380B240EA0343B3FBC4
:1054B000F2F002FB103240EA0C4000237047022A4F
:1054C00005D98446B0FBF2F002FB10C270474AB126
:1054D00005D100F0010249085FEA30007047002260
:1054E0000023704701F090BF0B0002000021002054
:1054F0007047904271EB030CF6D3B3F5803F2FD287
:10550000F0B5B3FA83F7B1FA81F4A7F10F0E3D1BA2
:105510005340CEF1200602FA0EF2F3415340B5F1AA
:105520000F0746D80F3C2C444140C4F12006A04050
:10553000F1414140B1FBF3F603FB1611A2FB064516
:10554000001BA94102D2761E8018594180EA01024F
:1055500021FA0EF362FA0EF200215A403046F0BDF5
:1055600030B4B1FBF3FC03FB1C11A2FB0C45001B88
:10557000A94103D2ACF1010C8018594130BC02465C
:105580000B46604600217047B2F1807F65D3F0B5CD
:10559000B2FA82F7B1FA81F4C7F10F063D1B22FA85
:1055A00006F307F1110EF24120355A40B5F10F070D
:1055B000B8D94140C4F12006A040F1414140B1FBBF
:1055C000F3FC03FB1C11A2FB0C45001BA94103D2F9
:1055D000BCF1010C801859410F2F12D30F3FC903A2
:1055E00041EA5041B1FBF3F603FB1611A2FB06455D
:1055F000D4EBC030A94102D2761E8018594146EA48
:10560000CC3C07B34140C7F12006B840F1414140CE
:10561000B1FBF3F603FB1611A2FB0645001BA941E3
:1056200002D2761E8018594180EA010221FA0EF357
:10563000C7F1200462FA0EF20CFA07F05A402CFA75
:1056400004F13043F0BD80EA010221FA0EF300219B
:1056500062FA0EF260465A40F0BD8C46B1FBF2F1A0
:1056600002FB11C31B0243EA1063B3FBF2FC02FB13
:105670001C331B024CEA002043EA1063B3FBF2FC2C
:1056800002FB1C331B024CEA002043EA1063B3FB0D
:10569000F2FC02FB1C331B024CEA002043EA1063BD
:1056A000B3FBF2FC02FB1C324CEA002000237047E3
:1056B00010B50400002C01D101202FE094F83D002A
:1056C000002805D1002084F83C00200001F09DFE58
:1056D000022084F83D00211D206800F028F90120F7
:1056E00084F84600012084F83E00012084F83F0041
:1056F000012084F84000012084F84100012084F852
:105700004200012084F84300012084F84400012075
:1057100084F84500012084F83D00002010BD010000
:1057200091F83D00012801D001203AE0022081F8E3
:105730003D000868C06850F001000B68D860086838
:10574000DFF86030984217D00868B0F1804F13D06E
:105750000868DFF8543098420ED00868DFF84C3003
:10576000984209D00868DFF84830984204D00868A9
:10577000DFF8403098420DD10868806810F00700CB
:105780000200062A0CD00868006850F001000B687F
:10579000186005E00868006850F001000B681860A8
:1057A0000020704700000140000400400008004055
:1057B000000C00400040014010B504002068006962
:1057C00080071AD52068C068800716D57FF00200D0
:1057D00021680861012020772068806910F0030F9C
:1057E00003D0200001F012FE05E0200001F00FFEC2
:1057F000200001F00DFE002020772068006940079E
:105800001AD52068C068400716D57FF004002168CB
:105810000861022020772068806910F4407F03D05F
:10582000200001F0F3FD05E0200001F0F0FD200074
:1058300001F0EEFD002020772068006900071AD5EE
:105840002068C068000716D57FF00800216808614D
:10585000042020772068C06910F0030F03D02000D7
:1058600001F0D4FD05E0200001F0D1FD200001F0A1
:10587000CFFD0020207720680069C0061AD5206877
:10588000C068C00616D57FF01000216808610820A6
:1058900020772068C06910F4407F03D0200001F019
:1058A000B5FD05E0200001F0B2FD200001F0B0FDE3
:1058B0000020207720680069C0070AD52068C068EA
:1058C000C00706D57FF00100216808612000FDF7C0
:1058D0000BFB2068006900060AD52068C068000636
:1058E00006D57FF0800021680861200001F091FD5D
:1058F0002068006940060AD52068C068400606D5C1
:105900007FF0400021680861200001F083FD2068DD
:10591000006980060AD52068C068800606D57FF039
:10592000200021680861200001F075FD10BD10B451
:1059300004681F4B98420BD0B0F1804F08D01D4A2D
:10594000904205D01C4A904202D01C4A904203D19A
:1059500034F070044A681443984214D0B0F1804F78
:1059600011D0144A90420ED0134A90420BD0134AE1
:10597000904208D0124A904205D0124A904202D07A
:10598000114A904203D134F44074CA68144334F08D
:1059900080044A69144304608A68C2620A688262A9
:1059A000984201D10A6902630122426110BC70472A
:1059B000000001400004004000080040000C0040CE
:1059C000004001400044014000480140002848BF19
:1059D0004042704762B38B0708D0521E11F8013B5A
:1059E00000F8013B00F024808B07F6D1830740F0DC
:1059F000208000BF103A07D330B4B1E83810103A15
:105A0000A0E83810F9D230BC530724BFB1E8081021
:105A1000A0E8081044BF51F8043B40F8043BD2070B
:105A200024BF31F8022B20F8022B44BF0B780370FF
:105A30007047121F17D35B0009D151F8043B20F8BF
:105A4000023B1B0C121F20F8023BF6D20BE051F870
:105A5000043B00F8013B1B0A20F8023B1B0C121F01
:105A600000F8013BF3D238BF121D521E24BF11F8BB
:105A7000013B00F8013BF8D87047000000F101033A
:105A8000810704D010F8011B820781B1FAD10268A6
:105A9000A2F10131914311F0803104BF50F8042F7D
:105AA000F6E709BAB1FA81F100EBD100401CC01A47
:105AB000704700002DE9F84785B006000F009046BA
:105AC00099460F9C109D002C07D1502080F311881F
:105AD000BFF34F8FBFF36F8FFEE7002D07D150202C
