:020000040800F2
:1000000010870020B1BA000869B800086BB8000872
:100010006DB800086FB8000871B800080000000053
:10002000000000000000000000000000E1A0000847
:1000300073B800080000000089A00008259B000894
:1000400055BB000859BB00085DBB000861BB000838
:1000500065BB000869BB00086DBB000871BB0008E8
:1000600075BB000879BB00087DBB000881BB000898
:1000700085BB000889BB00088DBB000891BB000848
:1000800095BB000899BB00089DBB0008000000005C
:10009000000000000000000000000000A1BB0008FC
:1000A000A5BB000875B80008A9BB0008ADBB0008D7
:1000B000B1BB0008B5BB0008B9BB0008BDBB000858
:1000C000C1BB0008C5BB0008C9BB0008CDBB000808
:1000D000D1BB0008D5BB0008D9BB00080000000058
:1000E000DDBB0008E1BB0008E5BB00080000000024
:1000F000000000000000000000000000E9BB000854
:1001000000000000EDBB0008F1BB0008F5BB0008D3
:1001100000000000000000000000000000000000DF
:10012000F9BB0008FDBB000801BC000805BC0008C5
:1001300009BC0008000000000000000000000000F2
:100140000000000000000000000000007FB8000870
:100150000DBC000811BC000815BC000819BC000843
:100160001DBC000821BC00080000000000000000C9
:10017000000000000000000000000000000000007F
:100180000000000025BC0008000000000000000086
:1001900029BC00082DBC000800F5E07002689142FF
:1001A00003D343681A44914202D380680028F5D1F2
:1001B0007047DFF86C17086890B94FF480504860BA
:1001C0004FF480324FF0FF30C86008610420DFF840
:1001D00054378A604861C3F8BC01DFF84C070860F7
:1001E0000120704701F1080313F0070F0EBF002331
:1001F000C3F1080303F007031944D21A8161C260F6
:1002000042F001034B60091D4FF0280C41F802C079
:10021000DFF80C271369C36170472DE9FC4B0746D3
:1002200001F1080010F0070F0FBF8946C0F1080068
:1002300000F0070001EB000902F1080111F0070FBF
:1002400006D002F10800C0F1080000F007000244E7
:100250001546A5EB090009EB0306A0EB030B43F0E1
:100260000303C9F80430AE4228BF01F005FA28792B
:10027000C10758BF01F000FABBF1100F38BF01F001
:10028000FBF9B869854208D1F9688B44C7F80CB00E
:10029000BE614BF00100706051E1786985420AD17E
:1002A000B9688B44C7F808B07E614BF001007060FC
:1002B00046F80BB043E1686800F00301012940F003
:1002C000AC80C008C0000190C0081F2839D8AC68B5
:1002D000D5F80C800090454508BF01F0CDF9A54246
:1002E00008BF01F0C9F968680099C008C000B0EB08
:1002F000C10F18BF01F0C0F9009907F1280000EB09
:10030000C100844206D039698C42C0F08180E26825
:10031000AA427DD1A04506D10098396801238340C7
:100320009943396076E0804506D0396988456FD3B6
:10033000D8F80800A8426BD1C4F80C80C8F808406F
:1003400068E0EC68D5F81880AC420CD0A868396930
:10035000884223D3C268AA4204BFA168A9421DD122
:10036000C460A0601CE005F114010C6834B905F10B
:1003700010010C68A4B101E011460C6804F11402EC
:100380001068002802BF04F1100210680028F3D1A1
:100390003869814202D300220A6001E001F06CF961
:1003A000B8F1000F36D0E96907F5987000EB8100CD
:1003B0000268954208D10460A4B9E869796801220D
:1003C00082409143796025E03869804508D3D8F8A8
:1003D0001010A94214BFC8F81440C8F8104001E03A
:1003E00001F04AF9B4B139698C4211D3C4F81880CC
:1003F000286928B1884226BF2061846101F03CF958
:10040000686938B13969884202D36061846101E06A
:1004100001F032F901996D188B4469684908490067
:1004200069604BF0010070604FEADB0446F80BB0E6
:100430001F2C23D807F1280000EBC4084546BBF168
:10044000100F38BF01F018F9386820FA04F1CA0714
:1004500005D4012101FA04F404433C6007E0D8F814
:100460000800396988422CBF054601F005F9C8F833
:100470000860EE60B560C6F80C8060E05FEA1B20A3
:1004800008BF002123D0B0F5803F28BF1F211ED216
:10049000A0F58072120C02F008029040A0F5805185
:1004A000090C01F004018840A0F580431B0CC2F147
:1004B0000E0203F00203521AD21A984002EBD03215
:1004C000D01D2BFA00F101F0010101EB4201F161B5
:1004D000002307F59872736102EB810033617A683B
:1004E00022FA01F3DC0707D4012303FA01F11143D7
:1004F00079600660B0611DE002681F291DBF4908D0
:10050000C1F119010BFA01F1594600E002465068A9
:10051000C008C000584516D002F11003C80F03EB05
:100520008003490018680028F0D13869834204D359
:100530001E60B261F660B66001E001F09DF809F15D
:100540000800BDE8F68B396990688A4228BF884266
:10055000F3D3C6609660B060F2600020B061EEE751
:100560002DE9FE4F04468B46A5692E4690469946D6
:100570003146FFF711FE0268416802EB010AAAF159
:10058000270111F007000EBF0021C1F1080101F0A1
:1005900007010AEB0100A0F12F0706F110018F42BD
:1005A00038BF374607F11802002101920091A8F1E7
:1005B000280259462046FFF715FE07F1080010F003
:1005C000070F18BF01F058F81B20786007F10801E9
:1005D00004F5E07090E80C5081E80C50C0F800B0D1
:1005E000C0F80480C0F80C9081600722019800993F
:1005F00000E0001D491C00F1080353454260F8D398
:100600000129D8BF01F038F8B74200F09580BF1B30
:10061000301D321DC15949084900D15147F0010030
:1006200070604FEAD70BF751BBF11F0F21D804EBD5
:10063000CB0000F12805A846102F38BF01F01CF8A8
:10064000206820FA0BF1CA0705D4012101FA0BF149
:100650000843206006E0A868216988422CBF8046D4
:1006600001F00AF8AE60C8F80C60C6F80880F560C2
:100670006FE0380A08BF002123D0B0F5803F28BFC3
:100680001F211ED2A0F58072120C02F008029040C9
:10069000A0F58051090C01F004018840A0F58043C9
:1006A0001B0CC2F10E0203F00203521AD21A984038
:1006B00002EBD032D01D27FA00F101F0010101EB6D
:1006C000420104EB8102002302F59870F16173612D
:1006D0003361626822FA01F3DB0707D4012303FACE
:1006E00001F1114361600660B0611DE002681F29DD
:1006F0001DBF4908C1F1190107FA01F1394600E0AF
:1007000002465068C008C000B84216D002F110037B
:10071000C80F03EB8003490018680028F0D1206956
:10072000834204D31E60B261F660B56011E003B08D
:10073000BDE8F04F00F0A0BF0BE0216990688A424D
:1007400028BF8842F3D3C6609560B060F260002095
:10075000B06103B0BDE8F08F2DE9F041704F054660
:100760003868884608B9FFF724FDB96801EB08002E
:100770002F30491E20EA010188457DD205F5D87643
:10078000B06828B1326889188A4275D2884273D31A
:1007900000F0B2FF01001CBF0C6811F1010F6BD01B
:1007A0003068201805F5D87230605368984238BF19
:1007B00018467060A86960BB286908B1814200D200
:1007C0002961316174610020F0614FF0FF303A68B7
:1007D0006A62286205F128020020D260926002F16C
:1007E000080757611761801C10322028F5D34D4847
:1007F000854208BFA4F1280228D055F8040CC0088F
:1008000005EBC002A2F108000A19121A283A0146A3
:100810001CE005F5E070024600E092687AB31368C8
:1008200057681F44B942F8D1137B1F0727D4AB691F
:100830001768BB4223D3D2F804C06744BB421ED220
:10084000A444C2F804C0E868A96922182846FFF742
:10085000C9FC1FE08068C0B103689342FAD1027BF3
:10086000130712D4026801604368E41844604346E9
:100870002846BDE8F041D0E40020BDE8F0812A69B7
:10088000914238BF29610A19E5E70023224628462C
:10089000FFF766FEE8688045EED2A0EB0800A96984
:1008A000E86001EB0802AA6140F00100506048F0E6
:1008B0000300486001F10800BDE8F08130B4184B36
:1008C0001A6882B94FF480525A604FF480344FF066
:1008D000FF32DA601A610422124D9C605A61C5F839
:1008E000BC21114A1A6011F1400F17D28269AAB1D6
:1008F000C368283199420BD200F5E0710C68A2421E
:1009000003D34D682C44A24202D389680029F5D153
:10091000C16999423CBF4FF0FF32C26100F0A8BEEE
:10092000A0650020BC6000206859883C2DE9F84F84
:1009300000258946090AC9F1000B08BF002323D00E
:10094000B1F5803F28BF1F231ED2A1F58072120C83
:1009500002F008029140A1F580531B0C03F0040340
:100960009940A1F58044240CC2F10E0204F0020467
:10097000D21A121BA14002EBD132D11D29FA01F388
:1009800003F0010303EB4203074607F5987858F894
:10099000230030B31F2B0FBF4C465C08C4F1190471
:1009A00009FA04F4AC46594600E064004268D208F3
:1009B000D200A2EB09028A4203D21100054600F0E0
:1009C0006981426910304FEAD47B50F82B00002A2D
:1009D0001CBF824294460028E7D18B466046B0BBDC
:1009E000BDBB012202FA03F35B005842796803435E
:1009F0000B4000F04E81584203405B1E180B00F084
:100A00001000C340590901F00801CB409A0802F0D8
:100A10000402D3405C0804F002040818E3401018F4
:100A2000C3F3400620183044F3401B1858F8230045
:100A30000DE008464168C908C900A1EB0901594504
:100A40003CBF8B46054601690029F2D14069002868
:100A5000F0D1002D00F01D81B868A0EB090083459E
:100A600080F0178139698D42C0F011816868C00833
:100A7000C00009EB0B01884218BF00F0FDFD05EB3B
:100A80000906B54280F00381EC68D5F818A0AC42A5
:100A90000CD0A8683969884223D3C268AA4204BF2F
:100AA000A168A9421DD1C460A0601CE005F1140139
:100AB0000C6834B905F110010C68A4B101E01146CD
:100AC0000C6804F114021068002802BF04F110023F
:100AD00010680028F3D13869814202D300220A60ED
:100AE00001E000F0C9FDBAF1000F36D0E86908EB6B
:100AF000800001688D4209D10460200014D1E869AA
:100B00007968012282409143796026E03869824504
:100B100008D3DAF81010A94214BFCAF81440CAF872
:100B2000104001E000F0A8FDBCB13869844212D346
:100B3000C4F818A0286930B13969884226BF2061FD
:100B4000846100F099FD686938B13969884202D33F
:100B50006061846101E000F08FFDBBF1100F0CD2E9
:100B6000D94449F00300291D6860281D51F8092067
:100B700042F0010240F8092088E049F00300686073
:100B80004BF0010070604FEADB0046F80BB01F2805
:100B90001DD807EBC00101F12804396821FA00F2E1
:100BA000D307A34605D4012202FA00F008433860B7
:100BB00006E0A068396988422CBF834600F05CFDDE
:100BC000A660CBF80C60C6F808B0F4605EE05FEA9F
:100BD0001B2008BF002123D0B0F5803F28BF1F2174
:100BE0001ED2A0F58072120C02F008029040A0F50F
:100BF0008051090C01F004018840A0F580431B0CD2
:100C0000C2F10E0203F00203521AD21A984002EB0C
:100C1000D032D01D2BFA00F101F0010101EB4201AD
:100C2000F16100227261326108EB81007A6822FA78
:100C300001F4E30707D4012404FA01F111437960B8
:100C40000660B0611DE002681F291DBF4908C1F19F
:100C500019010BFA01F1594600E002465068C0083C
:100C6000C000584518D002F11003C80F03EB8003F1
:100C7000490018680028F0D13869834204D31E6007
:100C8000B261F660B66001E000F0F6FC14E100F03D
:100C9000F3FC0EE18B46A2E6396990688A4228BFD0
:100CA0008842F1D3C6609660B060F2600020B06107
:100CB000ECE72DE9F84F0646884671684842014046
:100CC000491E080B00F01000C1404A0902F008025A
:100CD000D1408B0803F00403D9404D0805F002050C
:100CE0001018E9401818C1F34004281806F5987A3E
:100CF0002044E14009185AF821104868C008C00093
:100D00000D46A0EB080909E001464868C008C0008C
:100D1000A0EB080048453CBF81460D460869002805
:100D2000F2D149690029F0D130698542C0F0BF8015
:100D30006968C90808EB090BC900594518BF00F0DC
:100D40009BFC05EB08008542009080F0B080EF68C6
:100D5000AC69AF420CD0A8683169884223D3C2681D
:100D6000AA4204BFB968A9421DD1C760B8601CE09F
:100D700005F114010F6837B905F110010F68A7B12B
:100D800001E011460F6807F114021068002802BF45
:100D900007F1100210680028F3D13069814202D3B4
:100DA00000220A6001E000F067FC002C31D0E86905
:100DB0000AEB800001688D4208D107608FB9E869AD
:100DC0007168012282409143716022E0306984425F
:100DD00005D32169A94214BF6761276101E000F0D2
:100DE0004BFCB7B13069874211D3BC61286930B17F
:100DF0003169884226BF3861876100F03DFC68692F
:100E000038B13169884202D37861876101E000F02E
:100E100033FCB9F1100F0BD24BF00300291D6860B1
:100E2000281D51F80B2042F0010240F80B203DE054
:100E300048F003012A1D696049F0010042F80800EA
:100E4000009941F80990D6F808804FEAD80BBBF119
:100E5000200F28BF00F010FCB8F1000F22D006EBE5
:100E6000CB00776900F12804A246B8F1100F38BF13
:100E700000F002FC306820FA0BF1CA0705D401210A
:100E800001FA0BF10843306006E0A068316988423E
:100E90002CBF824600F0F0FBA760CAF80C70C7F8C0
:100EA00008A0FC60C6F808900098706104E000F0AB
:100EB000E3FB0020BDE8F28F05F10800BDE8F28FEA
:100EC0002DE9FE4F0546AFF30080F52DDFF89C6756
:100ED00080F004810B2D31BF10250B35ED08ED009E
:100EE0003068EC08E04010F0030F46D0C04300F03B
:100EF0000100041906F1280000EBC408E700D8F847
:100F000008506868C008C000B84218BF00F0B4FBC1
:100F1000D5F80890454508BF00F0AEFB4D4508BF29
:100F200000F0AAFB6868C008C000B84218BF00F013
:100F3000A3FBC84507D13068012101FA04F420EA77
:100F4000040434600DE03069814508D3D9F80C10F1
:100F5000A94204D1C8F80890C9F80C8001E000F05B
:100F60008BFB47F00300291D6860281DCA5942F019
:100F70000102C25105F10804F8E0B168A94280F00D
:100F8000BE80002800F0A1804FF0010808FA04F1AB
:100F9000490000FA04F4484201430C406042044016
:100FA000641E200B00F01000C440610901F008012C
:100FB000CC40A20802F00402D440630803F002030C
:100FC0000818DC401018C4F3400718183818FC4003
:100FD000241806F1280000EBC40AE700DAF80890AC
:100FE000D9F80400C008C000B84218BF00F044FBA4
:100FF000D9F808B0D14508BF00F03EFBD94508BF7D
:1010000000F03AFBD9F80400C008C000B84218BF8D
:1010100000F032FBDA4506D1306808FA04F420EA21
:10102000040434600DE031698B4508D3DBF80C0013
:10103000484504D1CAF808B0CBF80CA001E000F094
:101040001BFB7F1B45F0030009F10402C9F80400F3
:1010500047F00101515109EB05020192D751B468E3
:101060004FEAD40ABAF1200F28BF00F005FB34B3D1
:10107000CDF800A006F12800756900EBCA0AD34636
:10108000102C38BF00F0F8FA3168009821FA00F20D
:10109000D30704D408FA00F00843306007E0DAF818
:1010A0000800316988422CBF834600F0E5FACAF88F
:1010B0000850CBF80C50C5F808B0C5F80CA0B760C4
:1010C00009F108040198706150E07068C0B32946C6
:1010D0003046FFF7EEFD040011D047E015F1400F58
:1010E00028BF4FF0FF350AD20B35ED087068ED00D0
:1010F00028B129463046FFF719FC040036D1B06804
:10110000A8421DD3411B726910290AD3501970617E
:10111000B16041F001034360415045F00305556063
:101120000BE00021B1607161131D40F003015160BB
:10113000111D1C5844F001040C5002F1080415E084
:10114000F06885420DD2401BB169F0604A19B26166
:1011500040F00100506045F003054D6001F10804C6
:1011600004E029463046FFF7F7FA0446AFF3008063
:101170002046FFF7EEBA002800D170472DE9F0476E
:10118000A0F10805AFF30080DFF8E06431698D421B
:10119000C0F05982686800F00302012A00F053820F
:1011A000C2084FEAC209C20705EB090839D42C6806
:1011B00010F0030F00F04982604205448D42A144C3
:1011C000C0F041827069854200F0C680E408202C9E
:1011D0005ED2D5F80CA0AF68554508BF00F04CFAB8
:1011E000BD4208BF00F048FA6868C008C000B0EB14
:1011F000C40F18BF00F040FA06F1280000EBC4004D
:10120000874205D031698F423FD3FA68AA423CD168
:10121000BA452CD13068012101FA04F420EA040413
:101220003460454580F00F82D8F80440E00740F173
:101230000A82A10700F16881B069804540F09F8073
:10124000F168B5618944C6F80C9049F00100686006
:1012500071698D4202D100207061B060F06948452B
:1012600080F0F38100213046FFF728FBEDE1824555
:1012700006D03069824508D3DAF80810A94204D1B3
:10128000C7F80CA0CAF80870CBE700F0F5F9C8E77A
:10129000EC68AF69AC420BD0A868884222D3C16821
:1012A000A94204BFA268AA421CD1C460A0601BE08E
:1012B00005F11402146834B905F1100214689CB1E8
:1012C00001E01A46146804F114031868002802BFEC
:1012D00004F1100318680028F3D18A4202D30021D8
:1012E000116001E000F0C8F9002F9AD0E96906F515
:1012F000987000EB81000268954209D104602000DB
:1013000011D1E8697168012282409143716088E7D8
:101310003069874205D33969A94214BF7C613C61B9
:1013200001E000F0A9F9002C3FF47BAF31698C4259
:10133000ABD3A761286928B1884226BF20618461A8
:1013400000F09AF9686900283FF46BAF3169884270
:101350009BD36061846164E798F8040000F00300A7
:1013600003287FF45EAFC6F8089049F00101D8F871
:10137000040040084000C8F8040069600AE0706991
:1013800080450AD1B16875618944C6F8089049F072
:101390000100686045F8099057E1E408E400A144C1
:1013A000E408202C3AD2D8F80CA0D8F80870D04520
:1013B00008BF00F061F9B84508BF00F05DF9D8F842
:1013C0000400C008C000B0EBC40F18BF00F054F90F
:1013D00006F1280000EBC400874207D031698F4234
:1013E000C0F08580FA68424540F08180BA4507D157
:1013F0003068012101FA04F420EA0404346078E042
:10140000824506D03069824571D3DAF8081041452B
:101410006DD1C7F80CA0CAF808706AE0D8F80C4083
:10142000D8F8187044450DD0D8F8080031698842C2
:1014300023D3C268424504BFA16841451DD1C460A1
:10144000A0601CE008F114010C6834B908F1100127
:101450000C68A4B101E011460C6804F11402106894
:10146000002802BF04F1100210680028F3D130698F
:10147000814202D300220A6001E000F0FDF8002F53
:1014800037D0D8F81C1006F5987000EB8100026880
:1014900090450AD10460200012D1D8F81C00716870
:1014A000012282409143716023E03069874205D375
:1014B0003969414514BF7C613C6101E000F0DCF812
:1014C000BCB131698C4212D3A761D8F8100028B1A1
:1014D000884226BF2061846100F0CEF8D8F814005D
:1014E00038B13169884202D36061846101E000F063
:1014F000C3F849F00100686045F8099071698D42B0
:101500000BD1C6F80890A0E064086400C8F8044055
:1015100049F00100686045F809904FEAD907202F8B
:1015200022D206F1280000EBC704A046B9F1100F43
:1015300038BF00F0A1F8306820FA07F1CA0705D4D7
:10154000012101FA07F70743376006E0A068316917
:1015500088422CBF804600F08FF8A560C8F80C5078
:10156000C5F80880EC6070E05FEA192008BF002130
:1015700023D0B0F5803F28BF1F211ED2A0F5807276
:10158000120C02F008029040A0F58051090C01F005
:1015900004018840A0F580431B0CC2F10E0203F049
:1015A0000203521AD21A984002EBD032D01D29FA07
:1015B00000F101F0010101EB420106F598720023F0
:1015C00002EB8100E9616B612B61726822FA01F321
:1015D000DC0707D4012303FA01F1114371600560B0
:1015E000A8611DE002681F291DBF4908C1F119014A
:1015F00009FA01F1494600E002465068C008C000FF
:10160000484526D002F11003C80F03EB80034900C0
:1016100018680028F0D13069834204D31D60AA61A4
:10162000ED60AD6001E000F027F8306A401E3062E6
:101630000BD1D6F8C80100E080680028FCD14FF03B
:10164000FF30306201E000F017F8AFF30080BDE832
:10165000F087316990688A4228BF8842E3D3C56029
:101660009560A860EA600020A861DEE7BC60002009
:1016700030BC002070470000012000F053B8F0B4E7
:101680000246106895681318506803EB5004C007B1
:101690001DD54D441BE013F8017B05F8017B491E65
:1016A000F9D1A0B1B60813F8011B06F00306032E0A
:1016B00008BF13F8016B01EB06214942801C294445
:1016C00005D011F8016B05F8016B401EF9D1A3425A
:1016D0000ED013F8016B16F0030104BF13F8011BC1
:1016E000C91C30090F28DAD113F8010B0F30D6E7E7
:1016F000F0BC02F10C0070470749086808B10020EF
:1017000070470648C008C00008600549C908C900FC
:10171000091A0160704700BF046700201787002086
:1017200010A700202021090326311820ABBEF9E7BD
:101730000EB418B504000898012817D1A06B30F436
:101740008030A063E168DFF828090140E160E068CB
:1017500030F44010E0600F98012803D1E06850F4A5
:101760008010E060200000F01AFF12E0E06850F006
:101770004000E060200000F012FF0C99002904D125
:10178000A16B51F48031A16303E0A16B31F480318E
:10179000A1630699012907D1A16851F00601A16052
:1017A000A16851F02001A160C0B212BC5DF810FB2D
:1017B0001300DBB2022B52D1DFF8B8288A1ADFF807
:1017C000B8389A4201D20F214FE0DFF8B0288A1AC8
:1017D000DFF8AC389A4201D20E2146E0DFF8A428A7
:1017E0008A1ADFF8A4389A4201D20D213DE0DFF8D1
:1017F0009C288A1ADFF898389A4201D20C2134E0EA
:10180000DFF890288A1ADFF890389A4201D20B212B
:101810002BE0DFF888288A1ADFF884389A4201D250
:101820000A2122E0DFF87C288A1ADFF87C389A4205
:1018300001D2092119E0DFF874288A1ADFF870381C
:101840009A4201D2082110E0DFF86828891ADFF8EF
:101850006828914201D2072107E0062105E0D2B2B3
:10186000002A01D1092100E00921C26832F4705236
:10187000C260C268890211F470511143C160002036
:101880007047816851F001018160002070478168D4
:101890004908490081600020704780B5C26832F075
:1018A000C042C2600A00D2B2012A08D1C16851F018
:1018B0000051C160322000F099FE002002BDC9B283
:1018C000002904D1C16851F08041C160F2E70120D4
:1018D000F4E70EB478B5040000252600002005E0EA
:1018E000002104EB8002C2F80411401C0F28F7D33A
:1018F0000F98002814D116F50060406850F00200DF
:1019000016F500614860A06B50F40010A063A06B56
:1019100030F40020A063A06B30F48020A06307E0C7
:10192000A06B30F40010A063A06B50F40020A06303
:10193000002016F56061086016F50060006816F575
:10194000006108600A9801280CD10798002804D18A
:101950000021200000F0D5F808E00121200000F06F
:10196000D0F803E00321200000F0CBF81021200084
:1019700000F0A7F8002800D00125200000F0B2F800
:10198000002800D00125002016F500610861002024
:1019900016F500614861002016F50061C86100205D
:1019A0001BE0002116EB401212F51062116006E0F8
:1019B0005FF0904116EB401212F51062116016EBC9
:1019C000401111F5106100220A6116EB401111F56A
:1019D00010614FF67F328A60401C0599884210D210
:1019E00016EB401111F5106109680029D9D50028BE
:1019F000DED15FF0006116EB401212F5106211604B
:101A0000DDE700201BE0002116EB401212F53062EA
:101A1000116006E05FF0904116EB401212F5306263
:101A2000116016EB401111F5306100220A6116EBCE
:101A3000401111F530614FF67F328A60401C0599E4
:101A4000884210D216EB401111F530610968002967
:101A5000D9D50028DED15FF0006116EB401212F5F7
:101A600030621160DDE716F50060006930F48070C7
:101A700016F5006630610020A0617FF08040606153
:101A80000898002803D1A06950F01000A061A16956
:101A9000DFF8400B0143A1610B98002803D0A06937
:101AA00050F00800A0610F98012805D1A06940F00E
:101AB000804050F00400A0612800C0B272BC5DF804
:101AC00010FB0022890151F020010161521CDFF856
:101AD000081B8A4204D201698906F7D400207047A6
:101AE0000320FCE7002110220261491CDFF8E82AEC
:101AF000914204D20269D206F7D400207047032035
:101B0000FCE710F500621268C9B2114310F50060DD
:101B100001600020704710F50060806810F006003A
:101B2000002801D1002006E0022801D0062801D1BA
:101B3000022000E00F20C0B2704730B40A784B7822
:101B4000012B2BD110F50063DB6901240D7815F012
:101B50000F05AC40A4B2234310F50064E36110EB21
:101B6000421313F510631B681B0440D410EB42139F
:101B700013F510631B688C686405640DC97854EA1A
:101B8000814454EA825444F0805454F40044234382
:101B900010EB421010F51060036028E010F50063B0
:101BA000DB6901240D7815F00F05AC4053EA0443BE
:101BB00010F50064E36110EB421313F530631B680A
:101BC0001B0414D410EB421313F530631B688C68AC
:101BD0006405640DC97854EA814444F0805454F497
:101BE0000044234310EB421010F5306003600020E6
:101BF00030BC704730B40A784B78012B47D110EBDA
:101C0000421313F510631B68002B17D510EB42131A
:101C100013F510631B6853F0006310EB421414F5C6
:101C20001064236010EB421313F510631B6853F02C
:101C3000804310EB421414F510642360012310F567
:101C40000064E46B0D7815F00F0513FA05F5ADB2DD
:101C5000AC4310F50065EC6310F50064E4690978A5
:101C600011F00F018B409BB234EA030310F50061C1
:101C7000CB6110EB421111F510610B68DFF85C19B4
:101C80000B4010EB421010F51060036045E010EBC4
:101C9000421313F530631B68002B17D510EB42136A
:101CA00013F530631B6853F0006310EB421414F516
:101CB0003064236010EB421313F530631B6853F05C
:101CC000804310EB421414F530642360012310F5B7
:101CD0000064E46B0D7815F00F0513FA05F534EA8E
:101CE000054410F50065EC6310F50064E4690978BB
:101CF00011F00F018B4034EA034410F50061CC6110
:101D000010EB421111F530610B68DFF8D4180B406D
:101D100010EB421010F530600360002030BC7047BB
:101D2000F8B504000D784B78012B40F005814B6924
:101D3000002B24D114EB451313F5106314EB451657
:101D400016F5106636696FF3DC461E6114EB451319
:101D500013F5106314EB451616F51066366956F444
:101D600000261E6114EB451313F5106314EB4516A2
:101D700016F510663669F60CF6041E615AE014EB8F
:101D8000451313F5106314EB451616F51066366906
:101D9000F60CF6041E6114EB451313F5106314EBF7
:101DA000451616F5106636696FF3DC461E6114EBB6
:101DB000451616F5106614EB451313F510631F69ED
:101DC000D1F814C08B6813EB0C0CBCF1010C8B68C0
:101DD000BCFBF3F3DFF80CC81CEAC34C5CEA070752
:101DE000376114EB451313F5106314EB451616F524
:101DF000106636694F697F037F0B3E431E61CB78C7
:101E0000012B17D114EB451313F5106314EB451692
:101E100016F51066366936F0C0461E6114EB4513A0
:101E200013F5106314EB451616F51066366956F077
:101E300000561E611300DBB2012B36D10869002861
:101E400005D014EB451010F510600A694261C8789E
:101E500001281DD114F500608068C0050CD414EB76
:101E6000451010F51060006850F0005014EB45115B
:101E700011F5106108600BE014EB451010F51060CF
:101E8000006850F0805014EB451111F510610860A6
:101E900014EB451010F51060006850F0044014EB8E
:101EA000451414F510642060DFE014EB451313F5BE
:101EB00010631B6853F0044314EB451616F51066C7
:101EC0003360CB78012B10D04869002800F0CD801A
:101ED00014F50060406B0122097811F00F018A406F
:101EE000104314F500646063BFE014F500639B6861
:101EF000DB050CD414EB451313F510631B6853F08A
:101F0000005314EB451414F5106423600BE014EB3C
:101F1000451313F510631B6853F0805314EB4514FD
:101F200014F510642360D2B200924B699BB20A7818
:101F3000C96800F0B1F998E014EB451010F5306075
:101F400014EB451313F530631B69DB0CDB040361F1
:101F500014EB451010F5306014EB451313F53063A6
:101F60001B696FF3DC430361486900281AD114EB45
:101F7000451010F5306014EB451313F530631B6901
:101F80008E687603760B3343036114EB451010F52E
:101F9000306014EB451313F530631B6953F40023D1
:101FA000036129E04B698868C3185B1E8868B3FB2E
:101FB000F0F014EB451313F5306314EB451616F5EA
:101FC000306636690700BFB2DFF818C61CEAC74C96
:101FD0005CEA06061E6114EB451313F5306314EB3F
:101FE000451616F5306636698F6880B200FB07F03B
:101FF0004003400B30431861D2B2012A08D1C868AF
:10200000002805D014EB451010F53060CA68426115
:10201000C87801281DD114F500608068C0050CD473
:1020200014EB451010F53060006850F0005014EBD0
:10203000451111F5306108600BE014EB451010F507
:102040003060006850F0805014EB451111F530619C
:10205000086014EB451010F53060006850F0044043
:1020600014EB451414F5306420600020F2BD00002C
:10207000BFFFBDFFC0ACD80000350C00C0E1E400DC
:1020800040420F000024F400804F120080730601CC
:1020900020D61300A0491A0160E31600002D31017B
:1020A00040771B0040A44C01C091210000366E0116
:1020B0002075380020ABA601E09C410070B40B00F5
:1020C0001C785978012940F095805969002924D15C
:1020D00010EB441111F5106110EB441515F5106566
:1020E0002D696FF3DC450D6110EB441111F51061A2
:1020F00010EB441515F510652D6955F400250D619B
:1021000010EB441111F5106110EB441515F5106535
:102110002D69ED0CED040D6137E010EB441111F564
:10212000106110EB441515F510652D69ED0CED04EB
:102130000D6110EB441111F5106110EB441515F50C
:1021400010652D696FF3DC450D6199685D69A942E1
:1021500001D29968596110EB441111F5106110EB2F
:10216000441515F510652D6955F400250D6110EB2A
:10217000441111F5106110EB441515F510652D692A
:102180005E697603760B35430D61D2B2012A15D113
:102190001969002905D010EB441111F510611A6975
:1021A0004A6110EB441111F51061096851F00441C6
:1021B00010EB441010F5106001606AE010EB441160
:1021C00011F51061096851F0044110EB441212F549
:1021D00010621160596900295BD010F50061496BEC
:1021E00001221B7813F00F039A40114310F5006091
:1021F00041634EE010EB441111F5306110EB4415D2
:1022000015F530652D69ED0CED040D6110EB4411F1
:1022100011F5306110EB441515F530652D696FF33C
:10222000DC450D615969002901D09968596110EBAD
:10223000441111F5306110EB441515F530652D6929
:1022400055F400250D6110EB441111F5306110EBD0
:10225000441515F530652D699E687603760B354378
:102260000D61D2B2012A08D1D968002905D010EB3E
:10227000441111F53061DA684A6110EB441111F52F
:102280003061096851F0044110EB441010F53060E2
:102290000160002070BC7047F0B4049CE4B2002CD4
:1022A00013D19BB2DB1C9B0800250CE00C002668B8
:1022B0001700FFB24FF4805404FB070717F580574F
:1022C0003E60091D6D1C9D42F0D30020F0BC70479C
:1022D00030B492B2D21C9208002306E010F580546C
:1022E00024680D002C60091D5B1C9342F6D3080086
:1022F00030BC7047020008784978012921D112EBDF
:10230000401111F51061096800290DD400280BD087
:1023100012EB401111F51061096831F0804112EBA8
:10232000401313F51063196012EB401111F51061A1
:10233000096851F4001112EB401212F5106211609D
:1023400020E012EB401111F53061096800290DD42D
:1023500000280BD012EB401111F53061096831F003
:10236000804112EB401313F53063196012EB4011FA
:1023700011F53061096851F4001112EB401212F5A9
:10238000306211600020704710B40A784B78012B3E
:102390001ED110EB421313F510631B6833F40013C6
:1023A00010EB421414F510642360CB78032B02D099
:1023B000C97802292AD110EB421111F51061096880
:1023C00051F0805110EB421010F5106001601DE0DB
:1023D00010EB421313F530631B6833F4001310EB5A
:1023E000421414F530642360CB78032B02D0C978F3
:1023F00002290BD110EB421111F53061096851F03F
:10240000805110EB421010F530600160002010BCCC
:10241000704710F50062126832F4FE6210F5006336
:102420001A6010F500621268C9B2090111F4FE6168
:10243000114310F5006001600020704710F56061E5
:1024400009688908890010F56062116010F5006163
:10245000496831F0020110F50060416000207047CA
:1024600010F5606109688908890010F560621160E3
:1024700010F50061496851F0020110F500604160FB
:1024800000207047010048698969084070470100D1
:1024900011F50060806911F50061C9690840000C00
:1024A0007047010011F50060806911F50061C9698C
:1024B000084080B270470200C9B212EB411010F51B
:1024C0003060806812F5006251690840704710B4AE
:1024D00010F50062126910F500635B6B11F00F04D8
:1024E000E340DB0113F080031A43C9B210EB411043
:1024F00010F510608068104010BC7047406910F003
:102500000100704710F510610968C90AC90210F589
:102510001062116010F50061496851F4807110F586
:10252000006041600020704710B40300006CDFF8C9
:10253000B840A04206D313F530600068002801D5EA
:1025400000202AE0002013F53064206113F530608C
:10255000006950F4002013F53064206113F53060F9
:10256000006950F0180013F53064206113F53060F5
:10257000006950F0C04013F530642061C9B20129F0
:102580000AD113F53060426113F53060006850F0F5
:10259000802013F530631860002010BC70470021C4
:1025A000491C0D4A91420FD20369002BF8D5002136
:1025B000036953F001030361491C914206D2036988
:1025C000DB07F9D4002070470320FCE70320FAE77B
:1025D0000000000000383C80410D0300007833EC1F
:1025E0000078F3EF0000F81F0B30544F38B50400AB
:1025F00000F010F8050014F1010F02D00448007833
:10260000241800F007F8401BA042FAD331BD00BFE8
:102610008101002001480068704700BFAC660020BF
:102620002DE9F0439FB000BF65A6269CDFF8E88A3D
:102630008DF83B40029100240B944FF0FF37044685
:1026400091461D460AE019F8011B0298A047002890
:10265000029000F0A1800B98401C0B9099F80000AC
:1026600050B12528EFD10021002205910692079153
:10267000089209910A9203E00B98A5E041F001014C
:1026800019F8010F2028F9D023280CD02B2804D0CA
:102690002D2805D0302809D080E041F00201EFE775
:1026A00041F00401ECE741F00801E9E741F01001D5
:1026B000E6E70D920AE00D98404505DA00EB800050
:1026C00002EB4002303A0D9209F1010999F800201D
:1026D000A2F130000A28EED399F800002E2818BF86
:1026E0000C9726D119F8010F2A2808D128682860EC
:1026F00009F1010950F8042B28600C9219E02D28EB
:102700000CBF09F10109002000220C920BE040B936
:102710000C9A424505DA02EB820203EB4203303B9E
:102720000C9309F1010999F80030A3F130020A2A4B
:10273000EDD3ADF83810304699F8001000F0A0FE47
:1027400008B119F8010B8DF83A009DF83A00682895
:1027500005D199F8000068280CD1622106E06C28A8
:1027600004BF99F800006C2804D171218DF83A104B
:1027700009F1010910A804902A4619F8013B69469D
:10278000204600F061F838B910AA6946204600F0EA
:1027900091F900287FF562AF384615E02A2888D1E4
:1027A0002A682A6052F8040B2A6000280D9003D58D
:1027B00040420D9041F0040109F101098CE700004D
:1027C000686A6C747A4C00001FB0BDE8F083622820
:1027D00020D0682811D06A2803D06C2827D071280F
:1027E00025D10868C01D20F007000860D0E900234B
:1027F00008300860194610467047002A0A680A60C7
:10280000106803D0121D0A6000B217E0121D0A60A2
:1028100080B217E0002A0A680A60106803D0121D0F
:102820000A6040B20AE0121D0A60C0B20AE0002A43
:102830000A680A60106803D0121D0A60C117704749
:10284000121D0A600021704770B51C460D46B4F198
:1028500025002E69114600F01B811C386AD0001F2C
:10286000022867D9133843D0093863D0801E16D0A8
:10287000401E1ED0401E02285CD9001F19D0401FE8
:1028800000F08380401E33D0401E00F0CD80C01E7B
:1028900000F0DC80801E2BD0C01E29D0FEE06869CD
:1028A000421C6A610A680A6052F8043B0A603354A9
:1028B000FEE095F83A000122FFF789FFC5E9000123
:1028C0000023994204DA6869411C69612D220DE0F8
:1028D000288F810704D56869411C69612B2205E0B6
:1028E000C00722D56869411C6961202232541CE06E
:1028F00095F83A000022FFF76AFFC5E9000195F854
:102900003800010711D5D5E900230020834208BF14
:1029100082420AD044F02000782806D1686930212C
:102920003154401C421C6A61345421466869304469
:10293000E86087E00868C01D20F007000860D0E963
:10294000002308300860C5E90023D5E90001C80F5D
:1029500004D06869411C69612D220DE0288F810730
:1029600004D56869411C69612B2205E0C00704D5C4
:102970006869411C69612022325468693044E8600A
:102980002146284600F0C8F992E005F13A02507855
:1029900020B14FF0FF340FF6502062E0107862282B
:1029A00008D0682824D06A2812D06C282ED071282C
:1029B0000ED02BE00A680A6052F8040B0A6020B9B6
:1029C0004FF0FF340FF638204BE0E96A01706FE0FA
:1029D0000A680A6052F8040B0A6020B94FF0FF340D
:1029E0000FF61C203DE0EA6AD317C0E900235FE040
:1029F0000A680A6052F8040B0A6020B94FF0FF34ED
:102A00000FF6FC102DE0E96A018051E00A680A60C7
:102A100052F8040B0A6020B94FF0FF340FF6E010B3
:102A20001FE0E96A016043E00A680A6052F8040B9B
:102A30000A60002120F0000221F0FF33C5E90023E5
:102A4000EE607821284600F0BBF831E008680860A5
:102A500050F8044B0860EC603CB94FF0FF340FF6BF
:102A6000B81000F019FD201A70BD2E6B002E04D591
:102A7000204600F031FD044608E0324600212046A1
:102A800000F046FD002814BF041B3446AC610FE083
:102A90006869411C69612522325409E06969481C52
:102AA000686125227254210002D0431C6B613454AA
:102AB000002070BD2DE9FC410F46064690467A6B1A
:102AC0007869396ABC6A121AB869521A796A121A94
:102AD000F869521A121A97F83800141B41070FD4DC
:102AE0002020002C8DF800000ADD254601236A46CF
:102AF0003946304600F060FC00285DD16D1EF5D1EE
:102B00007B6942463946304600F056FC002853D1D6
:102B100030208DF800003D6A002D09DD01236A4652
:102B20003946304600F048FC002845D16D1EF5D1ED
:102B3000BB69FA683946304600F03EFC00283BD1BC
:102B400030208DF800007D6A002D08DD01236A46E3
:102B50003946304600F030FC70BB6D1EF6D1F86887
:102B6000B969FB6942183946304600F025FC18BBAC
:102B700030208DF80000BD6A002D08DD01236A4673
:102B80003946304600F018FCB0B96D1EF6D197F802
:102B9000380041070DD52020002C8DF8000008DDFD
:102BA00001236A463946304600F006FC20B9641E0F
:102BB000F6D10020BDE8F6814FF0FF30BDE8F68188
:102BC0002DE9FC4707468C463E69BCF16F0F08BFF4
:102BD000082405D04CF02000782814BF0A241024C3
:102BE0003C25D7E90023BCF1640F18BFBCF1690F85
:102BF0009046994606D100218B4203DAD8F10008AD
:102C000069EB49094FF0000AD14508BFD0451FD1F3
:102C1000386BE8B9082C4BD197F83800010747D535
:102C200030203B2586F83B0042E000280ED597F87F
:102C3000380000F01400102808D17B6B7969386ADD
:102C40005B1A1B1A9A1A002AC8BF3A62BDE8F387BA
:102C50008DF800C0404649462246E31700F084FC48
:102C60003032D0B26D1E3A28019504DB9DF8000089
:102C7000A0F151018A187255404649462246E31791
:102C800000F072FC89468046D14508BFD04503D08C
:102C9000F86871198842DDD3082C09D197F83800FB
:102CA000010705D5705D302802D06D1E30207055AB
:102CB000C5F13C02BA617119F960386B8242B4DA2D
:102CC000821A3A624FF6EF70398F01403987BDE8BA
:102CD000F3872DE9D04306460F4614464FF000080F
:102CE000DFF8389412E0E00707D542464B463046FD
:102CF000394600F051FD06460F46404649464246D9
:102D00004B4600F049FD641080468946002CEAD10C
:102D100030463946BDE8D0832DE9F34F054641F0F2
:102D200020048DB0D5E90089612C02AE09D0286B52
:102D3000002848BF062003D408BF672C01D101201A
:102D40002863D5E9002358004015401C0ED1190313
:102D50000CD00320A8619DF8381061391A2902D2DD
:102D60000FF2D06111E00FF2D0610EE05900491569
:102D7000491C0FD118030DD10320A8619DF838100C
:102D800061391A2914D30FF2B861E868032200F000
:102D9000D5FDD3E1194621F00043B3F5801F10465D
:102DA0000DD20027BB4208BFBA42019703D111E000
:102DB0000FF28861E9E701AA00F014FE0AE0DFF8EB
:102DC000607307EB1352DFF85C3301921940DFF8B0
:102DD00058331943C5E90001612C0ED1E868302150
:102DE0000170821CEA609DF8381061290CBF7821BF
:102DF000582141706869801C6861D5E900AB2BF0EF
:102E0000004300202AF00002834204BF82420023D4
:102E100000F05B81612C40F0AA80286B002847BF3E
:102E200021210091401C0090009F7F1C4046494694
:102E30000022002300F00EFED94601998DF80820EB
:102E400038BF89F00049091F002FD04601910DF1CC
:102E5000090040F34981B349DFF8D0B20C9106462E
:102E6000404649460022002300F00CFE80F03B81E2
:102E70004800400D00F11C0211D0002A0FDD40F285
:102E8000FF70824205DB09F0004040EA0B010020A0
:102E900013E00C98014041EA025140460DE029F050
:102EA0000043002028F00002834208BF82420FBF87
:102EB00040461C22404600F0FDFD8046894600F059
:102EC00097FEFF1F002F044609DD00F0AFFE02460B
:102ED0000B464046494600F0BBFE80468946F01D41
:102EE000072104E004F00F0200F8012D2411002C4A
:102EF00001DD491EF6D5491E5CBF002200F8012DF8
:102F0000F9D5ECE00020194602AA0A4400E05B1E55
:102F100012F80149491E8442F9D00F2804D10DF15D
:102F20000900425C521C4254002904D50198001D3E
:102F300002AE5B1C0190591E12D49DF83800721825
:102F4000A0F13A07147804F130085FFA88F43A2CBB
:102F5000A8BFB844491E02F80189F3D58DF838009E
:102F6000286B002840F1B080591E2963ACE0404630
:102F700049460022002300F06DFD019938BF89F019
:102F8000004947F297504143694A91FBF2F201929E
:102F9000D2F1070204DD40464946FFF79AFE0AE0F7
:102FA000524200206349FFF794FE02460B4640461A
:102FB000494600F0BFFE8046662C286BDFF878B1EA
:102FC00006BF019F0A3706273F18142FC8BF1427D2
:102FD00030208DF8080089460DF1090000E03046E8
:102FE000002F34DD06464046494600F0C7FF014643
:102FF0000A4606F1080304200A26B2FBF6F606EBA1
:10300000860EA2EB4E02303203F8012C0A22B6FBE8
:10301000F2F202EB820EA6EB4E063036401E03F8AB
:10302000026DE9D1083F002F03F10806D7DD0846FD
:1030300000F0B8FF02460B464046494600F008FE45
:1030400000225B4600F0A8FB80468946CBE70DF1E5
:103050000901401A0DF1090604E00199491E401EBC
:103060000191761C31783029F7D0662C02D1019974
:10307000491C03E0652C0CBF012100212B6BCB18F0
:103080009842B8BF431E002B1ED4834204DAF05C82
:103090003528A8BF392000DA30201946721E02EB0D
:1030A000010800E05B1E18F80199491E8145F9D01E
:1030B000392802D1705C401C7054002904D5019855
:1030C000401C16465B1C0190019800B200901BB298
:1030D0009DF838103246284600F034F82EE0C61D20
:1030E000002F3FF7BDAE30460DF10901401A00999F
:1030F00003468842C8BF0B46002B0DF109063FF579
:103100002FAF8342BFF6FEAE0DF10900C15C072967
:103110007FF7F8AE0F20F6E6CBCCCC0C00002440B5
:1031200002FCFFFFFFFF0F800000E03F0000F07F88
:10313000A08601000000F03F84D797410FB0BDE8A2
:10314000F08F00002DE9FC43054683B01F46D5F8FB
:103150003080002F164602DC5FF00107B9A68946D1
:1031600049F02000BDF93040662808BF641C17D024
:10317000672840F0888014F1040FC0F28A8044452B
:1031800080F2878095F83800641C010702D4474517
:10319000B8BFB84620B2B8EB000848BF4FF00008EF
:1031A0000FFA84F9E868A969B9F1000F27DC4A1C15
:1031B00030234354B8F1000F03DC95F838000107C1
:1031C00003D5E9682E208854521C18EB090FB8BFAC
:1031D000C8F1000424B260426862A044B845AA6104
:1031E000B8BF4746EB68A8693FB2EF613A4631463F
:1031F000184400F0A3FBA8EB0700A862C5E022B2C8
:103200009742084419DA3A46314600F097FBA8691C
:103210003818A9EB0707B8F1000FA8616F6203DC4B
:1032200095F838100A0705D5EA682E211154E86987
:10323000401CE861C5F82880A7E0314600F07EFB1D
:10324000A8693F1BB8F1000F484403DC95F838101B
:103250000A0703D5EA682E211154401CA86138B230
:103260008045EB68A869B8BF47463AB206EB09014A
:10327000184400F063FBA9693FB27918A8EB07076F
:10328000A9616F6281E0B9F1610F16D14FF0700949
:1032900018E0474504DA95F838100A0758BFB846D1
:1032A000B8F1010848BF4FF00008B9F1670F14BF2B
:1032B0004FF045094FF0650904E0B9F1410F08BF2F
:1032C0004FF05009A969EB68481CA861B8F1000FDC
:1032D00016F8012B5A5403DC95F838100A0719D553
:1032E000EA68431CAB612E211154B8F1000F11DDC7
:1032F0007F1E38B231468045EE68B8BF47463AB2C5
:10330000F01800F01BFBA8693FB23818A861A8EBC1
:1033100007006862E868A9690844002C80F80090FA
:1033200003D42B224270811C03E02D2141706442A2
:10333000811C00206A460AE023460A2493FBF4F429
:1033400004EB8406A3EB460302F8013B401C24B2C5
:10335000002CF1DC012806DC49F02002652A04BFBC
:10336000302201F8012B48B9302001F8010B07E0A9
:10337000401E1DF80030303301F8013B0028F7DC17
:10338000EA68A8691044091AE96195F8380000F064
:10339000140010280DD16A69A969686A8A18E96958
:1033A0008218A86A8A188218686B8242BCBF821A87
:1033B0002A6205B0BDE8F083F8B505460E4617460B
:1033C0001C46002074B117F8011BB068A847B06014
:1033D00030B1F06A401CF0620020641EF3D1F2BDEF
:1033E0004FF0FF30F2BD00007072696E74665F735B
:1033F0003A20256E20646973616C6C6F7765640098
:103400007072696E74663A2062616420256E206174
:103410007267756D656E74007072696E74665F7345
:103420003A2062616420257320617267756D656E54
:10343000740000006E616E004E414E00696E6600C1
:10344000494E4600300030B4002513E050F8042BFC
:10345000D30744BFA9F101039A18091F042942F8B0
:10346000045BFAD213468C0744BF15809B1CC90726
:1034700048BF1D7050F8041B0029E7D130BC7047CD
:103480000278C9B28A421AB11CBF10F8012FF9E7BD
:1034900018BF00207047000080B500B906A005499C
:1034A0000B681BB122220021984701E0FEF7E4F8E7
:1034B000222002BD00670020636F6E737472616921
:1034C0006E742068616E646C65723A20626164207B
:1034D0006D6573736167650000F10103810704D0B6
:1034E00010F8011B820781B1FAD10268A2F1013103
:1034F000914311F0803104BF50F8042FF6E709BA68
:10350000B1FA81F100EBD100401CC01A70470000F5
:10351000C9B2830706D0521E22D310F8013B99424C
:10352000F7D11FE0083A13D302F1040241EA012166
:1035300041EA014150F8043B121F21BF4B40A3F167
:10354000013C2CEA030C1CF0803FF3D0C9B2001FF1
:10355000083210F8013B521E28BF91EA030FF8D839
:1035600018BF0120401E7047BBBBE1B1B2F5803FE0
:1035700080F07E80022A1ED98C46B1FBF2F102FB5C
:1035800011C31B0443EA1043B3FBF2FC02FB1C33E0
:1035900080B240EA0343B3FBF2F002FB103240EA90
:1035A0000C4000237047022A05D98446B0FBF2F094
:1035B00002FB10C270474AB105D100F00102490870
:1035C0005FEA3000704700220023704700F0F8BC2B
:1035D0000B000200002100207047904271EB030CA9
:1035E000F6D3B3F5803F2FD2F0B5B3FA83F7B1FA33
:1035F00081F4A7F10F0E3D1B5340CEF1200602FAD5
:103600000EF2F3415340B5F10F0746D80F3C2C445E
:103610004140C4F12006A040F1414140B1FBF3F626
:1036200003FB1611A2FB0645001BA94102D2761E20
:103630008018594180EA010221FA0EF362FA0EF273
:1036400000215A403046F0BD30B4B1FBF3FC03FB1F
:103650001C11A2FB0C45001BA94103D2ACF1010CCB
:103660008018594130BC02460B4660460021704725
:10367000B2F1807F65D3F0B5B2FA82F7B1FA81F486
:10368000C7F10F063D1B22FA06F307F1110EF241B6
:1036900020355A40B5F10F07B8D94140C4F1200692
:1036A000A040F1414140B1FBF3FC03FB1C11A2FB24
:1036B0000C45001BA94103D2BCF1010C80185941F3
:1036C0000F2F12D30F3FC90341EA5041B1FBF3F66C
:1036D00003FB1611A2FB0645D4EBC030A94102D270
:1036E000761E8018594146EACC3C07B34140C7F1E9
:1036F0002006B840F1414140B1FBF3F603FB16113F
:10370000A2FB0645001BA94102D2761E8018594132
:1037100080EA010221FA0EF3C7F1200462FA0EF2E8
:103720000CFA07F05A402CFA04F13043F0BD80EA5D
:10373000010221FA0EF3002162FA0EF260465A40AD
:10374000F0BD8C46B1FBF2F102FB11C31B0243EA50
:103750001063B3FBF2FC02FB1C331B024CEA00209B
:1037600043EA1063B3FBF2FC02FB1C331B024CEA7E
:10377000002043EA1063B3FBF2FC02FB1C331B0284
:103780004CEA002043EA1063B3FBF2FC02FB1C325C
:103790004CEA002000237047B0B581EA030C0CF01E
:1037A000004C40F2FF7515EA11541DBF15EA13577E
:1037B000AC42AF4239E0E41923EA455343F48013A5
:1037C000C90241F0004141EA505EC7021100A7FB67
:1037D000020200284FF00000EEFB01204FF0000134
:1037E000E3FB072118BF42F00102401800214941C4
:1037F000E3FB0E01A4F580640F0302D252004041A6
:10380000494154F101046CDD470872F1004250F166
:10381000000051EB0451A1F580115CBF41EA0C019D
:10382000B0BD4CEA05510020B0BD05EA1357AC42CB
:1038300014BFAF4241E050EA410E1CBF52EA430EB2
:1038400002E061460020B0BD24423C441BD15FEA47
:10385000070EF6D0090302BF01460020AEF1140E98
:10386000B1FA81F7AEEB070401FA07FE0C37C7F196
:10387000200100FA07F7C8404EEA000E23EA45533C
:1038800043F48013A2E733F00043B3FA83F704BF95
:10389000B2FA82FE77440B3FE41BB7F1200E2FBF34
:1038A00002FA0EF3BB40C7F1200E22FA0EFE38BF1B
:1038B00043EA0E03BA40641C82E750EA410E14BF8B
:1038C00052EA430E6FF000014FF4001717EB430F5D
:1038D0008ABF194617EB410FB5E74CEA05510020A6
:1038E000B0BDD4F10104B4F120070FDAC4F1200710
:1038F000520828BF42F0010210FA07F501FA07F753
:10390000E1BF2A43E0403843E1400FE0352C98DC2A
:10391000C7F1200452EA400220FA07F218BF42F031
:10392000010231FA07F0A1400A43002172F100427E
:1039300050F1000051EB0C01B0BD000062B38B07E9
:1039400008D0521E11F8013B00F8013B00F0248022
:103950008B07F6D1830740F0208000BF103A07D3D1
:1039600030B4B1E83810103AA0E83810F9D230BCC1
:10397000530724BFB1E80810A0E8081044BF51F86D
:10398000043B40F8043BD20724BF31F8022B20F857
:10399000022B44BF0B7803707047121F17D35B00D4
:1039A00009D151F8043B20F8023B1B0C121F20F8F0
:1039B000023BF6D20BE051F8043B00F8013B1B0A36
:1039C00020F8023B1B0C121F00F8013BF3D238BF5A
:1039D000121D521E24BF11F8013B00F8013BF8D81C
:1039E0007047000010B5144600F002F8226010BDC8
:1039F000C1F30A5343B14A0012F5001F28D2A3F2C3
:103A0000FE32A1EB0251704750EA410C20D001F088
:103A1000004C31EA0C01B1FA81F204BFB0FA80F334
:103A2000D2180B3AB2F120032CBF00FA03F19140F7
:103A300041EA0C013EBFC2F1200C20FA0CF31943FD
:103A40009040524240F2FD33D21A01EB03517047CD
:103A5000002270474FF4001C1CEB410F94BF1CEB7D
:103A6000430F09E041EA030C50EA4C0C52EA0C0CFB
:103A700003D2994208BF9042704714BF8B428242E2
:103A8000704700004FF4001C1CEB410F94BF1CEB6F
:103A9000430F09E041EA030C50EA4C0C52EA0C0CCB
:103AA00003D28B4208BF8242704714BF99429042B2
:103AB00070470000124254D440F2FF7C1CEA1153BC
:103AC0000FD0634531D09B1863453CBF01EB0251D9
:103AD000704701F0004141EA0C510020AFF3008033
:103AE000704750EA410320D001F0004C91EA0C01EC
:103AF0001CD0B1FA81F30B3B9A420DD9D21A9940EE
:103B000051EA0C01C3F1200C20FA0CFC61449840EE
:103B1000531C40F2FF7CD7E7914041EA0C01C2F10F
:103B2000200C20FA0CF3194390407047B0FA80F350
:103B30001533202BE0D3202AEED3203A203B9A42A3
:103B400009D9D21A00FA03F141EA0C010020531CF2
:103B500040F2FF7CB8E700FA02F141EA0C010020D4
:103B60007047524240F2FF7C1CEA11530DD063456E
:103B7000DBD0B2EB030C3CBFA1EB025170470CF160
:103B8000010221EA035141F4801150EA410CCCD0EA
:103B900001F0004C352A27DC30B481EA0C01B2F187
:103BA000200309DAC2F12003044601FA03F5D040EC
:103BB0002843D1409C400CE0C3F12002450020FA8C
:103BC00003F418BF44F0010421FA03F091400C43C0
:103BD000002174F1004550F1000051EB0C0124422A
:103BE00030BC7FF47BAF70476146002076E7000071
:103BF000C1F30A5340F2FE329B1A14DDD3F12003C5
:103C00004FEAE17208DDC90241EA505141F000403B
:103C1000D84080185040704703F2E13010B1D243D1
:103C200082F000407047002070470000C11768B163
:103C30004840401AB0FA80F29040D21CC907C2F541
:103C4000846241EA025202EBD02140057047000035
:103C500070B44FF0004591EA030F40F1B3816B401F
:103C6000841A71EB030603D2001BB1411219734190
:103C70004FF4001C1CEB410F34BF7CEB430442E0CB
:103C80000C0DA4EB1356352E4FDC45EAC323DB0A9B
:103C900045EAC121C912B6F120050DDD63FA05F62A
:103CA000EB4086EA0305124218BF45F00105C01833
:103CB00051F100010CD213E062FA06F5F2405540D2
:103CC000F3415A40B340F3405A408018594107D35A
:103CD00049085FEA30005FEA350528BF45F0010575
:103CE00001F58011420875F1004250F1000041EBEE
:103CF00004514E0016F5001F70BC38BF70470020FD
:103D0000090D090570471CEB410F10D252EA43061A
:103D10000BD0BCEB410F05D80C0DAB43661E342E07
:103D2000B6DD02E0AB438018594170BC704770BCEF
:103D300070470000F0B540F2FF7581EA030C0CF00B
:103D4000004C15EA11541DBF15EA1357AC42AF429F
:103D5000E5E0BC41C1F31301C3F31303801A994199
:103D600043F4801304D2641E400049418018594135
:103D7000C90241EA5051B1FBF3F603FB1611A2FB55
:103D80000675D7EBC020A94102D2761E8018594192
:103D9000C90241EA5051B1FBF3FE03FB1E11A2FB25
:103DA0000E75D7EBC020A94103D2AEF1010E8018E9
:103DB0005941890241EA9051760546EA8E2EB1FBBF
:103DC000F3F603FB1611A2FB0675D7EB8020A94181
:103DD00002D2761E80185941C90241EA50514EEA7A
:103DE000060EB1FBF3F603FB1611A2FB0675D7EB2B
:103DF000C020A94102D2761E80185941C90241EA69
:103E00005051B1FBF3F703FB1711A2FB0735D3EBBE
:103E1000C020A94167F100070CBF004247F001072D
:103E200066F3D5274FEA1E31B80814F5806412DD19
:103E3000BD0775F1004250EB0E5051EB045111F5E6
:103E4000801F5CBF41EA0C01F0BD4CF07F6141F086
:103E5000E0410020F0BDBD076D0840EA0E5041F47E
:103E60008011D4F10104B4F120060ADAC4F120066D
:103E70000200E04001FA06F3E1401843B240154366
:103E80000EE0342C13DCC6F1200445EA40056D0831
:103E900020FA06F2154321FA06F0A1400D43002155
:103EA00075F1004250F1000051EB0C01F0BD002013
:103EB0005FEA0C01F0BDCFB992185B41B3FA83F70A
:103EC00004BFB2FA82F6BF190B3FB7F120062FBF2D
:103ED00002FA06F3BB40C7F1200622FA06F638BF05
:103EE0003343BA401CB1E419641E33E77F4231F01A
:103EF0000041B1FA81F404BFB0FA80F6A4190B3C7A
:103F0000B4F120062FBF00FA06F1A140C4F120064B
:103F100020FA06F638BF3143A0403C1B1AE7AC42FA
:103F20001ABF05EA1357AF4212E050EA41061CBF20
:103F300052EA4306BFE750EA4107304661461CBFDC
:103F400041EA0551F0BD52EA430C08BFC143F0BD40
:103F500000204FF4001616EB410F98BF16EB430FED
:103F600008BF16EB410F24BFC14305E016EB430F1A
:103F70000CBF61464CEA0551F0BD0000400D4918E8
:103F800040EA81200CD2490DA1F58061491C40F026
:103F9000004005DBD1F11F0154BFC840C017704776
:103FA00000207047014648B1B0FA80F18840C91C32
:103FB000C1F58461090501EBD0214005704700007F
:103FC00070470000841A71EB030604D26E40001B98
:103FD000B141121973414FF4001C1CEB410F34BF67
:103FE0007CEB430683E00C0DA4EB1356362E00F356
:103FF0007C80012E45EAC32341DC43EA525312BFC1
:10400000D20292025B08240545EAC12141EA5051DF
:10401000D2EBC020994125D407D1B0FA80F610FA2E
:1040200006F162D00020203608E0B1FA81F6B140F6
:10403000C6F1200220FA02F21143B0404FEAF474B4
:10404000B4EB465434F001064FEA74040AD8D6F5AE
:104050000016760D04F00044F04061FA06F250407C
:10406000F1404840C00A40EA415021F0004128BFD9
:104070005FEA500550F1000044EBD12135E0DB0A46
:1040800045EAC121C90AB6F120050EDD42EA024225
:10409000120CC5F1200603FA06F6EB4042EA0605CB
:1040A0006D42984161F100010DE062FA06F5F240BF
:1040B000554063FA06FC82EA0C02F3405A406D4216
:1040C000904161EB030111F4801F05D1641E62056C
:1040D00002D06D004041494121F48011430875F13F
:1040E000004350F1000041EB045170BC70471CEBE1
:1040F000410F15D223F0004352EA43060BD04FEA9A
:104100004C0CBCEB410F04D80C0D661E342EB7DDF1
:10411000EBE7801A994150EA410608BF0021E4E725
:1041200008BF1CEB430F28BF6FF00001DDE7000064
:1041300038B58AB00400002C01D10120B0E0256818
:1041400094F8BD03002805D1002084F8BC032000AA
:1041500000F0DEFD032084F8BD03E86BC00501D448
:10416000002020612068FDF792FB211D83B0684686
:104170003422FFF7F3FB0EBC2068FDF7D9FA0028C4
:1041800004D0022084F8BD03012089E000212068CA
:10419000FDF783FB002130E01C200A00D2B242432D
:1041A0002244012382F83D300A00D2B24243224425
:1041B00082F83C100A00D2B2424322440B00DBB228
:1041C000A2F842300A00D2B242432244002382F8CD
:1041D0003F300A00D2B242432244002353640A0013
:1041E000D2B242432244002393640A00D2B200FBBD
:1041F00002F0204400220265491C0800C0B2626837
:104200009042C9D300212BE01C200A00D2B24243C5
:104210002244002382F8FD310A00D2B242432244F4
:1042200082F8FC110A00D2B242432244002382F8F1
:10423000FF310A00D2B2424322440023C2F80432C2
:104240000A00D2B2424322440023C2F808320A00D4
:10425000D2B200FB02F020440022C0F81022491C18
:104260000800C0B262689042CED3211D83B0684678
:104270003422FFF773FB0EBC2068FDF72AFB0028F1
:1042800004D0022084F8BD03012009E0002084F856
:104290003800012084F8BD032068FEF7E1F8002013
:1042A0000BB030BD10B50400206894F8BC13012990
:1042B00001D1022016E0012184F8BC13A16A012972
:1042C00006D1A169012903D0816B51F4803181634A
:1042D0002068FDF7D6FA2068FEF7B0F8002084F8D1
:1042E000BC03002010BD2DE9F041060035682F0009
:1042F0003068FEF703F9002840F057823068FEF777
:10430000C1F8002800F051823068FEF7BBF8800742
:1043100005D53068406910F00200316848613068A6
:10432000FEF7B0F8C0063FD53068806930F0100065
:1043300031688861D5F8208018F00F011C204143B6
:1043400006EB010010F5FE74C8F34340022816D1B5
:1043500047F6F07018EA000F20D0C8F30A1292B2A4
:10436000E1682800FDF7B4FFE068C8F30A110844CB
:10437000E060A169C8F30A104118A1610EE0C8F31A
:10438000434006280AD1082216F571712800FDF76E
:104390009FFFA169C8F30A104118A16130688069C4
:1043A00050F01000316888613068FEF76BF8000348
:1043B00047D500253068FEF76AF804003FE0E007C3
:1043C0003BD52900C9B23068FEF775F880465FEA30
:1043D000C87009D517EB451010F5306001218160D8
:1043E0002900300000F0C6FB5FEA087009D517EB22
:1043F000451010F53060082181602900300000F080
:104400005CFC5FEAC86005D517EB451010F530601D
:10441000102181605FEA886005D517EB451010F523
:104420003060202181605FEA884006D517EB451097
:1044300010F530604FF4005181606D1C6408002C51
:10444000BDD13068FEF71EF8400376D53068FEF720
:1044500028F8040000256EE0E0076AD52900C9B2FB
:104460003068FEF734F880465FEAC87036D501211F
:1044700015F00F0011FA00F017F50061496B31EAF1
:10448000000017F50061486317EB451010F5106048
:1044900001218160306901281BD11C2000FB05F13E
:1044A0003144896C00FB05F23244526C114400FB2C
:1044B00005F232449164002D0BD100FB05F030442D
:1044C000006D002805D116F5717201213068FEF7E4
:1044D0002BF82900C9B2300000F072FC5FEA0870C6
:1044E00005D517EB451010F51060082181605FEAD3
:1044F000C86005D517EB451010F5106010218160DC
:104500005FEA486005D517EB451010F510604021B3
:1045100081605FEA887005D517EB451010F51060D3
:10452000022181605FEA086003D52900300000F0B5
:10453000ADFA6D1C6408002C8ED13068FDF7A2FF27
:1045400000281CD517F5006040684008400017F5AA
:104550000061486096F8F403012807D1002086F82E
:10456000F4030021300000F0A4FD02E0300000F070
:1045700067FC3068406910F000403168486130687D
:10458000FDF780FF00050DD517F500608068C007B6
:1045900002D5300000F03BFC3068406910F4006048
:1045A000316848613068FDF76DFFC00440F19380C9
:1045B00017F5006040684008400017F5006148604A
:1045C00010213068FDF77DFA00203CE04FF67F3186
:1045D00017EB401212F51062916017EB401212F5C2
:1045E0001062126832F4001217EB401313F51063D7
:1045F0001A6017EB401212F51062126852F0006256
:1046000017EB401313F510631A6017EB401212F505
:104610003062916017EB401111F53061096831F497
:10462000001117EB401212F53062116017EB4011C8
:1046300011F53061096851F0006117EB401212F575
:1046400030621160401C71688842BFD317F500606A
:10465000C06950F0011017F50061C861306B002887
:1046600012D017F50060D0F8840050F00B0017F559
:104670000061C1F8840017F50060406C50F00B0039
:1046800017F50061486411E017F50060406940F4D7
:10469000005050F02B0017F50061486117F50060DD
:1046A000006950F00B0017F50061086117F5006014
:1046B000006830F4FE6017F50067386016F5717217
:1046C0003169C9B23068FDF72FFF3068406910F4D6
:1046D0008050316848613068FDF7D4FE800417D5FA
:1046E0003068FDF70FFF3068FDF715FAF06000F055
:1046F0007EFD0100F268D2B23068FDF759F8300053
:1047000000F072FB3068406910F400503168486175
:104710003068FDF7B7FE000708D5300000F05EFBFB
:104720003068406910F00800316848613068FDF772
:10473000A9FEC0020AD50021C9B2300000F08DFBED
:104740003068406910F48010316848613068FDF7C6
:1047500099FE80020AD50021C9B2300000F076FB34
:104760003068406910F40010316848613068FDF726
:1047700089FE400008D5300000F076FB30684069C3
:1047800010F08040316848613068FDF77BFE4007DB
:104790000BD530684468600702D5300000F06AFB32
:1047A00030684068044330684460BDE8F08110B56B
:1047B000040094F8BC03012801D102200CE0012080
:1047C00084F8BC0384F83810C9B22068FDF721FED4
:1047D000002084F8BC03002010BD70B50500002641
:1047E0000800C0B200060CD50C00E4B214F00F04AF
:1047F0001C20444305EB040010F13C0401206070D0
:104800000BE00C00E4B214F00F041C20444305EB51
:10481000040010F5FE740020607011F00F0121708B
:1048200092B2A260E3706078002801D02078E08026
:10483000DBB2022B01D10020207195F8BC030128C6
:1048400001D102200BE0012085F8BC03210028687B
:10485000FDF773F9002085F8BC033000C0B270BDCD
:1048600010B504000800C0B200060BD50A00D2B291
:1048700012F00F021C20424304EB02003C300122E4
:1048800042700BE00A00D2B212F00F021C20424329
:1048900004EB020010F5FE700022427011F00F01CF
:1048A000017094F8BC13012901D102200AE0012112
:1048B00084F8BC1301002068FDF79CF9002084F8FF
:1048C000BC03002010BD38B51C000D00EDB215F082
:1048D0000F051C235D4300EB050313F5FE73DA603F
:1048E0005C6100249C6100245C7011F00F041C705A
:1048F0000469012C00D11A6111F00F0F06D1026971
:10490000D2B219000068FDF7D9FB05E00269D2B206
:1049100019000068FDF704FA002032BDC9B211F099
:104920000F011C2251430844D0F81402704738B5D7
:104930001C000D00EDB215F00F051C235D4300EBCC
:1049400005033C33DA605C6100249C6101245C70E7
:1049500011F00F041C700469012C00D11A6111F0D0
:104960000F0F06D10269D2B219000068FDF7A6FB4D
:1049700005E00269D2B219000068FDF7D1F9002004
:1049800032BD38B504000D0060682900C9B211F0CD
:104990000F01884201D2012039E02800C0B2000690
:1049A0000CD52900C9B211F00F011C20414304EBC2
:1049B000010010F13C010120487009E02900C9B252
:1049C0001C20414304EB010010F5FE7100204870EB
:1049D0000120887015F00F00087094F8BC030128BE
:1049E00001D1022013E0012084F8BC032068FDF708
:1049F00081FC15F00F0F06D114F571722169C9B24F
:104A00002068FDF791FD002084F8BC03002032BD32
:104A100010B5040060680A00D2B212F00F02904292
:104A200001D2012031E00800C0B200060BD50A0017
:104A3000D2B212F00F021C20424304EB02003C30C1
:104A4000012242700BE00A00D2B212F00F021C20C9
:104A5000424304EB020010F5FE7000224270002277
:104A6000827011F00F01017094F8BC13012901D17B
:104A700002200AE0012184F8BC1301002068FDF740
:104A800083FC002084F8BC03002010BD2DE9FC4706
:104A900004000D00266837001C2000FB05F02044B0
:104AA00010F13C08D8F81400D8F81810884201D248
:104AB00001205DE0D8F81400D8F81890B0EB09098F
:104AC000D8F80800484501D2D8F8089019F1030930
:104AD0005FEA990926E0D8F81400D8F818A0B0EBDE
:104AE0000A0AD8F80800504501D2D8F808A01AF1EF
:104AF00003095FEA99092069C0B2009053469BB24E
:104B00002A00D2B2D8F80C103000FDF7C5FBD8F857
:104B10000C005044C8F80C00D8F818001AEB000A32
:104B2000C8F818A017EB451010F51060806980B226
:104B3000484509D3D8F81800D8F81410884203D291
:104B4000D8F814000028C6D1D8F81800D8F81410E6
:104B500088420CD3012015F00F0510FA05F517F562
:104B60000060406B30EA050517F500677D630020A3
:104B7000BDE8F68738B505000C0029680800096C07
:104B800010EB441212F5306292682B69012B62D14E
:104B900013070ED55C4B9942C0F08D80110440F193
:104BA0008A8010EB441010F530604FF400418160B2
:104BB00081E0930606D510EB441010F530602021FB
:104BC000816078E012F0280F75D14F4B994209D3DC
:104BD000110407D510EB441010F530604FF400417C
:104BE000816068E01C2101FB04F22A44D2F804220F
:104BF00010EB441010F5306000694003400B121AAE
:104C000001FB04F02844C0F8142201FB04F02844FE
:104C1000D0F8080201FB04F22A44D2F8042210441E
:104C200001FB04F22A44C2F80802002C0DD101FB5A
:104C300004F105EB0100D0F81002002805D115F5AC
:104C4000717201212868FDF76FFC2100C9B22800AC
:104C500000F0A7F82FE02D4B994217D1110407D58A
:104C600010EB441010F530604FF40041816022E0F9
:104C7000910605D510EB441010F5306020218160BD
:104C80002100C9B2280000F08CF814E0002C0DD1EE
:104C90001C2000FB04F02844D0F81002002805D1A5
:104CA00015F5717200212868FDF73EFC2100C9B29C
:104CB000280000F076F8002032BD70B504002268AC
:104CC0001000156C10EB411212F5306292680E4E16
:104CD000B54208D3120406D510EB411010F5306030
:104CE0004FF400418160200000F053F8B54208D332
:104CF0002069012805D114F5717201212068FDF7A2
:104D000013FC002070BD00000B30544F0A31544F8B
:104D100010B586B0040001A8142100F0E9FA20685B
:104D2000B0F1A04F33D1002000907048016851F0DD
:104D300001010160006810F00100009000984FF43C
:104D4000C0500190022002900020039003200490A4
:104D50000A20059001A9664800F0CEFA654801686E
:104D600051F080010160002000906348016851F417
:104D700080410160006810F480400090009800229B
:104D80000521432000F01CFC432000F02AFC06B063
:104D900010BD80B510F57171D0F8040400F084FCEA
:104DA00001BD80B50B00DBB21C22534300EB0302B4
:104DB000D2F80822C9B2D0F8040400F0A7FC01BD63
:104DC00080B50B00DBB21C22534300EB0302926C54
:104DD000C9B2D0F8040400F0E4FC01BD80B5D0F8FD
:104DE000040400F099FD01BD38B504000125E06818
:104DF000022801D000F0D4FF2900C9B2D4F804047D
:104E000000F074FDD4F8040400F040FD31BD10B58D
:104E10000400D4F8040400F06CFD206810F5606014
:104E2000006850F00100216811F560610860206A97
:104E3000002804D03148016851F00601016010BD1E
:104E400080B5D0F8040400F05DFD01BD80B5C9B2A5
:104E5000D0F8040400F072FD01BD80B5C9B2D0F8ED
:104E6000040400F069FD01BD80B5D0F8040400F031
:104E700067FD01BD80B5D0F8040400F063FD01BDFD
:104E800010B5017800292ED11D4CC4F80404C0F8D7
:104E9000C4425FF0A0402060042060600220E06017
:104EA000002020610220A0610020E061002020623B
:104EB000002060620020E062002020632000FFF7F5
:104EC00037F9002801D000F06BFF8021200000F0AE
:104ED000EBF840220021200000F0B6F880220121EA
:104EE000200000F0B1F8002010BD00003038024072
:104EF00000000240343802404438024010ED00E027
:104F0000E451002080B500210021D0F8C402FFF751
:104F1000C9F9C0B200F083F8C0B202BD10B51C00E0
:104F2000002300231300DBB2220092B2C9B2D0F8F2
:104F3000C402FFF752FCC0B200F071F8C0B210BD5D
:104F400080B500220022C9B2D0F8C402FFF788FC65
:104F5000C0B200F064F8C0B202BD80B500220022E9
:104F6000C9B2D0F8C402FFF70CFDC0B200F057F888
:104F7000C0B202BD80B500220022C9B2D0F8C4027E
:104F8000FFF746FDC0B200F04AF8C0B202BDD0F84B
:104F9000C4220800C0B2000609D5C9B211F07F01D1
:104FA0001C20414302EB010090F83E0008E0C9B22A
:104FB00011F07F011C20414302EB010090F8FE013B
:104FC000704780B500220022C9B2D0F8C402FFF7B2
:104FD000EEFBC0B200F023F8C0B202BD10B5002451
:104FE0000024C9B2D0F8C402FFF7A1FCC0B200F09F
:104FF00016F8C0B210BD10B500240024C9B2D0F814
:10500000C402FFF760FCC0B200F009F8C0B210BDE6
:1050100080B5C9B2D0F8C402FFF780FC02BD002100
:10502000C0B2002805D0022807D004D3032806D038
:1050300007E0002006E0032004E0012002E0032056
:1050400000E00320C0B2704770B403685B6A0C00D4
:10505000E4B2002C05D192B253EA024300688362A5
:105060001FE00468A46A13EB1443002409E00568F8
:105070002600F6B205EB8605D5F8045113EB15436F
:10508000641C2500EDB20E00F6B2761EB542EED3DA
:105090000068C9B200EB810092B253EA0243C0F843
:1050A0000031002070BC704789B200684162002066
:1050B000704770472DE9F04104000E00002C01D12B
:1050C000012092E0634D286810F00F00B04207D233
:1050D0002E70286810F00F00B04201D0012084E04B
:1050E0002078800716D52078400704D55A480168F3
:1050F00051F4E05101602078000704D5564801685A
:1051000051F46041016054490A6832F0F002A0682D
:1051100002430A602078C00735D56068012805D1B0
:105120004E480068800313D401205EE060680228C6
:1051300002D06068032805D148480068800107D480
:10514000012052E045480068800701D401204CE06E
:10515000414F396889088900606801433960FDF76B
:1051600059FA8046386810F00C006168B0EB810F86
:1051700009D0FDF74FFAB0EB080041F289318842BF
:10518000F0D3032031E0286810F00F00864207D2E8
:105190002E70286810F00F00B04201D0012024E0EA
:1051A0002078400706D52C490A6832F4E052E068BE
:1051B00002430A602078000707D52748016831F4C8
:1051C0006041226951EAC201016000F051F82449AE
:1051D000214A1268C2F30312895CC8402149086061
:1051E0002148006800F0DEFD0020BDE8F0811D4888
:1051F0000068704780B5FFF7FAFF1C49164A12682D
:10520000C2F38222895CC84002BD80B5FFF7EFFF80
:105210001649114A1268C2F34232895CC84002BD85
:105220000F2202600C4A136813F0030343601368F3
:1052300013F0F0038360136813F4E053C360126843
:10524000D20812F4E05202610248006810F00F0028
:1052500008607047003C02400838024000380240B5
:1052600090BA000808000020040000202CBB0008B1
:1052700010B500200020002000201948006810F020
:105280000C00002804D0042804D0082804D025E00D
:10529000144824E0144822E0144C226812F03F0223
:1052A0002068400209D52068C0F388100E49A1FB90
:1052B00000010023FEF758F908E02068C0F38810C9
:1052C0000849A1FB00010023FEF74EF92168C1F354
:1052D0000141491C4900B0FBF1F000E0014810BD5C
:1052E000083802400024F40000127A00043802401A
:1052F000002200F099BD0000F8B400220022002234
:10530000002336E0072704E0DFF8E0219042F9D1DE
:105310000427FFB213F00302D2B2920097403E433B
:105320001A00920845F82260DFF8C4512A68A243A7
:105330004E68F60300D522432A60DFF8B8512A6888
:10534000A2434E68B60300D522432A60DFF8A85175
:105350002A68A2434E68F60200D522432A60674DB0
:105360002A68A2434E68B60201D5144322002A607F
:105370005B1C102B80F09680012515FA03F20C6857
:1053800014409442F4D14A68012A08D04A68022A9B
:1053900005D04A68112A02D04A68122A16D18668B6
:1053A00003271A00D2B252009740BE43CF681A00BA
:1053B000D2B2520097403E43866042689D40AA4365
:1053C0004D68C5F300159D402A434260C668032519
:1053D0001A00D2B2520015FA02F296438F681A00F0
:1053E000D2B2520097403E43C6604A68022A02D0B9
:1053F0004A68122A17D11A00D20800EB8202166AF4
:105400000F2713F00702D2B292009740BE430F69F4
:1054100013F00702D2B2920097403E431A00D2081E
:1054200000EB8202166206681A00D2B25200954062
:10543000AE430D7915F003051A00D2B25200954023
:105440002E4306604A68D20092D5002200922C4A70
:10545000156855F480451560126812F48042009278
:10546000009A284D1A00920855F822600F2713F071
:105470000302D2B292009740BE43234A904201D128
:10548000002746E7214A904201D1012741E7204AFF
:10549000904201D102273CE71E4A90427FF434AF8C
:1054A000032736E7F1BC7047006989B2084201D092
:1054B000012000E00020C0B27047D2B2002A02D022
:1054C00089B2816102E089B2090481617047436950
:1054D0000A0092B213400A0092B2934203D189B2F9
:1054E0000904816101E089B28161704700100240C6
:1054F000003C0140043C0140083C01400C3C0140A0
:1055000044380240083801400000024000040240D4
:1055100000080240000C024010F00700334B1A68EC
:105520004FF6FF010A40324951EA00210A431A604E
:1055300070472E480068C0F302207047010049B24E
:10554000002908D4012210F01F018A40294940B2E5
:10555000400941F820207047020052B2002A04D4CA
:105560000901254A40B2115407E00901234A40B21B
:1055700010F00F00104400F8041C704710B410F035
:105580000700D0F10703052B01D3042301E0D0F17C
:105590000703041D072C01D2002000E0C01E0124D7
:1055A00014FA03F35B1E1940814014FA00F0401E08
:1055B0001040084310BC704780B5FFF7ADFF01BD38
:1055C00070B504000D0016000020FFF7B2FF320096
:1055D0002900FFF7D3FF0100200040B2FFF7BCFF16
:1055E00070BD80B540B2FFF7A9FF01BD0CED00E032
:1055F0000000FA0500E100E000E400E018ED00E042
:1056000080B5002801D1032018E0D0F8B832002B73
:1056100002D00023C0F8B832D0F8CC32002B02D030
:105620000023C0F8CC32002901D0C0F8B412012107
:1056300080F89C120270FFF723FCC0B202BD1CB5BB
:1056400004000020ADF80000002901D1032009E08A
:10565000C4F8B8126846D4F8B812896A8847C4F802
:10566000CC02002016BD80B5FFF74CFC02BD002027
:10567000704780B50322D0F8B832002B05D0C9B2EC
:10568000D0F8B8221268904702001000C0B202BDE4
:1056900080B5D0F8B822002A04D0C9B2D0F8B82218
:1056A00052689047002002BD10B5040004F2AA2001
:1056B00000F086FF0120C4F89402B4F8B002C4F8E8
:1056C000980294F8AA0210F01F00002803D00228C4
:1056D0000DD006D311E004F2AA21200000F0C6FB91
:1056E00012E004F2AA21200000F0FFFB0CE004F21B
:1056F000AA21200000F031FC06E094F8AA1211F073
:1057000080012000FFF729FCC0B210BD10B50400D5
:1057100010000A00D2B2002A2CD114F5AA72D4F8D3
:105720009412032912D1D1689368994210D29368D8
:10573000D1685B1A93609168D368994201D29268EC
:1057400000E0D2680100200000F0B2FF002010BD90
:10575000D4F8B8020069002808D094F89C02032805
:1057600004D12000D4F8B81209698847200000F05D
:10577000A7FFEBE7D4F8B802806900280FD094F8AF
:105780009C0203280BD1C9B22000D4F8B822926938
:1057900090470100C9B20029D8D0C0B2D7E7032092
:1057A000D5E710B5040010000A00D2B2002A56D185
:1057B00014F11402D4F89412022944D1D1689368E8
:1057C00099420FD29368D1685B1A93609268010086
:1057D000200000F056FF0023002200212000FFF7E8
:1057E0000AFC30E0D0689168884217D15068D168CF
:1057F000884213D35068D4F8981288420ED20022FF
:105800000021200000F03DFF0020C4F89802002392
:10581000002200212000FFF7EEFB14E0D4F8B802CC
:10582000C068002808D094F89C02032804D1200006
:10583000D4F8B812C968884780212000FFF78DFB93
:10584000200000F048FF94F8A002012805D12000B4
:10585000FFF70DFF002084F8A002002010BDD4F84F
:10586000B802406900280FD094F89C0203280BD19D
:10587000C9B22000D4F8B822526990470100C9B2D9
:105880000029EAD0C0B2E9E70320E7E710B5040039
:10589000012084F89C020020C4F89402002060607B
:1058A0000020C4F8A402D4F8BC02002806D0616825
:1058B000C9B22000D4F8B822526890474023002291
:1058C00000212000FFF72AFB0120A4F864014020FA
:1058D000C4F860014023002280212000FFF71EFB56
:1058E0000120A08440202062002010BD017400200F
:1058F000704790F89C1280F89D12042180F89C1249
:105900000020704790F89C12042903D190F89D1252
:1059100080F89C120020704780B590F89C120329F3
:1059200008D1D0F8B812C969002903D0D0F8B8124C
:10593000C9698847002002BD0020704700207047D9
:105940000020704780B5012180F89C12D0F8B81271
:10595000002905D04168C9B2D0F8B82252689047F2
:10596000002002BD01B54FF6FF7301226946DFF842
:10597000B80300F0F6FE009802BD80B501F058FAB9
:1059800000F044F800F01AF900F0A3F800F0ACF8C9
:1059900000F0EAF800F0F8F801F064FADFF88C2380
:1059A000DFF88C13DFF88C0301F06AFA01F07DFA5E
:1059B000DFF8842300210FF2E12001F0E7FADFF89D
:1059C0007C130860DFF8782300210FF2DD2001F05E
:1059D000DDFADC490860DC4A00210FF2E52001F025
:1059E000D5FADA490860DA4A00210FF2F12001F015
:1059F000CDFAD8490860D84A00210FF2FD2001F005
:105A0000C5FAD649086001F084FAFEE780B598B07F
:105A100006A83021FFF76CFC01A81421FFF768FCF1
:105A200012A81821FFF764FC00200090CC48016800
:105A300051F080510160006810F080500090009893
:105A400000200090C748016851F44041016000689F
:105A500010F4404000900098052006905FF48030DC
:105A600007900120089002200C905FF480000D90B8
:105A700007200E904FF4A8700F900420109008207B
:105A8000119006A801F016FC002801D000F088F95A
:105A90000F20019002200290002003904FF48050CC
:105AA000049000200590032101A8FFF703FB0028C4
:105AB00001D000F075F9022012904FF4807016901A
:105AC00012A801F0D1FD002801D000F069F919B049
:105AD00000BD80B5A448A549016001F079FE002809
