:020000040800F2
:10000000886F00204D7E0008817900088D790008F6
:1000100099790008A5790008B1790008000000006E
:10002000000000000000000000000000E17800086F
:10003000BD7900080000000089780008E547000845
:10004000F57E0008F97E0008FD7E0008017F0008AB
:10005000057F0008097F00080D7F0008117F000858
:10006000157F0008197F00081D7F0008217F000808
:10007000257F0008297F00082D7F0008317F0008B8
:10008000357F0008397F00083D7F00080000000030
:10009000000000000000000000000000417F000898
:1000A000457F0008BF790008497F00084D7F0008A0
:1000B000517F0008557F0008597F00085D7F0008C8
:1000C000617F0008657F0008697F00086D7F000878
:1000D000717F0008757F0008797F0008000000002C
:1000E0007D7F0008817F0008857F000800000000F8
:1000F000000000000000000000000000897F0008F0
:10010000000000008D7F0008917F0008957F0008A7
:1001100000000000000000000000000000000000DF
:10012000997F00089D7F0008A17F0008A57F000837
:10013000A97F00080000000000000000000000008F
:10014000000000000000000000000000AD7F00087B
:10015000B17F0008B57F0008B97F0008BD7F0008A7
:10016000C17F0008C57F00080000000000000000FB
:10017000000000000000000000000000000000007F
:1001800000000000C97F000800000000000000001F
:10019000CD7F0008D17F000840F0200070472DE996
:1001A000F14FB0B0924604910DF142013A9A2B9171
:1001B00099464A7000200AE01AF8011B0498309A08
:1001C00090470028049000F037860D98401C0D9051
:1001D0009AF8000058B12528EED100200021002215
:1001E0000790089109920A910B920C9104E00D98E6
:1001F00000F024BE41F001011AF8010F2028F9D0C7
:1002000023280CD02B2804D02D2805D0302809D045
:100210000BE041F00201EFE741F00401ECE741F0AF
:100220000801E9E741F01001E6E72A280FD1D9F8E3
:10023000002052F8040BC9F8002000280F9003D5C5
:1002400040420F9041F004010AF1010A14E00F92BC
:10025000DFF8F02B0AE00F9B934205DA03EB8304EF
:1002600000EB440030380F900AF1010A9AF80000C0
:10027000A0F130030A2BEED39AF800202E2A03D0E7
:100280004FF0FF300E9029E01AF8010F2A2809D10B
:10029000D9F8002052F8040BC9F800200E900AF19A
:1002A000010A1BE02D280CBF0AF1010A00200022E0
:1002B0000E92DFF8904B0BE040B90E9BA34205DA9B
:1002C00003EB830502EB4502303A0E920AF1010A74
:1002D0009AF80020A2F130030A2BEDD3ADF84010BC
:1002E0000FF664309AF8001000F0C6FE08B11AF854
:1002F000010B8DF842009DF84200682805D19AF85C
:10030000001068290CD1622006E06C2804BF9AF81E
:1003100000106C2904D171208DF842000AF1010A05
:1003200012AA06921AF801BBBBF125002CD01C388A
:1003300000F09781001F022840F29381133800F0EB
:10034000AD84093800F08D81801E00F04285401E8A
:1003500000F0EF84401E022840F28381001F00F06D
:10036000E884401F00F0F280401E00F09784401E99
:1003700000F0DA80C01E0ED0801E00F08F84C01EF8
:1003800000F08C8400F030BD0122252107928DF809
:10039000481000F035BDD9F8000050F8044BC9F8FA
:1003A0000000002C059440F0AB802B994878002881
:1003B00000F0A1804FF0FF340FF6942000F068FEAB
:1003C000241A40F0398500F01BBD01236A4602A9BA
:1003D000304600F001FE002840F02E85641EF4D166
:1003E0003096079C12AF74B1309E17F8011B049829
:1003F000B0470028049000F01F850D98401C641E33
:100400000D90F2D130960A9C3021002C8DF800100E
:100410000CDD309E01236A4602A9304600F0DCFD67
:10042000002840F00985641EF4D13096059F089C91
:1004300074B1309E17F8011B0498B047002804904F
:1004400000F0FA840D98401C641E0D90F2D1309695
:100450000B9C3021002C8DF800100CDD309E012308
:100460006A4602A9304600F0B7FD002840F0E48457
:10047000641EF4D1309605980899099C471874B108
:10048000309E17F8011B0498B0470028049000F034
:10049000D3840D98401C641E0D90F2D130960C9CB4
:1004A0003021002C8DF800100CDD309E01236A46AF
:1004B00002A9304600F090FD002840F0BD84641E83
:1004C000F4D130969DF8400041077FF581AE2020A1
:1004D000002D8DF800007FF77BAE309C01236A462B
:1004E00002A9204600F078FD002840F0A5846D1E8A
:1004F000F4D130946CE60FF64030059000F080BCEB
:100500000E9D002D04D5204600F0E2FD044608E0D3
:100510002A460021204600F0F7FD002814BF041BE6
:100520002C46089400F06CBCD9F8001051F8040B6C
:10053000C9F8001020F00002002121F0FF33CDE9BE
:10054000022312AC0594782100F03FBC2B99487827
:1005500020B14FF0FF340FF6B0202FE79DF8420096
:10056000622860D0682817D06A283FD06C2806D04F
:10057000712847D074282CD07A281DD062E0D9F891
:10058000001051F8040BC9F80010002866D14FF094
:10059000FF340FF68C2011E7D9F8001051F8040B46
:1005A000C9F8001020B94FF0FF340FF6742005E7AA
:1005B0000D99018000F024BCD9F8001051F8040B0B
:1005C000C9F80010002849D14FF0FF340FF6502031
:1005D000F4E6D9F8001051F8040BC9F8001000280F
:1005E0003CD14FF0FF340FF63820E7E6D9F8001081
:1005F00051F8040BC9F8001080B94FF0FF340FF622
:100600002020DBE6D9F8001051F8040BC9F80010DF
:1006100020B94FF0FF340FF60820CFE60D9AD3171C
:10062000C0E90023ECE3D9F8001051F8040BC9F835
:10063000001020B94FF0FF340FF6E410BEE60D991C
:100640000170DDE3D9F8001051F8040BC9F800106F
:1006500020B94FF0FF340FF6C810AFE60D990160D6
:10066000CEE39DF842004C2807BFD9F80010CA1D00
:10067000D9F80000C21D22F00702C9F80020D2E913
:1006800000010832C9F80020CDE90201C80F02D0EC
:1006900007982D210AE0BDF84000810702D5079890
:1006A0002B2103E0C00705D50798202112AA115479
:1006B000401C079012A807994BF0200300EB010C97
:1006C000DDE90201CDE92C01612BCDF814C021AC8C
:1006D0000BD00E98002848BF062105D404BF4BF06C
:1006E0002000672801D101210E91DDE902014F00B0
:1006F00047EAD0777E15FF174FF0FF32974208BFC9
:10070000964210D1090341EA10510003002908BFA5
:10071000002808D0ABF1610503211A2D089118D3E8
:100720000FF61C1110E0DDE902014A00521512F12A
:10073000010F11D108030FD1ABF1610503211A2D6F
:1007400008911FD30FF600110322604600F008FD48
:1007500056E30FF6E801F7E7DDE902016A4600F02B
:1007600053FDCDE902014BF02000612811D105981D
:1007700030220270811C0591BBF1610F0CBF782102
:10078000582102E00FF6BC01DEE741700798801C9B
:100790000790DDE9020120F0000231F0004308BFBC
:1007A000002A02D10026002542E14BF02008B8F1D2
:1007B000610F40F092800E99002947BF21200190DF
:1007C000491C0191019FDDE92C017F1C00220023BF
:1007D000DDE9024500F050FD38BF85F00045009886
:1007E0008DF88420001F002F00900DF1850632DD6A
:1007F000204629460022002300F058FD2BD21C225F
:1008000000F06EFD04460D4600F008FEFF1F002FAD
:10081000804609DD00F01EFE02460B4620462946B2
:1008200000F0E0FE04460D46F01D0721B8F1000F70
:100830000CDD491E5EBF08F00F0200F8012D4FEAE3
:100840002818F3D502E0002200F8012D491EFAD540
:10085000C61D002FCCDC0DF18500361A01980DF174
:1008600085048642D8BF304600282FD4B04206DA2D
:100870000DF185010A5C082AA8BF0F2100DA0021CA
:10088000024621AB134400E0401E13F80159521EEA
:100890008D42F9D00F2904D10DF185018B5C5B1CD1
:1008A0008B54002A04D50099091D21AC401C0091ED
:1008B000411E0BD4621813783033DDB23A2DA4BF39
:1008C0005B443A3B491E02F80139F4D50E9A002ADE
:1008D00040F1AC80411E0E91A8E00099DFF8E826B7
:1008E00047F29750414391FBF2F20092DDE92C452B
:1008F000C2F10702002A25F0004504DD2046294602
:1009000000F03EFB0BE052420020DFF8C01600F082
:1009100037FB02460B462046294600F0D5FE04462A
:100920000D46B8F1660F06BF009F0A3706270E98DE
:100930003F18142FC8BF142730208DF884000DF104
:100940008506002F34DD2046294600F0E1FF0146F0
:100950000A4606F1080304200A26B2FBF6F606EB67
:10096000860EA2EB4E02303203F8012C0A22B6FBAF
:10097000F2F202EB820EA6EB4E063036401E03F872
:10098000026DE9D1083F002F03F10806D9DD0846C2
:1009900000F0D0FF02460B462046294600F022FE1A
:1009A0000022DFF82C3600F0D3FF04460D46CAE7DC
:1009B0000DF18500361A0DF1850404E00098401E03
:1009C000761E0090641C20783028F7D0B8F1660FAE
:1009D00002D10098401C04E0B8F1650F0CBF012063
:1009E00000200E9940188642B8BF701E00281DD402
:1009F000B04204DA215C3429C8BF392100DC30213F
:100A00000246631E9D1800E0401E15F80169521E43
:100A10008E42F9D0392902D1A15C491CA154002A87
:100A200004D50099491C1C46401C00910646009DB7
:100A30000E9F30B2002802DC01260FF210644BF04A
:100A40002000662808BF6D1C15D067280FFA85F8AE
:100A500041D118F1040F44DBB84542DA9DF840005B
:100A60006D1C010703D430B2B842D8BF074628B284
:100A70003F1A48BF00270FFA85F8B8F1000F00F3BE
:100A8000AE800898411C0891302205990A54002F25
:100A900003DC9DF84000010705D50898411C08912A
:100AA0002E2205990A5417EB080FB8BF7D422DB2CC
:100AB0006842ED1932B20B909542B8BF2E46059BA5
:100AC000089836B2099632462146184400F048FB91
:100AD000AD1B0C95CBE0BBF1610F15D14FF0700B46
:100AE00017E030B2B84204DA9DF840100A0758BF48
:100AF00007467F1E48BF0027BBF1670F14BF4FF0AA
:100B0000450B4FF0650B04E0BBF1410F08BF4FF000
:100B1000500B0898411C0891002F059914F8012BDF
:100B20000A5403DC9DF84000010719D50898411CC0
:100B300008912E2205990A54002F11DD761E30B23D
:100B40008742B8BF3E460598089B32B221461844FA
:100B500000F006FB089836B23018BF1B08900B97C0
:100B6000059808990844B8F1000F80F800B003D444
:100B70002B224270811C04E02D2141704546811CCE
:100B80006D4200202CAA0AE02B460A2593FBF5F5BE
:100B900005EB8504A3EB440302F8013B401C2DB296
:100BA000002DF1DC012806DC4BF02002652A04BF91
:100BB000302201F8012B00282CAA08D1302001F89E
:100BC000010B06E0401E135C303301F8013B0028A6
:100BD000F8DC059A08981044091A099147E030B2E8
:100BE00029B288421BDA0598089B32B22146184484
:100BF00000F0B6FA089936B271180891A8EB060011
:100C0000002F0B9003DC9DF84000020705D5059AE4
:100C10002E2050540998401C09900C9727E0059805
:100C2000089B2AB22146184400F09AFA0898761BCD
:100C30004044002F089003DC9DF840100A0704D5BB
:100C4000411C08912E2205990A5430B28742B8BF40
:100C50003E460598089B32B204EB0801184400F0A8
:100C60007FFA089836B23018BE1B08900B969DF894
:100C7000400000F01400102840F0C280079A089845
:100C80000B99821809988A1882180C980F99801865
:100C9000884280F2B580081A0A90B1E09DF84200BF
:100CA000622808D068280ED06A2814D06C281FD07B
:100CB000712810D01CE0D9F8001051F8040BC9F8C5
:100CC0000010C0B21AE0D9F8001051F8040BC9F8AE
:100CD000001080B212E0D9F80000C21D22F0070215
:100CE000C9F80020D2E900010832C9F8002006E066
:100CF000D9F8001051F8040BC9F800100021CDE913
:100D000002019DF8400002075AD5DDE902010029E1
:100D100008BF002854D04BF02002782A50D1079801
:100D200012A930230B54401C421C079201F800B05A
:100D300046E09DF84200622808D068280ED06A2854
:100D400014D06C281FD0712810D01CE0D9F80010E6
:100D500051F8040BC9F8001040B21AE0D9F800109D
:100D600051F8040BC9F8001000B212E0D9F80000E5
:100D7000C21D22F00702C9F80020D2E900010832A2
:100D8000C9F8002006E0D9F8001051F8040BC9F8A2
:100D90000010C117CDE90201002902D507982D21C5
:100DA0000AE0BDF84000810702D507982B2103E037
:100DB000C00705D50798202112AA1154401C07909E
:100DC00012A8079901440591594602A800F04EF86F
:100DD00016E001200790D9F8001051F8040BC9F86B
:100DE00000108DF848000BE001202521BBF1000F19
:100DF00007908DF8481003D0022107918DF849B073
:100E00000F9D07980A992D1A08986D1A0B992D1A9B
:100E100009986D1A0C992D1A9DF840006D1A41071A
:100E20003FF5DFAA2020002D8DF800007FF7D9AA1A
:100E3000309E2C46FFF7C9BA4FF0FF3031B0BDE805
:100E4000F08F0000CBCCCC0C686A6C747A4C00003C
:100E50007072696E74665F733A20626164202573F4
:100E600020617267756D656E740000002DE9FC4DA0
:100E700006468846376940466F2808BF082405D0D3
:100E8000FFF78AF9782814BF0A241024D6E9000154
:100E90003C2582468B46B8F1640F18BFB8F1690F44
:100EA00005D1002903D5DAF1000A6BEB4B0BBBF13E
:100EB000000F08BFBAF1000F0CD1306B50B9082CED
:100EC0003AD196F83800010736D530223B2587F80D
:100ED0003B2031E08DF800805046594622460023E1
:100EE00000F00CFE3032D0B26D1E3A2801950EDAB9
:100EF0007A55504659462246002300F0FFFD8246AF
:100F00005FEA010B08BFBAF1000F05D108E09DF8B8
:100F100000001218513AEBE7F06879198842DBD3E8
:100F2000082C09D196F83800010705D5785D3028DE
:100F300002D06D1E30207855C5F13C02306BB26195
:100F400079198242F16008DA318F821A4FF6EF7018
:100F5000014031873262BDE8F38D00280ED596F846
:100F6000380000F01400102808D1736B7069316AE2
:100F70001B1A5B1A9B1A002BC8BF3362BDE8F38DA6
:100F80002DE9D04306460F4614464FF00008DFF81F
:100F9000449012E0E00707D542464B4630463946BA
:100FA00000F0D6FC06460F464046494642464B46B0
:100FB00000F0CEFC641080468946002CEAD1304611
:100FC0003946BDE8D0830000A08601000000F03F54
:100FD00084D7974100002440F8B505460E461746D1
:100FE0001C4600205CB117F8011BB068A847B06030
:100FF00030B1F06A401CF0620020641EF3D1F2BDF3
:101000004FF0FF30F2BD00007072696E74665F735E
:101010003A20256E20646973616C6C6F776564009B
:101020007072696E74663A2062616420256E206178
:101030007267756D656E7400000000006E616E0071
:101040004E414E00696E6600494E460030000EE08B
:1010500002684368024408305FEAC37C44BF4B44E3
:101060005B1E52F804CB43F804CB091FF9D150F8AA
:10107000041B0029ECD17047C9B202788A421AB128
:101080001CBF10F8012FF9E718BF002070470000BF
:1010900080B500B906A005490B681BB122220021CA
:1010A000984701E000F042FE222002BD7C4F002064
:1010B000636F6E73747261696E742068616E646CC4
:1010C00065723A20626164206D65737361676500C3
:1010D00000F10103810704D010F8011B820781B1E0
:1010E000FAD10268A2F10131914311F0803104BFBD
:1010F00050F8042FF6E709BAB1FA81F100EBD100FC
:10110000401CC01A70470000C9B2830706D0521EA7
:1011100022D310F8013B9942F7D11FE0083A13D3CC
:1011200002F1040241EA012141EA014150F8043B85
:10113000121F21BF4B40A3F1013C2CEA030C1CF011
:10114000803FF3D0C9B2001F0832521E24BF10F8EE
:10115000013B91EA030FF8D818BF0120401E7047E9
:1011600062B38B0708D0521E11F8013B00F8013B17
:1011700000F024808B07F6D1830740F0208000BF69
:10118000103A07D330B4B1E83810103AA0E838105C
:10119000F9D230BC530724BFB1E80810A0E808100A
:1011A00044BF51F8043B40F8043BD20724BF31F858
:1011B000022B20F8022B44BF0B7803707047121FDC
:1011C00017D35B0009D151F8043B20F8023B1B0CFC
:1011D000121F20F8023BF6D20BE051F8043B00F856
:1011E000013B1B0A20F8023B1B0C121F00F8013BBD
:1011F000F3D238BF121D521E24BF11F8013B00F874
:10120000013BF8D87047000010B5144600F002F812
:10121000226010BDC1F30A5343B14A0012F5001F0A
:1012200028D2A3F2FE32A1EB0251704750EA410CE2
:1012300020D001F0004C31EA0C01B1FA81F204BF78
:10124000B0FA80F3D2180B3AB2F120032CBF00FAA7
:1012500003F1914041EA0C013EBFC2F1200C20FA9B
:101260000CF319439040524240F2FD33D21A01EB85
:10127000035170470022704741EA030C50EA4C0CBE
:1012800052EA0C0C4FF4001C09D307D01CEB410FA1
:101290009CBF1CEB430F8B4208BF824270471CEB84
:1012A000430FFBD8994208BF9042704741EA030CB4
:1012B00050EA4C0C52EA0C0C4FF4001C09D307D036
:1012C0001CEB410F9CBF1CEB430F994208BF90429F
:1012D00070471CEB410FFBD88B4208BF824270471E
:1012E000124254D440F2FF7C1CEA11530FD06345E4
:1012F00031D09B1863453CBF01EB0251704701F0B0
:10130000004141EA0C510020AFF30080704750EAE1
:10131000410320D001F0004C91EA0C011CD0B1FA3D
:1013200081F30B3B9A420DD9D21A994051EA0C0134
:10133000C3F1200C20FA0CFC61449840531C40F28D
:10134000FF7CD7E7914041EA0C01C2F1200C20FA62
:101350000CF3194390407047B0FA80F31533202BFB
:10136000E0D3202AEED3203A203B9A4209D9D21A60
:1013700000FA03F141EA0C010020531C40F2FF7C0B
:10138000B8E700FA02F141EA0C010020704752422E
:1013900040F2FF7C1CEA11530DD06345DBD0B2EB69
:1013A000030C3CBFA1EB025170470CF1010221EA92
:1013B000035141F4801150EA410CCCD001F0004CB3
:1013C000352A27DC30B481EA0C01B2F1200309DAB6
:1013D000C2F12003044601FA03F5D0402843D1406E
:1013E0009C400CE0C3F12002450020FA03F418BF32
:1013F00044F0010421FA03F091400C43002174F100
:10140000004550F1000051EB0C01244230BC7FF448
:101410007BAF70476146002076E70000C1F30A53B6
:1014200040F21E42D31A0CDDCA0283F3070342EADC
:10143000505242F00042DA4002EBE17282EAE1707F
:1014400070476FEAE17203F2E13008B182F00040C8
:101450007047000010F0004160B148BF4042B0FA50
:1014600080F29040D21CC2F5846241EA025202EB43
:10147000D021400570470000841A71EB030604D2A6
:101480006E40001BB141121973414FF4001C1CEB5C
:10149000410F34BF7CEB430683E00C0DA4EB1356E5
:1014A000362E00F37C80012E45EAC32341DC43EA5B
:1014B000525312BFD20292025B08240545EAC121B1
:1014C00041EA5051D2EBC020994125D407D1B0FA5E
:1014D00080F610FA06F162D00020203608E0B1FA5A
:1014E00081F6B140C6F1200220FA02F21143B04069
:1014F0004FEAF474B4EB465434F001064FEA740436
:101500000AD8D6F50016760D04F00044F04061FAD2
:1015100006F25040F1404840C00A40EA415021F0F4
:10152000004128BF5FEA500550F1000044EBD12193
:1015300035E0DB0A45EAC121C90AB6F120050EDD16
:1015400042EA0242120CC5F1200603FA06F6EB400D
:1015500042EA06056D42984161F100010DE062FA30
:1015600006F5F240554063FA06FC82EA0C02F340AD
:101570005A406D42904161EB030111F4801F05D187
:10158000641E620502D06D004041494121F4801182
:10159000430875F1004350F1000041EB045170BC69
:1015A00070471CEB410F15D223F0004352EA43066B
:1015B0000BD04FEA4C0CBCEB410F04D80C0D661E4F
:1015C000342EB7DDEBE7801A994150EA410608BF97
:1015D0000021E4E708BF1CEB430F28BF6FF00001B8
:1015E000DDE7000070B491EA030F4FF000457FF58E
:1015F00043AF6B40841A71EB030603D2001BB14169
:10160000121973414FF4001C1CEB410F34BF7CEBEB
:10161000430442E00C0DA4EB1356352E4FDC45EA93
:10162000C323DB0A45EAC121C912B6F120050DDD4D
:1016300063FA05F6EB4086EA0305124218BF45F04F
:101640000105C01851F100010CD213E062FA06F551
:10165000F2405540F3415A40B340F3405A4080189D
:10166000594107D349085FEA30005FEA350528BFD2
:1016700045F0010501F58011420875F1004250F175
:10168000000041EB04514E0016F5001F70BC38BF3E
:1016900070470020090D090570471CEB410F10D25F
:1016A00052EA43060BD0BCEB410F05D80C0DAB43FF
:1016B000661E342EB6DD02E0AB438018594170BC83
:1016C000704770BC70470000F0B540F2FF7581EACA
:1016D000030C0CF0004C15EA11541DBF15EA13570A
:1016E000AC42AF42E5E0BC41C1F31301C3F31303C5
:1016F000801A994143F4801304D2641E00184941B2
:1017000080185941C90241EA5051B1FBF3F603FB7D
:101710001611A2FB0675D7EBC020A94102D2761E96
:1017200080185941C90241EA5051B1FBF3FE03FB55
:101730001E11A2FB0E75D7EBC020A94103D2AEF15A
:10174000010E80185941890241EA9051760546EA16
:101750008E2EB1FBF3F603FB1611A2FB0675D7EB39
:101760008020A94102D2761E80185941C90241EA5F
:1017700050514EEA060EB1FBF3F603FB1611A2FB25
:101780000675D7EBC020A94102D2761E80185941B8
:10179000C90241EA5051B1FBF3F703FB1711A2FB59
:1017A0000735D3EBC020A94167F100070CBF004209
:1017B00047F0010766F3D5274FEA1E31B80814F544
:1017C000806412DDBD0775F1004250EB0E5051EB05
:1017D000045111F5801F5CBF41EA0C01F0BD4CF0D3
:1017E0007F6141F0E0410020F0BDBD076D0840EA97
:1017F0000E5041F48011D4F10104B4F120060ADA4C
:10180000C4F120060200E04001FA06F3E14018436B
:10181000B24015430EE0342C13DCC6F1200445EA37
:1018200040056D0820FA06F2154321FA06F0A140A2
:101830000D43002175F1004250F1000051EB0C0105
:10184000F0BD00205FEA0C01F0BDCFB992185B41FA
:10185000B3FA83F704BFB2FA82F6BF190B3FB7F1B0
:1018600020062FBF02FA06F3BB40C7F1200622FA7A
:1018700006F638BF3343BA401CB1E419641E33E79F
:101880007F4231F00041B1FA81F404BFB0FA80F632
:10189000A4190B3CB4F120062FBF00FA06F1A140B9
:1018A000C4F1200620FA06F638BF3143A0403C1BA5
:1018B0001AE7AC421ABF05EA1357AF4212E050EAEA
:1018C00041061CBF52EA4306BFE750EA41073046D3
:1018D00061461CBF41EA0551F0BD52EA430C08BF06
:1018E000C143F0BD00204FF4001616EB410F98BF26
:1018F00016EB430F08BF16EB410F24BFC14305E0B1
:1019000016EB430F0CBF61464CEA0551F0BD0000D9
:10191000400D40F21E4C40EAC120BCEB115C40F08F
:10192000004003D48CF30701C84070476FEAE170B0
:101930007047000050B1B0FA80F18840C91CC1F571
:101940008461090501EBD0214005704701467047CD
:1019500030B540F2FF7C1CEA11541DBF1CEA135540
:10196000644565453FE0641981EA030C6FF35F53FA
:101970000CF0004C43F48013C90241F0004141EAED
:10198000505EC5021100A5FB020200284FF00000C6
:10199000EEFB01204FF00001E3FB052118BF42F0F0
:1019A0000102401800214941E3FB0E01A4F58064C7
:1019B0000D0302D292184041494154F1010470DDF7
:1019C000450872F1004250F1000051EB0451A1F5BD
:1019D000801102D441EA0C0130BD40F2FF7E4CEA96
:1019E0000E51002030BD0CEA1355644518BF654503
:1019F00081EA030C0CF0004C41D050EA410E1CBFB0
:101A000052EA430E02E06146002030BD24422C44DD
:101A10001BD15FEA050EF6D0090302BF0146002084
:101A2000AEF1140EB1FA81F5AEEB050401FA05FE34
:101A30000C35C5F1200100FA05F5C8404EEA000E4C
:101A40006FF35F5343F480139CE733F00043B3FA22
:101A500083F504BFB2FA82FE75440B3D641BB5F1F9
:101A6000200E2FBF02FA0EF3AB40C5F1200E22FA72
:101A70000EFE38BF43EA0E03AA40641C7CE750EA1E
:101A8000410E14BF52EA430E6FF000014FF40015EF
:101A900015EB430F8EBF194615EB410F9DE7B4D8E8
:101AA00030BDD4F10104B4F120050FDAC4F12005F2
:101AB000520828BF42F0010210FA05FE01FA05F5AE
:101AC0007244E2BFE0402843E1400FE0352C9ADC4D
:101AD000C5F1200452EA400220FA05F218BF42F094
:101AE000010231FA05F0A1400A43002172F10042DF
:101AF00050F1000051EB0C0130BD0000BBBBE1B167
:101B0000B2F5803F80F07E80022A1ED98C46B1FB60
:101B1000F2F102FB11C31B0443EA1043B3FBF2FCD6
:101B200002FB1C3380B240EA0343B3FBF2F002FB3A
:101B3000103240EA0C4000237047022A05D984463F
:101B4000B0FBF2F002FB10C270474AB105D100F0C1
:101B5000010249085FEA3000704700220023704705
:101B600000F0E8B80B00020000210020704790420E
:101B700071EB030CF6D3B3F5803F2FD2F0B5B3FA77
:101B800083F7B1FA81F4A7F10F0E3D1B5340CEF15C
:101B9000200602FA0EF2F3415340B5F10F0746D882
:101BA0000F3C2C444140C4F12006A040F14141408B
:101BB000B1FBF3F603FB1611A2FB0645001BA9417E
:101BC00002D2761E8018594180EA010221FA0EF3F2
:101BD00062FA0EF200215A403046F0BD30B4B1FB3B
:101BE000F3FC03FB1C11A2FB0C45001BA94103D213
:101BF000ACF1010C8018594130BC02460B466046DE
:101C000000217047B2F1807F65D3F0B5B2FA82F758
:101C1000B1FA81F4C7F10F063D1B22FA06F307F172
:101C2000110EF24120355A40B5F10F07B8D94140A5
:101C3000C4F12006A040F1414140B1FBF3FC03FB9D
:101C40001C11A2FB0C45001BA94103D2BCF1010CE5
:101C5000801859410F2F12D30F3FC90341EA504159
:101C6000B1FBF3F603FB1611A2FB0645D4EBC03023
:101C7000A94102D2761E8018594146EACC3C07B3EE
:101C80004140C7F12006B840F1414140B1FBF3F6B5
:101C900003FB1611A2FB0645001BA94102D2761ECA
:101CA0008018594180EA010221FA0EF3C7F120049D
:101CB00062FA0EF20CFA07F05A402CFA04F13043A3
:101CC000F0BD80EA010221FA0EF3002162FA0EF261
:101CD00060465A40F0BD8C46B1FBF2F102FB11C3E5
:101CE0001B0243EA1063B3FBF2FC02FB1C331B0232
:101CF0004CEA002043EA1063B3FBF2FC02FB1C3306
:101D00001B024CEA002043EA1063B3FBF2FC02FB27
:101D10001C331B024CEA002043EA1063B3FBF2FCC5
:101D200002FB1C324CEA002000237047012000F027
:101D300003B8000070470000202109032631182055
:101D4000ABBEF9E710B50400002C01D101201AE068
:101D500094F83400002804D100202077200000F0FF
:101D60002FFE032084F83400200000F00DF8002836
:101D700001D0012007E00020A063002020630120A3
:101D800084F83400002010BD78B589B0040000202C
:101D90000390002004900020059000200690002071
:101DA00007907620089003A983B068461822FFF7B1
:101DB000E7F90EBC206800F09DFEDFF840530020DC
:101DC0002860206800F0B1FE01202860022001F0A8
:101DD0002BFA200000F00FFC0500002D07D0012099
:101DE00084F83400A06B2843A063012022E0200087
:101DF00000F07CFB0600002E07D0012084F83400A0
:101E0000A06B3043A063012014E04FF40071206800
:101E100000F0C5FE010000290BD0DFF8E4022268C3
:101E20009063A06B0843A063012084F83400012074
:101E300000E000200AB070BD2DE9F04186B0050039
:101E40000C0016001F00B046002C05D1A86B50F006
:101E50000060A86301209BE095F83400012840F061
:101E600096800020A863E86D17EB0801884205D230
:101E7000A86B50F00070A863012089E0032085F86A
:101E8000340000202968C8622868C16B40F22A30FB
:101E900001432868C1630FF29150296CC8630FF2A7
:101EA000D550296CC8640020296C08650020296C75
:101EB0008860286C0068016831F0C001286C806877
:101EC0000143286C006801604FF4007303FB07F3C3
:101ED0009B082200286810F18001286C01F0B8F9F5
:101EE000002812D02868C06B30F495702968C86348
:101EF000DFF80C0229688863A86B50F08040A86363
:101F0000012085F83400012042E00120DFF8D815D7
:101F10000860686C012803D04FF4007000FB08F8DB
:101F20005FF0FF3000904FF4007000FB07F001906D
:101F30009020029002200390002004900120059040
:101F40006946286800F016FE022F07D38220286316
:101F50004146286800F057FE010006E08120286312
:101F60004146286800F035FE010000290DD0DFF859
:101F700090012A689063A86B0843A863012085F844
:101F8000340000202863012002E0002000E002204D
:101F900006B0BDE8F0812DE9F84386B006000C00DC
:101FA00017009846B946002C05D1B06B50F0006080
:101FB000B06301209FE096F83400012840F09A8039
:101FC0000020B063F06D18EB0901884205D2B06BB8
:101FD00050F00070B06301208DE0032086F83400DB
:101FE00000203168C8623068C16B40F21A2001439A
:101FF0003068C1630FF22140F16BC8630FF2754086
:10200000F16BC8640020F16B0865706C012803D087
:102010004FF4007000FB09F9B8F1020F07D3A020BC
:1020200030634946306800F022FE050006E090204B
:1020300030634946306800F000FE0500002D0DD0E9
:10204000DFF8BC0031688863B06B2843B0630120BF
:1020500086F834000020306301204CE00120DFF8D6
:10206000881408604020F16B8860F06B006801689C
:1020700031F0C001F06B80680143F06B00680160D3
:102080004FF4007303FB08F39B08306810F18002E3
:102090002100F06B01F0DCF8002815D03068C16B2E
:1020A000DFF8200601403068C163DFF85400316872
:1020B0008863B06B50F08040B063012086F8340034
:1020C00000203063012016E05FF0FF3000904FF4F5
:1020D000007000FB08F00190902002900020039017
:1020E00000200490012005906946306800F042FD10
:1020F000002000E0022007B0BDE8F083A080254268
:10210000FF05400010B40200506E800F0870506E42
:10211000800E10F00F004870506E000E10F003009B
:102120008870506E000CC870506E000A0871506EB6
:102130004871906E000DC880906E000C10F00F007A
:102140000872906EC00B10F001004872906E800B08
:1021500010F001008872906E400B10F00100C87200
:10216000906E000B10F00100087300204873506C53
:1021700000283CD1906E40F6FC7313EA8003D06EC9
:1021800053EA90730B61D06EC00E10F00700087513
:10219000D06E000E10F007004875D06E400D10F0A4
:1021A00007008875D06E800C10F00700C875D06EDF
:1021B000C00B10F0070008760869401C506501202C
:1021C000536D0C7E14F00704A41C10FA04F463434E
:1021D00053650B7A13F00F0398409065506D936D23
:1021E0005B0A5843D0654FF40070106625E0506CD0
:1021F000012815D1906E000410F47C10D36E50EAC3
:10220000134008610B695B1C4FF4806043435365C6
:10221000506DD0654FF400709065906D10660CE0C5
:10222000DFF8A40413689863906B50F080509063BB
:10223000012082F8340001205CE0D06E800B10F0A9
:1022400001004876D06EC00910F07F00887692F8C1
:102250006C0010F07F00C876106FC00F0877106F09
:10226000400F10F003004877106F800E10F0070049
:102270008877106F800D10F00F00C877106F400D39
:1022800010F0010081F82000002081F82100106F7B
:10229000000C10F0010081F82200106FC00B10F04C
:1022A000010081F82300106F800B10F0010081F80D
:1022B0002400106F400B10F0010081F82500106F12
:1022C000000B10F0010081F82600106F800A10F05A
:1022D000030081F82700106F000A10F0030081F856
:1022E0002800106FC0F3460081F82900012081F812
:1022F0002A00002010BC70470200506C0860906CEF
:102300004860D06C8860106DC860506D0861906D39
:102310004861D06D8861106EC86100207047F0B5CB
:1023200089B004000E000025032084F83400606C9E
:10233000032821D0B6F5805F04D1A06B50F0805007
:10234000A0631DE0B6F5006F07D1200000F0D9F9B9
:102350000700A06B3843A06312E0002E07D12000D5
:1023600000F003FA0700A06B3843A06308E0A06BFD
:1023700050F00060A06303E0A06B50F08050A063B9
:10238000A06B002809D0DFF8400321688863012092
:1023900084F834000120050014E060680390A06810
:1023A0000490E0680590069660690790A06908901F
:1023B00003A983B068461822FEF7E2FE0EBC20682F
:1023C00000F098FB4FF40071206800F0E8FB01007A
:1023D000002908D0DFF8F00222689063A06B084360
:1023E000A06301200500012084F834002800C0B259
:1023F00009B0F0BD1CB50400002000906946200023
:1024000000F066F90100002902D0A06B0843A06328
:102410000098C0F3432016BD816B0A68D26B52F45A
:1024200080720B68DA63704770B50500AE6B306B75
:1024300082280BD1306800F034FC0400002C05D059
:10244000B06B2043B063300000F061FF3068C06AB9
:1024500030F008003168C86240F23A503168886351
:10246000012086F8340000203063300000F050FF77
:1024700070BD00002DE9F0410400A56B200000F0C4
:102480002DFF02282DD0286C406D0700E86B406DB1
:102490008046012F02D0B8F1010F1FD18A48296868
:1024A00088632868C06B30F49D702968C863A86B86
:1024B00050F08040A8632800FFF79CFF0600062E1E
:1024C00001D0052E05D1286800F0EBFBA96B08436D
:1024D000A863012085F8340000202863280000F05C
:1024E00016FFBDE8F08100008C85254278B58FB0DD
:1024F00004000120ADF80C00206800F01BFB002850
:1025000002D15FF0806074E0606C03281CD020680A
:1025100000F093FC0600002E01D0300069E000219D
:10252000206800F021FB60670421206800F01CFB9C
:10253000A0670821206800F017FBE0670C212068E5
:1025400000F012FBC4F88000606C032808D003A9D7
:10255000206800F0A0FC0600002E01D0300048E00A
:10256000606C032820D0BDF80C002065216D0904A3
:10257000206800F079FC0600002E01D0300038E021
:102580000021206800F0F0FA60660421206800F065
:10259000EBFAA0660821206800F0E6FAE0660C215C
:1025A000206800F0E1FA20670421206800F0DCFADE
:1025B000000DE06404A92000FFF7A4FD002802D06C
:1025C0005FF0805015E0226D12040023206800F0B7
:1025D00082FB0500002D01D028000AE0211D83B0F8
:1025E00068461822FEF7CCFD0EBC206800F082FA87
:1025F000002010B070BD2DE9FC41070000200090C4
:102600005FF000080026386800F080FB0500002D10
:1026100001D0280053E0386800F08FFB0400002C44
:1026200009D00020B864386800F070FB0400002C6A
:1026300003D0200043E00120B864B86C012809D120
:102640000021386800F091FB0400002C02D05FF0FC
:10265000805034E04FF6FF700099814220D2002E66
:102660001ED10021386800F080FB0500002D01D04C
:10267000280024E01549386800F091FB0400002C84
:1026800002D05FF080501AE00021386800F06CFA48
:1026900080464046C00F06000098401C0090D9E7D5
:1026A0000099814202D35FF0807008E05FEA480041
:1026B00002D50120786401E0002078640020BDE8A4
:1026C000F6810000E5FDFFFFFF054000000010C19E
:1026D00070B506000C00002C02D15FF000600FE026
:1026E000316D0904306800F0F0FB0500002D01D0C9
:1026F000280005E00021306800F036FA2060002054
:1027000070BD7CB5060008210022684600F006FE78
:102710000021306800F028FA800102D54FF40060F3
:1027200022E06946300000F054F80400002C01D08B
:10273000200019E00198400314D5316D0904306878
:1027400000F013FB0500002D01D028000CE0022151
:10275000306800F03EFB0100002901D0080003E0D2
:10276000002001E05FF0806076BD7CB506000821A6
:102770000022684600F0D2FD0021306800F0F4F934
:10278000800102D54FF4006022E06946300000F07D
:1027900020F80400002C01D0200019E00198C003AB
:1027A00014D5316D0904306800F0DFFA0500002D02
:1027B00001D028000CE00021306800F00AFB010085
:1027C000002901D0080003E0002001E05FF08060F4
:1027D00076BD2DE9F04788B006000F0000F0D2FD6D
:1027E00080465FF0000908210022684600F096FD4F
:1027F000BA460821306800F0D2F90400002C01D05C
:1028000020008AE0316D0904306800F0AEFA05005E
:10281000002D01D0280080E05FF0FF3002900820FA
:1028200003903020049002200590002006900120A3
:10283000079002A9306800F09DF9306800F0E3FAD3
:102840000400002C01D0200067E03068406B10F0DD
:102850002A0F1AD13068406B800208D5306800F02A
:1028600061F9694641F8290019F1010903E030686E
:10287000406B800409D500F085FDB0EB080010F135
:10288000010FE2D15FF0004047E03068406B000785
:1028900003D43068406B800504D508203168886314
:1028A00008203AE03068406B800704D50220316888
:1028B0008863022031E03068406B800604D5202018
:1028C00031688863202028E040F23A5031688863FC
:1028D000684641684268120212F47F0252EA0162BD
:1028E0004168090A11F47F410A43406852EA1062C4
:1028F000CAF800201AF104010098009A120212F49A
:102900007F0252EA00620098000A10F47F400243FE
:10291000009852EA10620A60002008B0BDE8F08713
:1029200080B5002000906848016851F48041016042
:10293000006810F4804000900098002000906348E8
:10294000016851F080510160006810F080500090E3
:10295000009800220F217FF0010000F07DFD01BDF5
:1029600081B001685A4A91420BD100210091594926
:102970000A6852F480520A60096811F4805100918B
:10298000009901B0704710B586B0040018210022EC
:10299000684600F0C3FC20684F4988420ED10220EF
:1029A00000904FF480700490684600F07BFD002892
:1029B00001D001F067F801204849086006B010BD59
:1029C00010B586B004001421002201A800F0A6FC76
:1029D0002068434988423FD1002000903A4801686E
:1029E00051F400610160006810F4006000900098EC
:1029F000002000903748016851F00401016001682F
:102A000011F004010091009900210091016851F03A
:102A100008010160006810F00800009000984FF471
:102A2000F8500190022002900020039003200490AF
:102A30000C20059001A92B4801F026F804200190F4
:102A40000220029000200390032004900C200590A7
:102A500001A9254801F018F806B010BD10B586B0E0
:102A600004001421002201A800F058FC20681F492E
:102A7000884226D1002000901348016851F01001CF
:102A80000160006810F01000009000980020009095
:102A90001048016851F001010160006810F0010068
:102AA000009000984FF4C060019002200290002036
:102AB0000390032004900720059001A90C4800F022
:102AC000E3FF06B010BD0000443802404038024029
:102AD0000030024030380240002800403C0E47429F
:102AE000002C014000080240000C02400010014090
:102AF000000002400EB40100002200980243019839
:102B00000243029802430398024304980243059843
:102B100002434B68DFF8FC06034013434B60002080
:102B200003B07047D0F880007047010003200860B0
:102B300000207047006810F0030070470200002377
:102B4000086890604868034388680343C868034383
:102B500008690343D068000B00031843D0600020CD
:102B600070470069C0B27047020012F114000818E3
:102B7000006870470200002308685062486890624D
:102B800088680343C86803430869034348690343EB
:102B9000D06A30F0F7001843D0620020704730B59B
:102BA00085B004000D000095102001904020029097
:102BB000002003904FF48060049069462000FFF7E6
:102BC000BDFF41F288321021200000F098F905B0D5
:102BD00030BD30B585B004000D0000951120019086
:102BE00040200290002003904FF4806004906946DA
:102BF0002000FFF7A3FF41F288321121200000F0EE
:102C00007EF905B030BD30B585B004000D000095EB
:102C10001220019040200290002003904FF4806029
:102C2000049069462000FFF789FF41F288321221A3
:102C3000200000F064F905B030BD30B585B0040067
:102C40000D00009518200190402002900020039074
:102C50004FF48060049069462000FFF76FFF41F257
:102C600088321821200000F04AF905B030BD30B597
:102C700085B004000D0000951920019040200290BD
:102C8000002003904FF48060049069462000FFF715
:102C900055FF41F288321921200000F030F905B0CB
:102CA00030BD18B585B00400002000900C200190C4
:102CB00040200290002003904FF480600490694609
:102CC0002000FFF73BFFDFF850250C21200000F02B
:102CD00016F906B010BD78B585B0060014001D00C9
:102CE00000940720019040200290002003904FF4B0
:102CF0008060049069463000FFF720FF41F288327F
:102D00000721300000F0FBF806B070BD18B585B0A3
:102D1000040000200090002001900020029000207C
:102D200003904FF48060049069462000FFF706FF8F
:102D3000200000F054FA06B010BD18B585B00400AC
:102D40004FF4D570009008200190402002900020A0
:102D500003904FF48060049069462000FFF7EEFE78
:102D6000200000F00DFA06B010BD30B585B00400AB
:102D70000D00009537200190402002900020039024
:102D80004FF48060049069462000FFF7D7FE41F2BF
:102D900088323721200000F0B2F805B030BD30B5E0
:102DA00085B004000D00DFF874042843009029204A
:102DB000019040200290002003904FF48060049026
:102DC00069462000FFF7BAFE200000F061F905B067
:102DD00030BD30B585B004000D000095062001908F
:102DE00040200290002003904FF4806004906946D8
:102DF0002000FFF7A3FE41F288320621200000F0F8
:102E00007EF805B030BD18B585B0040000200090F4
:102E10003320019040200290002003904FF4806006
:102E2000049069462000FFF789FE41F28832332181
:102E3000200000F064F806B010BD18B585B004009D
:102E40000020009002200190C020029000200390FA
:102E50004FF48060049069462000FFF76FFE200069
:102E600000F0EAF806B010BD30B585B004000D00E2
:102E7000009509200190C0200290002003904FF49B
:102E80008060049069462000FFF758FE200000F0A3
:102E9000D3F805B030BD30B585B004000D0000207A
:102EA00000900320019040200290002003904FF4F6
:102EB0008060049069462000FFF740FE2A0003214D
:102EC000200000F00AF905B030BD30B585B004002F
:102ED0000D0000950D2001904020029000200390ED
:102EE0004FF48060049069462000FFF727FE41F20E
:102EF00088320D21200000F002F805B030BD2DE928
:102F0000F04104000D001600DFF814030068C0084B
:102F10004FF47A71B0FBF1F808FB06F84046B0F1C7
:102F20000108002802D15FF0004083E0606B0700D9
:102F300017F0450FF2D03805F0D4606B400703D589
:102F40000420A063042075E0606BC00703D5012056
:102F5000A06301206EE0C520A0632000FFF701FE02
:102F60002900C9B2884201D0012063E0002120007D
:102F7000FFF7FAFD0100AB48014201D1002059E002
:102F8000002902D55FF0007054E0480001D54020D0
:102F900050E0880001D580204CE0C80002D54FF4F5
:102FA000807047E0080102D54FF4007042E048010C
:102FB00002D54FF480603DE0C80102D54FF40060B7
:102FC00038E0080202D54FF4805033E0480202D5C1
:102FD0004FF400502EE0880202D54FF4804029E0E3
:102FE000C80202D54FF4004024E0480302D55FF444
:102FF00000301FE0880302D55FF480201AE0C80388
:1030000002D55FF4002015E0080402D55FF48010BB
:1030100010E0480402D55FF400100BE0880402D5EC
:103020005FF4800006E0080702D55FF4000001E0CD
:103030005FF48030BDE8F081010079480068C00885
:103040004FF47A73B0FBF3F041F2883303FB00F3E3
:103050001800431E002802D15FF0004017E0486BC3
:10306000020012F0450FF3D01005F1D4486B400771
:1030700003D504208863042009E0486BC00703D50A
:1030800001208863012002E0C5208863002070478A
:10309000010063480068C0084FF47A73B0FBF3F096
:1030A00041F2883303FB00F31800431E002802D1CD
:1030B0005FF0004010E0486B020012F0450FF3D0C3
:1030C0001005F1D4486B400703D504208863042021
:1030D00002E0C5208863002070472DE9F04104001C
:1030E0000D0016004E480068C0084FF47A71B0FB1E
:1030F000F1F041F2883808FB00F84046B0F10108D1
:10310000002802D15FF0004038E0606B070017F044
:10311000450FF2D03805F0D4606B400703D504208A
:10312000A06304202AE0606BC00703D50120A063E0
:10313000012023E02000FFF714FD2900C9B28842D6
:1031400001D001201AE0C520A06300212000FFF774
:103150000BFD010011F4604F04D10800000C308019
:1031600000200BE0480402D54FF4005006E00804AC
:1031700002D54FF4805001E05FF48030BDE8F0816B
:10318000010027480068C0084FF47A73B0FBF3F0E1
:1031900041F2883303FB00F31800431E002802D1DC
:1031A0005FF000401AE0486B020012F0450FF3D0C8
:1031B0001005F1D4486B400703D504208863042030
:1031C0000CE0486BC00703D501208863012005E0AF
:1031D000486B400601D540208863002070470100FD
:1031E0000F480068C0084FF47A72B0FBF2F041F269
:1031F000883202FB00F21000421E002802D15FF06C
:10320000004005E0486B0006F5D5C5208863002026
:10321000704700000081FFFF00E1F505000010800D
:103220000800002008E0FFFD70B5040000F0AAF8D7
:103230000500260016F1010F02D004480078361868
:1032400000F0A0F8401BB042FAD370BD0D00002082
:103250002DE9F84304000D0016001F005FF0000880
:10326000D4F8589094F83400012801D1022033E0BA
:10327000012084F8340094F83500012825D102207B
:1032800084F83500002060653B00320029002000F2
:1032900000F026F83F21E06D8140C9F80810206851
:1032A000006850F0160021680860206C002805D0E6
:1032B0002068006850F008002168086020680068F5
:1032C00050F001002168086004E0002084F8340018
:1032D000022080464046C0B2BDE8F283406D704790
:1032E00030B40468246834F4802405682C600468D1
:1032F00063608468402C04D10468A2600468E160C3
:1033000003E00468A1600468E26030BC7047704765
:1033100010B5040000F0F3FD10BD000062F30F22B1
:1033200062F31F42401810F0030308D0C91A1FD3DC
:10333000DB0748BF00F8012D28BF20F8022D13003D
:1033400030B414461546103928BF20E93C00FAD89D
:10335000490728BF20E90C0048BF40F8042D890028
:1033600028BF20F8022D48BF00F8012D30BC70475F
:10337000C91818BF00F8012DCB0728BF00F8012D90
:103380007047000001480068704700BF284F0020C8
:1033900010B410F00703DFF8F84022684FF6FF0181
:1033A0000A4052EA0322DFF8EC100A43226010BC04
:1033B0007047DFF8DC000068C0F3022070470000AF
:1033C000010049B200290AD4012210F01F018A40ED
:1033D000DFF8C41003005BB25B0941F8232070479B
:1033E00010B4020052B2002A05D40A012B4B04008B
:1033F00064B21A5508E00A01294B040064B214F0C3
:103400000F04234403F8042C10BC704770B403006D
:1034100013F00704D4F10700052801D3042001E0CC
:10342000D4F10700251D072D01D2002500E0E51E7F
:10343000012616FA00F0401E0140A94016FA05F5D3
:103440006D1E2A401143080070BC704710B504007F
:103450002000FFF79DFF10BD2DE9F04104000D0095
:1034600016000027FFF7A5FF8046320029004046DE
:10347000FFF7CCFF0100200040B2FFF7B1FFBDE82D
:10348000F08110B50400200040B2FFF799FF10BD95
:103490000CED00E00000FA0500E100E000E400E0CF
:1034A00018ED00E02DE9F8430500002600242878F7
:1034B00010F0050F2FD0DFF840810020C8F8000081
:1034C000FFF760FF0700DFF83491D9F80000000132
:1034D00006D5FFF757FFC01B0328F4D3032088E06D
:1034E0006868A96850EA8110E96850EA0170DFF85D
:1034F000101108600120C8F80000FFF743FF060024
:10350000D9F80000000106D4FFF73CFF801B032818
:10351000F6D303206DE02878800763D50020009063
:10352000DFF8E000016851F080510160006810F0A0
:10353000805000900098DFF8D070386850F48070A8
:103540003860FFF71FFF06003868C00506D4FFF794
:1035500019FF801B0328F7D303204AE0DFF8AC7083
:10356000386810F440700400002C20D0286910F452
:10357000407084421BD0386830F440700400244806
:1035800001210160002101603C603868C0070ED550
:10359000FFF7F8FE06003868800708D4FFF7F2FE50
:1035A000801B41F289318842F5D3032021E028694C
:1035B00010F44070B0F5407F09D11648026832F42B
:1035C000F8122B69144919401143016004E01148B5
:1035D000016831F4F8110160386829690905090D9D
:1035E000084338602878000702D5287D0B49086019
:1035F0000020BDE8F2830000680047420038024026
:103600008438024040380240007000407038024068
:10361000400E474208380240FFFCFF0FE0114742CE
:1036200001B500980100C9B2002000F0ADFD4FF6D1
:10363000FF7301226946DFF8D80300F024FE0098EA
:1036400002BD80B501F07AF800F04AF800F024F9E4
:1036500000F09AF800F0A3F800F0F4F800F002F996
:1036600001F086F8DFF8AC13002000F07FFDDFF8F2
:10367000A823DFF8A813DFF8A80301F087F801F00A
:10368000C3F8DFF8A02300210FF2ED2001F006F9C6
:10369000DFF894130860DFF8942300210FF2E5208F
:1036A00001F0FCF8DFF888130860E24A00210FF20D
:1036B000ED2001F0F3F8E0490860E04A00210FF244
:1036C000FD2001F0EBF8DE490860DE4A00210FF230
:1036D0000D3001F0E3F8DC49086001F0BCF8FEE7CA
:1036E00080B592B03021002206A8FFF717FE142102
:1036F000002201A8FFF712FE00200090D3480168C5
:1037000051F080510160006810F0805000900098E6
:1037100000200090CE48016851F4404101600068EB
:1037200010F4404000900098052006905FF480302F
:1037300007900120089002200C905FF480000D900B
:1037400004200E9064200F9002201090052011900C
:1037500006A801F027FA002801D000F093F90F2005
:10376000019002200290002003904FF480500490BA
:1037700000200590032101A801F00CFC002801D0D5
:1037800000F080F913B000BD80B5B248B2490160C5
:1037900001F0E2FC002801D000F074F901BD10B581
:1037A00086B01421002201A8FFF7B8FD04210022F1
:1037B0006846FFF7B3FDA9480068012840D0A84C2F
:1037C000A8482060002060607F20A060FF20E060AB
:1037D00000202061002060610020A061200001F035
:1037E000CDFC002801D000F04DF900208DF8040038
:1037F00000208DF8050000208DF8060000200490C0
:1038000000200590012201A9200001F016FD0028EA
:1038100001D000F037F901208DF8000001208DF86B
:10382000010001208DF8020000208DF80300012224
:103830006946200001F078FD002801D000F022F94F
:1038400006B010BD8848894901600021416000210F
:1038500081600021C16000210161002141610021DE
:103860008161704780B56A48814901605FF4E13148
:103870004160002181600021C160002101610C21B3
:103880004161002181610021C16100F0BFFC00287D
:1038900001D000F0F7F801BD38B586B01421002240
:1038A00001A8FFF73BFD002000907248016851F02D
:1038B00004010160016811F00401009100990021E8
:1038C0000091016851F080010160016811F08001F0
:1038D0000091009900210091016851F001010160FF
:1038E000016811F001010091009900210091016827
:1038F00051F002010160016811F00201009100998C
:1039000000210091016851F008010160006810F089
:10391000080000900098584D00227021280000F007
:10392000C3F9564C00222121200000F0BDF970207F
:10393000019001200290002003900020049001A932
:10394000280000F0A1F82120019001200290002021
:1039500003900020049001A9200000F095F8C220F7
:103960000190002002900020039001A9200000F0A7
:103970008BF807B030BD000010B50400012000F046
:10398000FFFFFBE738B504004FF4FA7502F033F897
:1039900000902900684601F0E9FEFAE738B5040016
:1039A000322502F028F800901021334800F089F900
:1039B0002900684601F0DAFEF6E7000038B5040099
:1039C000642502F018F8009020212B4800F079F9C6
:1039D0002900684601F0CAFEF6E7000038B5040089
:1039E0004FF4FA7502F007F800904021224800F0E9
:1039F00068F92900684601F0B9FEF6E710B5040041
:103A000020681F49884201D102F0F6FA10BD00007B
:103A1000444D00202C7E0008B47E0008A87E0008DB
:103A2000D47D00084C7C00080C4F0020707C0008FE
:103A3000104F0020947C0008144F0020B87C000830
:103A4000184F0020DC7C00081C4F0020403802404A
:103A500000700040E44E0020003002403C0E47421F
:103A6000144E002000280040B84B0020002C0140DC
:103A700000100140303802400000024000040240C3
:103A80000000014072B6FEE7F8B5002400250026CC
:103A90000023102B80F0FC805FF0010C1CFA03F275
:103AA00014000A6822401500A54240F0EF800A7910
:103AB00012F00302012A04D00A7912F00302022A4A
:103AC00022D187685FF0030E1A00D2B252001EFAAC
:103AD00002FE37EA0E07D1F80CE01A00D2B252000B
:103AE0001EFA02FE5EEA0707876042681CFA03FCC2
:103AF00032EA0C02D1F804C0CCF3001C1CFA03FC1F
:103B00005CEA0202160046600A7912F00302032AF8
:103B100014D0C7685FF0030C1A00D2B252001CFA2E
:103B200002FC37EA0C07D1F808C01A00D2B25200E2
:103B30001CFA02FC5CEA07073E00C6600A7912F034
:103B40000302022A1ED11A00D20800EB8202176A71
:103B50005FF00F0C13F00702D2B292001CFA02FCC5
:103B600037EA0C07D1F810C013F00702D2B2920066
:103B70001CFA02FC5CEA07073E001A00D20800EBC0
:103B80008202166207685FF0030C1A00D2B252007C
:103B90001CFA02FC37EA0C0791F804C01CF0030C75
:103BA0001A00D2B252001CFA02FC5CEA07073E007F
:103BB00006604A6812F4403F68D000220092474AEB
:103BC000176857F480471760126812F48042009219
:103BD000009ADFF80CC11A0092085CF822705FF0BE
:103BE0000F0E13F00302D2B292001EFA02FE37EA61
:103BF0000E073C4A904201D1002614E03A4A904216
:103C000001D101260FE0394A904201D102260AE093
:103C1000374A904201D1032605E0364A904201D14D
:103C2000042600E00726F6B213F00302D2B2920097
:103C3000964037431A0092084CF822702E4E326894
:103C4000AA43D1F804C05FEACC2C00D52A433260E5
:103C50002A4F3E68AE43D1F804C05FEA8C2C00D5F1
:103C60002E433E60264F3A68AA43D1F804C05FEA6B
:103C70008C3C00D52A433A60224F3E68AE43D1F8CF
:103C800004C05FEACC3C00D52E433E605B1C00E7DD
:103C9000F1BD020010690B009BB2184201D0012057
:103CA00000E00020C0B270471300DBB2002B03D04D
:103CB0000B009BB2836103E00B009BB21B0483618A
:103CC000704710B442690B009BB213400C00A4B2C1
:103CD000944354EA0344846110BC70474438024062
:103CE0000838014000000240000402400008024081
:103CF000000C024000100240083C01400C3C014016
:103D0000043C0140003C014038B5040000F0BBFD1C
:103D1000050000F0B8FD401BA04205D202F078F982
:103D20000028F6D1002001E05FF0FF3032BD38B549
:103D30000400794D0120287002F06AF9002803D1AF
:103D4000287810F0FE002870287832BD70B5040085
:103D5000714D0120287000F06AFD02281CD102F08C
:103D600065F9002804D12000C0B2FFF7E0FF2870F9
:103D70002878012810D0694E3068002805D100222B
:103D800002210A2000F016FE30603068002803D1BE
:103D9000287850F001002870287870BD10B5040014
:103DA0002000C0B2FFF7C3FF10BD2DE9FE4F040095
:103DB0000D0016001F005FF0010947F2305B584606
:103DC000FFF7A2FF002802D54846C0B229E03A001A
:103DD0003100280002F04AF980464046C0B200286F
:103DE0001DD15B46002269464C48006800F08BFEFE
:103DF00001900198002812D1BDF8000001280ED1D1
:103E000000F041FD824600F03EFDB0EB0A0058454F
:103E100005D202F0FDF80028F5D100208146484681
:103E2000C0B2BDE8FE8F2DE9F84F05000E00170067
:103E300098465FF0010947F2305B5846FFF764FF90
:103E4000002802D54846C0B225E04246390030007D
:103E500002F020F900281CD15B46002269462F4859
:103E6000006800F050FE0400002C12D1BDF80000E4
:103E700002280ED100F007FD824600F004FDB0EBF1
:103E80000A00584505D202F0C3F80028F5D10020F9
:103E900081464846C0B2BDE8F28FF8B588B004004C
:103EA0000D00160001271C480078C00701D503202B
:103EB00023E02800C0B2002805D002280CD004D38B
:103EC000032810D017E0002016E0684602F0F6F84C
:103ED0000698306000200FE0684602F0EFF807987F
:103EE0003080002008E0684602F0E8F80798400AB1
:103EF0003060002000E00420C0B209B0F0BD80B501
:103F00000120ADF800000023002269460348006844
:103F100000F0ABFD01BD00000C000020244F00208C
:103F2000F8B5DFF8D442A825002627003200290082
:103F30003800FFF7F3F90320206103206061DFF808
:103F4000BC02A061DFF8B812E1614FF48061216228
:103F50000021A162002161620021E1622066DFF898
:103F6000A40260661020A066002020670020E066A2
:103F700000206067BFF35F8F0020102807D2DFF8B2
:103F8000881242421144C97B2154401CF5E7BFF31B
:103F90005F8FF1BD2DE9FE4F05000E0014005FF0AC
:103FA0000008D5F80CA028698146CA4503D2B9EBB0
:103FB0000A00401E05E0A868B0EB0A0019EB0000FB
:103FC000401EA968B1EB0A01884201D2070002E055
:103FD000AF68B7EB0A07A74200D3270068685044D0
:103FE000009002970196DDF800B0029A01995846B8
:103FF000FDF7B6F817EB08083E44E41B17EB0A0A76
:10400000A868824501D100208246BFF35F8FC5F8C2
:104010000CA0002CC7D14046BDE8FE8F2DE9F84F1B
:1040200084B004000D001600E768D4F80880B8EBEF
:10403000070846450FD2606800EB07090196AA46BB
:10404000CB46019A51465846FDF78AF8BFF35F8F79
:10405000F019E06021E0CDF80080606838440190FC
:10406000009803900295DDF80490039A029948465F
:10407000FDF776F8B6EB08000090D4F804900098AD
:10408000019005EB080ACB46019A51465846FDF7C8
:1040900067F8BFF35F8F0098E06005B0BDE8F08F70
:1040A00001000A69CB68934204D38868401EC01A95
:1040B000101801E0D01A401E70472DE9F0470400A7
:1040C0000D001600A946DFF83001182101FB04F1AC
:1040D000084410F1180ADAF81400002803D0022866
:1040E0001FD00FD324E05046FFF7DAFF8046B045DB
:1040F00001D2002705E03700320049465046FFF75D
:104100008DFF16E05046FFF7CBFF8046B04501D249
:10411000474600E037003A0049465046FFF77EFF29
:1041200007E0320049465046FFF734FF070000E041
:1041300000273800BDE8F0872DE9F04104000D00AC
:104140001600DFF8B4703878002801D1FFF7E8FED8
:10415000EFF31188202080F311883200290020001D
:10416000FFF7ABFF88F31188BDE8F08170B504005C
:104170000D002800FCF7ACFF0600320029002000EB
:10418000FFF7DAFF70BD00002DE9F04104000D00DB
:10419000DFF86470B84698F80000002801D1FFF7F6
:1041A000BFFEEFF31181202080F31188182000FB5F
:1041B00004F0384410F11802D3685B1C9068834205
:1041C00001D1002003005069022802D11069834206
:1041D000FCD01069834209D05068D7683844060083
:1041E0003570BFF35F8FD360012000E0002081F3C2
:1041F0001188BDE8F0810000704A0020C07E0008F0
:1042000070440020C04E0020187E000810B5040045
:10421000002C01D1012035E0A0690028FFD194F8DD
:104220004100002805D1002084F840002000FEF75E
:1042300015FC242084F841002068C06830F4005048
:104240002168C860200000F0FAF82068006930F4A6
:104250009040216808612068406930F02A00216898
:1042600048612068C06850F400502168C860002090
:104270006064202084F84100202084F8420000205F
:104280006063002010BD2DE9FC4706000D001700FB
:104290009846002496F84100202857D1002D03D0DD
:1042A000380080B2002801D1012050E00020706465
:1042B000212086F84100FFF765F88146B784F7842E
:1042C000B068B0F5805F05D13069002802D10024C4
:1042D000AA4602E02C005FF0000AF08C002821D0F2
:1042E000CDF800804B4600228021300000F031F8EC
:1042F000002804D0202086F84100032027E0002C6D
:1043000008D1BAF80000C005C00D316848601AF144
:10431000020A03E0207831684860641CF08C401E7B
:10432000F084DAE7CDF800804B46002240213000CF
:1043300000F00FF8002804D0202086F84100032068
:1043400005E0202086F84100002000E00220BDE8C2
:10435000F6872DE9FC4105000E0017009846089CE1
:10436000286800683040B04201D1012000E0002000
:104370003900C9B288422BD114F1010FF0D0FFF7F8
:1043800001F8B0EB0800844201D3002C01D10320D6
:104390001FE02868C0684007E2D5802EE0D0402E9C
:1043A000DED0286800680007DAD500200090286871
:1043B000006800902868406800900098280000F08D
:1043C0000AF808206864002085F84000012000E019
:1043D0000020BDE8F68101680C3151E8001F31F47E
:1043E00090710A00016811F10C0343E800210029D3
:1043F000F1D10168143151E8001F490849000A0051
:10440000016811F1140343E800210029F1D1016B87
:1044100001290DD101680C3151E8001F31F0100164
:104420000A00016811F10C0343E800210029F1D1D1
:10443000202180F8421000210163704700002DE91F
:10444000F84F84B005002868016931F44051E868EC
:10445000014328680161A96828690143686901432B
:10446000E869014303912868C168B1480140039895
:1044700001432868C1602868416931F44071A86926
:104480000143286841612868AA49884203D0286806
:10449000A949884203D100F02BFE040002E000F09D
:1044A0001CFE0400E869B0F5004F40F09F807FF0EB
:1044B000630A5FF002085FF0000919260027220056
:1044C0000023A6FB020106FB031107FB0211CDE945
:1044D000000168680021A8FB002308FB013309FBE9
:1044E0000033DDE90001FDF709FB6421B0FBF1F0C9
:1044F000009022000023A6FB020106FB031107FB2C
:104500000211CDE9010168680021A8FB002308FB26
:10451000013309FB0033DDE90101FDF7EFFA8346C2
:1045200022000023A6FB020106FB031107FB021178
:10453000CDE9010168680021A8FB002308FB0133D5
:1045400009FB0033DDE90101FDF7D8FA6421B0FB76
:10455000F1F00AFB00B0C00032306421B0FBF1F092
:10456000400010F4F870009910EB01100090220048
:104570000023A6FB020106FB031107FB0211CDE994
:10458000010168680021A8FB002308FB013309FB37
:104590000033DDE90101FDF7B1FA83462200002373
:1045A000A6FB020106FB031107FB021106000F0028
:1045B00068680021A8FB002308FB013309FB0033D6
:1045C00030003900FDF79AFA6421B0FBF1F00AFBE4
:1045D00000BA5FEACA0032306421B0FBF1F111F099
:1045E000070100980918286881609CE05FF00408C2
:1045F0005FF000097FF0630A1926002722000023DC
:10460000A6FB020106FB031107FB0211CDE9000125
:1046100068680021A8FB002308FB013309FB003375
:10462000DDE90001FDF76AFA6421B0FBF1F00090CA
:1046300022000023A6FB020106FB031107FB021167
:10464000CDE9010168680021A8FB002308FB0133C4
:1046500009FB0033DDE90101FDF750FA8346220032
:104660000023A6FB020106FB031107FB0211CDE9A3
:10467000010168680021A8FB002308FB013309FB46
:104680000033DDE90101FDF739FA6421B0FBF1F0F7
:104690000AFB00B0000132306421B0FBF1F010F0F1
:1046A000F000009910EB0110009022000023A6FBFF
:1046B000020106FB031107FB0211CDE90101686845
:1046C0000021A8FB002308FB013309FB0033DDE9CF
:1046D0000101FDF713FA834622000023A6FB020125
:1046E00006FB031107FB021106000F00686800219A
:1046F000A8FB002308FB013309FB0033300039001D
:10470000FDF7FCF96421B0FBF1F00AFB00BA5FEAA7
:104710000A1032306421B0FBF1F111F00F01009862
:1047200009182868816005B0BDE8F08F000000001E
:10473000F369FFFF001001400014014080B50B48F1
:10474000016851F400710160016851F480610160F9
:10475000016851F4807101600320FEF777FE0020AC
:1047600001F0B6FCFEF7DCF8002002BD003C024080
:1047700080B50349034801F02FFD0349087001BDCE
:10478000F04E0020047E0008804F00200EB41EB5BD
:10479000024605A801900024009401AB01210448C1
:1047A00078440C30FBF7FBFC03B010BC5DF810FB49
:1047B0003D36000010B4020052B2002A06D40A01AD
:1047C000DFF8E031040064B21A5509E00A01DFF8AD
:1047D000D831040064B214F00F04234403F8042C0D
:1047E00010BC704780B5DFF8C401006801F049FBD8
:1047F000012801D001F0BCFD01BD80B500217FF092
:104800000400FFF7D7FF01BDEFF30580002802D0B9
:104810007FF005000AE0DFF898110868002803D14E
:1048200001200860002001E05FF0FF30704780B594
:1048300001F027FB002803D0022803D1022009E061
:10484000032007E0DFF868010068012801D101209A
:1048500000E0002002BD10B5EFF30580002802D073
:104860007FF005000EE0DFF848412068012807D1FD
:10487000FFF7C3FF0220206000F0F6FF002001E0F8
:104880005FF0FF3010BD80B5EFF30580002802D047
:1048900001F0B5F801E001F0AEF802BD2DE9FF47E7
:1048A00007008846140000200390EFF305800028DD
:1048B00062D1380000285FD0802082461820050091
:1048C000002081465FF0FF300600002C33D02068C6
:1048D000002801D020688146A069002801D0A06985
:1048E0000500002D04D0392D02D22079C00701D552
:1048F000002042E06069002802D06069800882469A
:10490000A06800280BD0E0685C2808D32069002844
:1049100005D06069002802D0012006000DE0A068E3
:1049200000280AD1E068002807D12069002804D1B6
:104930000020060001E000200600012E0CD1A06836
:10494000029020690190009543465246494638003E
:1049500000F0C4FD03900FE0002E0DD103A80190DC
:1049600000954346524692B24946380000F003FE95
:10497000012801D000200390039804B0BDE8F0871F
:1049800038B50400EFF30580002802D07FF005055C
:1049900005E00025002C02D0200000F03EFF28009A
:1049A00032BD000000E400E018ED00E010E000E09F
:1049B000EC4E00202DE9F84305000E0014000027FE
:1049C000EFF3058000284DD1002D4BD0002E49D0AB
:1049D0005FF0FF308046002C1FD0A06800280DD06B
:1049E000E06850280AD32069002807D0606906FBD8
:1049F00005F1884202D30120804610E0A06800281B
:104A00000DD1E06800280AD12069002807D160692B
:104A1000002804D10020804601E000208046B8F143
:104A2000010F09D100200090A368226931002800FD
:104A300001F03CFD070008E0B8F1000F05D10022AD
:104A40003100280001F093FD0700002F0AD0002C50
:104A500002D02068814601E00020814649463800A6
:104A600002F0DBF83800BDE8F2832DE9F8430700D7
:104A70000C0090461D003E005FF00009EFF305803A
:104A8000002824D0002E03D0002C01D0002D03D00C
:104A90007FF00300814633E00020009000236A4647
:104AA0002100300001F07AFE012803D07FF00200DF
:104AB000814625E00098002822D05FF08050DFF882
:104AC000E0100860BFF34F8FBFF36F8F18E0002E28
:104AD00001D0002C03D17FF00300814610E00023B9
:104AE0002A002100300001F086FD012808D0002DA9
:104AF00003D07FF00100814602E07FF00200814692
:104B00004846BDE8F2832DE9F84307000C009046C3
:104B10001D003E005FF00009EFF30580002823D060
:104B2000002E03D0002C01D0002D03D07FF0030015
:104B3000814631E0002000906A462100300001F0FB
:104B400057FF012803D07FF00200814624E000983F
:104B5000002821D05FF08050DFF844100860BFF3D8
:104B60004F8FBFF36F8F17E0002E01D0002C03D1C1
:104B70007FF0030081460FE02A002100300001F0A1
:104B80007FFE012808D0002D03D07FF00100814670
:104B900002E07FF0020081464846BDE8F283000053
:104BA00004ED00E02DE9F8430400002C01D10120C0
:104BB000DAE12078C0075FD5DFF8B003016811F0B3
:104BC0000C01042909D0006810F00C0008280ED14F
:104BD000DFF89C030068400209D5DFF898030068FD
:104BE000800349D56068002846D10120BCE1606897
:104BF000B0F5803F06D1DFF87C03016851F48031C5
:104C0000016018E06068B0F5A02F0AD1DFF86403F6
:104C1000016851F480210160016851F48031016024
:104C200009E0DFF85003016831F480310160016868
:104C300031F480210160606800280ED0FEF7A2FBED
:104C40000500DFF830030068800315D4FEF79AFBF7
:104C5000401B6528F5D3032086E1FEF793FB050092
:104C6000DFF810030068800306D5FEF78BFB401BBE
:104C70006528F5D3032077E1207880074CD5DFF84D
:104C8000EC02016811F00C0F08D0006810F00C0065
:104C9000082814D1B6480068400210D4B54801680D
:104CA000890704D5E168012901D001205CE1016890
:104CB00031F0F801226951EAC20101602CE0E0689C
:104CC000002818D00120AC490860FEF75BFB050006
:104CD000A8480168890706D4FEF754FB401B032847
:104CE000F6D3032040E1016831F0F801226951EA6E
:104CF000C201016010E000209F490860FEF742FBFE
:104D000005009C480068800706D5FEF73BFB401B6A
:104D10000328F6D3032027E12078000724D5606913
:104D2000002810D0012095490860FEF72BFB0500F4
:104D300093480068800717D4FEF724FB401B032824
:104D4000F6D3032010E100208C490860FEF71AFB1F
:104D500005008B480068800706D5FEF713FB401B53
:104D60000328F6D30320FFE0207840077CD50027F6
:104D7000DFF81082D8F80000C0000FD400200090A7
:104D8000D8F8000050F08050C8F80000D8F80000B3
:104D900010F080500090009801200700DFF8E891A3
:104DA000D9F80000C00513D4D9F8000050F4807081
:104DB000C9F80000FEF7E6FA0500D9F80000C005C2
:104DC00006D4FEF7DFFA401B0328F6D30320CBE01E
:104DD000A068012805D16D48016851F0010101600A
:104DE00015E0A068052809D16848016851F0040160
:104DF0000160016851F00101016008E06348016849
:104E0000490849000160016831F004010160A068AF
:104E100000280FD0FEF7B6FA05005C48006880074E
:104E200018D4FEF7AFFA401B41F289318842F4D31F
:104E3000032099E0FEF7A6FA0500544800688007B1
:104E400008D5FEF79FFA401B41F289318842F4D31E
:104E5000032089E03800C0B2012805D1D8F800004D
:104E600030F08050C8F80000A06900287BD03F488F
:104E7000006810F00C00082849D0A069022835D13C
:104E8000DFF80C910020C9F80000FEF77BFA07005C
:104E9000DFF8E080D8F80000800106D5FEF772FA4E
:104EA000C01B0328F4D303205EE0E169206A0143BC
:104EB000606A51EA8011A06A4008401E51EA004130
:104EC000E06A51EA00612A4801600120C9F8000047
:104ED000FEF758FA0500D8F80000800143D4FEF729
:104EE00051FA401B0328F6D303203DE00020284957
:104EF0000860FEF747FA05001E480068800132D5B9
:104F0000FEF740FA401B0328F6D303202CE0A069EB
:104F1000012801D1012027E0154800680600A0699A
:104F200001281ED016F48000E169884219D116F0DC
:104F30003F00216A884214D147F6C0703040616A50
:104F4000B0EB811F0DD116F44030A16A4908491E0B
:104F5000B0EB014F05D116F07060E16AB0EB016F64
:104F600001D0012000E00020BDE8F28308380240B3
:104F7000043802400038024000004742800E474299
:104F800074380240403802400070004070380240DF
:104F9000600047422DE9F04104000D00002C01D1D2
:104FA000012095E0654F386810F00700A84207D24D
:104FB0003D70386810F00700A84201D0012087E05A
:104FC0002078800716D52078400704D55C48016812
:104FD00051F4E05101602078000704D55848016879
:104FE00051F46041016056490A6832F0F002A0684D
:104FF00002430A602078C00738D56068012805D1CF
:1050000050480068800313D4012061E060680228E2
:1050100002D06068032805D14A480068800107D49F
:10502000012055E047480068800701D401204FE087
:10503000DFF80C81D8F80010890889006068014306
:10504000C8F80010FEF79EF90600D8F8000010F02E
:105050000C006168B0EB810F08D0FEF793F9801B5C
:1050600041F289318842F0D3032031E0386810F0F2
:105070000700854207D23D70386810F00700A8424B
:1050800001D0012024E02078400706D52C490A6889
:1050900032F4E052E06802430A602078000707D546
:1050A0002748016831F46041226951EAC201016078
:1050B00001F0EEFD2449224A1268C2F30312895C12
:1050C000C840224908602248006801F001F8002029
:1050D000BDE8F0811D480068704780B5FFF7FAFF12
:1050E0001C49174A1268C2F38222895CC84002BD7B
:1050F00080B5FFF7EFFF1749114A1268C2F3423239
:10510000895CC84002BD0F2202600D4A136813F08B
:1051100003034360136813F0F0038360136813F410
:10512000E053C3601268D20812F4E0520261034AED
:10513000126812F007020A6070470000003C02404B
:1051400008380240003802403C7E00080800002079
:1051500004000020CC7E000810B50400002C01D112
:1051600001200AE06079002804D10020207120008D
:10517000FDF7F6FB01206071002010BD38B504007A
:10518000002C01D1012057E0607F002804D10020CD
:1051900020772000FDF7F7FB022060772068C068C9
:1051A000C00640D4CA202168486253202168486262
:1051B000200000F045F905002800C0B200281ED1EB
:1051C00020688168DFF868020140206881602068FB
:1051D0008168606801432069014360690143206878
:1051E0008160E0682168086120680069A16850EA70
:1051F000014021680861200000F04AF905002800FC
:10520000C0B200280BD12068006C30F480202168E7
:1052100008642068016CA069014320680164FF20D4
:105220002168486200E000252800C0B2002801D1B2
:10523000012060772800C0B232BD2DE9F04705009B
:105240000E0014005FF00008287F012801D1022021
:1052500068E00120287702206877002C20D1286898
:105260008068400601D40020F070307800F029F901
:105270008146707800F025F98246B07800F021F977
:1052800007005FFA89F95FFA8AFA5FEA0A2A5AEA9E
:10529000094AFFB257EA0A07F07857EA80570FE049
:1052A00028688068400601D40020F070317870785A
:1052B000000250EA0140B7780743F07857EA805778
:1052C000CA2029684862532029684862280000F0F3
:1052D000B7F880464046C0B2002816D1DFF8540126
:1052E0003840296808602868806830F48020296880
:1052F000886028688168F068014330690143286844
:105300008160280000F0C4F880464046C0B2002802
:1053100001D101206877FF202968486200202877A2
:105320004046C0B2BDE8F0872DE9F04705000E0009
:1053300014000027287F012801D102205CE0012011
:10534000287702206877002C07D17078C00604D532
:10535000707810F0EF000A307070002C1BD1F078DC
:1053600000F0AFF88146707800F0ABF88246B07874
:1053700000F0A7F880465FFA89F95FFA8AFA5FEAD7
:105380000A2A5AEA094A5FFA88F858EA0A0830787D
:1053900058EA40380BE0F1787078000250EA01409A
:1053A00096F8028058EA0008307858EA4038CA2057
:1053B00029684862532029684862280000F040F8B4
:1053C00007003800C0B2002809D1DFF86C0010EAED
:1053D000080029684860280000F05AF807003800E3
:1053E000C0B2002801D101206877FF2029684862F7
:1053F000002028773800C0B2BDE8F08770B50400FF
:1054000000250E482168C860FDF7BCFF0600206833
:10541000C068800608D4FDF7B5FF801B40F2E93173
:105420008842F4D3032000E0002070BD000000009B
:10543000BFFF8FFF7F7F7F003FFFFF005F3F0100C7
:1054400070B50400002500262068C06840061CD402
:105450002068C06850F080002168C860FDF792FFA6
:1054600005002068C06840060FD43000C0B2012893
:105470000BD0FDF787FF401B40F2E9318842F0D3A3
:105480000420607701200600EBE73000C0B270BD59
:1054900038B5040000252068C06830F0800021681D
:1054A000C86020688068800608D42000FFF7A6FF47
:1054B000002803D004206077012005002800C0B236
:1054C00032BD00210200D2B20A2A02D3491C0A3896
:1054D000F8E750EA0110C0B2704700002DE9F84724
:1054E00085B006000F00904699460F9C109D002C39
:1054F00007D1502080F31188BFF34F8FBFF36F8F18
:10550000FEE7002D07D1502080F31188BFF34F8FA5
:10551000BFF36F8FFEE75C20009000985C2807D0F7
:10552000502080F31188BFF34F8FBFF36F8FFEE7DA
:105530000098002D19D0002C17D0AA46CAF8304088
:1055400002208AF8590000200390CDF808A004A892
:1055500001900E9800904B4642463900300000F012
:1055600043F8504600F0B3F801E00020049004989E
:1055700006B0BDE8F0872DE9F84384B006000F00BF
:1055800090469946404680B2800001F0CFFB05006E
:10559000002D0BD05C2001F0C9FB0400002C01D0D1
:1055A000256304E0280001F056FC00E00024002CF4
:1055B00015D0002084F859000020039002940D9823
:1055C00001900C9800904B46424692B23900300050
:1055D00000F00AF8200000F07AF8012001E05FF006
:1055E000FF3005B0BDE8F0832DE9F94F81B00C0024
:1055F00016000C9F0D9DDDF83880B00000905FF024
:10560000A50BD8F830905A4600994846FDF786FE1B
:10561000D8F8300000EB8600B0F104095FEAD90940
:105620005FEAC90919F00700002807D0502080F36D
:105630001188BFF34F8FBFF36F8FFEE7002C15D09B
:1056400000208246BAF1100F0CD214F80A0008EBC1
:105650000A0181F8340014F80A00002802D01AF177
:10566000010AEFE7002088F8430002E0002088F8F4
:105670003400382F01D337200700C8F82C70C8F841
:105680004C700020C8F8500018F1040001F0A5FC8F
:1056900018F1180001F0A1FCC8F81080D7F138000B
:1056A000C8F81800C8F824800020C8F8540000206A
:1056B00088F85800029A0199484600F099FDC8F808
:1056C0000000002D01D0C5F80080BDE8F78F38B587
:1056D000040000F01DFEDFF8E8140868401C0860B4
:1056E000DFF8E0542868002806D12C6008680128FB
:1056F0000DD100F045FB0AE0DFF8CC04006800287B
:1057000005D1E06A2968C96A884200D32C60DFF8B5
:10571000BC040168491C016000686064DFF8B004E3
:105720000168E26A914201D2E16A0160211DDFF85D
:10573000A424E36A1420434302EB030001F050FC6D
:1057400000F000FEDFF88004006800280DD0286813
:10575000C06AE16A884208D25FF08050DFF85815CD
:105760000860BFF34F8FBFF36F8F31BD2DE9F0415C
:1057700004000D000026002C07D1502080F3118872
:10578000BFF34F8FBFF36F8FFEE7002D07D150207F
:1057900080F31188BFF34F8FBFF36F8FFEE7DFF801
:1057A000FC040068002807D0502080F31188BFF364
:1057B0004F8FBFF36F8FFEE700F0A3F8DFF8E00430
:1057C000D0F800802768EF192068804507D220684C
:1057D00087420BD2B84509D20120060006E02068B6
:1057E000874201D3B84501D2012006002760002E70
:1057F00004D00021B7EB080000F0B0FB00F087F800
:10580000002808D15FF08051DFF8AC241160BFF3AD
:105810004F8FBFF36F8FBDE8F08138B504000025CE
:10582000002C15D0DFF874040068002807D0502041
:1058300080F31188BFF34F8FBFF36F8FFEE700F047
:1058400060F80021200000F089FB00F060F80500FE
:10585000002D08D15FF08050DFF85C140860BFF3C2
:105860004F8FBFF36F8F31BD10B586B0002004900D
:105870000020039005AA03A904A801F0EDFBDFF8BE
:10588000B4460498029003980190002000900023F1
:10589000059ADFF8A4160FF2C540FFF71FFE20603F
:1058A0002068002801D0012400E00024012C02D14E
:1058B00001F0DEFB0400012C16D1502080F311888A
:1058C000BFF34F8FBFF36F8F5FF0FF30DFF86C16C1
:1058D00008600120DFF8F01208600020DFF8C01334
:1058E000086000F0AEFC0AE014F1010F07D150206F
:1058F00080F31188BFF34F8FBFF36F8FFEE706B0C1
:1059000010BDDFF898030168491C01607047F8B5C5
:1059100000250026DFF884432068002807D15020A6
:1059200080F31188BFF34F8FBFF36F8FFEE700F056
:10593000EFFC2068401E20602068002857D1DFF867
:1059400080020068002852D0DFF8E41508680028BB
:1059500027D0C868C068050015F1180001F067FB82
:10596000281D01F064FBDFF868020168EA6A9142D1
:1059700001D2E96A0160291DDFF85822EB6A142080
:10598000434302EB030001F02BFBE86ADFF834121B
:105990000968C96A8842D7D30120DFF8A4150860D6
:1059A000D2E7002D01D000F059FADFF898753C6875
:1059B000002C0CD000F02BF8002803D00120DFF8D9
:1059C00080150860641E002CF4D100203860DFF8D8
:1059D0007005006800280AD0012006005FF08050A2
:1059E000DFF8D4120860BFF34F8FBFF36F8F00F062
:1059F000A9FC3000F2BDDFF8A8020068704780B54E
:105A000000F0CAFC0021DFF89802006802BD2DE911
:105A1000F0410027A1480068002875D1DFF8800216
:105A20000468641C0460002C1CD1DFF8281308688B
:105A30000068002807D0502080F31188BFF34F8FF3
:105A4000BFF36F8FFEE7D1F80080DFF80C03026828
:105A50000A60C0F80080DFF8F0040168491C0160AA
:105A600000F0FCF9DFF8D484D8F80000844238D381
:105A7000DFF8E01208680068002804D15FF0FF300A
:105A8000C8F800002DE00868C068C06805006868B4
:105A90000600B44202D2C8F8006022E0281D01F0DE
:105AA000C6FAA86A002803D015F1180001F0BFFA61
:105AB00047480168EA6A914201D2E96A0160291DFA
:105AC000444AEB6A1420434302EB030001F088FAD6
:105AD000E86A3C490968C96A8842C9D301200700BD
